:020000040800F2
:1000000028090020290200088F1400081514000890
:100010008D14000841050008391800080000000090
:100020000000000000000000000000009314000821
:10003000450600080000000091140008A5140008FF
:10004000430200084302000843020008430200087C
:10005000430200084302000843020008430200086C
:10006000430200084302000843020008430200085C
:10007000430200084302000843020008430200084C
:10008000430200084302000843020008430200083C
:10009000430200084302000843020008430200082C
:1000A000430200084302000843020008430200081C
:1000B000430200084302000843020008430200080C
:1000C00043020008430200084302000843020008FC
:1000D000430200082D1800084302000843020008EC
:1000E00043020008430200084302000843020008DC
:1000F00043020008430200084302000843020008CC
:1001000043020008430200084302000843020008BB
:1001100043020008430200084302000843020008AB
:10012000430200084302000843020008430200089B
:10013000430200084302000843020008430200088B
:10014000430200084302000843020008430200087B
:10015000430200084302000843020008430200086B
:10016000430200084302000843020008430200085B
:100170004302000843020008430200080000000098
:10018000430200084302000800F002F800F03CF8C7
:100190000AA090E8000C82448344AAF10107DA45E2
:1001A00001D100F031F8AFF2090EBAE80F0013F0F8
:1001B000010F18BFFB1A43F001031847741C00001D
:1001C000941C0000103A24BF78C878C1FAD85207AE
:1001D00024BF30C830C144BF04680C6070470000C1
:1001E0000023002400250026103A28BF78C1FBD840
:1001F000520728BF30C148BF0B6070471FB501F0E0
:1002000005FD1FBD10B510BD00F046F91146FFF702
:10021000F5FF01F07BFC00F064F903B4FFF7F2FF97
:1002200003BC00F06BF9000009488047094800470B
:10023000FEE7FEE7FEE7FEE7FEE7FEE7FEE7FEE796
:10024000FEE7FEE704480549054A064B70470000F3
:100250003D15000889010008280300202809002016
:10026000280500202805002053EA020C00F06980D0
:100270002DE9F04B4FF00006002B1FBFB3FA83F5BA
:1002800003FA05F424FA05F65E4012BF1643B2FAEB
:1002900082F502FA05F4C5F120051EBF22FA05FC1D
:1002A00044EA0C04203556EA044C4FEA144418BFC3
:1002B000641C4FF000084FF00009904271EB030CF2
:1002C00039D3002919BFB1FA81F701FA07F6B0FA5C
:1002D00080F700FA07F6C7F120071EBF20FA07FCD7
:1002E00046EA0C062037B6FBF4FCA7EB0507103FE7
:1002F00007F01F0BCBF120060CFA0BFB2CFA06F6CD
:1003000044BFB3460026202FA4BF5E464FF0000B2B
:100310005BEA060C08BF4FF0010B19EB0B09ABFBB6
:10032000027C48EB0608C01B06FB02CC0BFB03CC8F
:1003300071EB0C01C1E70B46024641464846BDE859
:10034000F08B13B54FF000004FF00001AFF30080C9
:10035000BDE81C407047032A40F2308010F0030CC7
:1003600000F0158011F8013BBCF1020F624498BF08
:1003700011F801CB00F8013B38BF11F8013BA2F1A5
:10038000040298BF00F801CB38BF00F8013B11F020
:10039000030300F04F80083AC0F0088051F8043B96
:1003A000083A51F804CBA0E80810F5E7121D5CBF2D
:1003B00051F8043B40F8043BAFF30080D20724BF60
:1003C00011F8013B11F801CB48BF11F8012B24BFF4
:1003D00000F8013B00F801CB48BF00F8012B704743
:1003E0004FF0000200B5134694469646203922BFCE
:1003F000A0E80C50A0E80C50B1F12001BFF4F7AF19
:10040000090728BFA0E80C5048BF0CC05DF804EBFA
:10041000890028BF40F8042B08BF704748BF20F868
:10042000022B11F0804F18BF00F8012B7047704766
:100430007047704710B5203AC0F00B80B1E81850F3
:10044000203AA0E81850B1E81850A0E81850BFF4BE
:10045000F5AF5FEA027C24BFB1E81850A0E818505D
:1004600044BF18C918C0BDE810405FEA827C24BFB1
:1004700051F8043B40F8043B08BF7047D20728BF3F
:1004800031F8023B48BF11F8012B28BF20F8023B8E
:1004900048BF00F8012B7047754600F02BF8AE46B8
:1004A00005006946534620F00700854618B020B580
:1004B000FFF7C8FEBDE820404FF000064FF00007F0
:1004C0004FF000084FF0000B21F00701AC46ACE8FC
:1004D000C009ACE8C009ACE8C009ACE8C0098D4669
:1004E000704710B50446AFF300802046BDE81040C9
:1004F000FFF793BE00487047C8020020014918204A
:10050000ABBEFEE726000200704700002DE9F04177
:1005100000260A4D374602246F700321342001F073
:100520009BF9642000F0ECF86878002804D1641E80
:10053000F2D1761C092EEEDBBDE8F0811000002020
:10054000FEE7000010B50023104A15E0362809D058
:1005500039280BD03C2812D054783F2813D044F0CF
:10056000800406E0547844F0010402E0547844F03A
:100570000204401C54705B1C8B42E7D310BD5478BE
:1005800044F00804F5E744F00404F2E7100000200A
:100590002DE9F04700270425DFF8A080DFF8A090C0
:1005A00050383E4601F1060A102845D2DFE800F037
:1005B0001108130C1517191B1D1F21444444442313
:1005C00034240325402702E03D2403252E2701265D
:1005D00013E0302411E037242BE03A2429E04124B1
:1005E0000BE0452409E0492407E04D2405E05124AF
:1005F00003E0552401E0D8F82440032A19D04DB176
:100600006A0009EB4400FFF7A6FED8F8142029463B
:1006100020469047002E0FD0720009EB470051464C
:10062000FFF799FE31463846D8F81420BDE8F04768
:10063000104703250026E3E7BDE8F08718000020F7
:10064000A8010020704772B6FEE72DE9F04104468C
:10065000876D00F05FF9064694F835000025022802
:1006600006D08020606584F834500120BDE8F08118
:100670002068016821F0160101602068416921F0BD
:1006800080014161206C08B9A06C20B1206801682C
:1006900021F0080101602068016821F0010101607A
:1006A0000CE000F037F9801B052807D92020606591
:1006B000032084F8350084F83450D7E720680068B8
:1006C000C007EED194F85C103F208840B86001204C
:1006D00084F8350084F834500020C7E790F83510CE
:1006E000022903D08021416501207047052180F84F
:1006F00035100068016821F0010101600020704799
:1007000070B5044600F006F90546601C02D00448A6
:100710000078044400F0FEF8401BA042FAD370BDFC
:10072000000000202DE9F84FDFF8BCA100220125D0
:1007300003264FF00F090AF1040BAAF1040E00BFC3
:100740000B6805FA02F42340A34270D10F7907F039
:100750000307012F01D0022F16D187684FEA420804
:1007600006FA08FC27EA0C07D1F80CC00CFA08FCC2
:100770004CEA070CC0F808C04768A7430C79C4F3DB
:10078000001494403C4344600C79E443A4070AD02D
:10079000C4684FEA420C06FA0CF7BC438F6807FAAC
:1007A0000CF72743C7600C7904F00304022C12D124
:1007B000D40800EB840CDCF820405707FF0E09FA40
:1007C00007F824EA0804D1F8108008FA07F848EA84
:1007D0000408CCF8208004684FEA420C06FA0CF7B3
:1007E000BC430F7907F0030707FA0CF727430760AC
:1007F0004C6814F4403F70D03C4C276847F4804765
:100800002760246822F0030704F480440094384CE5
:1008100007EB040CDCF8084897074FEA177809FA49
:1008200008F7BC43334FB84202D1002724E054E01C
:10083000314FB84201D101271EE0304FB84201D1FB
:10084000022719E02E4FB84201D1032714E02D4FA3
:10085000B84201D104270FE02B4FB84201D1052740
:100860000AE02A4FB84201D1062705E0284FB842D6
:1008700001D1072700E0082707FA08F72743CCF83B
:100880000878DAF800405746D1F804C09C435FEA84
:10089000CC2C00D51C433C60DBF800405F46D1F80F
:1008A00004C09C435FEA8C2C00D51C433C60DEF8FE
:1008B00000407746D1F804C09C435FEA8C3C00D5E9
:1008C0001C433C60084F083F3C68D1F804C09C437F
:1008D0005FEACC3C00D51C433C60521C102AFFF45C
:1008E0002FAFBDE8F88F0000083C014044380240BB
:1008F00000300140000002400004024000080240B5
:10090000000C024000100240001402400018024097
:10091000001C024001488068704700000000002071
:10092000024881680278114481607047000000200D
:100930000B4810B5016841F400710160016841F491
:1009400080610160016841F480710160032000F062
:100950006FF80F2000F006F800F024F8002010BD1A
:10096000003C024070B50D4D04464FF47A71287872
:10097000B1FBF0F00A490968B1FBF0F000F00CFBA4
:1009800048B9102C07D200222146501E00F030F842
:1009900000206C6070BD012070BD000000000020D0
:1009A0000C0000200A4808B5016841F4804101604C
:1009B000006800F4804000900548001F016841F085
:1009C00080510160006800F08050009008BD000078
:1009D00044380240002809DB00F01F020121914049
:1009E0004009800000F1E020C0F8001170470000CD
:1009F000F0B40E4B1B680C46C3F30223C3F107058A
:100A0000042D00D90425191D072901D2002300E077
:100A1000DB1E012606FA05F1491E214099409E4041
:100A2000761E16403143F0BC01F060B80CED00E0DA
:100A3000064900F0070208684FF6FF03184040EA35
:100A40000220034A10430860704700000CED00E0EC
:100A50000000FA052DE9F0470E46050065D0DFF8E5
:100A60001481D8F80000F7B200F00700B04207D2B6
:100A700088F80070D8F8000000F00700B04254D1A8
:100A800028683D4C810712D5400703D5206840F403
:100A9000E05020602878000703D5206840F46040CB
:100AA00020602068A96820F0F000084320602878C2
:100AB000C0072DD0304968680839012812D00228B3
:100AC00013D0032811D00968890700292DDA21687D
:100AD00021F0030101432160FFF71CFF814641F231
:100AE000883A0EE009688903EFE709688901ECE7B5
:100AF000FFF710FFA0EB0901514502D90320BDE823
:100B0000F0872068696800F00C00B0EB810FEFD12E
:100B1000D8F80010404601F00701B14207D907702C
:100B2000006800F00700B04201D00120E7E7287814
:100B3000400705D52068E96820F4E05008432060AC
:100B40002878000706D52068296920F4604040EA2B
:100B5000C100206000F038F82168084AC1F3031191
:100B6000515CC8400649086006480068FFF7FAFE75
:100B70000020C4E7003C024008380240161C000870
:100B80000C000020040000200448054900680968A2
:100B9000044AC1F38221515CC84070470C00002018
:100BA00008380240261C0008044805490068096806
:100BB000044AC1F34231515CC84070470C00002028
:100BC00008380240261C0008154810B5006810F0CF
:100BD0000C02144813D01449042A0FD0082A0ED14D
:100BE0000F4C241F2268236802F03F025B0207D5E6
:100BF0002068C0F38810A0FB010106E0084610BD84
:100C00002168C1F38811A1FB00010023FFF72CFB31
:100C10002168C1F30141491C4900B0FBF1F010BD4E
:100C2000083802400024F400001BB7002DE9F84FFB
:100C300004006ED02078DFF84C93C007A9F10405BA
:100C40004AD009F104000168C1F38101012908D0EB
:100C50000068C0F3810002280AD1D9F800004002E0
:100C600006D52868800337D560680028E1D033E0D6
:100C70006068B0F5803F10D0B0F5A02F286810D084
:100C800020F480302860286820F480202860606884
:100C9000A8B1FFF73FFE06460DE0286840F480301B
:100CA000F4E740F480202860F7E700BFFFF732FE4A
:100CB000801B642873D828688003F7D50CE0FFF701
:100CC00029FE064605E000BFFFF724FE801B6428CE
:100CD000F0D828688003F7D42078DFF8AC8280074A
:100CE0004FF0000A3ED5A748001D016811F00C0F17
:100CF00008D00068C0F3810002280BD1D9F80000A9
:100D0000400207D42868800716D5E068012800D182
:100D100012E033E1E068B8B10120C8F80000FFF745
:100D2000F9FD064605E000BFFFF7F4FD801B022831
:100D3000C0D828688007F7D52868216920F0F80016
:100D400040EAC10028600DE0C8F800A0FFF7E2FD0E
:100D5000064604E0FFF7DEFD801B02281FD8286846
:100D60008007F7D42078000722D5864F874861692D
:100D7000703771B101210160FFF7CCFD064604E038
:100D8000FFF7C8FD801B022809D838688007F7D50F
:100D90000EE0C0F800A0FFF7BDFD064605E082E0CA
:100DA000FFF7B8FD801B02287DD838688007F7D48C
:100DB0002078400768D5DFF8CCB100270BF13C0B59
:100DC000DBF80000C0000BD4DBF8001041F08051CC
:100DD000CBF80010DBF80000012700F080500090F5
:100DE0006B4E3068C00510D4306840F480703060BD
:100DF000FFF790FD009005E0FFF78CFD0099401A89
:100E0000022850D83068C005F6D55E4EA0686C3612
:100E100001280FD00528306810D020F00100306084
:100E2000306820F004003060A068B8B1FFF772FDB0
:100E300000900FE0306840F00100F4E740F004005B
:100E40003060F7E7FFF766FD0099411A41F28830FC
:100E5000814266D830688007F4D50EE0FFF75AFD6E
:100E6000009007E0FFF756FD0099411A41F28830E3
:100E7000814256D830688007F4D42FB1DBF80010D7
:100E800021F08051CBF80010A069C8B33D49091D7D
:100E90000968C1F3810102294AD00228504607D0CF
:100EA000C8F8600000E03CE0FFF734FD04463BE09A
:100EB0004746C8F86000FFF72DFD064605E000BF75
:100EC000FFF728FD801B02282BD828688001F7D463
:100ED000D4E907010843A16A2E4A490802EB0141FF
:100EE000626A41EA8211084394F82C1040EA0161D9
:100EF000C9F8001001203866FFF70CFD044606E033
:100F00003EE000BFFFF706FD001B022809D8286855
:100F10008001F7D534E000BFFFF7FCFC001B02287E
:100F200002D90320BDE8F88F28688001F4D427E0B7
:100F30000128F7D0D9F80000E26900F4800191425D
:100F40001CD1226A00F03F01914217D147F6C071CF
:100F5000626A0140B1EB821F10D1A26A4FF0FF33E9
:100F600000F4403103EB5202B1EB024F06D194F88A
:100F70002C1000F07060B0EB016F01D00120D1E7C0
:100F80000020CFE70438024000004742800E47426D
:100F9000007000400000FFFF10B5401EB0F1807FE0
:100FA00001D3012010BD4FF0E02460610F216017D4
:100FB00000F09CFD0020A06107202061002010BDF2
:100FC00070477047F8B5016804460868CA684B69FD
:100FD00010F00F0F4FF0000559D003F0010602F496
:100FE0009077374365D0C10705D0D10503D5216C73
:100FF00041F001012164410705D5D90703D0216CD7
:1010000041F002012164810705D5D90703D0216C85
:1010100041F004012164010707D502F020013143AA
:1010200003D0216C41F008012164216C00293AD0E1
:10103000800604D5900602D5204600F0B6FA206856
:101040004069216CC0F38010090700D460B32046CA
:1010500000F084FA20684069400621D520681430E9
:1010600050E8001F21F0400140E80012002AF5D1AD
:10107000A06BA8B16C490165A06BFFF72FFB00289E
:1010800011D0A06B016D01B0BDE8F04008478306A8
:101090000FD593060DD52046BDE8F84000F085BA7F
:1010A0002046FFF78EFFF8BD2046FFF78AFF256434
:1010B000F8BD266B2023012E79D1C60677D5D6063A
:1010C00075D50868486800904869400640D5A16B0E
:1010D000086840680004000CEAD0A28D8242E7D97B
:1010E000E085C869B0F5807F2DD020680C3050E8CD
:1010F000001F21F4807140E80012002AF5D1206819
:10110000143050E8001F21F0010140E80012002ACD
:10111000F5D12068143050E8001F21F0400140E86C
:101120000012002AF5D184F83E30256320680C3087
:1011300050E8001F21F0100140E80012002AF5D10C
:10114000A06BFFF782FAA08DE18D401A81B229E0F1
:10115000A08DE18D401A81B2E08D0028A8D0002931
:10116000A6D020680C3050E8002F22F4907240E89E
:101170000026002EF5D12068143050E8002F22F010
:10118000010240E80026002EF5D184F83E302563A8
:1011900020680C3050E8002F22F0100240E80023B5
:1011A000002BF5D12046FFF70BFFF8BDFFE7050642
:1011B0002BD5150629D594F83D002128F5D1A06836
:1011C000B0F5805F01D12069B0B1206A411C216275
:1011D000216800784860E08C401E0004000CE08428
:1011E000E3D12068C16821F08001C1602068C16836
:1011F00041F04001C160D8E7206A0088C0F30800D0
:101200004860206A801C2062E5E74006CDD5500684
:10121000CBD5CA68204622F04002CA6084F83D302F
:1012200000F0F7F8C1E700004D15000870B50400A4
:1012300004D094F83D00002510B106E0012070BDF7
:1012400084F83C50204600F023F8242084F83D0028
:101250002068C16821F40051C160204600F006FA00
:101260002068016921F4904101612068416921F001
:101270002A0141612068C16841F40051C1602564C0
:10128000202084F83D0084F83E00002070BD00005E
:1012900010B586B0044614216846FFF7A1F8174937
:1012A0002068884228D116480021026842F01002C6
:1012B0000260006800F010000590114814380268C0
:1012C00042F002020260006800F002000590C020B7
:1012D00000900220CDE90101032003900720049033
:1012E00069460848FFF71EFA002211462520FFF73D
:1012F0007FFB2520FFF76EFB06B010BD00100140FC
:10130000443802400004024090F83E30202B0ED1B9
:1013100059B152B190F83C30012B08D0012380F82C
:101320003C300023036300F027BA012070470220FD
:101330007047000010B504460068074988420AD18A
:101340000648007800F032FB2046BDE8104001223C
:10135000024900F011BA10BD001001401000002039
:101360002DE9F843044690F83D001F4616460D4609
:1013700020284CD1C5B1BEB194F83C00012846D01C
:10138000012084F83C004FF00008C4F84080212080
:1013900084F83D00FFF7BEFAA6848146E684A06883
:1013A000B0F5805F03D004E00120BDE8F883206938
:1013B00028B12E465FF0000584F83C800EE0002640
:1013C000FAE78021204600F0F4F9A0B9AEB116F892
:1013D000010B21684860E08C401EE084E08C4B46A5
:1013E0004FF0000200970028EBD14FF0400120465B
:1013F00000F0DFF930B10320D7E735F8020BC0F376
:101400000800E6E7202084F83D000020CDE7022018
:10141000CBE77047FEE700000D4808B5016841F0D2
:1014200001010160016801F001010091016841F0D2
:1014300002010160016801F002010091016841F0C0
:1014400080010160006800F08000009008BD00008D
:10145000303802400C4810B50A4901604FF4E131C0
:101460004160002181600C22C160C0E904128161E9
:10147000C161FFF7DBFE002803D0BDE81040FFF795
:10148000E2B810BD0010014040000020FEE7FEE77A
:10149000704770478B008AB201460148FFF760BF72
:1014A00040000020FFF73CBA30B593B030216846C9
:1014B000FEF796FF14210CA8FEF792FF1D480025A9
:1014C000016841F080510160006800F08050119087
:1014D0001948016841F4804101600068022400F469
:1014E0008040119001200090000401908001CDE91E
:1014F000064006200890A820CDE9090404200B909E
:101500006846FFF793FB08B172B6FEE70CA90F20FF
:1015100081E831004FF4A0500F904FF480501090AC
:1015200005210CA8FFF796FA002801D072B6FEE755
:1015300013B030BD403802400070004002480168DE
:1015400041F470010160704788ED00E010B5806BD8
:101550000021C185C184FFF734FD10BD01680C3145
:1015600051E8002F22F4907241E80023002BF5D1BE
:101570000168143151E8002F22F0010241E80023F4
:10158000002BF5D1016B012909D101680C3151E81B
:10159000002F22F0100241E80023002BF5D120217A
:1015A00080F83E1000210163704708B590F83E10A6
:1015B000222901D0022008BD82684FF480539A424C
:1015C00001D1016921B1816A9A421BD04AB10AE076
:1015D0000268816A5268C2F308020A80816A891C23
:1015E00008E0026972B10268526802F07F020A7074
:1015F000816A491C8162C18D491E0904090CC1859B
:1016000003D019E002685268F1E70168CA6822F065
:101610002002CA600168CA6822F48072CA60016848
:101620004A6922F001024A61202180F83E10016BD4
:10163000012903D0FFF77EFE002008BD00210163D1
:1016400001680C3151E8002F22F0100241E800231C
:10165000002BF5D101680A68D20602D50A684968EC
:101660000091818DFFF7ACFCE6E7000070B5044601
:1016700000680169E26821F4405111430161216968
:10168000A068E26908436169114308432168CA6898
:1016900049F20C639A430243CA6020684169A26917
:1016A00021F440711143416131492068884202D0E0
:1016B0003049884202D1FFF777FA01E0FFF764FA78
:1016C000E2690023192164253226B2F5004F6268D1
:1016D00028D0A0FB0101930F9200FEF7C5FD014643
:1016E000B0FBF5F06FF01802504301EB800006EB01
:1016F0000010B0FBF5F000F0F002B1FBF5F002EBEA
:101700000012B1FBF5F06FF01803584301EB8000B5
:1017100006EB0010B0FBF5F000F00F00216810445C
:10172000886070BDA0FB010192185B41FEF79CFD33
:101730000146B0FBF5F00201B1FBF5F06FF01803C4
:10174000584301EB800006EBC000B0FBF5F000F061
:10175000F80002EB4002B1FBF5F0584301EB8000CA
:1017600006EBC000B0FBF5F000F00700D6E7000084
:10177000001001400014014081628285C285002171
:101780000164222280F83E2080F83C10016921B1DA
:101790000168CA6842F48072CA6001684A6942F00E
:1017A00001024A610068C16841F02001C160002067
:1017B00070472DE9F041984617460E460446069DAF
:1017C00027E0681C25D02DB1FFF7A4F8A0EB080096
:1017D000A8421ED920680C3050E8001F21F4D071B7
:1017E00040E80012002AF5D12068143050E8001FAC
:1017F00021F0010140E80012002AF5D1202084F8F0
:101800003D0084F83E00002084F83C000320BDE841
:10181000F0812068006836EA000004D00020B84259
:10182000CFD00020F3E70120F9E700000148FFF7DF
:10183000C9BB000040000020FEE70000032802D9D9
:101840006FF005007047034A106211700020D061EC
:1018500070470000180000202DE9FC5F0D46064689
:1018600028446FF0050C90287CD2494C6FF0040995
:101870002046D4F8208042684FF0FF0A4FF0AA0BB0
:101880004FF0270EF7B2C6F30721B8F1000F0FD0C3
:101890004FF6FF7000EA45032046B8F1010F0078CB
:1018A00016D0B8F1020F33D0B8F1030F6ED142E079
:1018B000042D6BD8F2B38DF800A08DF801B08DF82F
:1018C00002E08DF804108DF803700521684659E098
:1018D00082B35B1DB3F5807F32D88DF80000032002
:1018E0008DF80100280A8DF802108DF804008DF89B
:1018F00003708DF805500621684600F0E1F8010AF2
:101900008DF806108DF8070008216846626839E0F6
:10191000032D3BD823696BB18DF800A08DF801B081
:101920008DF802E08DF804108DF8037005226946E9
:10193000984728E017E0E768AFB1B3F5807F03D997
:101940006FF00300BDE8FC9F4006F1B2000E114AA3
:10195000B847012817D162692AB10E49002001F564
:1019600080730BE012E04846ECE700BF31F81070DE
:1019700000EB060C401C23F81C7080B2A842F5D383
:1019800029463046904700206662DBE76046D9E78B
:1019900018000020A800002018B103494861002069
:1019A00070476FF005007047180000202DE9FC41DA
:1019B0003B4C6169002955D03A49E2698854521C70
:1019C000E261206A002630B101282FD0022865D0BC
:1019D000032860D162E00878552804D0521E3148AF
:1019E000491CE2613CE00B2A55D30A252D4F00200B
:1019F0004FEA000317F803C05B1C6044C0B2AB425F
:101A0000F8D38B7A8342E9D14888ADF80000888802
:101A1000ADF80200C888ADF804000889ADF80600EA
:101A2000487804226946FEF7B3FD37E0022A32D92E
:101A300048780328D2D18878401D904212D888185F
:101A40000D4630F8020C921E47BA91B2154800F0CC
:101A500037F8874208D0E269691C521E1148E261DA
:101A6000FEF779FCBDE8FC81A8780F4B4208002105
:101A7000606A0AE005EB410701EB000CB7F8037060
:101A8000491C7FBA23F81C7089B29142F2D31146E7
:101A90006269904702E0B2F5807FE3D1E661E1E759
:101AA00018000020A8000020A801002018B1034958
:101AB0004860002070476FF0050070471800002054
:101AC000F0B5FF23084E1C46002206F5807705E09E
:101AD000855C5D40735D63407C5D521C8A42F7DB30
:101AE00044EA0320F0BD00002E1C00080907090E7F
:101AF000002804DB00F1E02080F80014704700F0BB
:101B00000F0000F1E02080F8141D7047FEF710FF71
:101B1000FFF7CAFCFFF780FCFFF79CFC01222E496F
:101B20002E48FFF7F1FB50210020FFF787FE2C48DD
:101B3000FFF7BCFF2B48FFF72FFFFEF7E7FCDFF8AE
:101B4000A8802A4C4FF4FA794846FEF7D9FD98F858
:101B500000000028F8D00020254A9FED260A264BD9
:101B6000DFED260A264D9FED271A274EF3EE001AC9
:101B7000C4F8000002EB400131F9687F02EE107AF0
:101B800003EB8007B8EEC22A22EE002A22EE212AB9
:101B900087ED002AB1F9067002EE107A05EB800796
:101BA000B8EEC22A22EE002A22EE202A87ED002A71
:101BB000B1F9121002EE101A06EB8001401CB8EECB
:101BC000C22A032822EE002A22EE012A81ED002AF1
:101BD0002060CFDBB8E700001000002040000020AC
:101BE000951400084505000811000020140000208D
:101BF000A801002000000038840000200000FA4402
:101C000090000020000034439C0000204FF0407002
:101C1000E1EE100A70470000000000000000010221
:101C2000030406070809000000000102030400C1C4
:101C3000814001C0804101C0804100C1814001C09C
:101C4000804100C1814000C1814001C0804101C08C
:101C5000804100C1814000C1814001C0804100C17C
:101C6000814001C0804101C0804100C1814001C06C
:101C7000804100C1814000C1814001C0804100C15C
:101C8000814001C0804101C0804100C1814000C14C
:101C9000814001C0804101C0804100C1814001C03C
:101CA000804100C1814000C1814001C0804101C02C
:101CB000804100C1814000C1814001C0804100C11C
:101CC000814001C0804101C0804100C1814000C10C
:101CD000814001C0804101C0804100C1814001C0FC
:101CE000804100C1814000C1814001C0804100C1EC
:101CF000814001C0804101C0804100C1814001C0DC
:101D0000804100C1814000C1814001C0804101C0CB
:101D1000804100C1814000C1814001C0804100C1BB
:101D2000814001C0804101C0804100C1814000C0AC
:101D3000C101C30302C2C60607C705C5C404CC0C53
:101D40000DCD0FCFCE0E0ACACB0BC90908C8D818C3
:101D500019D91BDBDA1A1EDEDF1FDD1D1CDC14D4D3
:101D6000D515D71716D6D21213D311D1D010F03003
:101D700031F133F3F23236F6F737F53534F43CFC13
:101D8000FD3DFF3F3EFEFA3A3BFB39F9F83828E8C3
:101D9000E929EB2B2AEAEE2E2FEF2DEDEC2CE42493
:101DA00025E527E7E62622E2E323E12120E0A06003
:101DB00061A163A3A26266A6A767A56564A46CACD3
:101DC000AD6DAF6F6EAEAA6A6BAB69A9A86878B843
:101DD000B979BB7B7ABABE7E7FBF7DBDBC7CB47453
:101DE00075B577B7B67672B2B373B17170B0509003
:101DF00091519353529296565797559594549C5C93
:101E00005D9D5F9F9E5E5A9A9B5B99595898884842
:101E100049894B8B8A4A4E8E8F4F8D4D4C8C448412
:101E20008545874746868242438341818040000042
:101E3000501E00080000002040000000C4010008FF
:101E4000901E000840000020E8080000E0010008A3
:101E50000100000010000000000000000024F40059
:101E60000000000000000000FF0000000000000073
:101E70000000000000000000000000000000000062
:101E80000000000000000000000000000000000052
:040000050800018965
:00000001FF
