:020000040800F2
:1000000010130020290200087B1E0008CD1C0008E8
:10001000791E00081F040008F523000800000000F6
:10002000000000000000000000000000492000085F
:100030003905000800000000E51F00084B200008FB
:10004000430200084302000843020008430200087C
:10005000430200084302000843020008430200086C
:10006000430200084302000843020008430200085C
:10007000B1040008430200084302000843020008DC
:10008000430200084302000843020008430200083C
:100090004D04000843020008430200084302000820
:1000A00043020008F520000843020008430200084C
:1000B000430200084302000843020008430200080C
:1000C00043020008430200084302000843020008FC
:1000D00043020008430200084302000841230008CD
:1000E00043020008430200084302000843020008DC
:1000F00043020008430200084302000843020008CC
:1001000043020008430200084302000843020008BB
:1001100043020008430200084302000843020008AB
:10012000430200084302000843020008430200089B
:10013000430200084302000843020008430200088B
:100140008504000843020008430200084302000837
:10015000430200084302000843020008430200086B
:10016000430200084302000843020008430200085B
:100170004302000843020008430200080000000098
:10018000430200084302000800F002F800F03CF8C7
:100190000AA090E8000C82448344AAF10107DA45E2
:1001A00001D100F031F8AFF2090EBAE80F0013F0F8
:1001B000010F18BFFB1A43F001031847E8230000A2
:1001C00008240000103A24BF78C878C1FAD8520732
:1001D00024BF30C830C144BF04680C6070470000C1
:1001E0000023002400250026103A28BF78C1FBD840
:1001F000520728BF30C148BF0B6070471FB502F0DF
:10020000BBF91FBD10B510BD00F0D4F81146FFF7C3
:10021000F5FF02F027F900F0F2F803B4FFF7F2FF60
:1002200003BC00F0F5F80000094880470948004782
:10023000FEE7FEE7FEE7FEE7FEE7FEE7FEE7FEE796
:10024000FEE7FEE704480549054A064B70470000F3
:10025000E520000889010008100D0020101300207F
:10026000100F0020100F002053EA020C00F06980EC
:100270002DE9F04B4FF00006002B1FBFB3FA83F5BA
:1002800003FA05F424FA05F65E4012BF1643B2FAEB
:1002900082F502FA05F4C5F120051EBF22FA05FC1D
:1002A00044EA0C04203556EA044C4FEA144418BFC3
:1002B000641C4FF000084FF00009904271EB030CF2
:1002C00039D3002919BFB1FA81F701FA07F6B0FA5C
:1002D00080F700FA07F6C7F120071EBF20FA07FCD7
:1002E00046EA0C062037B6FBF4FCA7EB0507103FE7
:1002F00007F01F0BCBF120060CFA0BFB2CFA06F6CD
:1003000044BFB3460026202FA4BF5E464FF0000B2B
:100310005BEA060C08BF4FF0010B19EB0B09ABFBB6
:10032000027C48EB0608C01B06FB02CC0BFB03CC8F
:1003300071EB0C01C1E70B46024641464846BDE859
:10034000F08B13B54FF000004FF00001AFF30080C9
:10035000BDE81C4070474FF0000200B513469446BC
:100360009646203922BFA0E80C50A0E80C50B1F10D
:100370002001BFF4F7AF090728BFA0E80C5048BF21
:100380000CC05DF804EB890028BF40F8042B08BFBF
:10039000704748BF20F8022B11F0804F18BF00F8BB
:1003A000012B704770477047704700000048704746
:1003B000B00C00207546FFF7F9FFAE460500694610
:1003C000534620F00700854618B020B5FFF73AFFE6
:1003D000BDE820404FF000064FF000074FF0000846
:1003E0004FF0000B21F00701AC46ACE8C009ACE8C7
:1003F000C009ACE8C009ACE8C0098D46704710B52B
:100400000446AFF300802046BDE81040FFF705BF6B
:1004100001491820ABBEFEE7260002007047FEE748
:1004200000B58BB000200121CDE9060108910090B4
:10043000019002900390059004906946024800F0F4
:1004400091F80BB000BD00003C000020014800F016
:1004500084B900003C00002000B58BB000200121D1
:10046000CDE906010891009001900290039005905B
:1004700004906946024800F075F80BB000BD00001A
:1004800064000020014800F068B90000640000200A
:1004900010B5044600F0D6FB0221204600F04FF8CC
:1004A000002803D0BDE8104000F047B810BD0000A0
:1004B000014800F0FBBB0000180100200168182370
:1004C000CAB2103AB2FBF3F2054B6FF30901032AEB
:1004D0009B5CC36500D9091D816508467047000013
:1004E0008225000810B5014600208B698A6A4FF00A
:1004F000C07453B1B3F5005F15D072B1012A0CD0AE
:10050000022A0AD0032A09D104E01AB1012A06D02E
:10051000022A03D1C96AC90100D5012010BDC96AE8
:10052000A142FAD010BD002AF7D0012AF2D0022A47
:10053000F3D0032AF3D010BD704772B6FEE790F8EF
:100540002020012A07D0022A05D0416A41F48021E7
:10055000416201207047006842690A4342610020FD
:100560007047000010B590F82020012A07D0022A19
:1005700005D0416A41F480214162012010BD3B4811
:10058000D0F8002242F00102C0F80022D0F8002288
:1005900022F47C52C0F80022D0F800224B6A42EAD2
:1005A0000322C0F800220A7D02F01F0301229A40B4
:1005B000D0F81C329343C0F81C32CB69B3B9D0F8E1
:1005C0000C329343C0F80C328C894B6864F31F43A0
:1005D0004C6900EBC404C4F840320C890B6864F326
:1005E0001F434C6900EBC404C4F84432CB69012BAF
:1005F00016D1D0F80C321343C0F80C320C884B687B
:1006000064F31F434C6900EBC404C4F840320C8906
:10061000CB6864F31F434C6900EBC404C4F8443254
:100620008B69002BD0F804320ED01343C0F804328B
:100630000B69002BD0F8143208D01343C0F81432E1
:10064000096A012904D008E09343EFE79343F5E7F3
:10065000D0F81C121143C0F81C12D0F8001221F07F
:100660000101C0F80012002010BD0000006400402D
:10067000704730B590F82040012C05D0022C03D0F3
:10068000416A41F480215DE00468002955D0246965
:10069000A40754D04FF4D874056804EB01142D5905
:1006A00015F00405956005682D594ED0ED0855608C
:1006B00005682C5904F00204D4604FF4DA7405681C
:1006C00004EB01142D5905F00F05156105682D592E
:1006D000C5F30725956105682C59240C54614FF426
:1006E000DC72046802EB0112A4581C700468A45860
:1006F000240A5C700468A458240C9C700468A258F6
:10070000120EDA704FF4DE72046802EB0112A45884
:100710001C710468A458240A5C710468A458240C51
:100720009C710468A258120EDA71006881B10169E7
:1007300041F020010161002030BDE468A8E7416A72
:1007400041F400114162012030BD6D0D1560AFE72D
:10075000C16841F02001C160EDE72DE9F05F054679
:10076000006800244669D0F804908768D0F80CB07F
:10077000D0F810A0D0F81880F10748D0F90714D0AD
:1007800001218160B80703D5284600F088FA0CE003
:10079000780702D54FF4006407E0380702D54FF41C
:1007A000805402E0284600F079FAF80516D5296849
:1007B0004FF480708860B80503D5284600F071FAC0
:1007C0000CE0780502D544F4005407E0380502D562
:1007D00044F4804402E0284600F062FAF80316D59B
:1007E00029684FF480308860B80303D5284600F0AC
:1007F0005AFA0CE0780302D544F4004407E03803C9
:1008000002D544F4803402E0284600F04BFA300769
:1008100007D55FEACB6004D52968102044F4007442
:10082000C86070074FF0080707D55FEA0B7004D562
:100830002868C760284600F09DF9B00706D52868EB
:10084000C068800702D0284600F096F9700607D5E8
:100850005FEACA6004D52968102044F48064086106
:10086000B00607D55FEA0A7004D5286807612846F4
:1008700000F0E4F9F00606D528680069800702D088
:10088000284600F0DCF9B00308D55FEAC96005D559
:10089000296810204860284600F0D2F9F00307D5F7
:1008A0005FEA097004D528684760284600F0FCF923
:1008B000300446D55FEA497040D5F00504D55FEABB
:1008C000C87001D044F00104B00504D55FEA887017
:1008D00001D544F00204700504D55FEA487001D5E3
:1008E00044F00404300529D518F0700F26D008F024
:1008F0007000402815D006DC102809D020280AD026
:10090000302816D10AE050280ED0602811D10EE010
:1009100044F008040DE044F010040AE044F0200420
:1009200007E044F0400404E044F0800401E044F4B3
:1009300080742868816921F0700181612968042030
:100940004860002C05D0686A204368622846FFF79B
:100950008FFEBDE8F09F70B5040003D094F820002E
:1009600010B104E0012070BD204600F081F820683D
:10097000016841F00101016000F0CAFB054605264F
:1009800004E000F0C5FB401B0A2811D8206840682D
:10099000C007F6D02068016821F00201016000F074
:1009A000B7FB05460BE000F0B3FB401B0A2806D955
:1009B000606A40F40030606284F82060D2E720680A
:1009C00040688007EFD4207E0128206801683DD070
:1009D00021F080010160607E01282068016838D024
:1009E00021F040010160A07E01282068016833D019
:1009F00021F020010160E07E0128206801682ED0EE
:100A000041F010010160207F01282068016829D091
:100A100021F008010160607F01282068016824D06E
:100A200021F004010160D4E902010843D4E9041271
:100A3000114308436168491E08432168C8610020CA
:100A40006062012084F82000002070BD41F0800128
:100A5000C0E741F04001C5E741F02001CAE721F0BD
:100A60001001CFE741F00801D4E741F00401D9E7D4
:100A70002DE9F04387B0044614216846FFF76BFC6C
:100A8000384B3948DFF8D8801968D4F800C0364AA6
:100A9000022503260927DFF8D49010300024491CD2
:100AA000C44524D11960012907D1016841F00071C2
:100AB0000160006800F000700590106840F00200CE
:100AC0001060106802AB00F0020005904FF4407017
:100AD000CDE9000583E8D0006946484600F020FAD9
:100AE00000221146142000F081FB142032E0DFF8D0
:100AF0008080C44530D1D0F800C04CF0806CC0F884
:100B000000C0D0F800C001290CF0806CCDF814C0F2
:100B1000196007D1016841F000710160006800F0C0
:100B200000700590106840F002001060106802AB81
:100B300000F0020005906020CDE9000583E8D000B8
:100B40006946484600F0ECF900221146402000F0CA
:100B50004DFB402000F03CFB07B0BDE8F0830000F7
:100B600000640040000000203038024000040240D1
:100B7000006800407047000070B5054600682B49CA
:100B80002B4C8CB0884224D107AB6A460021284602
:100B9000FFF76FFD0098A0F20120062819D8C0B217
:100BA0002070244EC0EBC00006EB800081694A1C17
:100BB0003229826107A902D801F02DFC01E001F081
:100BC0002FFC207807A9C0EBC00006EB800001F0E5
:100BD00027FC19492868884225D109AB6A460021BB
:100BE0002846FFF746FD0098A0F2012006281AD8F3
:100BF000C0B2104D6070C0EBC000E03505EB800066
:100C000081694A1C3229826109A902D801F003FCDA
:100C100001E001F005FC607809A9C0EBC00005EB1C
:100C2000800001F0FDFB0CB070BD000000640040CE
:100C300014000020780100200068004070477047D1
:100C40007047000070B5044690F82000012804D0D9
:100C5000606A40F40020606218E0022084F82000FE
:100C60002068016821F00101016000F051FA054699
:100C70000EE000BF00F04CFA401B0A2808D9606A59
:100C800040F400306062052084F82000012070BD2F
:100C900020684068C007EDD1606270BD7047704742
:100CA0007047704770477047704700002DE9F84360
:100CB00004464FF00009CDF8009063484FF41651F8
:100CC000A56D0068B0FBF1F72E6894F85C10082061
:100CD00000FA01F131420FD021680A6852070BD5A2
:100CE0000A6822F004020A6094F85C108840A86048
:100CF000606D40F00100606594F85C104FF00108F1
:100D000008FA01F0304208D021684969090604D583
:100D1000A860606D40F00200606594F85C100420EB
:100D20008840304208D021680968890704D5A86046
:100D3000606D40F00400606594F85C1010208840FD
:100D4000304218D021680968090714D5A8602068C6
:100D50000168490304D50068000308D5A16C07E0C9
:100D60000168C90503D4016821F008010160216C04
:100D700009B12046884794F85C1020208840304212
:100D800031D021680968C9062DD5A86094F83500CE
:100D900005282068016806D0490347D5006800038C
:100DA0001DD4616C1CE021F01601016020684169CE
:100DB00021F080014161206C08B9A06C20B120684D
:100DC000016821F00801016094F85C103F20884020
:100DD000A86084F8358084F83490216D1FE0E16BC1
:100DE00009B120468847606D00282BD0606DC00790
:100DF00014D0052084F835002068016821F0010135
:100E000001600098401C0090B84203D82068006838
:100E1000C007F6D184F8358084F83490E16C00295D
:100E200010D001B02046BDE8F04308470168C9056D
:100E3000D5D4016821F01001016084F8358084F870
:100E40003490CCE7BDE8F883100000202DE9F04194
:100E5000044600F05DF906465CB1022084F83500D6
:100E6000002584F834502068016821F001010160F8
:100E70000DE00120BDE8F08100F04AF9801B052853
:100E800005D920206065032084F83500F2E720684A
:100E90000068C007F0D12268116820480140D4E9F9
:100EA00001031843D4E903363343184363691843F5
:100EB000A3691843E3691843236A18430843616A26
:100EC000042903D1D4E90B131943084310602068A7
:100ED0004069666A20F0070130460E430127042866
:100EE0000CD1A06A0643E06A40B12046FFF7FAFA47
:100EF00020B14020606584F83570BAE7206846610B
:100F00002046FFF7DBFA94F85C203F219140816096
:100F1000656584F835700020ACE700003F8010F074
:100F20002DE9F84FDFF8BCA10022012503264FF080
:100F30000F090AF1040BAAF1040E00BF0B6805FAB1
:100F400002F42340A34270D10F7907F00307012F69
:100F500001D0022F16D187684FEA420806FA08FC32
:100F600027EA0C07D1F80CC00CFA08FC4CEA070C75
:100F7000C0F808C04768A7430C79C4F30014944034
:100F80003C4344600C79E443A4070AD0C4684FEAA8
:100F9000420C06FA0CF7BC438F6807FA0CF727439C
:100FA000C7600C7904F00304022C12D1D40800EBC2
:100FB000840CDCF820405707FF0E09FA07F824EAF2
:100FC0000804D1F8108008FA07F848EA0408CCF8B9
:100FD000208004684FEA420C06FA0CF7BC430F79F4
:100FE00007F0030707FA0CF7274307604C6814F46F
:100FF000403F70D03C4C276847F480472760246806
:1010000022F0030704F480440094384C07EB040CEE
:10101000DCF8084897074FEA177809FA08F7BC4345
:10102000334FB84202D1002724E054E0314FB84298
:1010300001D101271EE0304FB84201D1022719E04B
:101040002E4FB84201D1032714E02D4FB84201D1F1
:1010500004270FE02B4FB84201D105270AE02A4FA1
:10106000B84201D1062705E0284FB84201D1072731
:1010700000E0082707FA08F72743CCF80878DAF8E1
:1010800000405746D1F804C09C435FEACC2C00D501
:101090001C433C60DBF800405F46D1F804C09C4331
:1010A0005FEA8C2C00D51C433C60DEF8004077469C
:1010B000D1F804C09C435FEA8C3C00D51C433C60E3
:1010C000084F083F3C68D1F804C09C435FEACC3C21
:1010D00000D51C433C60521C102AFFF42FAFBDE822
:1010E000F88F0000083C01404438024000300140C5
:1010F000000002400004024000080240000C0240D0
:10110000001002400014024000180240001C02407F
:101110000148806870470000040000200248816890
:101120000278114481607047040000200B4810B51C
:10113000016841F400710160016841F4806101605F
:10114000016841F480710160032000F06FF80F2006
:1011500000F006F800F024F8002010BD003C02402A
:1011600070B50D4D04464FF47A712878B1FBF0F05C
:101170000A490968B1FBF0F000F00CFB48B9102CEB
:1011800007D200222146501E00F030F800206C608B
:1011900070BD012070BD0000040000201000002080
:1011A0000A4808B5016841F480410160006800F414
:1011B000804000900548001F016841F080510160A7
:1011C000006800F08050009008BD000044380240E4
:1011D000002809DB00F01F02012191404009800036
:1011E00000F1E020C0F8001170470000F0B40E4B91
:1011F0001B680C46C3F30223C3F10705042D00D975
:101200000425191D072901D2002300E0DB1E012659
:1012100006FA05F1491E214099409E40761E16406F
:101220003143F0BC01F0E7B80CED00E0064900F0F6
:10123000070208684FF6FF03184040EA0220034AFD
:1012400010430860704700000CED00E00000FA0554
:101250002DE9F0470E46050065D0DFF81481D8F877
:101260000000F7B200F00700B04207D288F8007023
:10127000D8F8000000F00700B04254D128683D4C77
:10128000810712D5400703D5206840F4E050206064
:101290002878000703D5206840F46040206020686B
:1012A000A96820F0F000084320602878C0072DD0FE
:1012B000304968680839012812D0022813D0032861
:1012C00011D00968890700292DDA216821F003016E
:1012D00001432160FFF71CFF814641F2883A0EE08E
:1012E00009688903EFE709688901ECE7FFF710FF58
:1012F000A0EB0901514502D90320BDE8F087206821
:10130000696800F00C00B0EB810FEFD1D8F8001045
:10131000404601F00701B14207D90770006800F0AC
:101320000700B04201D00120E7E72878400705D543
:101330002068E96820F4E05008432060287800071E
:1013400006D52068296920F4604040EAC100206089
:1013500000F038F82168084AC1F30311515CC84015
:101360000649086006480068FFF7FAFE0020C4E757
:10137000003C0240083802408A2500081000002086
:10138000080000200448054900680968044AC1F3C0
:101390008221515CC840704710000020083802408C
:1013A0009A2500080448054900680968044AC1F301
:1013B0004231515CC840704710000020083802409C
:1013C0009A250008154810B5006810F00C02144862
:1013D00013D01449042A0FD0082A0ED10F4C241F11
:1013E0002268236802F03F025B0207D52068C0F341
:1013F0008810A0FB010106E0084610BD2168C1F37A
:101400008811A1FB00010023FEF72EFF2168C1F324
:101410000141491C4900B0FBF1F010BD0838024001
:101420000024F400001BB7002DE9F84F04006ED033
:101430002078DFF84C93C007A9F104054AD009F1E0
:1014400004000168C1F38101012908D00068C0F3DC
:10145000810002280AD1D9F80000400206D5286888
:10146000800337D560680028E1D033E06068B0F5CC
:10147000803F10D0B0F5A02F286810D020F4803025
:101480002860286820F4802028606068A8B1FFF7F1
:101490003FFE06460DE0286840F48030F4E740F453
:1014A00080202860F7E700BFFFF732FE801B64282A
:1014B00073D828688003F7D50CE0FFF729FE0646AD
:1014C00005E000BFFFF724FE801B6428F0D82868E1
:1014D0008003F7D42078DFF8AC8280074FF0000A51
:1014E0003ED5A748001D016811F00C0F08D0006818
:1014F000C0F3810002280BD1D9F80000400207D4C4
:101500002868800716D5E068012800D112E033E191
:10151000E068B8B10120C8F80000FFF7F9FD064601
:1015200005E000BFFFF7F4FD801B0228C0D8286843
:101530008007F7D52868216920F0F80040EAC1004B
:1015400028600DE0C8F800A0FFF7E2FD064604E0C1
:10155000FFF7DEFD801B02281FD828688007F7D41C
:101560002078000722D5864F87486169703771B1AE
:1015700001210160FFF7CCFD064604E0FFF7C8FD3E
:10158000801B022809D838688007F7D50EE0C0F81C
:1015900000A0FFF7BDFD064605E082E0FFF7B8FDBD
:1015A000801B02287DD838688007F7D42078400750
:1015B00068D5DFF8CCB100270BF13C0BDBF800005D
:1015C000C0000BD4DBF8001041F08051CBF80010C4
:1015D000DBF80000012700F0805000906B4E30686F
:1015E000C00510D4306840F480703060FFF790FD83
:1015F000009005E0FFF78CFD0099401A022850D8B2
:101600003068C005F6D55E4EA0686C3601280FD054
:101610000528306810D020F001003060306820F0DC
:1016200004003060A068B8B1FFF772FD00900FE0D1
:10163000306840F00100F4E740F004003060F7E764
:10164000FFF766FD0099411A41F28830814266D861
:1016500030688007F4D50EE0FFF75AFD009007E0F0
:10166000FFF756FD0099411A41F28830814256D861
:1016700030688007F4D42FB1DBF8001021F08051DE
:10168000CBF80010A069C8B33D49091D0968C1F332
:10169000810102294AD00228504607D0C8F86000CC
:1016A00000E03CE0FFF734FD04463BE04746C8F865
:1016B0006000FFF72DFD064605E000BFFFF728FD9F
:1016C000801B02282BD828688001F7D4D4E90701B1
:1016D0000843A16A2E4A490802EB0141626A41EAC5
:1016E0008211084394F82C1040EA0161C9F80010F7
:1016F00001203866FFF70CFD044606E03EE000BF1F
:10170000FFF706FD001B022809D828688001F7D5DD
:1017100034E000BFFFF7FCFC001B022802D90320C5
:10172000BDE8F88F28688001F4D427E00128F7D0BD
:10173000D9F80000E26900F4800191421CD1226ACC
:1017400000F03F01914217D147F6C071626A014033
:10175000B1EB821F10D1A26A4FF0FF3300F4403189
:1017600003EB5202B1EB024F06D194F82C1000F0BB
:101770007060B0EB016F01D00120D1E70020CFE70E
:101780000438024000004742800E4742007000408B
:101790000000FFFF10B5401EB0F1807F01D3012093
:1017A00010BD4FF0E02460610F21601700F023FEB0
:1017B0000020A06107202061002010BD7047704705
:1017C00070B590F83C20012A32D0012480F83C40CA
:1017D000022280F83D2003685A689D6822F0700656
:1017E0000A6832435A60134B02689A4214D0B2F12D
:1017F000804F11D0104B9A420ED0104B9A420BD012
:101800000F4B9A4208D00F4B9A4205D00E4B9A428A
:1018100002D00E4B9A4204D1496825F08003194347
:10182000916080F83D40002180F83C10084670BD72
:10183000022070BD0000014000040040000800408C
:10184000000C00400004014000400140001800402E
:1018500010B5040003D094F83D0010B107E001205A
:1018600010BD002084F83C00204600F01FF8022044
:1018700084F83D00211D206800F042FC012084F81E
:10188000460084F83E0084F83F0084F8400084F865
:10189000410084F8420084F8430084F8440084F84E
:1018A000450084F83D00002010BD000008B5006828
:1018B0000B49884212D10B48016841F001010160D7
:1018C0000068002200F00100009011461920FFF787
:1018D0008DFCBDE808401920FFF77ABC08BD000068
:1018E000000001404438024090F83D10012901D029
:1018F00001207047022180F83D100168CA6842F05B
:101900000102CA6000681149884214D0B0F1804FCA
:1019100011D00F4988420ED00E4988420BD00E4993
:10192000884208D00D49884205D00D49884202D02E
:101930000C49884204D1816801F00701062903D0CF
:10194000016841F001010160002070470000014082
:101950000004004000080040000C0040000401406A
:10196000004001400018004070B5044690F83C006B
:101970000025012817D0012684F83C60022084F855
:101980003D002068826822F0770222F47F42826064
:101990000868502838D00DDC20284FD005DC90B3E3
:1019A000102811D14AE0022070BD302846D04028CE
:1019B0000AD13BE060282FD070280DD0B0F5805FB1
:1019C00003D0B0F5005F12D0012584F83D600020FF
:1019D00084F83C00284670BDCB68D1E9012120681D
:1019E00000F0F2FB2068816841F0770109E0CB68E4
:1019F000D1E90121206800F0E7FB2068816841F40B
:101A000080418160E1E719E0CA684968206800F018
:101A1000EDFB5021206806E0CA684968206800F0A4
:101A2000F6FB6021206800F0D9FBCEE7CA68496860
:101A3000206800F0DBFB40212068F4E722680146C3
:101A40001046F0E7704770B50446006801694FF032
:101A50000005C943890715D4C168C943890711D452
:101A6000E91E0161012020772068806980072046F7
:101A700002D0FFF7E7FF04E000F098F8204600F0FE
:101A800096F8257720680169C943490717D4C168CA
:101A9000C943490713D46FF0040101610220207784
:101AA0002068806910F4407F204602D0FFF7CAFF0B
:101AB00004E000F07BF8204600F079F825772068F4
:101AC0000169C943090716D4C168C943090712D47B
:101AD0006FF008010161042020772068C069800749
:101AE000204602D0FFF7AEFF04E000F05FF820468A
:101AF00000F05DF8257720680169C943C90617D44D
:101B0000C168C943C90613D46FF0100101610820F0
:101B100020772068C06910F4407F204602D0FFF78C
:101B200091FF04E000F042F8204600F040F82577ED
:101B300020680169C943C90708D1C168C943C907F9
:101B400004D1891E0161204600F032F82068016945
:101B5000C943090609D4C168C943090605D46FF011
:101B6000800101612046FFF729FE20680169C94311
:101B7000490609D4C168C943490605D46FF040013C
:101B80000161204600F015F820680169C943890603
:101B90000BD4C168C943890607D46FF020010161E5
:101BA0002046BDE87040FFF70ABE70BD7047704721
:101BB0007047704770B5040004D094F83D000025CC
:101BC00010B106E0012070BD84F83C50204600F0C2
:101BD00023F8242084F83D002068C16821F40051D6
:101BE000C160204600F026FB2068016921F4904185
:101BF00001612068416921F02A0141612068C168C2
:101C000041F40051C1602564202084F83D0084F82F
:101C10003E00002070BD000070B586B0064614215D
:101C20006846FEF798FB24493068884242D1234831
:101C30000025016841F480210160006800F48020E3
:101C400005901E481038016841F0040101600068E9
:101C5000694600F0040005904FF4406000900220B7
:101C6000CDE9010503200390072004901448FFF7F5
:101C700057F9154C134820604FF00060C4E9010586
:101C80004014C4E9035065614FF44030A561C4E9D4
:101C9000075020466562FFF7D9F808B1FEF74DFC02
:101CA000B463002211462720A663FFF79FFA27207E
:101CB000FFF78EFA06B070BD004800404038024081
:101CC000000802402860024018010020FEE70000E2
:101CD0000F4810B50D4901600321416000214FF408
:101CE000C0228160C0E903124FF4A0024261017674
:101CF00041768176C17601774177FEF72CFE002888
:101D000003D0BDE81040FEF718BC10BD00640040D1
:101D10003C0000200F4810B50D49016003214160CF
:101D200000214FF4C0228160C0E903124FF4A002E9
:101D30004261017641768176C17601774177FEF77F
:101D40000AFE002803D0BDE81040FEF7F6BB10BD28
:101D50000068004064000020094808B5016841F4AB
:101D6000001101600068002200F40010009011468C
:101D70000C20FFF73BFABDE808400C20FFF728BA1B
:101D800030380240114808B5016841F00201016095
:101D9000016801F002010091016841F00101016058
:101DA000016801F001010091016841F00401016046
:101DB000016801F004010091016841F080010160B7
:101DC000006800F08000009008BD0000303802403C
:101DD00010B586B00024174800940194029403942F
:101DE0000494134905940160A721C0E9011440F24D
:101DF000CF71C0E9031444618461FFF729FD08B184
:101E0000FEF79BFB4FF48050009069460948FFF7AE
:101E1000ABFD08B1FEF791FB049404A905480594B5
:101E2000FFF7CEFC002801D0FEF787FB06B010BDFF
:101E3000000001408C0000200D4810B50B490160E6
:101E40000C49416000214FF480628160C0E90312B7
:101E50000422C0E90521C161FFF7ACFE002803D0D0
:101E6000BDE81040FEF769BB10BD0000004800400F
:101E7000D4000020A0860100FEE7FEE72DE9F04730
:101E80003B4E00242DED048B06F5107706F5906986
:101E90009FED388ADFED388A9FED389ADFED389A6A
:101EA00006F5D86804EBC40506EBC500F0EE480A59
:101EB000B0EE680A334A002100F066F8314A07EBB9
:101EC000C500F0EE490AB0EE690A0C32002100F0BC
:101ED0005BF809EBC500F0EE480AB0EE680A294A43
:101EE000002100F051F8274A08EBC500F0EE490A3E
:101EF000B0EE690A0C32002100F046F8641C042C94
:101F0000D0DBB24604244E4604EBC4050AEBC50000
:101F1000F0EE480AB0EE680A1A4A002100F034F8E0
:101F2000184A07EBC500F0EE490AB0EE690A0C3218
:101F3000002100F029F806EBC500F0EE480AB0EEEB
:101F4000680A104A002100F01FF80E4A08EBC5008D
:101F5000F0EE490AB0EE690A0C32002100F014F8E4
:101F6000641C082CD0DBBDEC048BBDE8F0870000BE
:101F7000500300200080BB4500401C4600009643F3
:101F80000000C84320000020002828D0002A26D0C6
:101F9000017092ED001A80ED011A92ED011A80EDA8
:101FA000021A92ED021A80ED031A80ED040A9FEDE9
:101FB0000C0AC0ED050A80ED0E0A80ED0D0A80EDD9
:101FC0000C0A80ED080A80ED0B0A80ED0A0A80ED0C
:101FD000090A80ED110A80ED100A80ED0F0A7047A2
:101FE000000000007047000030B5144B1C686569A4
:101FF00045F0400565611B68DC6844F01004DC6056
:102000000F4B1C68256825F0010525601C682568B4
:10201000ED07F7D11D680B4CAC601C68E0601868D8
:102020000161186842601868016841F4802101600C
:102030001868016841F00101016030BDD400002042
:1020400018010020044800407047FFF767B80000FF
:1020500030B593B030216846FEF77DF914210CA805
:10206000FEF779F91D480025016841F080510160B3
:10207000006800F0805011901948016841F48041D7
:1020800001600068022400F480401190012000905B
:10209000000401908001CDE9064006200890A820A8
:1020A000CDE9090404200B906846FFF7BDF908B19B
:1020B00072B6FEE70CA90F2081E831004FF4A05062
:1020C0000F904FF48050109005210CA8FFF7C0F836
:1020D000002801D072B6FEE713B030BD4038024090
:1020E000007000400248016841F4700101607047CF
:1020F00088ED00E00148FFF7A6BC00008C0000203E
:10210000F0B50268254C264D264E274F274B4FF041
:10211000804CA04209D0604507D0A84205D0B0420B
:1021200003D0B84201D0984204D122F0700E4A6820
:1021300042EA0E02A0421BD0604519D0A84217D037
:10214000B04215D0B84213D0984211D0184DA842D1
:102150000ED0184DA8420BD0174DA84208D0174DED
:10216000A84205D0164DA84202D0164DA84203D170
:1021700022F44075CA682A434D6922F080022A433E
:1021800002608A68C2620A688262A04201D09842F4
:1021900001D10969016301214161F0BD00000140E5
:1021A0000004004000080040000C00400004014012
:1021B0000040014000440140004801400018004038
:1021C000001C00400020004010B5846842EA032251
:1021D00024F47F440A432243826010BD826822F0C7
:1021E00070020A4342F007018160704710B5036A2C
:1021F000046A24F001040462846924F0F00444EACF
:10220000021423F00A020A438461026210BD10B571
:10221000036A23F0100303628369046A23F47043A2
:1022200043EA023224F0A00343EA01118261016211
:1022300010BD000070B5044600680169E26821F431
:102240004051114301612169A068E2690843616955
:10225000114308432168CA6849F20C639A43024358
:10226000CA6020684169A26921F44071114341614B
:1022700031492068884202D03049884202D1FFF7B4
:1022800091F801E0FFF77EF8E26900231921642547
:102290003226B2F5004F626828D0A0FB0101930FEF
:1022A0009200FDF7E1FF0146B0FBF5F06FF0180278
:1022B000504301EB800006EB0010B0FBF5F000F09E
:1022C000F002B1FBF5F002EB0012B1FBF5F06FF09C
:1022D0001803584301EB800006EB0010B0FBF5F04B
:1022E00000F00F0021681044886070BDA0FB010160
:1022F00092185B41FDF7B8FF0146B0FBF5F0020113
:10230000B1FBF5F06FF01803584301EB800006EBCA
:10231000C000B0FBF5F000F0F80002EB4002B1FBAA
:10232000F5F0584301EB800006EBC000B0FBF5F080
:1023300000F00700D6E70000001001400014014043
:10234000264818B400680168890604D50168406809
:10235000009018BC704722490968C906F9D5016880
:102360004068204A0090106801684FF024030C0375
:102370001D49046824F00104046016D41068446800
:10238000C4F12404A4B20C8043601068016841F4D5
:10239000002101601068016841F001010160122C08
:1023A000D7D1124901F1160015E014686068C0F138
:1023B000240080B2088063600D498B6A23F40023F7
:1023C0008B6211680A6842F001020A601228C0D1CB
:1023D000064901F13A0018BC00F074B8D40000209E
:1023E000004800401801002038000020500C002058
:1023F00000600240FEE70907090E002804DB00F137
:10240000E02080F80014704700F00F0000F1E02099
:1024100080F8141D7047098849BA0180818270478D
:1024200010B5B0F9003003810A8852BA02804C8896
:10243000D31A64BA44808C88B3F5805F64BA848010
:1024400089798171016901DD491E03E013F5805F1F
:1024500001DA491C016102EB4131828A891AC160AB
:1024600010BD0000FEF762FEFFF7F2FDFFF78AFCE9
:10247000FFF772FCFFF72CFCFFF74CFCFFF7DCFCCE
:10248000FFF7A6FC00F016F8FFF7F8FCFDF7C8FF11
:10249000FDF7E2FF0448FDF7FBFF0448FDF7F8FFF6
:1024A0000348FFF721FAFEE73C000020640000200B
:1024B0008C00002002492422A1F12400FFF794BDE2
:1024C0008A0C0020F0B5002855D0002953D002789E
:1024D000437842EA0322C2F30A020A8043788478EE
:1024E000DB0843EA4413C3F30A034B808478C578BE
:1024F000A40944EA8504057944EA8524C4F30A045E
:102500008C80057946796D0845EAC615C5F30A053C
:10251000CD804679C6F301168E724679B609CE7221
:102520008679C77946EA07268E81067A477A46EA8F
:102530000726CE81867AC77A46EA07260E82067B70
:102540008E74467BCE74867BC77B46EA07268E82D6
:10255000067C407CA2F580620A80A3F580634B80F4
:10256000A4F5806446EA00208C80A5F58065CD80C6
:10257000A0F580600881F0BD4FF04070E1EE100AD8
:10258000704700061016000610160000000000003C
:102590000000010203040607080900000000010210
:1025A00003040000C4250008000000203C000000D7
:1025B000C4010008002600083C000020D4120000DE
:1025C000E001000800000000010000001000000011
:1025D000000000000024F4000000000000000000E3
:1025E0000000000000002041CDCCCC3D00000000E8
:1025F000CDCC4C3E000000000000803F00000000F9
:040000050800018965
:00000001FF
