:020000040800F2
:100000009813002029020008AB240008ED22000804
:10001000A92400083B040008112C0008000000007F
:10002000000000000000000000000000652800083B
:10003000E505000800000000012800086728000806
:10004000430200084302000843020008430200087C
:10005000430200084302000843020008430200086C
:10006000430200084302000843020008430200085C
:100070005D0500084302000843020008430200082F
:10008000430200084302000843020008430200083C
:10009000B1040008430200084302000843020008BC
:1000A0004302000811290008430200084302000827
:1000B000430200084302000843020008430200080C
:1000C00043020008430200084302000843020008FC
:1000D0004302000843020008430200085D2B0008A9
:1000E00043020008430200084302000843020008DC
:1000F00043020008430200084302000843020008CC
:1001000043020008430200084302000843020008BB
:1001100043020008430200084302000843020008AB
:10012000430200084302000843020008430200089B
:10013000430200084302000843020008430200088B
:10014000310500084302000843020008430200088A
:10015000430200084302000843020008430200086B
:10016000430200084302000843020008430200085B
:100170004302000843020008430200080000000098
:10018000430200084302000800F002F800F03CF8C7
:100190000AA090E8000C82448344AAF10107DA45E2
:1001A00001D100F031F8AFF2090EBAE80F0013F0F8
:1001B000010F18BFFB1A43F0010318479C400000D1
:1001C000BC400000103A24BF78C878C1FAD8520762
:1001D00024BF30C830C144BF04680C6070470000C1
:1001E0000023002400250026103A28BF78C1FBD840
:1001F000520728BF30C148BF0B6070471FB503F0DE
:10020000BEFF1FBD10B510BD00F0E2F81146FFF7AC
:10021000F5FF03F051F900F000F903B4FFF7F2FF26
:1002200003BC00F003F90000094880470948004773
:10023000FEE7FEE7FEE7FEE7FEE7FEE7FEE7FEE796
:10024000FEE7FEE704480549054A064B70470000F3
:100250000129000889010008980D0020981300204A
:10026000980F0020980F002053EA020C00F06980DC
:100270002DE9F04B4FF00006002B1FBFB3FA83F5BA
:1002800003FA05F424FA05F65E4012BF1643B2FAEB
:1002900082F502FA05F4C5F120051EBF22FA05FC1D
:1002A00044EA0C04203556EA044C4FEA144418BFC3
:1002B000641C4FF000084FF00009904271EB030CF2
:1002C00039D3002919BFB1FA81F701FA07F6B0FA5C
:1002D00080F700FA07F6C7F120071EBF20FA07FCD7
:1002E00046EA0C062037B6FBF4FCA7EB0507103FE7
:1002F00007F01F0BCBF120060CFA0BFB2CFA06F6CD
:1003000044BFB3460026202FA4BF5E464FF0000B2B
:100310005BEA060C08BF4FF0010B19EB0B09ABFBB6
:10032000027C48EB0608C01B06FB02CC0BFB03CC8F
:1003300071EB0C01C1E70B46024641464846BDE859
:10034000F08B13B54FF000004FF00001AFF30080C9
:10035000BDE81C4070474FF0000200B513469446BC
:100360009646203922BFA0E80C50A0E80C50B1F10D
:100370002001BFF4F7AF090728BFA0E80C5048BF21
:100380000CC05DF804EB890028BF40F8042B08BFBF
:10039000704748BF20F8022B11F0804F18BF00F8BB
:1003A000012B704770477047704710B500F008F890
:1003B000006810BD10B5044600F002F8046010BDDE
:1003C00000487047380D002000487047380D002065
:1003D0007546FFF7F9FFAE4605006946534620F023
:1003E0000700854618B020B5FFF72CFFBDE8204078
:1003F0004FF000064FF000074FF000084FF0000BE1
:1004000021F00701AC46ACE8C009ACE8C009ACE893
:10041000C009ACE8C0098D46704710B50446AFF37B
:1004200000802046BDE81040FFF7F7BE01491820C4
:10043000ABBEFEE7260002007047FEE738B50E4C63
:100440004FF4007525600025A560E560082525614D
:100450000A4C050A25706070080AA070E170100A45
:1004600020716271180AA071E3716B46224602493D
:10047000034800F0CCF838BDC0030020360000204F
:100480007400002000B58BB000200121CDE90601E9
:1004900008910090019002900390059004906946A5
:1004A000024800F023F90BB000BD000074000020EA
:1004B000014800F016BA00007400002038B50E4C58
:1004C0004FF4007525600025A560E56008252561CD
:1004D0000A4C050A25706070080AA070E170100AC5
:1004E00020716271180AA071E3716B4622460249BD
:1004F000034800F08CF838BDC0030020360000200F
:100500009C00002000B58BB000200121CDE9060140
:100510000891009001900290039005900490694624
:10052000024800F0E3F80BB000BD00009C00002082
:10053000014800F0D6B900009C00002010B5044628
:1005400000F040FC0221204600F04FF8002803D0C4
:10055000BDE8104000F047B810BD0000014800F0B1
:1005600065BC00005001002001681823CAB2103A8F
:10057000B2FBF3F2054B6FF30901032A9B5CC365E1
:1005800000D9091D816508467047000092410008A6
:1005900010B5014600208B698A6A4FF0C07453B1D0
:1005A000B3F5005F15D072B1012A0CD0022A0AD02F
:1005B000032A09D104E01AB1012A06D0022A03D184
:1005C000C96AC90100D5012010BDC96AA142FAD08B
:1005D00010BD002AF7D0012AF2D0022AF3D0032A54
:1005E000F3D010BD704772B6FEE790F82020012AC4
:1005F00007D0022A05D0416A41F4802141620120DE
:100600007047006842690A43426100207047F0B5B4
:1006100090F820500468A468012D05D0022D03D065
:10062000416A41F480215DE014F0406F01D1E500A2
:1006300055D5C4F30164022C03D9416A41F4000189
:1006400050E00125A5401D608D684FF4C0739DB139
:10065000CE6835434E6845EAC605066803EB0417C5
:10066000F5514FF4C275076805EB04150E697E510C
:10067000097D012905D009E00E88CD6845EA465577
:10068000EBE701684E5946F480764E511179D579E1
:10069000567941EA056195792D0445EA06252943F5
:1006A0004FF4C676056806EB0416A9511178D57883
:1006B00041EA0561957852782D0445EA02221143FA
:1006C0004FF4C475026805EB04155151006803EB43
:1006D0000411425842F0010242500020F0BD416A2C
:1006E00041F4001141620120F0BD000010B590F806
:1006F0002020012A07D0022A05D0416A41F4802136
:100700004162012010BD3B48D0F8002242F00102B6
:10071000C0F80022D0F8002222F47C52C0F8002257
:10072000D0F800224B6A42EA0322C0F800220A7D78
:1007300002F01F0301229A40D0F81C329343C0F804
:100740001C32CB69B3B9D0F80C329343C0F80C32E9
:100750008C894B6864F31F434C6900EBC404C4F8F4
:1007600040320C890B6864F31F434C6900EBC404EE
:10077000C4F84432CB69012B16D1D0F80C321343A4
:10078000C0F80C320C884B6864F31F434C6900EBD3
:10079000C404C4F840320C89CB6864F31F434C692D
:1007A00000EBC404C4F844328B69002BD0F8043247
:1007B0000ED01343C0F804320B69002BD0F814326A
:1007C00008D01343C0F81432096A012904D008E0A4
:1007D0009343EFE79343F5E7D0F81C121143C0F8B9
:1007E0001C12D0F8001221F00101C0F80012002004
:1007F00010BD000000640040704730B590F8204004
:10080000012C05D0022C03D0416A41F480215DE027
:100810000468002955D02469A40754D04FF4D87433
:10082000056804EB01142D5915F004059560056861
:100830002D594ED0ED08556005682C5904F002047E
:10084000D4604FF4DA74056804EB01142D5905F0F7
:100850000F05156105682D59C5F3072595610568D4
:100860002C59240C54614FF4DC72046802EB011221
:10087000A4581C700468A458240A5C700468A45826
:10088000240C9C700468A258120EDA704FF4DE72C9
:10089000046802EB0112A4581C710468A458240ACD
:1008A0005C710468A458240C9C710468A258120E50
:1008B000DA71006881B1016941F020010161002015
:1008C00030BDE468A8E7416A41F4001141620120AB
:1008D00030BD6D0D1560AFE7C16841F02001C1600A
:1008E000EDE72DE9F05F0546006800244669D0F881
:1008F00004908768D0F80CB0D0F810A0D0F8188019
:10090000F10748D0F90714D001218160B80703D559
:10091000284600F084FA0CE0780702D54FF4006412
:1009200007E0380702D54FF4805402E0284600F073
:1009300075FAF80516D529684FF480708860B805F7
:1009400003D5284600F06DFA0CE0780502D544F492
:10095000005407E0380502D544F4804402E02846FC
:1009600000F05EFAF80316D529684FF480308860ED
:10097000B80303D5284600F056FA0CE0780302D5F8
:1009800044F4004407E0380302D544F4803402E024
:10099000284600F047FA300707D55FEACB6004D558
:1009A0002968102044F40074C86070074FF00807ED
:1009B00007D55FEA0B7004D52868C760284600F0A9
:1009C00099F9B00706D52868C068800702D0284684
:1009D00000F092F9700607D55FEACA6004D529686D
:1009E000102044F480640861B00607D55FEA0A70FD
:1009F00004D528680761284600F0E0F9F00606D51E
:100A000028680069800702D0284600F0D8F9B003B2
:100A100008D55FEAC96005D52968102048602846D6
:100A200000F0CEF9F00307D55FEA097004D5286815
:100A30004760284600F0F8F9300446D55FEA49706F
:100A400040D5F00504D55FEAC87001D044F0010438
:100A5000B00504D55FEA887001D544F00204700542
:100A600004D55FEA487001D544F00404300529D567
:100A700018F0700F26D008F07000402815D006DC62
:100A8000102809D020280AD0302816D10AE0502892
:100A90000ED0602811D10EE044F008040DE044F0BF
:100AA00010040AE044F0200407E044F0400404E0AD
:100AB00044F0800401E044F480742868816921F0E6
:100AC00070018161296804204860002C05D0686AA3
:100AD000204368622846FFF78FFEBDE8F09F70B59F
:100AE000040003D094F8200010B104E0012070BD90
:100AF000204600F081F82068016841F001010160A2
:100B000000F0C6FB0546052604E000F0C1FB401BD3
:100B10000A2811D820684068C007F6D0206801680C
:100B200021F00201016000F0B3FB05460BE000F08C
:100B3000AFFB401B0A2806D9606A40F400306062AF
:100B400084F82060D2E7206840688007EFD4207ED8
:100B50000128206801683DD021F080010160607E9D
:100B600001282068016838D021F040010160A07E92
:100B700001282068016833D021F020010160E07E67
:100B80000128206801682ED041F010010160207F0B
:100B900001282068016829D021F008010160607FE8
:100BA00001282068016824D021F004010160D4E903
:100BB00002010843D4E90412114308436168491E45
:100BC00008432168C86100206062012084F8200089
:100BD000002070BD41F08001C0E741F04001C5E751
:100BE00041F02001CAE721F01001CFE741F00801F0
:100BF000D4E741F00401D9E7F0B587B004461421E9
:100C00006846FFF7A8FB364B3648DFF8D0E0196896
:100C1000D4F800C0334A03250226092710300024E7
:100C2000491CF44522D11960012907D1016841F01E
:100C300000710160006800F000700590106840F0DD
:100C4000080010601068CDE9005600F00800CDE9FA
:100C5000047069462448CDE9024500F021FA0022DB
:100C60001146142000F082FB142032E0DFF87CE013
:100C7000F44530D1D0F800C04CF0806CC0F800C012
:100C8000D0F800C001290CF0806CCDF814C01960B8
:100C900007D1016841F000710160006800F0007048
:100CA0000590106840F002001060106802AB00F080
:100CB000020005906020CDE9000683E8B000694697
:100CC0000B4800F0EDF900221146402000F04EFBE9
:100CD000402000F03DFB07B0F0BD00000064004084
:100CE0000000002030380240000C02400068004044
:100CF000000402407047000070B5054600682B49AB
:100D00002B4C8CB0884224D107AB6A460021284680
:100D1000FFF773FD0098A0F20120062819D8C0B291
:100D20002070244EC0EBC00006EB800081694A1C95
:100D30003229826107A902D802F098FB01E002F093
:100D40009AFB207807A9C0EBC00006EB800002F0F8
:100D500092FB19492868884225D109AB6A460021CF
:100D60002846FFF74AFD0098A0F2012006281AD86D
:100D7000C0B2104D6070C0EBC000E03505EB8000E4
:100D800081694A1C3229826109A902D802F06EFBEE
:100D900001E002F070FB607809A9C0EBC00005EB30
:100DA000800002F068FB0CB070BD000000640040E1
:100DB00034000020000200200068004070477047A7
:100DC0007047000070B5044690F82000012804D058
:100DD000606A40F40020606218E0022084F820007D
:100DE0002068016821F00101016000F051FA054618
:100DF0000EE000BF00F04CFA401B0A2808D9606AD8
:100E000040F400306062052084F82000012070BDAD
:100E100020684068C007EDD1606270BD70477047C0
:100E20007047704770477047704700002DE9F843DE
:100E300004464FF00009CDF8009063484FF4165176
:100E4000A56D0068B0FBF1F72E6894F85C100820DF
:100E500000FA01F131420FD021680A6852070BD520
:100E60000A6822F004020A6094F85C108840A860C6
:100E7000606D40F00100606594F85C104FF001086F
:100E800008FA01F0304208D021684969090604D502
:100E9000A860606D40F00200606594F85C1004206A
:100EA0008840304208D021680968890704D5A860C5
:100EB000606D40F00400606594F85C10102088407C
:100EC000304218D021680968090714D5A860206845
:100ED0000168490304D50068000308D5A16C07E048
:100EE0000168C90503D4016821F008010160216C83
:100EF00009B12046884794F85C1020208840304291
:100F000031D021680968C9062DD5A86094F835004C
:100F100005282068016806D0490347D5006800030A
:100F20001DD4616C1CE021F016010160206841694C
:100F300021F080014161206C08B9A06C20B12068CB
:100F4000016821F00801016094F85C103F2088409E
:100F5000A86084F8358084F83490216D1FE0E16B3F
:100F600009B120468847606D00282BD0606DC0070E
:100F700014D0052084F835002068016821F00101B3
:100F800001600098401C0090B84203D820680068B7
:100F9000C007F6D184F8358084F83490E16C0029DC
:100FA00010D001B02046BDE8F04308470168C905EC
:100FB000D5D4016821F01001016084F8358084F8EF
:100FC0003490CCE7BDE8F883100000202DE9F04113
:100FD000044600F05DF906465CB1022084F8350055
:100FE000002584F834502068016821F00101016077
:100FF0000DE00120BDE8F08100F04AF9801B0528D2
:1010000005D920206065032084F83500F2E72068C8
:101010000068C007F0D12268116820480140D4E977
:1010200001031843D4E90336334318436369184373
:10103000A3691843E3691843236A18430843616AA4
:10104000042903D1D4E90B13194308431060206825
:101050004069666A20F0070130460E4301270428E4
:101060000CD1A06A0643E06A40B12046FFF790FA2F
:1010700020B14020606584F83570BAE72068466189
:101080002046FFF771FA94F85C203F21914081607F
:10109000656584F835700020ACE700003F8010F0F3
:1010A0002DE9F84FDFF8BCA10022012503264FF0FF
:1010B0000F090AF1040BAAF1040E00BF0B6805FA30
:1010C00002F42340A34270D10F7907F00307012FE8
:1010D00001D0022F16D187684FEA420806FA08FCB1
:1010E00027EA0C07D1F80CC00CFA08FC4CEA070CF4
:1010F000C0F808C04768A7430C79C4F300149440B3
:101100003C4344600C79E443A4070AD0C4684FEA26
:10111000420C06FA0CF7BC438F6807FA0CF727431A
:10112000C7600C7904F00304022C12D1D40800EB40
:10113000840CDCF820405707FF0E09FA07F824EA70
:101140000804D1F8108008FA07F848EA0408CCF837
:10115000208004684FEA420C06FA0CF7BC430F7972
:1011600007F0030707FA0CF7274307604C6814F4ED
:10117000403F70D03C4C276847F480472760246884
:1011800022F0030704F480440094384C07EB040C6D
:10119000DCF8084897074FEA177809FA08F7BC43C4
:1011A000334FB84202D1002724E054E0314FB84217
:1011B00001D101271EE0304FB84201D1022719E0CA
:1011C0002E4FB84201D1032714E02D4FB84201D170
:1011D00004270FE02B4FB84201D105270AE02A4F20
:1011E000B84201D1062705E0284FB84201D10727B0
:1011F00000E0082707FA08F72743CCF80878DAF860
:1012000000405746D1F804C09C435FEACC2C00D57F
:101210001C433C60DBF800405F46D1F804C09C43AF
:101220005FEA8C2C00D51C433C60DEF8004077461A
:10123000D1F804C09C435FEA8C3C00D51C433C6061
:10124000084F083F3C68D1F804C09C435FEACC3C9F
:1012500000D51C433C60521C102AFFF42FAFBDE8A0
:10126000F88F0000083C0140443802400030014043
:10127000000002400004024000080240000C02404E
:10128000001002400014024000180240001C0240FE
:10129000014880687047000004000020024881680F
:1012A0000278114481607047040000200B4810B59B
:1012B000016841F400710160016841F480610160DE
:1012C000016841F480710160032000F06FF80F2085
:1012D00000F006F800F024F8002010BD003C0240A9
:1012E00070B50D4D04464FF47A712878B1FBF0F0DB
:1012F0000A490968B1FBF0F000F00CFB48B9102C6A
:1013000007D200222146501E00F030F800206C6009
:1013100070BD012070BD00000400002010000020FE
:101320000A4808B5016841F480410160006800F492
:10133000804000900548001F016841F08051016025
:10134000006800F08050009008BD00004438024062
:10135000002809DB00F01F020121914040098000B4
:1013600000F1E020C0F8001170470000F0B40E4B0F
:101370001B680C46C3F30223C3F10705042D00D9F3
:101380000425191D072901D2002300E0DB1E0126D8
:1013900006FA05F1491E214099409E40761E1640EE
:1013A0003143F0BC01F04DBC0CED00E0064900F00B
:1013B000070208684FF6FF03184040EA0220034A7C
:1013C00010430860704700000CED00E00000FA05D3
:1013D0002DE9F0470E46050065D0DFF81481D8F8F6
:1013E0000000F7B200F00700B04207D288F80070A2
:1013F000D8F8000000F00700B04254D128683D4CF6
:10140000810712D5400703D5206840F4E0502060E2
:101410002878000703D5206840F4604020602068E9
:10142000A96820F0F000084320602878C0072DD07C
:10143000304968680839012812D0022813D00328DF
:1014400011D00968890700292DDA216821F00301EC
:1014500001432160FFF71CFF814641F2883A0EE00C
:1014600009688903EFE709688901ECE7FFF710FFD6
:10147000A0EB0901514502D90320BDE8F08720689F
:10148000696800F00C00B0EB810FEFD1D8F80010C4
:10149000404601F00701B14207D90770006800F02B
:1014A0000700B04201D00120E7E72878400705D5C2
:1014B0002068E96820F4E05008432060287800079D
:1014C00006D52068296920F4604040EAC100206008
:1014D00000F038F82168084AC1F30311515CC84094
:1014E0000649086006480068FFF7FAFE0020C4E7D6
:1014F000003C0240083802409A41000810000020D9
:10150000080000200448054900680968044AC1F33E
:101510008221515CC840704710000020083802400A
:10152000AA4100080448054900680968044AC1F353
:101530004231515CC840704710000020083802401A
:10154000AA410008154810B5006810F00C021448B4
:1015500013D01449042A0FD0082A0ED10F4C241F8F
:101560002268236802F03F025B0207D52068C0F3BF
:101570008810A0FB010106E0084610BD2168C1F3F8
:101580008811A1FB00010023FEF76EFE2168C1F364
:101590000141491C4900B0FBF1F010BD0838024080
:1015A0000024F400001BB7002DE9F84F04006ED0B2
:1015B0002078DFF84C93C007A9F104054AD009F15F
:1015C00004000168C1F38101012908D00068C0F35B
:1015D000810002280AD1D9F80000400206D5286807
:1015E000800337D560680028E1D033E06068B0F54B
:1015F000803F10D0B0F5A02F286810D020F48030A4
:101600002860286820F4802028606068A8B1FFF76F
:101610003FFE06460DE0286840F48030F4E740F4D1
:1016200080202860F7E700BFFFF732FE801B6428A8
:1016300073D828688003F7D50CE0FFF729FE06462B
:1016400005E000BFFFF724FE801B6428F0D828685F
:101650008003F7D42078DFF8AC8280074FF0000ACF
:101660003ED5A748001D016811F00C0F08D0006896
:10167000C0F3810002280BD1D9F80000400207D442
:101680002868800716D5E068012800D112E033E110
:10169000E068B8B10120C8F80000FFF7F9FD064680
:1016A00005E000BFFFF7F4FD801B0228C0D82868C2
:1016B0008007F7D52868216920F0F80040EAC100CA
:1016C00028600DE0C8F800A0FFF7E2FD064604E040
:1016D000FFF7DEFD801B02281FD828688007F7D49B
:1016E0002078000722D5864F87486169703771B12D
:1016F00001210160FFF7CCFD064604E0FFF7C8FDBD
:10170000801B022809D838688007F7D50EE0C0F89A
:1017100000A0FFF7BDFD064605E082E0FFF7B8FD3B
:10172000801B02287DD838688007F7D420784007CE
:1017300068D5DFF8CCB100270BF13C0BDBF80000DB
:10174000C0000BD4DBF8001041F08051CBF8001042
:10175000DBF80000012700F0805000906B4E3068ED
:10176000C00510D4306840F480703060FFF790FD01
:10177000009005E0FFF78CFD0099401A022850D830
:101780003068C005F6D55E4EA0686C3601280FD0D3
:101790000528306810D020F001003060306820F05B
:1017A00004003060A068B8B1FFF772FD00900FE050
:1017B000306840F00100F4E740F004003060F7E7E3
:1017C000FFF766FD0099411A41F28830814266D8E0
:1017D00030688007F4D50EE0FFF75AFD009007E06F
:1017E000FFF756FD0099411A41F28830814256D8E0
:1017F00030688007F4D42FB1DBF8001021F080515D
:10180000CBF80010A069C8B33D49091D0968C1F3B0
:10181000810102294AD00228504607D0C8F860004A
:1018200000E03CE0FFF734FD04463BE04746C8F8E3
:101830006000FFF72DFD064605E000BFFFF728FD1D
:10184000801B02282BD828688001F7D4D4E907012F
:101850000843A16A2E4A490802EB0141626A41EA43
:101860008211084394F82C1040EA0161C9F8001075
:1018700001203866FFF70CFD044606E03EE000BF9D
:10188000FFF706FD001B022809D828688001F7D55C
:1018900034E000BFFFF7FCFC001B022802D9032044
:1018A000BDE8F88F28688001F4D427E00128F7D03C
:1018B000D9F80000E26900F4800191421CD1226A4B
:1018C00000F03F01914217D147F6C071626A0140B2
:1018D000B1EB821F10D1A26A4FF0FF3300F4403108
:1018E00003EB5202B1EB024F06D194F82C1000F03A
:1018F0007060B0EB016F01D00120D1E70020CFE78D
:101900000438024000004742800E47420070004009
:101910000000FFFF10B5401EB0F1807F01D3012011
:1019200010BD4FF0E02460610F21601701F089F9CC
:101930000020A06107202061002010BD7047704783
:1019400070B590F83C20012A32D0012480F83C4048
:10195000022280F83D2003685A689D6822F07006D4
:101960000A6832435A60134B02689A4214D0B2F1AB
:10197000804F11D0104B9A420ED0104B9A420BD090
:101980000F4B9A4208D00F4B9A4205D00E4B9A4209
:1019900002D00E4B9A4204D1496825F080031943C6
:1019A000916080F83D40002180F83C10084670BDF1
:1019B000022070BD0000014000040040000800400B
:1019C000000C0040000401400040014000180040AD
:1019D00010B5040003D094F83D0010B107E00120D9
:1019E00010BD002084F83C00204600F01FF80220C3
:1019F00084F83D00211D206800F090FF012084F84C
:101A0000460084F83E0084F83F0084F8400084F8E3
:101A1000410084F8420084F8430084F8440084F8CC
:101A2000450084F83D00002010BD000008B50068A6
:101A30000B49884212D10B48016841F00101016055
:101A40000068002200F00100009011461920FFF705
:101A50008DFCBDE808401920FFF77ABC08BD0000E6
:101A6000000001404438024090F83D10012901D0A7
:101A700001207047022180F83D100168CA6842F0D9
:101A80000102CA6000681149884214D0B0F1804F49
:101A900011D00F4988420ED00E4988420BD00E4912
:101AA000884208D00D49884205D00D49884202D0AD
:101AB0000C49884204D1816801F00701062903D04E
:101AC000016841F001010160002070470000014001
:101AD0000004004000080040000C004000040140E9
:101AE000004001400018004070B5044690F83C00EA
:101AF0000025012817D0012684F83C60022084F8D4
:101B00003D002068826822F0770222F47F428260E2
:101B10000868502838D00DDC20284FD005DC90B361
:101B2000102811D14AE0022070BD302846D040284C
:101B30000AD13BE060282FD070280DD0B0F5805F2F
:101B400003D0B0F5005F12D0012584F83D6000207D
:101B500084F83C00284670BDCB68D1E9012120689B
:101B600000F040FF2068816841F0770109E0CB6810
:101B7000D1E90121206800F035FF2068816841F437
:101B800080418160E1E719E0CA684968206800F097
:101B90003BFF5021206806E0CA684968206800F0D1
:101BA00044FF6021206800F027FFCEE7CA6849683B
:101BB000206800F029FF40212068F4E722680146F0
:101BC0001046F0E7704770B50446006801694FF0B1
:101BD0000005C943890715D4C168C943890711D4D1
:101BE000E91E016101202077206880698007204676
:101BF00002D0FFF7E7FF04E000F098F8204600F07D
:101C000096F8257720680169C943490717D4C16848
:101C1000C943490713D46FF0040101610220207702
:101C20002068806910F4407F204602D0FFF7CAFF89
:101C300004E000F07BF8204600F079F82577206872
:101C40000169C943090716D4C168C943090712D4F9
:101C50006FF008010161042020772068C0698007C7
:101C6000204602D0FFF7AEFF04E000F05FF8204608
:101C700000F05DF8257720680169C943C90617D4CB
:101C8000C168C943C90613D46FF01001016108206F
:101C900020772068C06910F4407F204602D0FFF70B
:101CA00091FF04E000F042F8204600F040F825776C
:101CB00020680169C943C90708D1C168C943C90778
:101CC00004D1891E0161204600F032F820680169C4
:101CD000C943090609D4C168C943090605D46FF090
:101CE000800101612046FFF729FE20680169C94390
:101CF000490609D4C168C943490605D46FF04001BB
:101D00000161204600F065FA20680169C94389062F
:101D10000BD4C168C943890607D46FF02001016163
:101D20002046BDE87040FFF70ABE70BD704770479F
:101D30002DE9F047FF492DED088B006888427CD1E2
:101D4000FD4EB07A032878D1F07A032875D1B6F920
:101D5000060000EE100AB6F90400F8EEC00A00EE24
:101D6000100AB8EEC00A01F0D3FAF44C84ED000A70
:101D7000D4ED010A01F022FB84ED020AD4ED000A41
:101D800030EE800AD4ED010A01F042FB84ED030A33
:101D9000D4ED010A94ED021A30EEC11AB0EEC11A68
:101DA00084ED041AD4ED001A71EEE00AF0EEE00AB8
:101DB000C4ED050A9FEDE28AB4EEE01AF1EE10FAE6
:101DC00005DB84ED028AF7EE001AC4ED061AB4EEC4
:101DD000E01AF1EE10FA05D284ED008AFFEE000A57
:101DE000C4ED060AD4ED000A94ED021A70EE810AE1
:101DF000C4ED010A9FEDD31AC0EE811A71EE800A7C
:101E00009FEDD10A20EE800ADFEDD08ADFF8408313
:101E10004FF4FA7920EE280A08F1140588ED010A3A
:101E200088ED020A88ED030A88ED040AB6F9040079
:101E300000F1FA01494506D800E0C6E1B6F90610FE
:101E4000FA3149457ED910FB00F1F08810FB0010F3
:101E500001F04CFE41EC100B01F072F99FEDBD9BBF
:101E600051EC100B53EC192B01F058FE41EC1A0BFE
:101E7000A06902F013F953EC1A2B01F04FFE01F0A8
:101E8000BBFB6860B6F9067000EE107AF8EEC00A87
:101E90009FEDB2BA80EE8B0A10EE100A02F0FEF847
:101EA00041EC1A0BB08810FB00F017FB070001F0A3
:101EB0001DFE41EC100B01F043F953EC192B51ECD2
:101EC000100B01F02BFE53EC1A2B01F0FDFF41EC3F
:101ED0001A0BA06902F0E2F853EC1A2B01F01EFE77
:101EE00001F08AFBA860B6F9067000EE107AF8EEF1
:101EF000C00A80EE8B0A10EE100A02F0CFF841EC17
:101F00001A0BB08810FB00F017FB070001F0EEFD84
:101F100041EC100B01F014F953EC192B51EC100BA0
:101F200001F0FCFD53EC1A2B01F0CEFF41EC1A0B33
:101F3000A06902F0B3F853EC1A2B01F0EFFD01F0A9
:101F40005BFB00E041E0E860B08810FB00F1F08846
:101F500010FB001001F0CAFD41EC100B01F0F0F88D
:101F600053EC192B51EC100B01F0D8FD41EC190B7F
:101F7000A06902F093F853EC192B01F0CFFD01F0AA
:101F80003BFB95ED011AB1EE0C0A00EE900A21EE32
:101F9000001A85ED011A95ED021A21EE001A85ED61
:101FA000021A95ED031A21EE001A20EE800A85ED43
:101FB000031A85ED040AB6F90410FA3149450CD824
:101FC000B6F90610FA31494507D885ED018A85ED45
:101FD000028A85ED038A85ED048AB6F9080000F1CE
:101FE000C701B1F5C77F19D994ED030A60EE280A3D
:101FF0009FED5B0A20EE801ADFED5A1A9FED5A0A18
:1020000001EE210A88ED010ADFED580A41EE210AAE
:10201000C8ED020A88ED030AC8ED040A00F249116E
:1020200040F2922291422DD900EE100AF8EEC00A39
:102030009FED4F0A60EE801A00EE900AB8EEE01AAB
:10204000DFED4C0A02EE100A21EE201AB8EEC22A89
:1020500022EE202A00EE900AF8EEE00A60EE800AF6
:102060009FED450A61EE801A21EE001AC5ED011AB6
:1020700085ED021A22EE001A20EE800A85ED031A81
:1020800085ED040A95ED010A012000F07DFB304C3E
:1020900002203C3484ED010A95ED020A00F074FB45
:1020A00084ED020A95ED030A032000F06DFB84ED38
:1020B000030A95ED040A042000F066FB84ED040A8F
:1020C000464698ED010A012001F01EFAA4F114051C
:1020D000022085ED010A96ED020A01F015FA85ED60
:1020E000020A96ED030A032001F00EFA85ED030AB9
:1020F00096ED040A042001F007FA85ED040A94ED38
:10210000040ABDEEC00A10EE100A94ED030A03B2F1
:10211000BDEEC00A10EE100A94ED020A02B2BDEE46
:10212000C00A10EE100A94ED010A01B2BDEEC00A19
:1021300024E0000000000140D80C0020180000201E
:10214000000000000000B44300009048666656405E
:10215000B001002000000060E02BEBBFA245C542AB
:1021600000000046000010423333F1C73333F1471B
:10217000E604353FE60435BF6666A64010EE100A59
:1021800000B2FEF75BF995ED040ABDEEC00A10EE51
:10219000100A95ED030A03B2BDEEC00A10EE100A54
:1021A00095ED020A02B2BDEEC00A10EE100A95EDDE
:1021B000010ABDEC088BBDEEC00A01B210EE100A98
:1021C000BDE8F04700B2FEF779B9BDEC088BBDE879
:1021D000F087704770B5040004D094F83D000025E6
:1021E00010B106E0012070BD84F83C50204600F09C
:1021F00023F8242084F83D002068C16821F40051B0
:10220000C160204600F024FC2068016921F490415F
:1022100001612068416921F02A0141612068C1689B
:1022200041F40051C1602564202084F83D0084F809
:102230003E00002070BD000070B586B00646142137
:102240006846FEF788F824493068884242D123481E
:102250000025016841F480210160006800F48020BD
:1022600005901E481038016841F0040101600068C3
:10227000694600F0040005904FF440600090022091
:10228000CDE9010503200390072004901448FEF7D0
:1022900007FF154C134820604FF00060C4E90105AA
:1022A0004014C4E9035065614FF44030A561C4E9AE
:1022B000075020466562FEF789FE08B1FEF793F9E4
:1022C000B463002211462720A663FFF74FF82720AA
:1022D000FFF73EF806B070BD0048004040380240AD
:1022E000000802402860024050010020FEE7000084
:1022F0000F4810B50D4901600321416000214FF4E2
:10230000C0228160C0E903124FF4A002426101764D
:1023100041768176C17601774177FEF7E0FB0028B0
:1023200003D0BDE81040FEF75EB910BD0064004068
:10233000740000200F4810B50D4901600321416071
:1023400000214FF4C0228160C0E903124FF4A002C3
:102350004261017641768176C17601774177FEF759
:10236000BEFB002803D0BDE81040FEF73CB910BD0D
:10237000006800409C000020094808B5016841F44D
:10238000001101600068002200F400100090114666
:102390000C20FEF7EBFFBDE808400C20FEF7D8BF8D
:1023A00030380240154808B5016841F0020101606B
:1023B000016801F002010091016841F00101016032
:1023C000016801F001010091016841F0080101601C
:1023D000016801F008010091016841F00401016009
:1023E000016801F004010091016841F08001016081
:1023F000006800F08000009008BD00003038024006
:1024000010B586B0002417480094019402940394F8
:102410000494134905940160A721C0E9011440F216
:10242000CF71C0E9031444618461FFF7D1FA08B1A8
:10243000FEF7D9F84FF48050009069460948FFF73D
:1024400053FB08B1FEF7CFF8049404A9054805949E
:10245000FFF776FA002801D0FEF7C5F806B010BDE8
:1024600000000140C40000200D4810B50B49016078
:102470000C49416000214FF480628160C0E9031281
:102480000422C0E90521C161FFF7A4FE002803D0A2
:10249000BDE81040FEF7A7B810BD0000004800409E
:1024A0000C010020A0860100FEE7FEE7A0B1D0ED00
:1024B000101AC0ED111A90ED0F1A80ED101AC0ED30
:1024C000060A80ED070A30EEC00A80ED0F0A017897
:1024D00029B101293BD078E09FED3D0A7047D0ED4E
:1024E000010A60EE801AC0ED091AD0ED0A0A90EDDB
:1024F000022A42EE000A30EE410AC0ED0A0A90EDCF
:102500000D2A80ED0E2A90ED0C2A80ED0D2A80ED2B
:102510000C0A90ED031A21EE001A80ED0B1A90EDD3
:10252000050AF4EEC00AF1EE10FA09DCB1EE400A39
:10253000F4EEC00AF1EE10FA02D390ED0A0A01E0BF
:1025400080ED0A0A31EE800A30EE010A2BE070EECF
:10255000410A90ED012A20EE822A80ED092AD0ED71
:10256000020A60EE800AC0ED0A0AD0ED0D2A72EE72
:10257000200AC0ED0E2AD0ED0C2AC0ED0D2AF0EE97
:10258000002A01EE620A30EE210A80ED0C0A90ED7D
:10259000031A21EE000A80ED0B0A30EE800AD0ED1E
:1025A000080A30EE200A80ED080AD0ED040AB4EEE5
:1025B000E00AF1EE10FA06DCF1EE600AB4EEE00A91
:1025C000F1EE10FA01D2C0ED080A90ED080A70474A
:1025D000000000002DE9F047404E00242DED068B51
:1025E00006F5107706F5906906F5D8689FED39AACB
:1025F000DFED39AA9FED3A8ADFED3A8A9FED3A9AEC
:10260000DFED3A9A04EBC40506EBC500F0EE480A8C
:10261000B0EE680A364A002100F06CF8344A07EB45
:10262000C500F0EE490AB0EE690A0C32002100F054
:1026300061F82F4A09EBC500F0EE480AB0EE4A0AED
:102640001832002100F056F8294A08EBC500F0EED8
:102650006A0AB0EE680A2432002100F04BF8641CCC
:10266000042CCFDBB24604244FEA090604EBC40570
:102670000AEBC500F0EE480AB0EE680A1C4A0021D9
:1026800000F038F81A4A07EBC500F0EE490AB0EE40
:10269000690A0C32002100F02DF806EBC500F0EEBF
:1026A000480AB0EE680A124A002100F023F8104AE6
:1026B00008EBC500F0EE490AB0EE690A0C320021C1
:1026C00000F018F8641C082CD0DBBDEC068BBDE8CC
:1026D000F087000000A00C460000FA44D803002058
:1026E0000080BB4500401C46000096430000C843E4
:1026F00040000020002828D0002A26D0017092ED4A
:10270000001A80ED011A92ED011A80ED021A92ED85
:10271000021A80ED031A80ED040A9FED0C0AC0ED49
:10272000050A80ED0E0A80ED0D0A80ED0C0A80EDA1
:10273000080A80ED0B0A80ED0A0A80ED090A80ED97
:10274000110A80ED100A80ED0F0A704700000000AA
:102750000B4AC0EBC00110B502EB8101F0EE400A5C
:1027600011ED040A00EBC0010648B8EEC00A00EB08
:10277000C104A4F14800FFF799FE14ED0A0A10BD48
:10278000E0020020980A00200C4AC0EBC00110B5FE
:1027900002EB8101F0EE400A31F91A1C00EE101A2A
:1027A00000EBC0010648B8EEC00A00EBC104A4F17A
:1027B0004800FFF77BFE14ED0A0A10BD000200205E
:1027C000D80300200C4AC0EBC00110B502EB810118
:1027D000F0EE400A31F91A1C00EE101A00EBC001AD
:1027E0000648B8EEC00A00EBC104A4F14800FFF7A8
:1027F0005DFE14ED0A0A10BDE0020020580800201A
:102800007047000030B5144B1C68656945F0400501
:1028100065611B68DC6844F01004DC600F4B1C68C9
:10282000256825F0010525601C682568ED07F7D1AE
:102830001D680B4CAC601C68E0601868016118688A
:1028400042601868016841F48021016018680168DD
:1028500041F00101016030BD0C0100205001002059
:10286000044800407047FEF719BD000030B593B032
:1028700030216846FDF76FFD14210CA8FDF76BFDB4
:102880001D480025016841F080510160006800F09A
:10289000805011901948016841F48041016000683E
:1028A000022400F480401190012000900004019067
:1028B0008001CDE9064006200890A820CDE9090452
:1028C00004200B906846FEF76FFE08B172B6FEE773
:1028D0000CA90F2081E831004FF4A0500F904FF465
:1028E0008050109005210CA8FEF772FD002801D041
:1028F00072B6FEE713B030BD4038024000700040B1
:102900000248016841F470010160704788ED00E001
:102910000148FFF758B90000C4000020F0B5026874
:10292000254C264D264E274F274B4FF0804CA0427A
:1029300009D0604507D0A84205D0B04203D0B842C4
:1029400001D0984204D122F0700E4A6842EA0E0289
:10295000A0421BD0604519D0A84217D0B04215D074
:10296000B84213D0984211D0184DA8420ED0184D3D
:10297000A8420BD0174DA84208D0174DA84205D049
:10298000164DA84202D0164DA84203D122F440753C
:10299000CA682A434D6922F080022A4302608A688D
:1029A000C2620A688262A04201D0984201D10969DC
:1029B000016301214161F0BD0000014000040040BD
:1029C00000080040000C00400004014000400140AD
:1029D000004401400048014000180040001C004035
:1029E0000020004010B5846842EA032224F47F44AA
:1029F0000A432243826010BD826822F070020A43BB
:102A000042F007018160704710B5036A046A24F040
:102A100001040462846924F0F00444EA021423F0FF
:102A20000A020A438461026210BD10B5036A23F0F2
:102A3000100303628369046A23F4704343EA023299
:102A400024F0A00343EA01118261016210BD00007D
:102A500070B5044600680169E26821F440511143F1
:102A600001612169A068E269084361691143084373
:102A70002168CA6849F20C639A430243CA6020681D
:102A80004169A26921F440711143416131492068D3
:102A9000884202D03049884202D1FEF743FD01E06E
:102AA000FEF730FDE2690023192164253226B2F5D4
:102AB000004F626828D0A0FB0101930F9200FDF740
:102AC000D3FB0146B0FBF5F06FF01802504301EB69
:102AD000800006EB0010B0FBF5F000F0F002B1FB57
:102AE000F5F002EB0012B1FBF5F06FF0180358435C
:102AF00001EB800006EB0010B0FBF5F000F00F00DA
:102B000021681044886070BDA0FB010192185B41F0
:102B1000FDF7AAFB0146B0FBF5F00201B1FBF5F0B1
:102B20006FF01803584301EB800006EBC000B0FBC8
:102B3000F5F000F0F80002EB4002B1FBF5F058436D
:102B400001EB800006EBC000B0FBF5F000F00700E1
:102B5000D6E700000010014000140140264818B4D8
:102B600000680168890604D501684068009018BCB7
:102B7000704722490968C906F9D501684068204AAA
:102B80000090106801684FF024030C031D4904688D
:102B900024F00104046016D410684468C4F12404CD
:102BA000A4B20C8043601068016841F40021016008
:102BB0001068016841F001010160122CD7D112495F
:102BC00001F1160015E014686068C0F1240080B2BD
:102BD000088063600D498B6A23F400238B621168BF
:102BE0000A6842F001020A601228C0D1064901F1C8
:102BF0003A0018BC00F09ABC0C01002000480040CC
:102C00005001002070000020D80C0020006002401D
:102C1000FEE703B401984100009850EAC12018BFB4
:102C200004204A0D18BF40F0010040F2FF72B2EBE1
:102C3000515F08BF40F00200012808BF052002B024
:102C400070470907090E002804DB00F1E02080F836
:102C50000014704700F00F0000F1E02080F8141D10
:102C6000704700000000000070B59B482DED020B7E
:102C70002DED068B079D25F00044A04218DC9748F7
:102C8000844202DC0AD1069840B19DED060BBDECF2
:102C9000068B02B0BDE8704000F00BBB002DCCBF2E
:102CA0009FED8F0B9FED900BBDEC068B02B070BDBE
:102CB0008F48A04215DD8F48A042D8BF4FF0FF34A7
:102CC00058DD9DED060B51EC100BFFF7A2FF042819
:102CD00008BF00F005FB9DED060BBDEC068B02B0B6
:102CE00070BD9DED060B51EC100B00F0B3FBCDE970
:102CF000060181489FED828BA0423CDD8248A042C4
:102D00001FDD00249FED82AB9DED060B53EC1A2BCB
:102D100051EC100B00F0A2FC9DED060B41EC190BE1
:102D200053EC1A2B51EC100B00F0F8FE53EC182B5F
:102D300001F0CAF853EC192B00F044FDCDE906016F
:102D400049E09DED060B012453EC182B51EC100BC0
:102D500000F084FC9DED060B41EC190B53EC182B95
:102D600051EC100B01F0B0F853EC192B00F02AFDD8
:102D7000CDE906012FE06848A0421FDD02249FED47
:102D8000689B9DED060B53EC192B51EC100B00F0DA
:102D9000C5FE53EC182B00F061FC9DED060B41ECD9
:102DA000180B53EC192B51EC100B01F08DF853EC70
:102DB000182B00F007FDCDE906010CE09DED060B98
:102DC000032453EC102B9FED580B51EC100B00F02B
:102DD000F9FCCDE906019DED060B53EC102B51ECEF
:102DE000100B00F09BFE41EC180B53EC182B00F07D
:102DF00095FE41EC190B4E480621B0EE490AF0EE63
:102E0000690A784400F0D9F953EC182B51EC100BF7
:102E100000F084FE41EC180B4648B0EE490AF0EE93
:102E2000690A0521784400F0C8F953EC192B51ECDC
:102E3000100B00F073FE41EC100B51EC180B53EC2F
:102E4000102B002C0EDA00F009FC9DED061B53EC54
:102E5000112B00F063FE9DED061B53EC112B00F0CF
:102E60005BFF35E000F0FAFB9DED061B53EC112BE8
:102E700000F054FE41EC100B2F48784400EBC400E6
:102E800090ED001B51EC100B53EC112B01F01CF8D2
:102E90009DED061B53EC112B01F016F841EC100BC5
:102EA0002648784400EBC40090ED001B51EC100B59
:102EB00053EC112B00F030FF41EC100B002DA2BFA2
:102EC000BDEC068B02B070BD51EC100B00F088FB1E
:102ED00041EC100B01E70000000010440000F07FFF
:102EE000182D4454FB21F93F182D4454FB21F9BF00
:102EF0000000DC3F0000203E0000F33F0000000027
:102F0000000000000000F03F0000E63F000000006D
:102F100000000000000000400080034000000000AE
:102F2000000000000000F83F000000000000F0BFBB
:102F30001A140000D01300005A13000012130000EE
:102F400070B56F4E2DED040B2DED048B82B0DDF8C6
:102F500024C0DDE907235C422CF000411C4341EA18
:102F6000D474069D22F00040B44205D86C422C4334
:102F700040EAD474B4420BD99DED081B9DED060BBD
:102F800002B0BDEC048B04B0BDE8704000F09BB90A
:102F9000ACF14054A4F17F641C430BD0022404EA3A
:102FA000AC7444EAD27405439FED578B9FED582BC8
:102FB00007D015E09DED060B51EC100B00F0A0F9C9
:102FC00042E0002C11BF012C9DED060B02B0BDECC0
:102FD000048B04BF04B070BD022C38D0032C3BD04E
:102FE0000B439FED4D1B9FED4E0B0AD0B14218D104
:102FF000B04209D121F0804120F080400991079032
:103000000FE0002A15DA10E0474B7B44002C08BF84
:1030100093ED000B0DD0012C10D0022C17D0032CF7
:103020001AD0B0421DD1002A03DAB0EE410AF0EE08
:10303000610A02B0BDEC048B04B070BD93ED000BCF
:1030400051EC100B00F0CCFA41EC100BF1E7B0EEB4
:10305000480AF0EE680AECE7B0EE420AF0EE620AC7
:10306000E7E7401A00159FED329B3C28C8BF8DED65
:10307000000B17DCBCF1000FBCBF10F13C0F8DED55
:10308000009B0FDB9DED080B53EC102B9DED060B09
:1030900051EC100B00F096FB00F0DCF900F030F979
:1030A000CDE90001B4B1012C10D0022C9FED220B10
:1030B00053EC102B9DED000B51EC100B19D000F0D0
:1030C00003FF53EC182B00F0FFFEBDE7019880F0E2
:1030D000004001909DED000B53EC192B51EC100BAF
:1030E00000F0C8FC04BF0220FDF764F99DED000B61
:1030F0009FE700F0E9FE53EC182B00F00DFEA3E76C
:103100000000F07F00000000182D4454FB2109400E
:10311000182D4454FB2109C0182D4454FB21F9BF3C
:10312000182D4454FB21F93F42120000000000001A
:103130000000000000000000075C143326A6A13C3C
:1031400000B52DED048BB0EE409AF0EE609A83B09E
:1031500051EC190B00F0ECFD41EC180B18EE100AC5
:1031600018EE901A8DED008B002818BF012008433F
:1031700020F00040C0F17F6000F1E040C00F14D0AB
:1031800019EE101A19EE900A8DED009B002918BF58
:103190000121084320F00040C0F17F6000F1E040D1
:1031A000C00F04BF0120FDF705F9B0EE480A03B0D7
:1031B000F0EE680ABDEC048B00BD70B504462DED41
:1031C000028B4D1E00EBC500B0EE408AF0EE608A27
:1031D00090ED000B35F0060017D053EC182B51EC96
:1031E000100B00F09BFC41EC100B6D1E04EBC500B6
:1031F00090ED001B51EC100B53EC112B00F02EFA4C
:1032000041EC100B35F00600E7D1022D36D0042D2D
:103210001CD0062D1CBFBDEC028B70BD53EC182BCF
:1032200051EC100B00F07AFC94ED0A1B53EC112BBF
:1032300000F014FA53EC182B00F070FC94ED081B0E
:1032400053EC112B00F00AFA41EC100B53EC182B45
:1032500051EC100B00F062FC94ED061B53EC112BAB
:1032600000F0FCF953EC182B00F058FC94ED040B23
:1032700053EC102B00F0F2F941EC100B53EC182B2F
:1032800051EC100B00F04AFC94ED021B53EC112B97
:1032900000F0E4F953EC182B00F040FC94ED001B17
:1032A00053EC112B00F0DAF9BDEC028B41EC100B62
:1032B00070BD10B553EC102B51EC100B00F0CEF993
:1032C00041EC100B10BD10B553EC112B51EC100B51
:1032D00000F0C4F941EC100B10BD0000000000002C
:1032E0009FED050B10B553EC102B51EC100B00F0BB
:1032F00015FC41EC100B10BD000000000000001098
:1033000010B541EC100BFFF7AFFC51EC100B10BDEA
:1033100010B5B5EEC00A2DED048BB1EE408AF1EE8A
:1033200010FA01DCB0EE480A10EE101A1D48814276
:103330000DDCF5EEC00AF1EE10FA02DDB0EE600A27
:1033400001E0B1EE600A10EE101A814226DD10EEA7
:10335000900A00F0A3FE41EC190B18EE100A00F0E1
:103360009DFE41EC100BB0EE491AF0EE691AFFF722
:10337000E7FD9FED0D1B51EC100B53EC112B00F0F2
:10338000CDFB9FED0B1B53EC112B00F01BFA00F053
:1033900033F900EE100ABDEC048B10BD9FED060A58
:1033A000F9E700000000F0420000000000806640E5
:1033B00000000000FA2109400000000070EE600AE1
:1033C0001049F0EEE00A10EE900A884214DD10EE8B
:1033D000100A49424FF401020844DFED0B0A904203
:1033E00001D830EE601A10EE100A084908449042E5
:1033F00004D830EE201A01E0B0EE401AB0EE410AD7
:10340000704700000000B4420000344300004C3D0F
:1034100030EE600A0D480C4A10EE101AD0ED000A8A
:10342000B7EE001A914202DD30EEC10A09E010EE5B
:10343000101A074A914202D890ED000A704730EE08
:10344000810A80ED000A70470000824314000020CA
:10345000000082C382B0CDE9000121F0004001905C
:103460009DED000B02B051EC100B7047098849BA72
:1034700001808182704710B5B0F9003003810A885D
:1034800052BA02804C88D31A64BA44808C88B3F54F
:10349000805F64BA848089798171016901DD491E88
:1034A00003E013F5805F01DA491C016102EB413151
:1034B000828A891AC16010BDFDF7F8FEFFF7D6F9C0
:1034C000FEF770FFFEF758FFFEF712FFFEF732FF20
:1034D000FEF7CAFFFEF794FF00F020F8FFF77AF836
:1034E000FCF7D0FFFDF70EF80448FDF727F8044875
:1034F000FDF724F80348FEF7B7FAFEE77400002052
:103500009C000020C400002010B50446FFF720F9FD
:103510002046BDE81040FFF755B9000002492422BB
:10352000A1F12400FFF76EB9120D0020F0B50028BC
:1035300055D0002953D00278437842EA0322C2F3DF
:103540000A020A8043788478DB0843EA4413C3F311
:103550000A034B808478C578A40944EA8504057978
:1035600044EA8524C4F30A048C80057946796D0801
:1035700045EAC615C5F30A05CD804679C6F301169E
:103580008E724679B609CE728679C77946EA0726E1
:103590008E81067A477A46EA0726CE81867AC77AEE
:1035A00046EA07260E82067B8E74467BCE74867BA7
:1035B000C77B46EA07268E82067C407CA2F58062A5
:1035C0000A80A3F580634B80A4F5806446EA00205E
:1035D0008C80A5F58065CD80A0F580600881F0BD68
:1035E00081F00041704780F00040704721F00041B9
:1035F000704720F00040704721F00042A2F1605275
:10360000B2F5801F01F0004328BFD2F17F6C0BD9C7
:103610005FEA001C43EAC20242EB507018BF7047D9
:1036200028BF20F001007047B2F5801FBCBF1846CC
:1036300070474FEA410C1CF5001F02D2084600F00B
:10364000A3BD70B500F014FB00000089FFF7F6BFC2
:103650004FF00040A0F580007047000010B591EADF
:10366000030F48BF83F0004300F13684841A71EBE6
:10367000030C05D2121943EB0C03001B61EB0C0188
:10368000DFF824E14FEA1154A4EB135C1EEA430F68
:1036900018BF9EEA445F73D023EA0E03DCF1200ECC
:1036A00021EA045143F4801332D322FA0CFE10EBCA
:1036B0000E0023FA0CFE41EB0E01CCF1200E03FAB2
:1036C0000EFE10EB0E0051F10001B1F5801FCCF1A0
:1036D000200E32D201EB045112FA0EF2BDE8104076
:1036E00058BF7047401C38BF5FEA420218BF70479E
:1036F000002814BF20F0010041F100014FEA41030E
:1037000013F5001F38BF7047A1F1C04100F0FEBAA9
:10371000012A43EB0302ACF1200CDCF11F0E32BF97
:103720004FF0000E23FA0CF310EB030041EB0451B1
:10373000B4EB115FD0D0A1EB045101F58011490821
:103740005FEA300001EB04510ED350F1000038BFA6
:1037500012FA0EFE08D1BDE81040C9E7401C38BF80
:103760005FEA4202CAD1C3E7BDE810404FEA410315
:1037700013F5001F38BF7047A1F1C04100F0C6BA71
:103780009EEA445F08D011EA5E0FBDE8104004BF16
:1037900001F0004100207047BDE8104070B500F016
:1037A00067FA00BF64FBBE3E0000E0FF491058BF4F
:1037B000C1F140415B1058BFC3F140438B42EFF36E
:1037C000008070472DE9C04130B4DFF8A0C23CEA68
:1037D000111418BF3CEA131400F0EC8081EA0305D1
:1037E0001CEA111444EAD57418BF1CEA131500F042
:1037F000C780A4EB05044FF0004545EAC12145EA26
:10380000C32341EA505143EA525304F17F74994271
:1038100004F500344FEAC0204FEAC22208BF9042AC
:1038200000F09C804FEA13650FF24016765D4FEA78
:10383000134506FB05F7C7F1807706FB07F74FEA4C
:10384000D737A7FB03687642C8F58038A7FB06CEBA
:1038500038BFA8F1010807FB08E64FF0000EA6FBF1
:10386000028CE6FB03CEDCF1000CCEF1004E38BF3B
:10387000AEF1010EA6FB0C584FF000074FF000050B
:10388000E6FB0E87A1FB08C6A0FB07CE16EB0E06D3
:1038900045F10005E1FB076515F1E04E7EBFA4F59B
:1038A00080345FEA46066D4116F1800745F1000558
:1038B0004FEA17274FEA066647EA0567A6F1DE4694
:1038C000B6F1805F4FEA15251FD9384624F0010C68
:1038D00005EBC471BCF1FE6F01EB0C1102D8F0BC1A
:1038E000BDE8008124425CBF01F5801E9EEAC47FD2
:1038F00002D4F0BCBDE80081244238D4F0BCA1F170
:10390000C041BDE8004100F001BA4FEAD22242EACC
:1039100043524FEAD323A7FB02864FEAD02040EA66
:10392000415007FB03661EEA0E0F4FEAD12105FB4B
:10393000026658BFA6EB0056B6EB00564FEA520E91
:103940004EEAC37E18EB0E0E56EB530EBDD518EBA8
:1039500002085E417F1C55F10005B6E74FF4801563
:103960004FF000074FF000064FF00008ADE7F0BC45
:103970004FF0000001F1C04101F00041BDE80081BD
:1039800011EA0C1F0CEA131500D00CE013EA0C1F0F
:1039900000F025804FF00000F0BC81EA030101F047
:1039A0000041BDE80081F0BCBDE8004181EA0301AF
:1039B00000F0ACB9F0BCBDE8004170B500F058F9BA
:1039C000097EFC3E00F007B881EA03014FF00000D9
:1039D00001F00041704781EA030100F097B9F0BCA3
:1039E000BDE800414FF0000021497047FFFDFBF9A1
:1039F000F7F5F4F2F0EEEDEBE9E8E6E4E3E1E0DE22
:103A0000DDDBDAD8D7D5D4D3D1D0CFCDCCCBCAC893
:103A1000C7C6C5C4C2C1C0BFBEBDBCBBBAB9B8B7BA
:103A2000B6B5B4B3B2B1B0AFAEADACABAAA9A8A8AD
:103A3000A7A6A5A4A3A3A2A1A09F9F9E9D9C9C9B7B
:103A40009A99999897979695959493939291919026
:103A50008F8F8E8E8D8C8C8B8B8A898988888787B7
:103A60008685858484838382828181800000FF072C
:103A70000000F87F51EA030C17D41CF5801F58BFD3
:103A8000BCF5801F00F10680994218BF704708BF3F
:103A90009042704707D711F5801F58BF13F5801F5C
:103AA00019D499427047894270471CF5801F08D588
:103AB000BCF5801FF7D58B4218BF704708BF824204
:103AC00070474FF4001C1CEB410F38BF1CEB430F39
:103AD00001D28B42704770B500F0CAF892244900B9
:103AE0004FF000514FF08053FFF760BE10F00042DE
:103AF00048BF4042B0FA80F310FA03F10AD0C3F194
:103B00001D0303F580634FEA415002EB035202EBC1
:103B1000D12170474FF0000070470000DFF848C126
:103B200070B51CEA111E1EBF1CEA13159EEA0C0F8D
:103B300095EA0C0F00F06F8081EA030423EA4C132E
:103B40004EEAD47E21EA4C1141F4801143F48013F3
:103B5000AE44A1FB024CA0FB0365AEF17F7E36199B
:103B600055EB0C05A1FB034C4CF10003A0FB021C20
:103B700016EB0C06654153F10003094218BF46F0ED
:103B8000010613F4007F0BD14FEA03314FEA0530F1
:103B9000340341EA155140EA16506FF003020AE07F
:103BA0004FEAC3214FEAC520F40241EA555140EAE9
:103BB00056506FF0020202EB2E4201EB025585EAED
:103BC000CE710AD05FEA440C18BF24F0004450F1D3
:103BD000000041F1000120EAD47040F2FE7C624511
:103BE00000D270BDA84214BF4FF080444FF0404453
:103BF000002E08BF0024BEF1806FA8BFA1F1C04114
:103C0000BDE8704080F282804FF0000001F1C041B9
:103C100001F0004170479EEA0C0F0CEA131518BF23
:103C200095EA0C0F06D04FF0000081EA030E0EF06B
:103C3000004170BD00F01CF88900013E00F007B89B
:103C400000F009B84FEA430C5FEA5C5C08D081EAF7
:103C5000030100F05BB84FEA410C5FEA5C5CF6D10F
:103C60004FF00000014970470000FF070000F87F97
:103C70000EF1020E2EF0030E5EF8046B364205D4F0
:103C8000012A43EB030515F5001F12D8012841EB6B
:103C9000010C1CF5001F0CD80ED14FEAD17C15F594
:103CA000001F0CEB4C0C0CF1020C08BF4CEBD37C4E
:103CB00004E04FF0080C01E04FEAD37C0CEB4C051C
:103CC00026FA05F606F00706B6F1040C06D20EEB4E
:103CD000860CBDE870404CF0010C6047DFE80CF04A
:103CE000090B02024FF000414FF00000A1F5002146
:103CF00070BD19461046012851EB010418BFD4F5D8
:103D0000001484BF002001F0004170BD0808A0F538
:103D100000114FEA3101704791EA030F10B581F0AD
:103D200000413FF5A3AC83F0004300F0D5B800009C
:103D30002DE9F04101F5801CBCF5001FC0F2A980FF
:103D40004FEA115C21EA0C510CF1FD0C41F4801199
:103D50005FEA5C0C0CF5C07C01D34000494130A403
:103D6000890241EA905187028E0E0A0CA45D04FB81
:103D700004F602FB06F6C6F14046A4FB0662F60D09
:103D800046EA422606FB06F4A4FB01235242C3F195
:103D9000404338BF5B1EA6FB02420024E6FB03241F
:103DA000D20B42EA4446A6FB0623A1FB02E2A3FB98
:103DB00007E4E3FB61426442C2F1404E38BFAEF11A
:103DC000010EA6FB04234FF00002E6FB0E32A2FB1D
:103DD00003463400E2FB6264A1FB06E6A4FB07E8AD
:103DE000E4FB61687642C8F1405838BFA8F1010889
:103DF000A2FB06E4A3FB08E5E2FB6854A1FB05E691
:103E0000A7FB04E8E1FB648618F1200556F10006E3
:103E1000A809A8F11B08B10908F03F08B8F10A0F7A
:103E200040EA86601CD901EB0C51BDE8F08100BF6F
:103E3000FCF5EEE8E2DDD8D3CFCBC7C3C0BDB9B641
:103E4000B4B1AEACA9A7A5A3A19F9D9B9A98969546
:103E50009392908F8D8C8B898887868584838281CD
:103E6000A0FB006800FB01F208EB4208B8EB8728D2
:103E700007D5341858EB0104D5D5401C51F1000189
:103E8000D1E7341A78EB0104CDD4401E71F1000162
:103E9000C9E75FEA4C0C5FEA9C5C0DD105D34FF09B
:103EA000000001F00041BDE8F081BDE8F04170B5CF
:103EB000FFF7DEFE6DDBFFBEBDE8F0414FF0000016
:103EC000004970470000F87F10B591EA030F48BF22
:103ED00083F000433FF5CAAB841A71EB030C07D2A1
:103EE00012198CF0004C43EB0C03001B61EB0C012E
:103EF000DFF8A4E14FEA1154A4EB135C1EEA430F70
:103F000018BF9EEA445F00F0B08023EA6E0352427D
:103F100021EA0451C3EB6E0338BF5B1EDCF1200EB7
:103F200025D322FA0CFE10EB0E0043FA0CFE41EBF7
:103F30000E01CCF1200E03FA0EFE10EB0E0051F133
:103F40000001CCF1200E29D412FA0EF201EB04513B
:103F5000BDE8104058BF7047401C1CBFB2F1004F75
:103F6000704700280CBF491C20F00100704712EB7D
:103F7000020E43EB030218BF4FF0010E4EEA42025D
:103F8000ACF1200CDCF11E0E54D943FA0CFE10EB00
:103F90000E0051F1FF31CCF11E0ED5D50EF1010E00
:103FA00012FA0EFE404141EB010101EB445C5FEA75
:103FB0005C5C10D910EBDE7001EB045138BFBEF130
:103FC000004FBDE8104018BF704700280CBF491CC7
:103FD00020F00100704730D24FEAD42C11F50011C7
:103FE00024F400641BD0B1FA81F20B3AA41AA41E87
:103FF000D2F12003914030FA03F31943904001EBD2
:10400000CC71002C01EB0451BDE81040A8BF7047F3
:1040100001F1C0414FF0000001F000417047B0FADB
:1040200080F310FA03F100D110BDE41A173C4805E3
:10403000C90AE4E701EB045110BD491001EB04513A
:10404000BDE810404FEA300002E04FF00001704739
:104050004A0008BF0042F8D0B2F5001F28BF7047E1
:1040600001F000414FF0000070479EEA445F07D026
:1040700011EA5E0FBDE8104004BF00210020704728
:10408000BDE8104070B5FFF7F3FD00BF40DFF63E1E
:1040900083F00041104670470000E0FF43004FEA04
:1040A000D30C4FEA3C0C43401FBF40070CF160515A
:1040B00013F0FE4F70471CF0006F03D100200CF08E
:1040C000004170470CF0004343EA507010B540EADD
:1040D000CC0000F00EF800BF000000924FEA000193
:1040E000FFF714BE4FF000414FF00000A1F5002192
:1040F00070470EF1020E2EF0030E5EF8044B2442C0
:1041000004D44FEA4102B2F17F4F11D84FEA400385
:10411000B3F17F4F0CD80ED14FEAD07CB2F17F4F74
:104120000CEB4C0C0CF1020C08BF4CEBD17C04E006
:104130004FF0080C01E04FEAD17C0CEB4C0324FA61
:1041400003F404F00704B4F1040C06D20EEB840C63
:10415000BDE810404CF0010C6047DFE80CF00708A8
:1041600002024FF00040A0F5800010BD084642005A
:1041700018BFD2F1807288BF00F0004010BD4FF030
:104180004070E1EE100A7047FF2141EAD050C005AF
:104190007047000610160006101600000000000010
:1041A00000000102030406070809000000000102E4
:1041B00003040000000000004FBB610567ACDD3F59
:1041C000182D4454FB21E93F9BF681D20B73EF3F3E
:1041D000182D4454FB21F93FE2652F227F2B7A3CB6
:1041E000075C143326A6813CBDCBF07A8807703C6F
:1041F000075C143326A6913CC4EB98999999C9BFE2
:10420000711623FEC671BCBF6D9A74AFF2B0B3BF16
:104210009AFDDE522DDEADBF2F6C6A2C44B4A2BFD6
:104220000D5555555555D53FFF8300922449C23F42
:104230006E204CC5CD45B73F513DD0A0660DB13F76
:10424000EB0D76244B7BA93F11DA22E33AAD903F88
:10425000000000000000000078420008000000207C
:1042600074000000C4010008EC4200087400002043
:1042700024130000E001000800000000010000001D
:1042800010000000000000000024F4000000000006
:10429000000000000000000000000000000000001E
:1042A00000000000000000000000803F000000004F
:1042B000000000000000000000002041CDCCCC3DFB
:1042C00000000000CDCC4C3E000000000000803F0C
:1042D000CDCC0441CDCCCC3D0000803F713D8A3E29
:0C42E0005839B43C9A99993E0000000047
:040000050800018965
:00000001FF
