:020000040800F2
:10000000A853002029030008E72600084D24000813
:10001000E52600082B060008193100080000000042
:10002000000000000000000000000000690200085D
:10003000F90C000800000000C5020008B52D0008FA
:100040004303000843030008430300084303000878
:100050004303000843030008430300084303000868
:100060004303000843030008430300084303000858
:10007000710C000843030008430300084303000811
:100080004303000843030008430300084303000838
:10009000E90600084303000843030008430300087F
:1000A0004303000843030008430300084303000818
:1000B0004303000843030008430300084303000808
:1000C00043030008430300084303000843030008F8
:1000D0004303000843030008430300086530000899
:1000E00043030008430300084303000843030008D8
:1000F00043030008430300084303000843030008C8
:1001000043030008430300084303000843030008B7
:100110004303000843030008852E0008430300083A
:100120004303000843030008430300084303000897
:100130004303000843030008430300084303000887
:10014000B107000843030008430300084303000805
:100150004303000843030008430300084303000867
:100160004303000843030008430300084303000857
:100170004303000843030008430300080000000095
:10018000430300084303000800F002F800F05CF8A5
:100190000AA090E8000C82448344AAF10107DA45E2
:1001A00001D100F051F8AFF2090EBAE80F0013F0D8
:1001B000010F18BFFB1A43F001031847E05C000071
:1001C000005D00000A444FF0000C10F8013B13F0F2
:1001D000070408BF10F8014B1D1108BF10F8015BA0
:1001E000641E05D010F8016B641E01F8016BF9D193
:1001F00013F0080F1EBF10F8014BAD1C0C1B09D1EA
:100200006D1E58BF01F801CBFAD505E014F8016B5B
:1002100001F8016B6D1EF9D59142D6D370470000ED
:100220000023002400250026103A28BF78C1FBD8FF
:10023000520728BF30C148BF0B6070471FB505F09B
:100240002CFD1FBD10B510BD00F0BAF91146FFF727
:10025000F5FF03F0F5FB00F0D8F903B4FFF7F2FF68
:1002600003BC00F0DBF900002C4B19680868B0E80B
:10027000F04F80F30988BFF36F8F4FF0000080F3D9
:10028000118870470000000008480068006880F38B
:1002900008884FF0000080F3148862B661B6BFF39F
:1002A0004F8FBFF36F8F00DF00BF00BF08ED00E08E
:1002B000DFF80C00016841F470010160704700BF75
:1002C00088ED00E0EFF30980BFF36F8F134B1A68DE
:1002D0001EF0100F08BF20ED108A20E9F04F1060CB
:1002E00009B44FF0500080F31188BFF34F8FBFF374
:1002F0006F8F04F023FA4FF0000080F3118809BCDF
:1003000019680868B0E8F04F1EF0100F08BFB0EC95
:10031000108A80F30988BFF36F8F70474800002070
:10032000EFF30580704700000948804709480047FF
:10033000FEE7FEE7FEE7FEE7FEE7FEE7FEE7FEE795
:10034000FEE7FEE704480549054A064B70470000F2
:10035000752E000889010008A84D0020A853002030
:10036000A84F0020A84F002053EA020C00F069803B
:100370002DE9F04B4FF00006002B1FBFB3FA83F5B9
:1003800003FA05F424FA05F65E4012BF1643B2FAEA
:1003900082F502FA05F4C5F120051EBF22FA05FC1C
:1003A00044EA0C04203556EA044C4FEA144418BFC2
:1003B000641C4FF000084FF00009904271EB030CF1
:1003C00039D3002919BFB1FA81F701FA07F6B0FA5B
:1003D00080F700FA07F6C7F120071EBF20FA07FCD6
:1003E00046EA0C062037B6FBF4FCA7EB0507103FE6
:1003F00007F01F0BCBF120060CFA0BFB2CFA06F6CC
:1004000044BFB3460026202FA4BF5E464FF0000B2A
:100410005BEA060C08BF4FF0010B19EB0B09ABFBB5
:10042000027C48EB0608C01B06FB02CC0BFB03CC8E
:1004300071EB0C01C1E70B46024641464846BDE858
:10044000F08B13B54FF000004FF00001AFF30080C8
:10045000BDE81C407047032A40F2308010F0030CC6
:1004600000F0158011F8013BBCF1020F624498BF07
:1004700011F801CB00F8013B38BF11F8013BA2F1A4
:10048000040298BF00F801CB38BF00F8013B11F01F
:10049000030300F02580083AC0F0088051F8043BBF
:1004A000083A51F804CBA0E80810F5E7121D5CBF2C
:1004B00051F8043B40F8043BAFF30080D20724BF5F
:1004C00011F8013B11F801CB48BF11F8012B24BFF3
:1004D00000F8013B00F801CB48BF00F8012B704742
:1004E00010B5203AC0F00B80B1E81850203AA0E8CF
:1004F0001850B1E81850A0E81850BFF4F5AF5FEA03
:10050000027C24BFB1E81850A0E8185044BF18C9B5
:1005100018C0BDE810405FEA827C24BF51F8043B5C
:1005200040F8043B08BF7047D20728BF31F8023BB0
:1005300048BF11F8012B28BF20F8023B48BF00F844
:10054000012B70474FF0000200B5134694469646C3
:10055000203922BFA0E80C50A0E80C50B1F12001D6
:10056000BFF4F7AF090728BFA0E80C5048BF0CC084
:100570005DF804EB890028BF40F8042B08BF7047E2
:1005800048BF20F8022B11F0804F18BF00F8012B54
:10059000704770477047704710B500F009F8006861
:1005A00010BD10B5044600F003F8046010BD000053
:1005B00000487047444D002000487047444D0020DB
:1005C0007546FFF7F9FFAE4605006946534620F031
:1005D0000700854618B020B5FFF7B4FEBDE82040FF
:1005E0004FF000064FF000074FF000084FF0000BEF
:1005F00021F00701AC46ACE8C009ACE8C009ACE8A2
:10060000C009ACE8C0098D46704710B50446AFF389
:1006100000802046BDE81040FFF71FBE01491820AA
:10062000ABBEFEE7260002007047FEE738B50E4C71
:100630004FF4007525600025A560E560082525615B
:100640000A4C050A25706070080AA070E170100A53
:1006500020716271180AA071E3716B46224602494B
:10066000034800F05EFB38BD6C430020B200002060
:100670008003002038B50E4C40F2FF1525600025A0
:10068000A560E560082525610A4C050A25706070A3
:10069000080AA070E170100A20716271180AA07136
:1006A000E3716B4622460249034800F03AFB38BD2D
:1006B0006C430020B20000208003002000B58BB006
:1006C00000200121CDE906010891009001900290DF
:1006D0000390059004906946024800F091FB0BB02E
:1006E00000BD000080030020014800F084BC000031
:1006F0008003002038B50E4C4FF4007525600025AE
:10070000A560E560082525610A4C050A2570607022
:10071000080AA070E170100A20716271180AA071B5
:10072000E3716B4622460249034800F0FAFA38BDED
:100730006C430020B2000020A803002038B50E4C06
:1007400040F2FF1525600025A560E56008252561BC
:100750000A4C050A25706070080AA070E170100A42
:1007600020716271180AA071E3716B46224602493A
:10077000034800F0D6FA38BD6C430020B2000020D8
:10078000A803002000B58BB000200121CDE90601AF
:1007900008910090019002900390059004906946A2
:1007A000024800F02DFB0BB000BD0000A8030020A4
:1007B000014800F020BC0000A803002010B504464A
:1007C00000F08AFE0221204600F099FA002803D0AA
:1007D000BDE8104000F091BA10BD000070B53E4D6C
:1007E000012095ED000A02F0EDF805F12004022049
:1007F00084ED000A95ED010A02F0E4F884ED010AA7
:1008000095ED020A032002F0DDF884ED020A95ED71
:10081000030A042002F0D6F8A4F1300684ED030A9E
:1008200096ED000A012003F08AF91035022085EDCB
:10083000000A96ED010A03F082F985ED010A96EDB2
:10084000020A032003F07BF985ED020A96ED030A04
:10085000042003F074F985ED030A94ED030ABDEE5C
:10086000C00A10EE100A94ED020A03B2BDEEC00AEF
:1008700010EE100A94ED010A02B2BDEEC00A10EEAD
:10088000100A94ED000A01B2BDEEC00A10EE100A83
:1008900000B2FFF7CBFE95ED030ABDEEC00A10EEE5
:1008A000100A95ED020A03B2BDEEC00A10EE100A5E
:1008B00095ED010A02B2BDEEC00A10EE100A95EDE8
:1008C000000ABDE87040BDEEC00A01B210EE100A89
:1008D00000B2FFF70FBF0000944300202DE9F0475E
:1008E000D24D2DED088BA87A03287DD1E87A032814
:1008F0007AD1B5F9060000EE100AB5F90400F8EE59
:10090000C00A00EE100AB8EEC00A02F085FFC84F18
:1009100087ED000AD7ED010A02F0D4FF87ED020A45
:10092000D7ED000A30EE800AD7ED010A02F0F4FF9D
:1009300087ED030AD7ED010A97ED021A30EEC11ACE
:10094000B0EEC11A87ED041AD7ED001A71EEE00A75
:10095000F0EEE00AC7ED050A9FEDB68AB4EEE01AA4
:10096000F1EE10FA05DB87ED028AF7EE001AC7ED0B
:10097000061AB4EEE01AF1EE10FA05D287ED008AFD
:10098000FFEE000AC7ED060AD7ED000A97ED021A3E
:1009900070EE810AC7ED010A9FEDA71AC0EE811A19
:1009A00071EE800A9FEDA50A20EE800ADFEDA48A91
:1009B000DFF890924FF4FA7820EE280A09F110043B
:1009C00089ED000A89ED010A89ED020A89ED030A21
:1009D000B5F9040000F1FA01414504D8B5F9061053
:1009E000FA3141457ED900E01CE110FB00F1E888B6
:1009F00010FB001004F008FE41EC100B02F024FE86
:100A00009FED919B51EC100B53EC192B04F014FE4D
:100A100041EC1A0BB86905F0CFF853EC1A2B04F02F
:100A20000BFE04F077FB2060B5F9066000EE106A5B
:100A3000F8EEC00A9FED86BA80EE8B0A10EE100A1F
:100A400005F0BAF841EC1A0BA88810FB00F016FB71
:100A5000060004F0D9FD41EC100B02F0F5FD53EC5B
:100A6000192B51EC100B04F0E7FD53EC1A2B04F09A
:100A7000B9FF41EC1A0BB86905F09EF853EC1A2B3C
:100A800004F0DAFD04F046FB6060B5F9066000EEA4
:100A9000106AF8EEC00A80EE8B0A10EE100A05F01C
:100AA0008BF841EC1A0BA88810FB00F016FB06002F
:100AB00004F0AAFD41EC100B02F0C6FD53EC192B1B
:100AC00051EC100B04F0B8FD53EC1A2B04F08AFF24
:100AD00041EC1A0BB86905F06FF853EC1A2B04F0CF
:100AE000ABFD00E043E004F015FBA060A88810FB1C
:100AF00000F1E88810FB001004F086FD41EC100BBB
:100B000002F0A2FD53EC192B51EC100B04F094FDF4
:100B100041EC190BB86905F04FF853EC192B04F0B0
:100B20008BFD04F0F7FA94ED001AB1EE0C0A00EE1A
:100B3000900A21EE001A84ED001A94ED011A21EEBC
:100B4000001A84ED011A94ED021A21EE001A20EE2B
:100B5000800A84ED021A84ED030AB5F90410FA3113
:100B600041450CD8B5F90610FA31414507D884ED56
:100B7000008A84ED018A84ED028A84ED038AB5F946
:100B8000080000F1C701B1F5C77F17D997ED030A37
:100B9000DFED311A60EE280A9FED2E0A20EE801A52
:100BA000DFED2F0A9FED2D0A41EE210A01EE210A09
:100BB00089EC020A89ED020AC9ED030A00F2491123
:100BC00040F2922291422DD900EE100AF8EEC00AAE
:100BD0009FED240A20EE801A00EE900AF8EEE01A4B
:100BE000DFED210A21EEA02A01EE900AF8EEE11ACB
:100BF00061EEA00A01EE900AF8EEE11A61EE801AA9
:100C00009FED1A0A21EE001A60EE800A84ED001AA8
:100C100022EE001A21EE800A84ED011AC4ED020AC8
:100C200084ED030ABDEC088BBDE8F087C44C0020BE
:100C3000BC000020000000000000B4430000904809
:100C4000666656408443002000000060E02BEBBF46
:100C5000A245C54200000046000010423333F1C7F0
:100C60003333F147E604353FE60435BF6666A640F8
:100C7000014800F065BC000014040020016818233E
:100C8000CAB2103AB2FBF3F2054B6FF30901032A23
:100C90009B5CC36500D9091D81650846704700004B
:100CA000745D000810B5014600208B698A6A4FF018
:100CB000C07453B1B3F5005F15D072B1012A0CD0E6
:100CC000022A0AD0032A09D104E01AB1012A06D067
:100CD000022A03D1C96AC90100D5012010BDC96A21
:100CE000A142FAD010BD002AF7D0012AF2D0022A80
:100CF000F3D0032AF3D010BD704772B6FEE790F828
:100D00002020012A07D0022A05D0416A41F480211F
:100D1000416201207047006842690A434261002035
:100D20007047F0B590F820500468A468012D05D0F4
:100D3000022D03D0416A41F480215DE014F0406F40
:100D400001D1E50055D5C4F30164022C03D9416AF1
:100D500041F4000150E00125A5401D608D684FF46D
:100D6000C0739DB1CE6835434E6845EAC605066836
:100D700003EB0417F5514FF4C275076805EB041532
:100D80000E697E51097D012905D009E00E88CD68E4
:100D900045EA4655EBE701684E5946F480764E51D8
:100DA0001179D579567941EA056195792D0445EA9D
:100DB000062529434FF4C676056806EB0416A951AB
:100DC0001178D57841EA0561957852782D0445EA85
:100DD000022211434FF4C475026805EB041551510A
:100DE000006803EB0411425842F001024250002017
:100DF000F0BD416A41F4001141620120F0BD0000E4
:100E000010B590F82020012A07D0022A05D0416AA7
:100E100041F480214162012010BD3B48D0F80022FE
:100E200042F00102C0F80022D0F8002222F47C52E5
:100E3000C0F80022D0F800224B6A42EA0322C0F830
:100E400000220A7D02F01F0301229A40D0F81C32D2
:100E50009343C0F81C32CB69B3B9D0F80C3293433A
:100E6000C0F80C328C894B6864F31F434C6900EB6B
:100E7000C404C4F840320C890B6864F31F434C6906
:100E800000EBC404C4F84432CB69012B16D1D0F86E
:100E90000C321343C0F80C320C884B6864F31F43C8
:100EA0004C6900EBC404C4F840320C89CB6864F38D
:100EB0001F434C6900EBC404C4F844328B69002B17
:100EC000D0F804320ED01343C0F804320B69002B63
:100ED000D0F8143208D01343C0F81432096A01293B
:100EE00004D008E09343EFE79343F5E7D0F81C12F2
:100EF0001143C0F81C12D0F8001221F00101C0F813
:100F00000012002010BD000000640040704730B5A2
:100F100090F82040012C05D0022C03D0416A41F406
:100F200080215DE00468002955D02469A40754D0CD
:100F30004FF4D874056804EB01142D5915F004051D
:100F4000956005682D594ED0ED08556005682C59FF
:100F500004F00204D4604FF4DA74056804EB011461
:100F60002D5905F00F05156105682D59C5F30725A5
:100F7000956105682C59240C54614FF4DC720468A7
:100F800002EB0112A4581C700468A458240A5C7077
:100F90000468A458240C9C700468A258120EDA70DD
:100FA0004FF4DE72046802EB0112A4581C7104684D
:100FB000A458240A5C710468A458240C9C71046829
:100FC000A258120EDA71006881B1016941F0200166
:100FD0000161002030BDE468A8E7416A41F40011D6
:100FE0004162012030BD6D0D1560AFE7C16841F071
:100FF0002001C160EDE72DE9F05F0546006800249F
:101000004669D0F804908768D0F80CB0D0F810A0EA
:10101000D0F81880F10748D0F90714D00121816079
:10102000B80703D5284600F084FA0CE0780702D50B
:101030004FF4006407E0380702D54FF4805402E013
:10104000284600F075FAF80516D529684FF4807027
:101050008860B80503D5284600F06DFA0CE07805E5
:1010600002D544F4005407E0380502D544F4804426
:1010700002E0284600F05EFAF80316D529684FF41E
:1010800080308860B80303D5284600F056FA0CE09B
:10109000780302D544F4004407E0380302D544F451
:1010A000803402E0284600F047FA300707D55FEAAF
:1010B000CB6004D52968102044F40074C860700720
:1010C0004FF0080707D55FEA0B7004D52868C760A2
:1010D000284600F099F9B00706D52868C06880074F
:1010E00002D0284600F092F9700607D55FEACA6080
:1010F00004D52968102044F480640861B00607D53F
:101100005FEA0A7004D528680761284600F0E0F914
:10111000F00606D528680069800702D0284600F04E
:10112000D8F9B00308D55FEAC96005D52968102051
:101130004860284600F0CEF9F00307D55FEA097051
:1011400004D528684760284600F0F8F9300446D5F1
:101150005FEA497040D5F00504D55FEAC87001D058
:1011600044F00104B00504D55FEA887001D544F06D
:101170000204700504D55FEA487001D544F0040408
:10118000300529D518F0700F26D008F070004028DF
:1011900015D006DC102809D020280AD0302816D116
:1011A0000AE050280ED0602811D10EE044F0080467
:1011B0000DE044F010040AE044F0200407E044F09D
:1011C000400404E044F0800401E044F480742868A2
:1011D000816921F070018161296804204860002C38
:1011E00005D0686A204368622846FFF78FFEBDE895
:1011F000F09F70B5040003D094F8200010B104E013
:10120000012070BD204600F081F82068016841F09F
:101210000101016000F0CCFB0546052604E000F06A
:10122000C7FB401B0A2811D820684068C007F6D0C9
:101230002068016821F00201016000F0B9FB054659
:101240000BE000F0B5FB401B0A2806D9606A40F4A9
:101250000030606284F82060D2E720684068800730
:10126000EFD4207E0128206801683DD021F0800164
:101270000160607E01282068016838D021F04001BB
:101280000160A07E01282068016833D021F0200190
:101290000160E07E0128206801682ED041F0100135
:1012A0000160207F01282068016829D021F0080111
:1012B0000160607F01282068016824D021F00401CA
:1012C0000160D4E902010843D4E904121143084340
:1012D0006168491E08432168C861002060620120DE
:1012E00084F82000002070BD41F08001C0E741F08B
:1012F0004001C5E741F02001CAE721F01001CFE726
:1013000041F00801D4E741F00401D9E7F0B587B016
:10131000044614216846FFF715F9364B3648DFF8C6
:10132000D0E01968D4F800C0334A03250226092703
:1013300010300024491CF44522D11960012907D13D
:10134000016841F000710160006800F000700590D4
:10135000106840F0080010601068CDE9005600F0F9
:101360000800CDE9047069462448CDE9024500F043
:1013700021FA00220521142000F0B8FB142032E0ED
:10138000DFF87CE0F44530D1D0F800C04CF0806C40
:10139000C0F800C0D0F800C001290CF0806CCDF876
:1013A00014C0196007D1016841F000710160006844
:1013B00000F000700590106840F0020010601068A6
:1013C00002AB00F0020005906020CDE9000683E842
:1013D000B00069460B4800F0EDF9002205214020DD
:1013E00000F084FB402000F073FB07B0F0BD00006C
:1013F000006400403400002030380240000C0240FD
:1014000000680040000402407047000070B50546C7
:1014100000682B492B4C8CB0884224D107AB6A461C
:1014200000212846FFF773FD0098A0F2012006284E
:1014300019D8C0B22070244EC0EBC00006EB80006B
:1014400081694A1C3229826107A902D802F0D2FAC6
:1014500001E002F0D4FA207807A9C0EBC00006EB47
:10146000800002F0CCFA19492868884225D109ABDE
:101470006A4600212846FFF74AFD0098A0F20120A5
:1014800006281AD8C0B2104D6070C0EBC000E0351D
:1014900005EB800081694A1C3229826109A902D8C2
:1014A00002F0A8FA01E002F0AAFA607809A9C0EBFC
:1014B000C00005EB800002F0A2FA0CB070BD000085
:1014C00000640040B0000020AC41002000680040F3
:1014D000704770477047000070B5044690F82000D0
:1014E000012804D0606A40F40020606218E0022005
:1014F00084F820002068016821F00101016000F0FB
:1015000057FA05460EE000BF00F052FA401B0A28C9
:1015100008D9606A40F400306062052084F8200039
:10152000012070BD20684068C007EDD1606270BDC9
:1015300070477047704770477047704770470000AA
:101540002DE9F84304464FF00009CDF800906348B8
:101550004FF41651A56D0068B0FBF1F72E6894F8B2
:101560005C10082000FA01F131420FD021680A68AE
:1015700052070BD50A6822F004020A6094F85C1046
:101580008840A860606D40F00100606594F85C10D0
:101590004FF0010808FA01F0304208D0216849698B
:1015A000090604D5A860606D40F00200606594F8FB
:1015B0005C1004208840304208D0216809688907FF
:1015C00004D5A860606D40F00400606594F85C107C
:1015D00010208840304218D021680968090714D5C6
:1015E000A86020680168490304D50068000308D595
:1015F000A16C07E00168C90503D4016821F0080166
:101600000160216C09B12046884794F85C102020C5
:101610008840304231D021680968C9062DD5A860BC
:1016200094F8350005282068016806D0490347D59D
:10163000006800031DD4616C1CE021F016010160FC
:101640002068416921F080014161206C08B9A06CDB
:1016500020B12068016821F00801016094F85C1055
:101660003F208840A86084F8358084F83490216D4C
:101670001FE0E16B09B120468847606D00282BD040
:10168000606DC00714D0052084F83500206801681B
:1016900021F0010101600098401C0090B84203D87D
:1016A00020680068C007F6D184F8358084F834904B
:1016B000E16C002910D001B02046BDE8F043084796
:1016C0000168C905D5D4016821F01001016084F8D2
:1016D000358084F83490CCE7BDE8F88344000020DE
:1016E0002DE9F041044600F063F906465CB10220A2
:1016F00084F83500002584F834502068016821F012
:10170000010101600DE00120BDE8F08100F050F919
:10171000801B052805D920206065032084F835004A
:10172000F2E720680068C007F0D1226811682048FD
:101730000140D4E901031843D4E903363343184385
:1017400063691843A3691843E3691843236A18437C
:101750000843616A042903D1D4E90B1319430843F0
:10176000106020684069666A20F0070130460E4329
:10177000012704280CD1A06A0643E06A40B1204644
:10178000FFF790FA20B14020606584F83570BAE721
:10179000206846612046FFF771FA94F85C203F21EB
:1017A00091408160656584F835700020ACE70000E9
:1017B0003F8010F02DE9F84FDFF8BCA10022012591
:1017C00003264FF00F090AF1040BAAF1040E00BF23
:1017D0000B6805FA02F42340A34270D10F7907F099
:1017E0000307012F01D0022F16D187684FEA420864
:1017F00006FA08FC27EA0C07D1F80CC00CFA08FC22
:101800004CEA070CC0F808C04768A7430C79C4F33A
:10181000001494403C4344600C79E443A4070AD08C
:10182000C4684FEA420C06FA0CF7BC438F6807FA0B
:101830000CF72743C7600C7904F00304022C12D183
:10184000D40800EB840CDCF820405707FF0E09FA9F
:1018500007F824EA0804D1F8108008FA07F848EAE3
:101860000408CCF8208004684FEA420C06FA0CF712
:10187000BC430F7907F0030707FA0CF7274307600B
:101880004C6814F4403F70D03C4C276847F48047C4
:101890002760246822F0030704F480440094384C45
:1018A00007EB040CDCF8084897074FEA177809FAA9
:1018B00008F7BC43334FB84202D1002724E054E07C
:1018C000314FB84201D101271EE0304FB84201D15B
:1018D000022719E02E4FB84201D1032714E02D4F03
:1018E000B84201D104270FE02B4FB84201D10527A0
:1018F0000AE02A4FB84201D1062705E0284FB84236
:1019000001D1072700E0082707FA08F72743CCF89A
:101910000878DAF800405746D1F804C09C435FEAE3
:10192000CC2C00D51C433C60DBF800405F46D1F86E
:1019300004C09C435FEA8C2C00D51C433C60DEF85D
:1019400000407746D1F804C09C435FEA8C3C00D548
:101950001C433C60084F083F3C68D1F804C09C43DE
:101960005FEACC3C00D51C433C60521C102AFFF4BB
:101970002FAFBDE8F88F0000083C0140443802401A
:101980000030014000000240000402400008024014
:10199000000C0240001002400014024000180240F7
:1019A000001C02400AB1816170470904FBE7000096
:1019B00001488068704700003800002002488168B4
:1019C0000278114481607047380000200B4810B540
:1019D000016841F400710160016841F480610160B7
:1019E000016841F480710160032000F09FF80F202E
:1019F00000F006F800F050F8002010BD003C024056
:101A000030B505461F4887B00024016841F0100139
:101A10000160006806A900F01000009001A800F025
:101A200031F90498A8B100F04DF940001649174A61
:101A3000B0FBF1F11648491E026040F2E732C0E9FE
:101A40000324C0E90114846100F046FB040003D0C4
:101A500015E000F037F9E9E70D4800F06BFB0400F2
:101A60000DD1362000F034F8102D07D2002229467F
:101A7000362000F03BF80748056000E0012407B07D
:101A8000204630BD4038024040420F000010004068
:101A9000740400203C0000200C4882B0016841F42E
:101AA00080410160006800F4804000900748001FFA
:101AB000016841F0805101600068002200F0805010
:101AC00000900F21901E02B000F010B84438024080
:101AD000002809DB00F01F0201219140400980002D
:101AE00000F1E020C0F8001170470000F0B40E4B88
:101AF0001B680C46C3F30223C3F10705042D00D96C
:101B00000425191D072901D2002300E0DB1E012650
:101B100006FA05F1491E214099409E40761E164066
:101B20003143F0BC01F011BB0CED00E0064900F0C0
:101B3000070208684FF6FF03184040EA0220034AF4
:101B400010430860704700000CED00E00000FA054B
:101B50002DE9F0470E46050065D0DFF81481D8F86E
:101B60000000F7B200F00700B04207D288F800701A
:101B7000D8F8000000F00700B04254D128683D4C6E
:101B8000810712D5400703D5206840F4E05020605B
:101B90002878000703D5206840F460402060206862
:101BA000A96820F0F000084320602878C0072DD0F5
:101BB000304968680839012812D0022813D0032858
:101BC00011D00968890700292DDA216821F0030165
:101BD00001432160FFF7ECFE814641F2883A0EE0B6
:101BE00009688903EFE709688901ECE7FFF7E0FE80
:101BF000A0EB0901514502D90320BDE8F087206818
:101C0000696800F00C00B0EB810FEFD1D8F800103C
:101C1000404601F00701B14207D90770006800F0A3
:101C20000700B04201D00120E7E72878400705D53A
:101C30002068E96820F4E050084320602878000715
:101C400006D52068296920F4604040EAC100206080
:101C500000F058F82168084AC1F30311515CC840EC
:101C60000649086006480068FFF7CAFE0020C4E77E
:101C7000003C0240083802407C5D0008440000201F
:101C80003C0000200F2202600C4A136803F003039B
:101C90004360136803F0F0038360136803F4E053B8
:101CA000C36012684FF4E05303EAD20202610448B1
:101CB000006800F007000860704700000838024024
:101CC000003C02400448054900680968044AC1F321
:101CD0008221515CC840704744000020083802400F
:101CE0008C5D00080448054900680968044AC1F38E
:101CF0004231515CC840704744000020083802401F
:101D00008C5D0008154810B5006810F00C021448EE
:101D100013D01449042A0FD0082A0ED10F4C241FC7
:101D20002268236802F03F025B0207D52068C0F3F7
:101D30008810A0FB010106E0084610BD2168C1F330
:101D40008811A1FB00010023FEF70EFB2168C1F3FF
:101D50000141491C4900B0FBF1F010BD08380240B8
:101D60000024F400001BB7002DE9F84F04006ED0EA
:101D70002078DFF84C93C007A9F104054AD009F197
:101D800004000168C1F38101012908D00068C0F393
:101D9000810002280AD1D9F80000400206D528683F
:101DA000800337D560680028E1D033E06068B0F583
:101DB000803F10D0B0F5A02F286810D020F48030DC
:101DC0002860286820F4802028606068A8B1FFF7A8
:101DD000EFFD06460DE0286840F48030F4E740F45B
:101DE00080202860F7E700BFFFF7E2FD801B642832
:101DF00073D828688003F7D50CE0FFF7D9FD0646B5
:101E000005E000BFFFF7D4FD801B6428F0D82868E8
:101E10008003F7D42078DFF8AC8280074FF0000A07
:101E20003ED5A748001D016811F00C0F08D00068CE
:101E3000C0F3810002280BD1D9F80000400207D47A
:101E40002868800716D5E068012800D112E033E148
:101E5000E068B8B10120C8F80000FFF7A9FD064608
:101E600005E000BFFFF7A4FD801B0228C0D828684A
:101E70008007F7D52868216920F0F80040EAC10002
:101E800028600DE0C8F800A0FFF792FD064604E0C8
:101E9000FFF78EFD801B02281FD828688007F7D423
:101EA0002078000722D5864F87486169703771B165
:101EB00001210160FFF77CFD064604E0FFF778FD95
:101EC000801B022809D838688007F7D50EE0C0F8D3
:101ED00000A0FFF76DFD064605E082E0FFF768FD14
:101EE000801B02287DD838688007F7D42078400707
:101EF00068D5DFF8CCB100270BF13C0BDBF8000014
:101F0000C0000BD4DBF8001041F08051CBF800107A
:101F1000DBF80000012700F0805000906B4E306825
:101F2000C00510D4306840F480703060FFF740FD89
:101F3000009005E0FFF73CFD0099401A022850D8B8
:101F40003068C005F6D55E4EA0686C3601280FD00B
:101F50000528306810D020F001003060306820F093
:101F600004003060A068B8B1FFF722FD00900FE0D8
:101F7000306840F00100F4E740F004003060F7E71B
:101F8000FFF716FD0099411A41F28830814266D868
:101F900030688007F4D50EE0FFF70AFD009007E0F7
:101FA000FFF706FD0099411A41F28830814256D868
:101FB00030688007F4D42FB1DBF8001021F0805195
:101FC000CBF80010A069C8B33D49091D0968C1F3E9
:101FD000810102294AD00228504607D0C8F8600083
:101FE00000E03CE0FFF7E4FC04463BE04746C8F86D
:101FF0006000FFF7DDFC064605E000BFFFF7D8FCF8
:10200000801B02282BD828688001F7D4D4E9070167
:102010000843A16A2E4A490802EB0141626A41EA7B
:102020008211084394F82C1040EA0161C9F80010AD
:1020300001203866FFF7BCFC044606E03EE000BF26
:10204000FFF7B6FC001B022809D828688001F7D5E5
:1020500034E000BFFFF7ACFC001B022802D90320CC
:10206000BDE8F88F28688001F4D427E00128F7D074
:10207000D9F80000E26900F4800191421CD1226A83
:1020800000F03F01914217D147F6C071626A0140EA
:10209000B1EB821F10D1A26A4FF0FF3300F4403140
:1020A00003EB5202B1EB024F06D194F82C1000F072
:1020B0007060B0EB016F01D00120D1E70020CFE7C5
:1020C0000438024000004742800E47420070004042
:1020D0000000FFFF7047704710B5040003D094F86C
:1020E0003D0010B107E0012010BD002084F83C0045
:1020F000204600F01EF8022084F83D00211D2068D3
:1021000000F0C6FE012084F8460084F83E0084F802
:102110003F0084F8400084F8410084F8420084F8CD
:10212000430084F8440084F8450084F83D00002012
:1021300010BD704790F83D10012901D00120704773
:10214000022180F83D100168CA6842F00102CA60AD
:1021500000681149884214D0B0F1804F11D00F4966
:1021600088420ED00E4988420BD00E49884208D0D2
:102170000D49884205D00D49884202D00C49884259
:1021800004D1816801F00701062903D0016841F0FC
:102190000101016000207047000001400004004080
:1021A00000080040000C00400004014000400140D5
:1021B00000180040704770B50446006801694FF090
:1021C0000005C943890715D4C168C943890711D4DB
:1021D000E91E016101202077206880698007204680
:1021E00002D0FFF7E7FF04E000F098F8204600F087
:1021F00096F8257720680169C943490717D4C16853
:10220000C943490713D46FF004010161022020770C
:102210002068806910F4407F204602D0FFF7CAFF93
:1022200004E000F07BF8204600F079F8257720687C
:102230000169C943090716D4C168C943090712D403
:102240006FF008010161042020772068C0698007D1
:10225000204602D0FFF7AEFF04E000F05FF8204612
:1022600000F05DF8257720680169C943C90617D4D5
:10227000C168C943C90613D46FF010010161082079
:1022800020772068C06910F4407F204602D0FFF715
:1022900091FF04E000F042F8204600F040F8257776
:1022A00020680169C943C90708D1C168C943C90782
:1022B00004D1891E0161204600F032F820680169CE
:1022C000C943090609D4C168C943090605D46FF09A
:1022D000800101612046FFF7FDFE20680169C943C6
:1022E000490609D4C168C943490605D46FF04001C5
:1022F0000161204600F01EF820680169C943890683
:102300000BD4C168C943890607D46FF0200101616D
:102310002046BDE87040FFF7DEBE70BD70477047D5
:1023200000680349884201D1FFF748BB70470000AD
:1023300000100040704770B5040004D094F83D00D0
:10234000002510B106E0012070BD84F83C50204605
:1023500000F022F8242084F83D002068C16821F4B0
:102360000051C160204600F0F7FD2068016921F4AA
:10237000904101612068416921F02A014161206892
:10238000C16841F40051C1602564202084F83D00FB
:1023900084F83E00002070BD70B586B0064614215A
:1023A0006846FEF7CFF824493068884242D1234876
:1023B0000025016841F480210160006800F480205C
:1023C00005901E481038016841F004010160006862
:1023D000694600F0040005904FF440600090022030
:1023E000CDE9010503200390072004901448FFF76E
:1023F000E1F9154C134820604FF00060C4E9010575
:102400004014C4E9035065614FF44030A561C4E94C
:10241000075020466562FFF763F908B1FEF76DFCCF
:10242000B463002205212720A663FFF75FFB272066
:10243000FFF74EFB06B070BD004800404038024038
:10244000000802402860024014040020FEE700005B
:102450000F4810B50D4901600321416000214FF480
:10246000C0228160C0E903124FF4A00242610176EC
:1024700041768176C17601774177FEF7BAFE002872
:1024800003D0BDE81040FEF738BC10BD006400402A
:10249000800300200F4810B50D4901600321416001
:1024A00000214FF4C0228160C0E903124FF4A00262
:1024B0004261017641768176C17601774177FEF7F8
:1024C00098FE002803D0BDE81040FEF716BC10BDF2
:1024D00000680040A8030020094808B5016841F4DD
:1024E000001101600068002200F400100090052136
:1024F0000C20FFF7FBFABDE808400C20FFF7E8BA14
:102500003038024030B5BDB000253195012131A8E9
:10251000329501F0CBFA394C0121E061339533A8B3
:10252000349501F0C3FA20623595012135A836951E
:1025300001F0BCFA60623795012137A8389501F0A7
:10254000B5FAA0623995012139A83A9501F0AEFAA1
:10255000E0623B9501213BA83C9501F0A7FA20637E
:102560001C2227496846FDF7BBFF0021684601F0A1
:10257000BCFA234920601C221C3107A8FDF7B0FFDC
:10258000002107A801F0B1FA1D4960601C22383112
:102590000EA8FDF7A5FF00210EA801F0A6FA184924
:1025A000A0601C22543115A8FDF79AFF002115A840
:1025B00001F09BFA1249E0601C2270311CA8FDF763
:1025C0008FFF00211CA801F090FA0D4920611C2208
:1025D0008C3123A8FDF784FF002123A801F085FAA0
:1025E000074960611C22A8312AA8FDF779FF002164
:1025F0002AA801F07AFAA0613DB030BD00000020A9
:10260000B05C000870B586B014216846FDF79AFFEB
:1026100022480024016841F002010160016801F0D4
:1026200002010591016841F001010160016801F0BA
:1026300001010591016841F008010160016801F0A4
:1026400008010591016841F004010160016801F091
:1026500004010591016841F080010160016801F009
:1026600080010591016841F01001016000680C4E85
:1026700000F010004FF40075059000222946304606
:10268000FFF790F901200095CDE901046946304635
:102690000394FFF78FF806B070BD00003038024099
:1026A000001002400D4810B50B4901600C49416013
:1026B00000214FF480628160C0E903120422C0E966
:1026C0000521C161FFF737FE002803D0BDE81040A7
:1026D000FEF713BB10BD000000480040D0030020EF
:1026E000A0860100FEE7FEE7A0B1D0ED101AC0ED14
:1026F000111A90ED0F1A80ED101AC0ED060A80ED48
:10270000070A30EEC00A80ED0F0A017829B10129CD
:102710003BD078E09FED3D0A7047D0ED010A60EEB6
:10272000801AC0ED091AD0ED0A0A90ED022A42EE95
:10273000000A30EE410AC0ED0A0A90ED0D2A80ED44
:102740000E2A90ED0C2A80ED0D2A80ED0C0A90EDFA
:10275000031A21EE001A80ED0B1A90ED050AF4EE33
:10276000C00AF1EE10FA09DCB1EE400AF4EEC00A3C
:10277000F1EE10FA02D390ED0A0A01E080ED0A0AA8
:1027800031EE800A30EE010A2BE070EE410A90ED46
:10279000012A20EE822A80ED092AD0ED020A60EE9D
:1027A000800AC0ED0A0AD0ED0D2A72EE200AC0EDB3
:1027B0000E2AD0ED0C2AC0ED0D2AF0EE002A01EE13
:1027C000620A30EE210A80ED0C0A90ED031A21EE28
:1027D000000A80ED0B0A30EE800AD0ED080A30EED8
:1027E000200A80ED080AD0ED040AB4EEE00AF1EE0A
:1027F00010FA06DCF1EE600AB4EEE00AF1EE10FA2F
:1028000001D2C0ED080A90ED080A704700000000F0
:102810002DE9F047404E00242DED068B06F510778C
:1028200006F5906906F5D8689FED39AADFED39AA5B
:102830009FED3A8ADFED3A8A9FED3A9ADFED3A9AB8
:1028400004EBC40506EBC500F0EE480AB0EE680ADA
:10285000364A002100F06CF8344A07EBC500F0EE70
:10286000490AB0EE690A0C32002100F061F82F4AE3
:1028700009EBC500F0EE480AB0EE4A0A1832002112
:1028800000F056F8294A08EBC500F0EE6A0AB0EEEF
:10289000680A2432002100F04BF8641C042CCFDBC2
:1028A000B24604244FEA090604EBC4050AEBC5004E
:1028B000F0EE480AB0EE680A1C4A002100F038F831
:1028C0001A4A07EBC500F0EE490AB0EE690A0C326D
:1028D000002100F02DF806EBC500F0EE480AB0EE3E
:1028E000680A124A002100F023F8104A08EBC500DC
:1028F000F0EE490AB0EE690A0C32002100F018F837
:10290000641C082CD0DBBDEC068BBDE8F087000012
:1029100000A00C460000FA44C44300200080BB45E0
:1029200000401C46000096430000C843D800002029
:10293000002828D0002A26D0017092ED001A80EDE0
:10294000011A92ED011A80ED021A92ED021A80ED41
:10295000031A80ED040A9FED0C0AC0ED050A80ED14
:102960000E0A80ED0D0A80ED0C0A80ED080A80ED5C
:102970000B0A80ED0A0A80ED090A80ED110A80ED4C
:10298000100A80ED0F0A7047000000000B4AC0EBF0
:10299000C00110B502EB8101F0EE400A11ED040A0E
:1029A00000EBC0010648B8EEC00A00EBC104A4F178
:1029B0004800FFF799FE14ED0A0A10BD8C42002072
:1029C000844A00200C4AC0EBC00110B502EB810123
:1029D000F0EE400A31F91A1C00EE101A00EBC001AB
:1029E0000648B8EEC00A00EBC104A4F14800FFF7A6
:1029F0007BFE14ED0A0A10BDAC410020C443002048
:102A00000C4AC0EBC00110B502EB8101F0EE400AA8
:102A100031F91A1C00EE101A00EBC0010648B8EE9E
:102A2000C00A00EBC104A4F14800FFF75DFE14EDFD
:102A30000A0A10BD8C4200204448002030B5144BD7
:102A40001C68656945F0400565611B68DC6844F0F9
:102A50001004DC600F4B1C68256825F0010525601B
:102A60001C682568ED07F7D11D680B4CAC601C682D
:102A7000E06018680161186842601868016841F4F4
:102A8000802101601868016841F00101016030BDDA
:102A9000D00300201404002004480040384930B41A
:102AA0004C783849384BB1F90420ECB19FED370A26
:102AB000012C34D0022C43D0032C5FD100EE902A9D
:102AC000F8EEE00AC0ED000AB1F9061000EE901A27
:102AD000F8EEE00A80EC020A80ED010A80ED020ABD
:102AE000186830BC01F0C4BD00EE102AF0EE080AF0
:102AF000B8EEC00A80ED000AB1F9062000EE102AF7
:102B0000B8EEC00A80ED010AB1F9081000EE101A03
:102B1000B8EEC00AB1EE400A20EE200A28E000EE2E
:102B2000902AF8EEE00AC0ED000AB1F9061000EEB6
:102B3000901AF8EEE00A80EC020A80ED010A17E034
:102B400000EE102AB1EE081AF8EEC00AC0ED000A35
:102B5000B1F9061060EE810A00EE101AC0ED000A0D
:102B6000B8EEC00A20EE010A80ED010A9FED080AC6
:102B700080ED020A186830BC01F006BD30BC704719
:102B800020010020C44C00200400002000000000B0
:102B90000040CEC42DE9F05F5F494FF4027A91F80E
:102BA00002C0DFED5E0A4FF4117B9FED5D1A6149B3
:102BB0005C4F5D4CB1F900905C4D5D4EB1F9023057
:102BC000CBF1000E09F582729FED5B0ABCF1050F97
:102BD0007ED2DFE80CF0032F40637B00002B14DB78
:102BE000524512D801EE909AF8EEE11A61EEA01A61
:102BF000C0ED001AB1F90020524201EE902AF8EE21
:102C0000E11A61EEA00AC0ED010AB1F900105945C0
:102C100002DB80ED041A03E0714501DC80ED040A5B
:102C2000386801F0B1FC206801F0AEFC286801F0C2
:102C3000ABFC69E0002B05DB524503D880ED000AB0
:102C400080ED010A80ED040A386801F011FD20686A
:102C500001F00EFD32E0002B14DB524512D801EEDC
:102C6000109AB8EEC11A21EE201A80ED001AB1F9BF
:102C70000010494201EE101AB8EEC11A61EE200AA6
:102C8000C0ED010A80ED040A386801F0F1FC20680B
:102C900001F0EEFC286801F077FC12E0002B05DB68
:102CA000524503D880ED000A80ED010A80ED040A48
:102CB000386801F069FC206801F066FC286801F0C2
:102CC000D7FC3068BDE8F05F01F0D2BC002B00E01B
:102CD0001FE005DB524503D880ED000A80ED010AB4
:102CE000B1F90010594502DB80ED041A03E071458B
:102CF00001DC80ED040A386801F0BAFC206801F0BC
:102D0000B7FC286801F0B4FC3068BDE8F05F01F062
:102D10003BBCBDE8F09F00002001002052B85A41A2
:102D200000803B45080000200C000020100000201F
:102D300014000020C44C0020000000000F4810B513
:102D4000037800213BB10122012B06D0022B07D0D2
:102D5000032B07D10FE0417003E04170827001E066
:102D6000427081700648FFF799FE0548BDE81040A3
:102D70000C30FFF70FBF42700221F2E72001002064
:102D8000244D00200748817A032907D1C07A0649DB
:102D9000032804D0012803D0022801D07047002066
:102DA00008707047C44C002020010020012000F072
:102DB00071FEFBE710B5502080F31188BFF34F8FF1
:102DC000BFF36F8F02F006F818B104494FF080503E
:102DD0000860002080F3118810BD000004ED00E0C1
:102DE00030B593B030216846FDF7ACFB14210CA838
:102DF000FDF7A8FB1D480025016841F080510160E6
:102E0000006800F0805011901948016841F4804139
:102E100001600068022400F48040119001200090BD
:102E2000000401908001CDE9064006200890A8200A
:102E3000CDE9090404200B906846FEF795FF08B120
:102E400072B6FEE70CA90F2081E831004FF4A050C4
:102E50000F904FF48050109005210CA8FEF778FEDB
:102E6000002801D072B6FEE713B030BD40380240F2
:102E7000007000400248016841F470010160704731
:102E800088ED00E00148FFF796B9000074040020C7
:102E9000F0B50268254C264D264E274F274B4FF0A4
:102EA000804CA04209D0604507D0A84205D0B0426E
:102EB00003D0B84201D0984204D122F0700E4A6883
:102EC00042EA0E02A0421BD0604519D0A84217D09A
:102ED000B04215D0B84213D0984211D0184DA84234
:102EE0000ED0184DA8420BD0174DA84208D0174D50
:102EF000A84205D0164DA84202D0164DA84203D1D3
:102F000022F44075CA682A434D6922F080022A43A0
:102F100002608A68C2620A688262A04201D0984256
:102F200001D10969016301214161F0BD0000014047
:102F30000004004000080040000C00400004014074
:102F4000004001400044014000480140001800409A
:102F5000001C00400020004070B504460068016974
:102F6000E26821F44051114301612169A068E269DE
:102F700008436169114308432168CA6849F20C6338
:102F80009A430243CA6020684169A26921F44071F2
:102F90001143416131492068884202D0304988425A
:102FA00002D1FEF79FFE01E0FEF78CFEE2690023EE
:102FB000192164253226B2F5004F626828D0A0FBA3
:102FC0000101930F9200FDF7CFF90146B0FBF5F038
:102FD0006FF01802504301EB800006EB0010B0FBCD
:102FE000F5F000F0F002B1FBF5F002EB0012B1FBDE
:102FF000F5F06FF01803584301EB800006EB00106A
:10300000B0FBF5F000F00F0021681044886070BD3F
:10301000A0FB010192185B41FDF7A6F90146B0FB48
:10302000F5F00201B1FBF5F06FF01803584301EB26
:10303000800006EBC000B0FBF5F000F0F80002EBFA
:103040004002B1FBF5F0584301EB800006EBC000F5
:10305000B0FBF5F000F00700D6E7000000100140DB
:1030600000140140264818B400680168890604D598
:1030700001684068009018BC704722490968C90679
:10308000F9D501684068204A0090106801684FF047
:1030900024030C031D49046824F00104046016D4C1
:1030A00010684468C4F12404A4B20C804360106822
:1030B000016841F4002101601068016841F00101DC
:1030C0000160122CD7D1124901F1160015E01468E5
:1030D0006068C0F1240080B2088063600D498B6A8B
:1030E00023F400238B6211680A6842F001020A602F
:1030F0001228C0D1064901F13A0018BC01F042B8CB
:10310000D0030020004800401404002008010020E3
:10311000C44C002000600240FEE703B40198410067
:10312000009850EAC12018BF04204A0D18BF40F093
:10313000010040F2FF72B2EB515F08BF40F00200A5
:10314000012808BF052002B070470907090E0028B2
:1031500004DB00F1E02080F80014704700F00F005D
:1031600000F1E02080F8141D70470000000000000E
:1031700070B59B482DED020B2DED068B079D25F0BC
:103180000044A04218DC9748844202DC0AD1069829
:1031900040B19DED060BBDEC068B02B0BDE8704062
:1031A00000F00BBB002DCCBF9FED8F0B9FED900B64
:1031B000BDEC068B02B070BD8F48A04215DD8F4874
:1031C000A042D8BF4FF0FF3458DD9DED060B51EC07
:1031D000100BFFF7A2FF042808BF00F005FB9DEDD0
:1031E000060BBDEC068B02B070BD9DED060B51ECDD
:1031F000100B00F0F3FBCDE9060181489FED828BB7
:10320000A0423CDD8248A0421FDD00249FED82AB3E
:103210009DED060B53EC1A2B51EC100B01F0ACFF9B
:103220009DED060B41EC190B53EC1A2B51EC100BD6
:1032300002F002FA53EC182B02F0D4FB53EC192BDA
:1032400002F04EF8CDE9060149E09DED060B0124A0
:1032500053EC182B51EC100B01F08EFF9DED060B7B
:1032600041EC190B53EC182B51EC100B02F0BAFB8C
:1032700053EC192B02F034F8CDE906012FE0684831
:10328000A0421FDD02249FED689B9DED060B53ECD1
:10329000192B51EC100B02F0CFF953EC182B01F065
:1032A0006BFF9DED060B41EC180B53EC192B51EC09
:1032B000100B02F097FB53EC182B02F011F8CDE93C
:1032C00006010CE09DED060B032453EC102B9FED43
:1032D000580B51EC100B02F003F8CDE906019DEDFF
:1032E000060B53EC102B51EC100B02F0A5F941EC3E
:1032F000180B53EC182B02F09FF941EC190B4E48B8
:103300000621B0EE490AF0EE690A784400F0D9F9D6
:1033100053EC182B51EC100B02F08EF941EC180B0A
:103320004648B0EE490AF0EE690A0521784400F0FB
:10333000C8F953EC192B51EC100B02F07DF941EC5C
:10334000100B51EC180B53EC102B002C0EDA01F083
:1033500013FF9DED061B53EC112B02F06DF99DED53
:10336000061B53EC112B02F065FA35E001F004FF67
:103370009DED061B53EC112B02F05EF941EC100B96
:103380002F48784400EBC40090ED001B51EC100B6B
:1033900053EC112B02F026FB9DED061B53EC112B79
:1033A00002F020FB41EC100B2648784400EBC400EF
:1033B00090ED001B51EC100B53EC112B02F03AFA7C
:1033C00041EC100B002DA2BFBDEC068B02B070BD0E
:1033D00051EC100B01F092FE41EC100B01E70000E4
:1033E000000010440000F07F182D4454FB21F93FE9
:1033F000182D4454FB21F9BF0000DC3F0000203EA3
:103400000000F33F00000000000000000000F03F5B
:103410000000E63F00000000000000000000004047
:103420000080034000000000000000000000F83FA2
:10343000000000000000F0BFF22A0000A82A0000EF
:10344000322A0000EA29000070B56F4E2DED040B02
:103450002DED048B82B0DDF824C0DDE907235C424A
:103460002CF000411C4341EAD474069D22F0004038
:10347000B44205D86C422C4340EAD474B4420BD910
:103480009DED081B9DED060B02B0BDEC048B04B056
:10349000BDE8704000F09BB9ACF14054A4F17F64EA
:1034A0001C430BD0022404EAAC7444EAD2740543F2
:1034B0009FED578B9FED582B07D015E09DED060B28
:1034C00051EC100B00F0A0F942E0002C11BF012CD0
:1034D0009DED060B02B0BDEC048B04BF04B070BDC3
:1034E000022C38D0032C3BD00B439FED4D1B9FED9E
:1034F0004E0B0AD0B14218D1B04209D121F080411F
:1035000020F08040099107900FE0002A15DA10E0C2
:10351000474B7B44002C08BF93ED000B0DD0012CD2
:1035200010D0022C17D0032C1AD0B0421DD1002A83
:1035300003DAB0EE410AF0EE610A02B0BDEC048B92
:1035400004B070BD93ED000B51EC100B01F0D6FDF3
:1035500041EC100BF1E7B0EE480AF0EE680AECE738
:10356000B0EE420AF0EE620AE7E7401A00159FED5E
:10357000329B3C28C8BF8DED000B17DCBCF1000F5F
:10358000BCBF10F13C0F8DED009B0FDB9DED080BD8
:1035900053EC102B9DED060B51EC100B01F0A0FE2F
:1035A00000F01CFA00F030F9CDE90001B4B1012CB3
:1035B00010D0022C9FED220B53EC102B9DED000B35
:1035C00051EC100B19D002F00DFA53EC182B02F04D
:1035D00009FABDE7019880F0004001909DED000BD5
:1035E00053EC192B51EC100B01F0D2FF04BF022059
:1035F000FCF7D7FF9DED000B9FE702F0F3F953ECCA
:10360000182B02F017F9A3E70000F07F000000007C
:10361000182D4454FB210940182D4454FB2109C0A6
:10362000182D4454FB21F9BF182D4454FB21F93FB8
:103630001A29000000000000000000000000000047
:10364000075C143326A6A13C00B52DED048BB0EE2B
:10365000409AF0EE609A83B051EC190B02F0F6F844
:1036600041EC180B18EE100A18EE901A8DED008B35
:10367000002818BF0120084320F00040C0F17F60FF
:1036800000F1E040C00F14D019EE101A19EE900AA4
:103690008DED009B002918BF0121084320F0004058
:1036A000C0F17F6000F1E040C00F04BF0120FCF7D3
:1036B00078FFB0EE480A03B0F0EE680ABDEC048B68
:1036C00000BD70B504462DED028B4D1E00EBC5000C
:1036D000B0EE408AF0EE608A90ED000B35F0060007
:1036E00017D053EC182B51EC100B01F0A5FF41EC57
:1036F000100B6D1E04EBC50090ED001B51EC100B80
:1037000053EC112B01F038FD41EC100B35F00600A5
:10371000E7D1022D36D0042D1CD0062D1CBFBDECE8
:10372000028B70BD53EC182B51EC100B01F084FF91
:1037300094ED0A1B53EC112B01F01EFD53EC182BDA
:1037400001F07AFF94ED081B53EC112B01F014FDEE
:1037500041EC100B53EC182B51EC100B01F06CFFEB
:1037600094ED061B53EC112B01F006FD53EC182BC6
:1037700001F062FF94ED040B53EC102B01F0FCFC04
:1037800041EC100B53EC182B51EC100B01F054FFD3
:1037900094ED021B53EC112B01F0EEFC53EC182BB3
:1037A00001F04AFF94ED001B53EC112B01F0E4FCF7
:1037B000BDEC028B41EC100B70BD10B553EC102B1F
:1037C00051EC100B01F0D8FC41EC100B10BD10B502
:1037D00053EC112B51EC100B01F0CEFC41EC100B13
:1037E00010BD0000000000009FED050B10B553EC6C
:1037F000102B51EC100B01F01FFF41EC100B10BD12
:10380000000000000000001010B541EC100BFFF7A5
:10381000AFFC51EC100B10BD10B5B5EEC00A2DED8C
:10382000048BB1EE408AF1EE10FA01DCB0EE480AEA
:1038300010EE101A1D4881420DDCF5EEC00AF1EEC3
:1038400010FA02DDB0EE600A01E0B1EE600A10EE9F
:10385000101A814226DD10EE900A02F0ADF941EC1B
:10386000190B18EE100A02F0A7F941EC100BB0EE9C
:10387000491AF0EE691AFFF7E7FD9FED0D1B51ECB9
:10388000100B53EC112B01F0D7FE9FED0B1B53ECEB
:10389000112B01F025FD01F03DFC00EE100ABDECFE
:1038A000048B10BD9FED060AF9E700000000F0420E
:1038B000000000000080664000000000FA2109407E
:1038C0000000000070EE600A1049F0EEE00A10EE11
:1038D000900A884214DD10EE100A49424FF40102AA
:1038E0000844DFED0B0A904201D830EE601A10EE6A
:1038F000100A08490844904204D830EE201A01E02A
:10390000B0EE401AB0EE410A704700000000B44229
:103910000000344300004C3D30EE600A0D480C4A74
:1039200010EE101AD0ED000AB7EE001A914202DD37
:1039300030EEC10A09E010EE101A074A914202D88F
:1039400090ED000A704730EE810A80ED000A704762
:10395000000082430C010020000082C340F2651089
:1039600000F076FDFEF754FF074D4FF0FF3421467F
:10397000286801F0D3F8FCF7B1FFFCF72FFF022015
:1039800000F088F8F3E700001C000020FEE7FEE7E7
:103990000F4D104E104C4FF0FF373946286801F09C
:1039A000BDF896ED040A052084ED000AFFF728F81B
:1039B00084ED010ABDEEC00A00231A4610EE100A7B
:1039C000194600B2FCF7BAFE022000F063F8E4E703
:1039D0002C000020304D00202401002082B0CDE9D1
:1039E000000121F0004001909DED000B02B051EC70
:1039F000100B7047098849BA01808182704710B561
:103A0000B0F9003003810A8852BA02804C88D31A78
:103A100064BA44808C88B3F5805F64BA8480897905
:103A20008171016901DD491E03E013F5805F01DA50
:103A3000491C016102EB4131828A891AC16010BDC3
:103A4000FDF7C4FFFFF7CCF9FEF7DCFDFEF744FD00
:103A5000FEF7FEFCFEF71EFDFEF724FE00F04EFB17
:103A6000FCF72CFEFCF78EFE0548FCF7A7FE054888
:103A7000FCF7A4FEFEF746FD00F013F8FEE7000099
:103A800080030020A803002001460020842900D0E4
:103A9000C81C704710B500B9012000F0D9FC002007
:103AA00010BD10B500F0AEFD002010BD38B5436864
:103AB0004BB1012909D103200022009011460120B9
:103AC00000F005FF38BD012901D0002038BD0322D8
:103AD0000021012000F0DAFE040004D000231A4681
:103AE000194600F06BFF204638BD7FB50D460446F1
:103AF0004169B0F9080081B1A16971B1FFF7C4FF54
:103B0000D4E905128DE80700D4E900102B4622699C
:103B100001F027F9039004B070BDFFF7B5FF03A9CA
:103B2000CDE90001208A2B4682B2D4E9001001F0D1
:103B3000EBF8012801D00020EDE70398EBE710B582
:103B40000446FEF723FF2046BDE81040FEF758BFAD
:103B50002DE9F041184C0F460546E6682068001D27
:103B600000F0AEFB38B9206890F82C100120884096
:103B7000216981432161681C07D137B12168BDE803
:103B8000F0410E48091D00F0DFBB20683544B54206
:103B90004560216805D2A06BBDE8F041091D00F029
:103BA000BBBB606B091D00F0B7FBA06A854200D269
:103BB000A562BDE8F08100004800002098050020C3
:103BC0002DE9F041054600F0CBFB2E4CA068401CCF
:103BD000A06020682C4F10B1606940B32DE02560D3
:103BE000A068012829D1002606EB860007EB80009B
:103BF00000F084FB761C072EF6D323488C3000F0AF
:103C00007DFB2148A03000F079FB1F48B43000F064
:103C100075FB1D48C83000F071FB1B48DC3000F01C
:103C20006DFB19488C3060631430A06305E0206898
:103C3000E96AC06A884200D82560606A401C6062F8
:103C4000E96A0120226988401043206101EB81006C
:103C500007EB8000291D00F077FB00F0A1FB6069F5
:103C600000280CD02068E96AC06A884207D2074958
:103C70004FF080500860BFF34F8FBFF36F8FBDE8E8
:103C8000F081000048000020BC04002004ED00E0AA
:103C90002DE9F041856B174604460026026C82B17F
:103CA000C7B1E068FCF7D7FBE168206C091AE16056
:103CB0002268914202D2A168081AE060022F16D051
:103CC00017E02068A8B9A06801F0EAF806460020CD
:103CD000A0600EE06068FCF7BEFB216C60680844E1
:103CE0006060A168884204D32068606001E005B18B
:103CF0006D1E6D1CA5633046BDE8F08110B504460D
:103D000090F8510058B101280CD002280FD0502053
:103D100080F31188BFF34F8FBFF36F8FFEE7206BE7
:103D200000F052FB2046BDE8104000F04DBB10BD36
:103D300010484FF47051420706D0C01D0D4920F0C5
:103D40000700411AC1F570510B4A00230144C2E932
:103D500000030839183A21F0070111604B600B602D
:103D60000B1AC0E9001393604FF00040536050619C
:103D700070470000AC0500209C000020144E154C3C
:103D8000A6F1C8074FF08058DFF84C9012E000BF52
:103D900000F0E6FAF068C568281D00F091FAA06806
:103DA000401EA0606068401E606000F0F9FA28467E
:103DB000FFF7A4FF60680028EAD138680128F9D924
:103DC000C9F80080BFF34F8FBFF36F8FF2E7000099
:103DD000840500204800002004ED00E00346009820
:103DE00029B10260C0E90F31012100F0A3BD0060DC
:103DF000F8E72DE9F0479A46DDE9098481466FF03E
:103E00000303206B03EB82021044089E20F0070797
:103E1000780707D0502080F31188BFF34F8FBFF38E
:103E20006F8FFEE7002561B1002023180A5C83F83C
:103E300034200A5C12B1401C1028F6D384F8435099
:103E400001E084F83450072E00D30626E662C4E968
:103E50001165201D00F05DFA04F1180000F059FA18
:103E60002461C6F107006462A061E56484F85050E3
:103E700052464946384600F02BF92060B8F1000F51
:103E800001D0C8F80040BDE8F087000030B5114906
:103E900000E011460A688242FBD34B685C188442FA
:103EA00003D1406818444860084643681C1894428F
:103EB00009D1084C183C2468A24209D052681A441F
:103EC00042600A6812680260814200D0086030BD1A
:103ED0000460F9E79C00002010B5044600F040FAA9
:103EE000A06B28B15FF0000400F05AFA204610BD24
:103EF0000124F9E70648416B096829B1416BC9689B
:103F0000C9684968816270474FF0FF31FAE70000E5
:103F10004800002008484068401C4FF0500080F3E3
:103F2000118804D0BFF34F8FBFF36F8FFEE7BFF34D
:103F30004F8FBFF36F8FFEE7A4000020002150B128
:103F40000A4B42699A420FD1806AA3F1280290423B
:103F50000AD040B108E0502080F31188BFF34F8FA2
:103F6000BFF36F8FFEE701210846704798050020D8
:103F70002DE9F041044600F0F3F994F9455004F1BD
:103F8000240609E0606A48B1304601F01BF808B128
:103F900000F08CFA6D1E6DB2002DF3DC4FF0FF3691
:103FA00084F8456000F0FCF900F0DAF994F9445027
:103FB00004F1100709E0206948B1384601F002F821
:103FC00008B100F073FA6D1E6DB2002DF3DC84F8B9
:103FD0004460BDE8F04100F0E3B900002DE9F04194
:103FE0000546002700F0A2FB324E306808B9FFF703
:103FF0009FFE706905424ED1C5B3083568070ED0E3
:1040000005F00700C0F108000544680707D05020FC
:1040100080F31188BFF34F8FBFF36F8FFEE72DB38F
:104020007068854237D82348183001460C6801E093
:1040300020460C466168A94202D221680029F7D1C6
:1040400031688C4227D007682168016060680837B2
:10405000411B10290FD96019420708D0502080F366
:104060001188BFF34F8FBFF36F8FFEE713E04160FE
:104070006560FFF70BFF61687068401A7060B26896
:10408000904200D2B060706901430020C4E9000191
:10409000F068401CF06000F0CFFF780707D0502098
:1040A00080F31188BFF34F8FBFF36F8FFEE7384661
:1040B000BDE8F081840000200449086818B1086850
:1040C000826C521C8264086870470000480000201F
:1040D00010B5031F4FF080741C601B1F21F00101FD
:1040E0001960191F044B0B6014390A60091F6FF027
:1040F000020244380A6010BD153F0008024924221C
:10410000A1F12400FEF79ABCFE4C002040F265109D
:1041100000F09EF9164C174D174E184FDFF86080CF
:10412000FEF730FEFEF70AFE00231A461946206805
:1041300000F044FC00231A461946286800F03EFCB3
:1041400000231A461946306800F038FC00231A464E
:104150001946386800F032FC00231A461946D8F890
:10416000000000F02BFC0120FFF794FCD8E70000D2
:104170001C00002020000020240000202800002037
:104180002C000020F0B5002855D0002953D002782B
:10419000437842EA0322C2F30A020A804378847811
:1041A000DB0843EA4413C3F30A034B808478C578E1
:1041B000A40944EA8504057944EA8524C4F30A0481
:1041C0008C80057946796D0845EAC615C5F30A0560
:1041D000CD804679C6F301168E724679B609CE7245
:1041E0008679C77946EA07268E81067A477A46EAB3
:1041F0000726CE81867AC77A46EA07260E82067B94
:104200008E74467BCE74867BC77B46EA07268E82F9
:10421000067C407CA2F580620A80A3F580634B8017
:10422000A4F5806446EA00208C80A5F58065CD80E9
:10423000A0F580600881F0BD204EDFF878801E4F29
:104240004FF0FF39A6F108054946D8F8000000F004
:1042500065FC002007EB800191ED000A06EB800170
:10426000401C81ED000A0228F4DB002406EB8400E8
:1042700090ED000A601DFEF7A5FB05EB8400641CB1
:1042800080ED000A022CF1DB95ED010A00231A46AD
:10429000BDEEC00A10EE100A95ED000A01B2BDEEA7
:1042A000C00A10EE100A00B2FCF7E4F90220FFF792
:1042B000F1FBC9E728000020304D00201801002044
:1042C000D0E9013201699A60D0E901235A604A6855
:1042D000824201D182684A60002202610868401E61
:1042E0000860086870470000034B036003F1540046
:1042F00008608020106070472C01002000F1080148
:104300004FF0FF32C0E90112C1600161002101607C
:10431000704700210161704730B50B685A1C02D00C
:1043200000F1080202E0026904E0224654682568B0
:104330009D42FAD953684B6099608A605160086168
:104340000168491C016030BD42684A6093688B6017
:1043500093685960916008610168491C0160704769
:10436000502080F31188BFF34F8FBFF36F8F0A493E
:104370004868401C486001280CD10848006810F0CB
:10438000FF0F07D0502080F31188BFF34F8FBFF38A
:104390006F8FFEE770470000A400002004ED00E0EE
:1043A0000849486828B1401E486001D180F311884F
:1043B0007047502080F31188BFF34F8FBFF36F8F8A
:1043C000FEE70000A400002070B500282AD0164D9A
:1043D000A0F1080460686969084207D1502080F3A1
:1043E0001188BFF34F8FBFF36F8FFEE722683AB19A
:1043F000502080F31188BFF34F8FBFF36F8FFEE71C
:104400008843606000F092F96068696808446860F9
:104410002046FFF73BFD2869401C2861BDE870403D
:1044200000F00ABE70BD0000840000204FF0E020C4
:1044300000210161816105494FF47A720968B1FB7D
:10444000F2F1491E416107210161704744000020DB
:1044500010B5020014D00F48006B38B1502080F323
:104460001188BFF34F8FBFF36F8FFEE700F05EF947
:1044700000211046FFF76CFB00F0DEFD002807D19D
:1044800005494FF080500860BFF34F8FBFF36F8F27
:1044900010BD00004800002004ED00E002490A6A57
:1044A0000260C9684160704748000020014901204E
:1044B000C86170474800002010B50C4650B109494A
:1044C00009681831FFF728FF2046BDE81040012198
:1044D000FFF73EBB502080F31188BFF34F8FBFF32F
:1044E0006F8FFEE74800002070B5040047D0A26C33
:1044F000A2B1606C884200D30146E06A88423ED097
:10450000012A3CD11E4D2A6894420FD1502080F3DD
:104510001188BFF34F8FBFF36F8FFEE7502080F3FA
:104520001188BFF34F8FBFF36F8FFEE7E162A2697F
:10453000002A02DBC1F10701A161124E00EB8000ED
:10454000616906EB8000814219D1201DFFF7B8FE9A
:10455000012130B994F82C002A6901FA00F0824355
:104560002A61E06A2A6981401143296100EB8000D9
:1045700006EB8000211DBDE87040FFF7E5BE70BD71
:1045800048000020BC04002070B504002BD01A4D58
:10459000286884422FD0FFF7E3FE2046FFF7CEFCC9
:1045A000E8B1201DFFF78CFEE06A01212A698140F5
:1045B00011432961114900EB800001EB8000211DAE
:1045C000FFF7C2FEE06A2968C96A884207D30C492E
:1045D0004FF080500860BFF34F8FBFF36F8FBDE87F
:1045E0007040FFF7DDBE502080F31188BFF34F8F7E
:1045F000BFF36F8FFEE770BD48000020BC040020B1
:1046000004ED00E010B586B00024039405AA04A9C7
:1046100003A80494FFF768FEDDE903010094CDE9E7
:10462000011000230EA11048059A00F09AFB0F49D3
:104630000028C86211D0502080F31188BFF34F8F3B
:10464000BFF36F8F4FF0FF30886201204861CC606C
:1046500006B0BDE8104000F09FB806B010BD0000E5
:1046600049444C45000000007D3D00084800002002
:1046700070B50446FFF774FE294D04B92C68201D5F
:10468000FFF71EFE58B9E06A264A00EB800152F897
:10469000211021B901218140286988432861A06A3D
:1046A00018B104F11800FFF70BFE1E48211DDC3085
:1046B000FFF74AFE94F850000026012801D184F843
:1046C0005060FFF76DFE686928B1FFF749FEFFF7FC
:1046D00011FCFFF765FE2868844213D1686990B128
:1046E000286B38B1502080F31188BFF34F8FBFF390
:1046F0006F8FFEE70C494FF080500860BFF34F8F7B
:10470000BFF36F8F70BD0748DC300068A96888422E
:1047100001D12E6070BDBDE8704000F00FB8000000
:1047200048000020BC04002004ED00E00248016BBA
:10473000491C016370470000480000201448016BC9
:1047400011B10121C16170470021C1610169B1FA54
:1047500081F1C1F11F0101EB81020E4951F82230B4
:104760006BB101EB820101F108034A6852684A60AB
:104770009A4201D152684A60D16801607047502066
:1047800080F31188BFF34F8FBFF36F8FFEE70000F8
:1047900048000020BC0400201CB537480168374A97
:1047A000914207D1502080F31188BFF34F8FBFF3A0
:1047B0006F8FFEE700683149491E884207D15020BB
:1047C00080F31188BFF34F8FBFF36F8FFEE72C4943
:1047D00008780190FF20087008788DF800009DF897
:1047E00000009DF8002000F0F000904207D050201B
:1047F00080F31188BFF34F8FBFF36F8FFEE79DF8F3
:104800000000204C00F0500020700720A06005E060
:104810009DF8002052008DF80020401E9DF80020D9
:104820001206F5D4A060032807D0502080F3118829
:10483000BFF34F8FBFF36F8FFEE74FF44070A06060
:10484000019808700C482030016841F47001016043
:10485000016841F070410160FFF7E8FD00206060F1
:10486000FBF726FD0848016841F040410160FBF775
:104870000BFD00201CBD000000ED00E071C20F41E7
:1048800000E400E0A400002034EF00E0F8B5174693
:104890000E46050013D005FB06F04830FFF79EFBDF
:1048A00004000AD0002084F8460004F148023B4688
:1048B000314628460094FFF791FA2046F8BD502073
:1048C00080F31188BFF34F8FBFF36F8FFEE738B5CA
:1048D000049D18B153B1CAB181B120E0502080F3DA
:1048E0001188BFF34F8FBFF36F8FFEE7502080F327
:1048F0001188BFF34F8FBFF36F8FFEE7502080F317
:104900001188BFF34F8FBFF36F8FFEE739B150208F
:1049100080F31188BFF34F8FBFF36F8FFEE74824FA
:104920001C46012384F846302B460094FFF756FAC4
:10493000204638BD70B50D46040025D0FFF710FDA8
:10494000D4E90F20216802FB0011A1600021A163BE
:10495000216861600A46D4E90F01401E00FB012175
:10496000E16021464FF0FF3001F8440F487004F138
:1049700010008DB1FFF7C2FC04F12400FFF7BEFC6C
:10498000FFF70EFD012070BD502080F31188BFF3AA
:104990004F8FBFF36F8FFEE721690029F0D000F041
:1049A00011FB0028ECD004494FF080500860BFF3A1
:1049B0004F8FBFF36F8FE3E704ED00E02DE9FF4772
:1049C00082B01D468A464FF00008040003D0BAF1B9
:1049D000000F08D011E0502080F31188BFF34F8FF3
:1049E000BFF36F8FFEE7206C38B1502080F3118841
:1049F000BFF34F8FBFF36F8FFEE7022D0AD1E06B3D
:104A0000012807D0502080F31188BFF34F8FBFF3E8
:104A10006F8FFEE700F0D0F93F4F4FF000094FF0E5
:104A2000805648B9049838B1502080F31188BFF3FC
:104A30004F8FBFF36F8FFEE7FFF792FCA06BE16B28
:104A4000884207D3022D05D00498D0B1B8F1000FE9
:104A50001AD01EE02A4651462046FFF719F9616A2E
:104A600019B104F1240000F0ADFA20B13E60BFF3AB
:104A70004F8FBFF36F8FFFF793FC012006B0BDE8A7
:104A8000F087FFF78DFC22E06846FFF707FD4FF047
:104A90000108FFF785FCFFF749FEFFF761FC94F979
:104AA0004400401C01D184F8449094F94500401C16
:104AB00001D184F84590FFF773FC04A9684600F023
:104AC000E9F830B12046FFF753FA00F0B5FA0020BC
:104AD000D4E7FFF745FCA06BE16B884213D1FFF7E9
:104AE0005FFC04F110000499FFF7E6FC2046FFF795
:104AF0003FFA00F0A1FA00289ED13E60BFF34F8F2D
:104B0000BFF36F8F98E7FFF74BFC2046FFF730FAB3
:104B100000F092FA90E7000004ED00E02DE9F34385
:104B2000002683B00400354609D0206C78B15020AF
:104B300080F31188BFF34F8FBFF36F8FFEE75020D4
:104B400080F31188BFF34F8FBFF36F8FFEE700F044
:104B500033F9DFF83C814FF000094FF0805748B936
:104B6000049838B1502080F31188BFF34F8FBFF302
:104B70006F8FFEE7FFF7F4FBA06BC8B1401EA06388
:104B8000206810B9FFF798FAA060206950B104F1CD
:104B9000100000F017FA28B1C8F80070BFF34F8F6B
:104BA000BFF36F8FFFF7FCFB012005B0BDE8F0837A
:104BB000049808B166B10FE03DB1502080F3118830
:104BC000BFF34F8FBFF36F8FFEE7FFF7E9FB5DE0A9
:104BD0006846FFF763FC0126FFF7E2FBFFF7A6FD3F
:104BE000FFF7BEFB94F94400401C01D184F84490C7
:104BF00094F94500401C01D184F84590FFF7D0FBA3
:104C000004A9684600F046F80028204612D0FFF7B5
:104C1000AFF900F011FA2046FFF75EF90028A9D09D
:104C20009DB3FFF79DFB606A50B3206B0068C0F135
:104C3000070126E0FFF750F9E0B1206838B9FFF727
:104C40008FFBA06800F078F90546FFF7A9FB04F197
:104C500024000499FFF730FC2046FFF789F900F0A3
:104C6000EBF9002886D1C8F80070BFF34F8FBFF36F
:104C70006F8F7FE72046FFF77BF900F0DDF979E7DA
:104C80000021A068FFF730FC9FE7FFE700208CE7DA
:104C900004ED00E02DE9F0410C46050011D0C4B14F
:104CA000FFF75EFB174BDA686E682068911B471CA4
:104CB00017D02F681B6A9F4219D0964217D801243B
:104CC00010E0502080F31188BFF34F8FBFF36F8F38
:104CD000FEE7502080F31188BFF34F8FBFF36F8F33
:104CE000FEE70024FFF75CFB2046BDE8F081884228
:104CF00005D9401A20602846FFF7D0FBF1E70020D5
:104D00002060DCE7480000202DE9FF5F8346DDE9F5
:104D10000E87994616468A469000FFF75FF9050010
:104D20001CD05420FFF75AF9040014D0002025634A
:104D300084F85100CDE90240CDE900874B46324668
:104D400051465846FFF755F82046FEF739FF012037
:104D500004B0BDE8F09F2846FFF736FB4FF0FF3068
:104D6000F6E7F0B585B0DDE90B640A9DA6B1DCB1CC
:104D7000542700972663022684F85160002604AF6A
:104D8000CDE90246CDE90057FFF733F82046FEF79C
:104D900017FF049805B0F0BD502080F31188BFF3D1
:104DA0004F8FBFF36F8FFEE7502080F31188BFF362
:104DB0004F8FBFF36F8FFEE70548416919B1006B54
:104DC00018B1002070470120704702207047000092
:104DD000480000202DE9F0412F4C0026206B28B11F
:104DE000A069401CA0613046BDE8F081E5686D1CFB
:104DF000E56013D1606B006838B1502080F31188F2
:104E0000BFF34F8FBFF36F8FFEE7606BA16B6163E2
:104E1000A063206A401C2062FFF76CF8A06ADFF8EC
:104E20007C80854209D3606B0068A0B1606BC0686C
:104E3000C7687868854211D2A0622068C06A00EB1A
:104E4000800158F82100012800D90126E0690028D6
:104E5000C9D00126C7E74FF0FF30EDE7381DFFF757
:104E60002FFAB86A18B107F11800FFF729FAF96AA2
:104E70000120226988401043206101EB810108EB89
:104E80008100391DFFF760FAF86A2168C96A884213
:104E9000C9D30126C7E7000048000020BC04002059
:104EA00070B504004FF0000140D0214D28688442C5
:104EB00007D0502080F31188BFF34F8FBFF36F8F5F
:104EC000FEE7A06C38B1401EA064636CE26A9A42AF
:104ED0002CD040B12AE0502080F31188BFF34F8FCF
:104EE000BFF36F8FFEE7201DFFF7EAF9114A01219A
:104EF00050B9E06A00EB800352F8233023B92B69E4
:104F000001FA00F083432B61606CE062C0F107009E
:104F1000A061E06A2B6981401943296100EB8000A0
:104F200002EB8000211DFFF70FFA0121084670BD3A
:104F300048000020BC04002070B504004FF00000C1
:104F400034D01E4DE16A2A68D26A91422FD2A069FC
:104F5000002804DB2868C06AC0F10700A061184E71
:104F600001EB8101606906EB810188421AD1201DA5
:104F7000FFF7A6F9012130B994F82C002A6901FA4B
:104F800000F082432A612868C06AE0622A69814091
:104F90001143296100EB800006EB8000211DFFF723
:104FA000D3F902E02868C06AE062012070BD616C3C
:104FB0002A68D26A9142F8D370BD000048000020F0
:104FC000BC0400202DE9F041C068C468ACB104F114
:104FD00018000746FFF774F9154D286B0126A0B19C
:104FE00039461448FFF7B0F9E06A2968C96A88426F
:104FF0001CD90120EE61BDE8F081502080F31188BA
:10500000BFF34F8FBFF36F8FFEE7201DFFF758F9F7
:10501000E16A2A6906FA01F01043286101EB810078
:105020000449B43901EB8000211DDBE70020E2E7F1
:1050300048000020700500202DE9F0472C4D002489
:105040002746286B38B1FFF78BF9286B401E286381
:10505000286B40B146E0502080F31188BFF34F8F9A
:10506000BFF36F8FFEE7A968224E0120D1B3A6F1EE
:10507000B40980463068E8B1F068C46804F11800EB
:10508000FFF71EF9201DFFF71BF9E06A2A6908FAED
:1050900000F11143296100EB800109EB8100211D22
:1050A000FFF752F9E06A2968C96A8842E2D3C5F875
:1050B0001C80DFE70CB1FEF71DFFAC6944B146462A
:1050C000FFF788FE00B1EE61641EF9D10020A861EF
:1050D000E86938B10849012738070860BFF34F8FE6
:1050E000BFF36F8FFFF75CF93846BDE8F08700002B
:1050F000480000207005002004ED00E081F0004130
:10510000704780F00040704721F00041704720F068
:105110000040704721F00042A2F16052B2F5801FBA
:1051200001F0004328BFD2F17F6C0BD95FEA001C6D
:1051300043EAC20242EB507018BF704728BF20F00C
:1051400001007047B2F5801FBCBF184670474FEA98
:10515000410C1CF5001F02D2084600F0A3BD70B53B
:1051600000F014FB00000089FFF7F6BF4FF000408D
:10517000A0F580007047000010B591EA030F48BF0A
:1051800083F0004300F13684841A71EB030C05D2DE
:10519000121943EB0C03001B61EB0C01DFF824E157
:1051A0004FEA1154A4EB135C1EEA430F18BF9EEAAA
:1051B000445F73D023EA0E03DCF1200E21EA045190
:1051C00043F4801332D322FA0CFE10EB0E0023FAC4
:1051D0000CFE41EB0E01CCF1200E03FA0EFE10EB9B
:1051E0000E0051F10001B1F5801FCCF1200E32D23A
:1051F00001EB045112FA0EF2BDE8104058BF70479F
:10520000401C38BF5FEA420218BF7047002814BF35
:1052100020F0010041F100014FEA410313F5001FA6
:1052200038BF7047A1F1C04100F0FEBA012A43EB3C
:105230000302ACF1200CDCF11F0E32BF4FF0000E68
:1052400023FA0CF310EB030041EB0451B4EB115FB4
:10525000D0D0A1EB045101F5801149085FEA30007C
:1052600001EB04510ED350F1000038BF12FA0EFECC
:1052700008D1BDE81040C9E7401C38BF5FEA4202D0
:10528000CAD1C3E7BDE810404FEA410313F5001F40
:1052900038BF7047A1F1C04100F0C6BA9EEA445F32
:1052A00008D011EA5E0FBDE8104004BF01F00041D4
:1052B00000207047BDE8104070B500F067FA00BFED
:1052C00064FBBE3E0000E0FF491058BFC1F1404101
:1052D0005B1058BFC3F140438B42EFF3008070472F
:1052E0002DE9C04130B4DFF8A0C23CEA111418BF68
:1052F0003CEA131400F0EC8081EA03051CEA111467
:1053000044EAD57418BF1CEA131500F0C780A4EB5B
:1053100005044FF0004545EAC12145EAC32341EAAF
:10532000505143EA525304F17F74994204F500341A
:105330004FEAC0204FEAC22208BF904200F09C8092
:105340004FEA13650FF24016765D4FEA134506FBF0
:1053500005F7C7F1807706FB07F74FEAD737A7FBBA
:1053600003687642C8F58038A7FB06CE38BFA8F19F
:10537000010807FB08E64FF0000EA6FB028CE6FBD7
:1053800003CEDCF1000CCEF1004E38BFAEF1010EC1
:10539000A6FB0C584FF000074FF00005E6FB0E8708
:1053A000A1FB08C6A0FB07CE16EB0E0645F10005D3
:1053B000E1FB076515F1E04E7EBFA4F580345FEA9E
:1053C00046066D4116F1800745F100054FEA1727A3
:1053D0004FEA066647EA0567A6F1DE46B6F1805F4A
:1053E0004FEA15251FD9384624F0010C05EBC4718E
:1053F000BCF1FE6F01EB0C1102D8F0BCBDE80081DE
:1054000024425CBF01F5801E9EEAC47F02D4F0BC3A
:10541000BDE80081244238D4F0BCA1F1C041BDE810
:10542000004100F001BA4FEAD22242EA43524FEA69
:10543000D323A7FB02864FEAD02040EA415007FB66
:1054400003661EEA0E0F4FEAD12105FB026658BF24
:10545000A6EB0056B6EB00564FEA520E4EEAC37E5C
:1054600018EB0E0E56EB530EBDD518EB02085E413D
:105470007F1C55F10005B6E74FF480154FF000078B
:105480004FF000064FF00008ADE7F0BC4FF0000011
:1054900001F1C04101F00041BDE8008111EA0C1F9B
:1054A0000CEA131500D00CE013EA0C1F00F0258065
:1054B0004FF00000F0BC81EA030101F00041BDE8BB
:1054C0000081F0BCBDE8004181EA030100F0ACB905
:1054D000F0BCBDE8004170B500F058F9097EFC3E13
:1054E00000F007B881EA03014FF0000001F000412D
:1054F000704781EA030100F097B9F0BCBDE80041B4
:105500004FF0000021497047FFFDFBF9F7F5F4F279
:10551000F0EEEDEBE9E8E6E4E3E1E0DEDDDBDAD84E
:10552000D7D5D4D3D1D0CFCDCCCBCAC8C7C6C5C4AC
:10553000C2C1C0BFBEBDBCBBBAB9B8B7B6B5B4B3C3
:10554000B2B1B0AFAEADACABAAA9A8A8A7A6A5A4AE
:10555000A3A3A2A1A09F9F9E9D9C9C9B9A99999872
:105560009797969595949393929191908F8F8E8E15
:105570008D8C8C8B8B8A89898888878786858584A2
:1055800084838382828181800000FF070000F87F8E
:1055900051EA030C17D41CF5801F58BFBCF5801FBF
:1055A00000F10680994218BF704708BF90427047CB
:1055B00007D711F5801F58BF13F5801F19D49942E2
:1055C0007047894270471CF5801F08D5BCF5801FC5
:1055D000F7D58B4218BF704708BF824270474FF41F
:1055E000001C1CEB410F38BF1CEB430F01D28B4258
:1055F000704770B500F0CAF8922449004FF000518E
:105600004FF08053FFF760BE10F0004248BF4042A9
:10561000B0FA80F310FA03F10AD0C3F11D0303F5C9
:1056200080634FEA415002EB035202EBD1217047F5
:105630004FF0000070470000DFF848C170B51CEA69
:10564000111E1EBF1CEA13159EEA0C0F95EA0C0FE3
:1056500000F06F8081EA030423EA4C134EEAD47E03
:1056600021EA4C1141F4801143F48013AE44A1FBB4
:10567000024CA0FB0365AEF17F7E361955EB0C059D
:10568000A1FB034C4CF10003A0FB021C16EB0C0623
:10569000654153F10003094218BF46F0010613F4B7
:1056A000007F0BD14FEA03314FEA0530340341EA62
:1056B000155140EA16506FF003020AE04FEAC32189
:1056C0004FEAC520F40241EA555140EA56506FF0C6
:1056D000020202EB2E4201EB025585EACE710AD09E
:1056E0005FEA440C18BF24F0004450F1000041F17F
:1056F000000120EAD47040F2FE7C624500D270BD09
:10570000A84214BF4FF080444FF04044002E08BF21
:105710000024BEF1806FA8BFA1F1C041BDE8704078
:1057200080F282804FF0000001F1C04101F00041A1
:1057300070479EEA0C0F0CEA131518BF95EA0C0F80
:1057400006D04FF0000081EA030E0EF0004170BD5C
:1057500000F01CF88900013E00F007B800F009B81D
:105760004FEA430C5FEA5C5C08D081EA030100F079
:105770005BB84FEA410C5FEA5C5CF6D14FF0000089
:10578000014970470000FF070000F87F0EF1020E8C
:105790002EF0030E5EF8046B364205D4012A43EB6B
:1057A000030515F5001F12D8012841EB010C1CF56B
:1057B000001F0CD80ED14FEAD17C15F5001F0CEB61
:1057C0004C0C0CF1020C08BF4CEBD37C04E04FF006
:1057D000080C01E04FEAD37C0CEB4C0526FA05F6E9
:1057E00006F00706B6F1040C06D20EEB860CBDE8F7
:1057F00070404CF0010C6047DFE80CF0090B02022E
:105800004FF000414FF00000A1F5002170BD194696
:105810001046012851EB010418BFD4F5001484BFD1
:10582000002001F0004170BD0808A0F500114FEA0A
:105830003101704791EA030F10B581F000413FF547
:10584000A3AC83F0004300F0D5B800002DE9F0418F
:1058500001F5801CBCF5001FC0F2A9804FEA115C65
:1058600021EA0C510CF1FD0C41F480115FEA5C0C53
:105870000CF5C07C01D34000494130A4890241EAC3
:10588000905187028E0E0A0CA45D04FB04F602FB05
:1058900006F6C6F14046A4FB0662F60D46EA42262D
:1058A00006FB06F4A4FB01235242C3F1404338BF78
:1058B0005B1EA6FB02420024E6FB0324D20B42EA55
:1058C0004446A6FB0623A1FB02E2A3FB07E4E3FB9D
:1058D00061426442C2F1404E38BFAEF1010EA6FBF8
:1058E00004234FF00002E6FB0E32A2FB0346340015
:1058F000E2FB6264A1FB06E6A4FB07E8E4FB616847
:105900007642C8F1405838BFA8F10108A2FB06E46E
:10591000A3FB08E5E2FB6854A1FB05E6A7FB04E84E
:10592000E1FB648618F1200556F10006A809A8F1EC
:105930001B08B10908F03F08B8F10A0F40EA866079
:105940001CD901EB0C51BDE8F08100BFFCF5EEE87D
:10595000E2DDD8D3CFCBC7C3C0BDB9B6B4B1AEAC0E
:10596000A9A7A5A3A19F9D9B9A9896959392908F86
:105970008D8C8B898887868584838281A0FB0068D3
:1059800000FB01F208EB4208B8EB872807D5341872
:1059900058EB0104D5D5401C51F10001D1E7341A70
:1059A00078EB0104CDD4401E71F10001C9E75FEA34
:1059B0004C0C5FEA9C5C0DD105D34FF0000001F068
:1059C0000041BDE8F081BDE8F04170B5FFF7DEFEB3
:1059D0006DDBFFBEBDE8F0414FF0000000497047AD
:1059E0000000F87F10B591EA030F48BF83F0004331
:1059F0003FF5CAAB841A71EB030C07D212198CF075
:105A0000004C43EB0C03001B61EB0C01DFF8A4E13D
:105A10004FEA1154A4EB135C1EEA430F18BF9EEA31
:105A2000445F00F0B08023EA6E03524221EA045141
:105A3000C3EB6E0338BF5B1EDCF1200E25D322FAC8
:105A40000CFE10EB0E0043FA0CFE41EB0E01CCF104
:105A5000200E03FA0EFE10EB0E0051F10001CCF106
:105A6000200E29D412FA0EF201EB0451BDE81040C9
:105A700058BF7047401C1CBFB2F1004F7047002850
:105A80000CBF491C20F00100704712EB020E43EBE3
:105A9000030218BF4FF0010E4EEA4202ACF1200C97
:105AA000DCF11E0E54D943FA0CFE10EB0E0051F13E
:105AB000FF31CCF11E0ED5D50EF1010E12FA0EFEFD
:105AC000404141EB010101EB445C5FEA5C5C10D9B1
:105AD00010EBDE7001EB045138BFBEF1004FBDE8A2
