:020000040800F2
:10000000200800203D0200082F1F0008551B000893
:100010002D1F0008C5100008DD1F000800000000AB
:10002000000000000000000000000000331F000876
:10003000C710000800000000311F0008351F00082D
:10004000570200085702000857020008570200082C
:10005000570200085702000857020008570200081C
:10006000570200085702000857020008570200080C
:1000700057020008570200085702000857020008FC
:1000800057020008570200085702000857020008EC
:1000900057020008570200085702000857020008DC
:1000A00057020008570200085702000857020008CC
:1000B00057020008570200085702000857020008BC
:1000C00057020008570200085702000857020008AC
:1000D000570200085702000857020008570200089C
:1000E000570200085702000857020008570200088C
:1000F000570200085702000857020008570200087C
:10010000570200085702000857020008570200086B
:10011000570200085702000857020008570200085B
:10012000570200085702000857020008570200084B
:10013000570200085702000857020008570200083B
:10014000570200085702000857020008570200082B
:10015000570200085702000857020008570200081B
:10016000570200085702000857020008570200080B
:10017000570200085702000857020008000000005C
:10018000570200085702000800F002F800F046F895
:100190000AA090E8000C82448344AAF10107DA45E2
:1001A00001D100F03BF8AFF2090EBAE80F0013F0EE
:1001B000010F18BFFB1A43F00103184758600000F5
:1001C00078600000103A24BF78C878C1FAD8520786
:1001D00024BF30C830C144BF04680C6070470000C1
:1001E0000023002400250026103A28BF78C1FBD840
:1001F000520728BF30C148BF0B60704700207047CE
:100200001FB505F01EF99DE8030000F031FD00F078
:1002100037FA1FBD10B500F09CFA10BD00F004FBCA
:100220001146FFF7EDFF03F08DFB00F0F3FC03B484
:10023000FFF7F0FF03BC00F0ADFE00000948804767
:1002400009480047FEE7FEE7FEE7FEE7FEE7FEE7B8
:10025000FEE7FEE7FEE7FEE704480549054A064BD0
:1002600070470000CD1F000889010008200200200F
:1002700020080020200400202004002053EA020C63
:1002800000F069802DE9F04B4FF00006002B1FBFF6
:10029000B3FA83F503FA05F424FA05F65E4012BFBB
:1002A0001643B2FA82F502FA05F4C5F120051EBF25
:1002B00022FA05FC44EA0C04203556EA044C4FEAC5
:1002C000144418BF641C4FF000084FF0000990421E
:1002D00071EB030C39D3002919BFB1FA81F701FA88
:1002E00007F6B0FA80F700FA07F6C7F120071EBF3D
:1002F00020FA07FC46EA0C062037B6FBF4FCA7EB15
:100300000507103F07F01F0BCBF120060CFA0BFB83
:100310002CFA06F644BFB3460026202FA4BF5E4643
:100320004FF0000B5BEA060C08BF4FF0010B19EB16
:100330000B09ABFB027C48EB0608C01B06FB02CC9A
:100340000BFB03CC71EB0C01C1E70B4602464146A7
:100350004846BDE8F08B13B54FF000004FF00001A8
:10036000AFF30080BDE81C40704710B54C1084EA24
:10037000530404D54042C1F1000138BF491E1B425D
:1003800004D55242C3F1000338BF5B1EFFF776FF6E
:1003900014F0804F04D04042C1F1000138BF491E23
:1003A00014F0004F04D05242C3F1000338BF5B1E6B
:1003B00010BD00000FB4044910B503AA029800F064
:1003C0000BF910BC5DF814FB180100202DE9F05F5B
:1003D000894604464FF0000ADFF824B1FB44C0F818
:1003E00020A02046E168884700287DD0252806D037
:1003F000D4E901219047206A401C2062F1E70025E2
:100400005F462046E16888472028064607DB312EF4
:1004100005D2B81910F8200C08B10543F1E7A80778
:1004200001D525F00405C4F81CA00027C4F818A0C5
:100430002A2E09D0304602F0C7FA38B304EB8708F9
:10044000303EC8F8186019E059F8041B204604EB48
:1004500087029161E1688847012F064618D1E0695B
:10046000002820DA25F020051DE0D8F8180000EB60
:10047000800006EB40003038C8F818002046E168DC
:100480008847064602F0A0FA0028EED1012F0AD0D4
:100490002E2E08D12046E16888477F1C0646022F91
:1004A00045F02005C4DBA069002803DA404245F08E
:1004B0000105A061E80701D025F01005A6B1A6F15D
:1004C0004100192802D8203645F400654A463146D5
:1004D000204625604D46FFF791FE60B1012807D008
:1004E000ED1D25F0070000E007E000F1080978E7BE
:1004F00005F1040975E730467AE7206ABDE8F09F08
:10050000D65C000040EA010310B59B070FD1042A16
:100510000DD310C808C9121F9C42F8D020BA19BACE
:10052000884201D9012010BD4FF0FF3010BD1AB133
:10053000D30703D0521C07E0002010BD10F8013B88
:1005400011F8014B1B1B07D110F8013B11F8014BAF
:100550001B1B01D1921EF1D1184610BD02F0FF0302
:1005600043EA032242EA024200F04AB84FF0000296
:1005700000B5134694469646203922BFA0E80C5099
:10058000A0E80C50B1F12001BFF4F7AF090728BF74
:10059000A0E80C5048BF0CC05DF804EB890028BFF0
:1005A00040F8042B08BF704748BF20F8022B11F019
:1005B000804F18BF00F8012B704770477047704795
:1005C00010B500F03DF8006810BD10B5044600F00D
:1005D00037F8046010BD0000074B70B50D467B4432
:1005E00000F037F80446284600F046F810B14FF006
:1005F000FF3070BD204670BD3F2E00004FF000025E
:100600000429C0F0128010F0030C3FF4B1AFCCF11C
:10061000040CBCF1020F18BF00F8012BA8BF20F892
:10062000022BA1EB0C01FFF7A3BF5FEAC17C24BF43
:1006300000F8012B00F8012B48BF00F8012B704790
:1006400000487047C001002001694A1C0261087817
:10065000704700B58FB0CDE9013100210591054902
:100660007944CDE9031011466846FFF7AFFE0FB09D
:1006700000BD0000E5FFFFFF007B00F08000704739
:1006800010B542485421FFF771FF41485421FFF74C
:100690006DFF40485421FFF769FF3F493B483C4A02
:1006A0003F4B08603D490A603A491960531C036595
:1006B000481C1065012008653B48344A39A178443C
:1006C00000F00CFA20B9384878440A3800F0ABFA48
:1006D00037482F4A35A1784400F000FA20B9344851
:1006E00078440A3800F09FFA32482A4A2FA1784409
:1006F00000F0F4F920B92F4878440A3800F093FA52
:1007000040232248DC000021224600F0C4F920B139
:1007100025487844543800F086FA1D482246402384
:10072000002100F0B8F920B121487844543800F095
:100730007AFA184822461023002100F0ACF900286C
:1007400006D01C487844BDE81040563800F06BBA1B
:1007500010BD104870B5006D20F001040B4800F08A
:1007600033FA0B4800F030FA0A4800F02DFA09E09D
:10077000206D20F00105204600F026FA204600F00A
:1007800078F82C46002CF3D170BD0000C400002086
:10079000180100206C0100205400002058000020A7
:1007A0005C00002072000000F65A00007700000094
:1007B000E25A0000CE5A00000EB5CDE9000100F06B
:1007C000C9FB029069460120ABBE0EBD08B5694663
:1007D00000900220ABBE08BD1FB58DE8070069463A
:1007E0000520ABBE04B010BD1FB58DE80F006946F3
:1007F0000620ABBEF6E708B5694600900920ABBEFF
:1008000008BD1CB5CDE9000169460A20ABBE1CBD80
:10081000704708B5694600900C20ABBE08BD0000CB
:1008200000487047C00100207546FFF7F9FFAE464B
:1008300005006946534620F00700854618B020B5EC
:10084000FFF70AFDBDE820404FF000064FF000071B
:100850004FF000084FF0000B21F00701AC46ACE868
:10086000C009ACE8C009ACE8C009ACE8C0098D46D5
:10087000704770B50446051F00F0DEF90068002CD3
:1008800014BF446870BD002C18BFAC423CBF20466A
:100890006468F8D301680A18AA4218BF456003D1FA
:1008A0002A6805461144016028684119A1421CBF0D
:1008B0006C6070BD6168696021680844286070BD23
:1008C0002DE9F04705460C46C86820F4201040F496
:1008D0008000C860800602D5084600F0FAFAE06899
:1008E00041F282014FF0FF390140022903D0204636
:1008F00000F098FAB5E000F42041B1F5004F0FD1B7
:10090000C00306D56168E06A884200D80846606086
:1009100006E02069E06260606069FFF77AFFA0612D
:10092000A0680022EEB200280DDAE1688B050AD437
:10093000C043A06041F490302260E0606068411CD8
:1009400061600670A5E0E0689046226040F40050C7
:10095000E060206968BB6069FFF74DFF012704F183
:100960002405A0B1A08910F4407F08D0E06900F010
:10097000AEF9206118B1E06840F4006016E0E7616C
:100980002561E06820F4407040F480600EE0E0698A
:1009900000F09DF900282061F1D0E06840F400608B
:1009A00010F4407FE06002D140F48070E060206984
:1009B0006060E06825696FF0010AC1051FD56168B4
:1009C000E06A884200D80846411B04D022462846E7
:1009D00000F032FAF0BBE068010203D5E562C4E939
:1009E000015854E0691CE1626160E16940F48030C3
:1009F000491EC4E9021030462E70BDE8F08701029E
:100A000002D500F480320AE06068411C6160067023
:100A1000E0680A2E40F48030E06006D00022E16AEF
:100A20006068814203D90B4602E00122F7E70346E2
:100A3000A7895B1B7F0503D4E7699F4200DDE2B114
:100A4000814200D80146E5620F1AC4E90158002B23
:100A500009DD00E005E022461946284600F0ECF9E1
:100A600008B14846C9E747B1A069E5626560C01BA7
:100A7000A061E06840F01000E060E068000208D586
:100A80006168A069E562491B08446560A061504641
:100A9000B3E73046B1E770B5C468A50713D0650267
:100AA00011D4B2F5807F09D0B2F5007F06D0B2F53F
:100AB000806F08D1012300F1240106E05D1E6FF074
:100AC0007F46B54201D3012070BD0161C361416021
:100AD00024F470611143C160002070BD2DE9F04124
:100AE0000C4607461646104600F06EF82078611C4A
:100AF00061280AD0722802D077283CD102E0012573
:100B0000002405E00225042402E0082448F202053E
:100B100011F8010B2B2806D0622809D011F8010C1E
:100B200074280AD00BE045F0030544F00204EFE717
:100B300045F0040544F00104EAE744F010043846A7
:100B40002146FFF739FE411C15D00021316171604B
:100B50004FF40071F560F1617061200704D53046F3
:100B60000222002100F0E2F8306D40F00100306513
:100B70003046BDE8F0810020FBE72DE9F0410D464D
:100B80000646104C206DC10704D0410804D020F067
:100B90000104F7E722460EE0542000F098F8070021
:100BA0000ED0206D47F001010843542120653846DE
:100BB000FFF7DCFC3A4629463046BDE8F0418DE7B8
:100BC0000020D6E7C40000202DE9F04704464FF08E
:100BD00000094FF0FF37C568D4E90486A80707D09D
:100BE000204600F053F93046FFF7F0FD002802DA06
:100BF0003846BDE8F087280502D54046FFF739FEA4
:100C00004C212046FFF7B2FC206D20F0010020654A
:100C10004846EEE710B50446AFF300802046BDE835
:100C20001040FFF704BB10B500F07AF9BDE81040A2
:100C300000F070B97047000000487047C8010020FC
:100C4000704770477047704738B504460A46002021
:100C50006946AFF30080002808BF38BD02460099FE
:100C6000204600F0A4F9012038BD012000F0F3B9BE
:100C7000F8B5AFF30080054600200C46102000BFF9
:100C80000646A819A0420DD9324669460020AFF3A6
:100C90000080070008BF00F0DEF90098A04218BFEE
:100CA0000546C419FFF7C8FF05600746F01D20F090
:100CB00007004619284600F073F9B44208BFF8BD92
:100CC000A21B31463868BDE8F84000F070B970B535
:100CD0000646FFF7B1FF056806F10B0020F0070498
:100CE000B4429CBF002070BD2B466A68BAB1106840
:100CF000A04210D304F1080188423CBF50685860FC
:100D000007D35168101941601168091B01605860D0
:100D10001460101D70BD13465268002AE7D12146A9
:100D20002846FFF791FF0028DED170BD2DE9F04184
:100D3000044616460D464769007B80072ED038468C
:100D4000FFF759FD50BB3EB3012E02D0022E25D134
:100D500004E0204600F045F905441DE03846FFF761
:100D600058FDE168002841F01001E16005DA2046F5
:100D700000F058F80120BDE8F081C9030BD5626886
:100D8000E16A914200D81146A26911442269891A88
:100D9000814200DD08460544002D01DA0220EAE721
:100DA000E16A6068E268814206D29103E06203D59D
:100DB00022F4003141F01002A6690027AE4213DC94
:100DC000E16A814201D90B4600E0034603EB060CC1
:100DD0002369ACEB030CAC4506DD814201D98C469E
:100DE00000E084469C4505D1A760276042F02000C2
:100DF000A5620DE0AD1BE669AE1B8142A66000D97D
:100E00000846C01A281A20605819606022F0200095
:100E100003490840E060002084F84870ABE7000018
:100E2000BFCFD7FFC16821F4001141F08001C1603C
:100E300000218160016070472DE9F047814614462A
:100E40000E464FF0FF383248D5685769054209D041
:100E50003846A169FFF7D5FC002811DB2C48C043B8
:100E60000540E5602B46324649463846FFF7B4FC5C
:100E7000A16920F00042B21A11440028A16103D0F8
:100E80002046FFF7CFFF4046BDE8F08770B5044627
:100E90000569C06A6168884200D80846E16821F4A3
:100EA0002011E160C90312D5A84208D02246411B97
:100EB0002846FFF7C1FF10B14FF0FF3070BD002092
:100EC000E562C4E90150E06820F48030E060002071
:100ED00070BD10B50446C06820F02000E060A16A33
:100EE000A06988420DD02046FFF7D0FFE06820F4CB
:100EF000405040F01000E060A06AA0612069E0620C
:100F0000606044F24001E0688843E06010BD00008A
:100F100010000200002801D000F03CB8704700002B
:100F200010B5014602A000F07DF8012010BD0000C0
:100F300053494752545245443A2052656469726598
:100F400063743A2063616E2774206F70656E3A2077
:100F50000000000010B5431C02E010F8011B71B145
:100F60008107FAD14FF0013202C88C1A8C4314EA7F
:100F7000C211F9D0C01A0A0603D0C01E10BDC01A93
:100F800010BD0A0401D0801E10BD0902FCD0401E15
:100F900010BD000001491820ABBEFEE7260002008C
:100FA00000210160C0E9011070471020704703461E
:100FB00040688C46002818BF88423CBF0346406802
:100FC000F8D318681844884207D00CF1030020F0C9
:100FD0000700001D411A521A0146081D0A60FFF75A
:100FE00048BC10B50146C268900703D0900607D5EB
:100FF000886A0AE0FFF724FB01210160881E10BD0A
:101000008B69486818440B69C01A91F848301BB1C5
:1010100091F84910401A10BD1103FCD50028FADDE3
:10102000401E10BD70B505460C460A2000E06D1C40
:1010300000F018F835B128780028F8D102E0641CD7
:1010400000F010F814B120780028F8D1BDE8704005
:101050000A2000F007B810B500F00CF8BDE8104009
:10106000FFF758BF08B569468DF800000320ABBEF6
:1010700008BD000010B5012805D0002103A0FFF72E
:10108000D1FF012010BD09A1F8E7000053494752E4
:10109000544D454D3A204F7574206F662068656148
:1010A00070206D656D6F7279000000003A20486510
:1010B0006170206D656D6F727920636F72727570EB
:1010C00074656400FEE7704772B6FEE770B50446CB
:1010D00000F010F90546601C02D004480078044472
:1010E00000F008F9401BA042FAD370BD0C000020AC
:1010F0002DE9F84FDFF8BCA10022012503264FF0AF
:101100000F090AF1040BAAF1040E00BF0B6805FADF
:1011100002F42340A34270D10F7907F00307012F97
:1011200001D0022F16D187684FEA420806FA08FC60
:1011300027EA0C07D1F80CC00CFA08FC4CEA070CA3
:10114000C0F808C04768A7430C79C4F30014944062
:101150003C4344600C79E443A4070AD0C4684FEAD6
:10116000420C06FA0CF7BC438F6807FA0CF72743CA
:10117000C7600C7904F00304022C12D1D40800EBF0
:10118000840CDCF820405707FF0E09FA07F824EA20
:101190000804D1F8108008FA07F848EA0408CCF8E7
:1011A000208004684FEA420C06FA0CF7BC430F7922
:1011B00007F0030707FA0CF7274307604C6814F49D
:1011C000403F70D03C4C276847F480472760246834
:1011D00022F0030704F480440094384C07EB040C1D
:1011E000DCF8084897074FEA177809FA08F7BC4374
:1011F000334FB84202D1002724E054E0314FB842C7
:1012000001D101271EE0304FB84201D1022719E079
:101210002E4FB84201D1032714E02D4FB84201D11F
:1012200004270FE02B4FB84201D105270AE02A4FCF
:10123000B84201D1062705E0284FB84201D107275F
:1012400000E0082707FA08F72743CCF80878DAF80F
:1012500000405746D1F804C09C435FEACC2C00D52F
:101260001C433C60DBF800405F46D1F804C09C435F
:101270005FEA8C2C00D51C433C60DEF800407746CA
:10128000D1F804C09C435FEA8C3C00D51C433C6011
:10129000084F083F3C68D1F804C09C435FEACC3C4F
:1012A00000D51C433C60521C102AFFF42FAFBDE850
:1012B000F88F0000083C01404438024000300140F3
:1012C000000002400004024000080240000C0240FE
:1012D000001002400014024000180240001C0240AE
:1012E0000069084000D0012070470AB18161704751
:1012F0000904FBE701488068704700000C000020EB
:1013000070B5040025D094F83D00002520B984F87C
:101310003C50204600F0B8F8242084F83D002068B6
:10132000016821F0010101602068016841F4004179
:1013300001602068016821F40041016000F0FEF9BD
:101340004D4A6168914201D84C4900E04C498842BD
:1013500001D2012070BD4B492368B0FBF1F15E68FA
:1013600026F03F060E435E606368934206D94FF451
:10137000967359434FF47A73B1FBF3F12368491C18
:101380001E6A26F03F06314319626168914210D807
:101390004900401EB0FBF1F2521CC2F30B02042ABA
:1013A00001D2042022E0B0FBF1F0401CC0F30B009E
:1013B0001CE0A268F2B301EBC10303EB0116431E6C
:1013C000B3FBF6F35B1C43F480431B0549D092B397
:1013D00001EBC10202EB0111401EB0FBF1F0401C19
:1013E000C0F30B0040F4804040F400402168CA691B
:1013F0004CF6FF739A431043C861D4E907100143C8
:101400002068026822F0C00211430160D4E90301A0
:1014100001432068826848F2FF339A431143816098
:10142000D4E9050108432168CA6822F0FF0210438D
:10143000C86001E00EE016E02068016841F001019B
:1014400001602564202084F83D00256384F83E5027
:10145000002070BD01EB4106431EB3FBF6F35B1C9D
:10146000B3E70120C2E701EB4101401EB0FBF1F000
:10147000401CC0F30B00B7E7A086010080841E006B
:1014800000093D0040420F0010B586B0044614210B
:101490006846FFF76BF81349206888421FD112484D
:1014A0000021026842F0200202600068122200F06F
:1014B000200005900320CDE90210CDE900020420B0
:1014C000049069460948FFF713FE07481030016889
:1014D00041F480010160006800F48000059006B0CE
:1014E00010BD000000580040303802400014024097
:1014F0000248816802781144816070470C00002026
:101500000B4810B5016841F400710160016841F4B5
:1015100080610160016841F480710160032000F086
:1015200061F80F2000F006F800F024F8002010BD4C
:10153000003C024070B50D4D04464FF47A71287896
:10154000B1FBF0F00A490968B1FBF0F000F0EEFAE7
:1015500048B9102C07D200222146501E00F022F874
:1015600000206C6070BD012070BD00000C000020E8
:10157000180000200A4808B5016841F48041016064
:10158000006800F4804000900548001F016841F0A9
:1015900080510160006800F08050009008BD00009C
:1015A00044380240F0B40E4B1B680C46C3F30223D0
:1015B000C3F10705042D00D90425191D072901D2FF
:1015C000002300E0DB1E012606FA05F1491E21403A
:1015D00099409E40761E16403143F0BC00F017BD86
:1015E0000CED00E0064900F0070208684FF6FF0323
:1015F000184040EA0220034A104308607047000088
:101600000CED00E00000FA052DE9F0470E4605005C
:1016100065D0DFF81481D8F80000F7B200F00700B9
:10162000B04207D288F80070D8F8000000F0070038
:10163000B04254D128683D4C810712D5400703D5EC
:10164000206840F4E05020602878000703D5206827
:1016500040F4604020602068A96820F0F000084352
:1016600020602878C0072DD03049686808390128E3
:1016700012D0022813D0032811D009688907002945
:101680002DDA216821F0030101432160FFF732FECA
:10169000814641F2883A0EE009688903EFE709685C
:1016A0008901ECE7FFF726FEA0EB0901514502D9BD
:1016B0000320BDE8F0872068696800F00C00B0EBFB
:1016C000810FEFD1D8F80010404601F00701B14278
:1016D00007D90770006800F00700B04201D0012070
:1016E000E7E72878400705D52068E96820F4E0504E
:1016F000084320602878000706D52068296920F46F
:10170000604040EAC100206000F028F82168084AE3
:10171000C1F30311515CC8400649086006480068DF
:10172000FFF708FF0020C4E7003C024008380240F1
:1017300056540008180000201000002004480549F5
:1017400000680968044AC1F38221515CC8407047AF
:10175000180000200838024066540008154810B5EB
:10176000006810F00C02144813D01449042A0FD05A
:10177000082A0ED10F4C241F2268236802F03F0272
:101780005B0207D52068C0F38810A0FB010106E0CA
:10179000084610BD2168C1F38811A1FB0001002398
:1017A000FEF76CFD2168C1F30141491C4900B0FB03
:1017B000F1F010BD083802400024F400001BB7000F
:1017C0002DE9F84F04006ED02078DFF84C93C00765
:1017D000A9F104054AD009F104000168C1F38101AF
:1017E000012908D00068C0F3810002280AD1D9F885
:1017F0000000400206D52868800337D560680028BD
:10180000E1D033E06068B0F5803F10D0B0F5A02F94
:10181000286810D020F480302860286820F48020C8
:1018200028606068A8B1FFF765FD06460DE02868EE
:1018300040F48030F4E740F480202860F7E700BFF0
:10184000FFF758FD801B642873D828688003F7D5FC
:101850000CE0FFF74FFD064605E000BFFFF74AFD2D
:10186000801B6428F0D828688003F7D42078DFF83C
:10187000AC8280074FF0000A3ED5A748001D0168E2
:1018800011F00C0F08D00068C0F3810002280BD1C2
:10189000D9F80000400207D42868800716D5E06810
:1018A000012800D112E033E1E068B8B10120C8F8A6
:1018B0000000FFF71FFD064605E000BFFFF71AFD19
:1018C000801B0228C0D828688007F7D528682169BE
:1018D00020F0F80040EAC10028600DE0C8F800A040
:1018E000FFF708FD064604E0FFF704FD801B022811
:1018F0001FD828688007F7D42078000722D5864FA4
:1019000087486169703771B101210160FFF7F2FC0E
:10191000064604E0FFF7EEFC801B022809D8386871
:101920008007F7D50EE0C0F800A0FFF7E3FC0646FD
:1019300005E082E0FFF7DEFC801B02287DD83868D6
:101940008007F7D42078400768D5DFF8CCB10027AE
:101950000BF13C0BDBF80000C0000BD4DBF80010EF
:1019600041F08051CBF80010DBF80000012700F0B7
:10197000805000906B4E3068C00510D4306840F441
:1019800080703060FFF7B6FC009005E0FFF7B2FC16
:101990000099401A022850D83068C005F6D55E4E2E
:1019A000A0686C3601280FD00528306810D020F0D0
:1019B00001003060306820F004003060A068B8B1E9
:1019C000FFF798FC00900FE0306840F00100F4E76A
:1019D00040F004003060F7E7FFF78CFC0099411AF3
:1019E00041F28830814266D830688007F4D50EE035
:1019F000FFF780FC009007E0FFF77CFC0099411A9C
:101A000041F28830814256D830688007F4D42FB133
:101A1000DBF8001021F08051CBF80010A069C8B3AA
:101A20003D49091D0968C1F3810102294AD00228F4
:101A3000504607D0C8F8600000E03CE0FFF75AFCD1
:101A400004463BE04746C8F86000FFF753FC0646F3
:101A500005E000BFFFF74EFC801B02282BD828684A
:101A60008001F7D4D4E907010843A16A2E4A490846
:101A700002EB0141626A41EA8211084394F82C109A
:101A800040EA0161C9F8001001203866FFF732FC16
:101A9000044606E03EE000BFFFF72CFC001B0228D6
:101AA00009D828688001F7D534E000BFFFF722FC91
:101AB000001B022802D90320BDE8F88F28688001A6
:101AC000F4D427E00128F7D0D9F80000E26900F447
:101AD000800191421CD1226A00F03F01914217D14E
:101AE00047F6C071626A0140B1EB821F10D1A26A51
:101AF0004FF0FF3300F4403103EB5202B1EB024FE1
:101B000006D194F82C1000F07060B0EB016F01D09A
:101B10000120D1E70020CFE704380240000047420F
:101B2000800E4742007000400000FFFF10B5401ECD
:101B3000B0F1807F01D3012010BD4FF0E02460613F
:101B40000F21601700F063FA0020A06107202061D8
:101B5000002010BDFEE7FF20401EFDD270470000B0
:101B600010B50B4C002201212046FFF7BEFB0122DD
:101B700002212046FFF7B9FBFFF7EDFF01221146D6
:101B80002046FFF7B2FBBDE81040FFF7E4BF0000BE
:101B9000001402402DE9F041144E074601220024B2
:101BA00011463046FFF7A1FB00256006040E012216
:101BB00002213046FFF799FBFFF7CDFF01213046A8
:101BC000FFF78EFB08B1641CE4B20022022130460C
:101BD000FFF78BFBFFF7BFFF6D1C082DE5DB3846D9
:101BE00000F068F82046BDE8F081000000140240D3
:101BF00070B5114E05460024280601D5012200E0EB
:101C0000002201213046FFF770FBFFF7A4FF0122FD
:101C100002213046FFF769FBFFF79DFF00220221FA
:101C20003046FFF762FB6806050E641C082CE3DBF8
:101C3000BDE8704000F020B80014024010B50D4C13
:101C4000012211462046FFF750FB012202212046C7
:101C5000FFF74BFBFFF77FFF002201212046FFF734
:101C600044FBFFF778FF20460022BDE81040022128
:101C7000FFF73BBB0014024070B50D4D0122114629
:101C80002846FFF732FBFFF766FF012202212846B4
:101C9000FFF72BFBFFF75FFF01212846FFF720FB33
:101CA0000446002202212846FFF71FFB204670BD94
:101CB0000014024010B50D4C012814D0002201215F
:101CC0002046FFF712FBFFF746FF012202212046C4
:101CD000FFF70BFBFFF73FFF20460022BDE8104057
:101CE0000221FFF702BB0122E9E7000000140240D5
:101CF00010B580216B2000F0ABF86420FFF7E6F907
:101D000000216B2000F0A4F8032000F06DF8002003
:101D100000F065F8322000F084F80021382000F04F
:101D200097F800216A2000F093F80021232000F0AA
:101D30008FF88021372000F08BF8752000F00DF827
:101D400001216B2000F084F800216C2000F080F865
:101D5000C82000F066F8002010BD10B50446FFF75B
:101D60006DFFD020FFF744FF2046FFF741FFFFF74C
:101D700065FFD120FFF73CFF0120FFF70BFF044672
:101D8000FFF7EEFE204610BD2DE9F0411D4614463A
:101D90000F460646FFF752FF7006000EFFF728FFBA
:101DA0003846FFF725FFFFF749FF012000EB46000B
:101DB000C0B2FFF71DFF09E0012C0ED05FF000005C
:101DC000FFF7E8FE641E05F8010BE4B2002CF3D126
:101DD000FFF7C6FE0020BDE8F0810120F0E7C00655
:101DE000010E1C2000F034B8C006010E1B2000F0CC
:101DF0002FB8BC2801D3012110E0622801D30221B1
:101E00000CE02A2801D3032108E0142801D304217F
:101E100004E00A2801D3052100E006211A2000F081
:101E200017B810B504464FF47A70844201D90446BD
:101E300002E0042C00D20424B0FBF4F0401EC1B236
:101E4000192000F005F86008BDE81040FFF7D1BF89
:101E500070B50D460446FFF7F1FED020FFF7C8FE2F
:101E60002046FFF7C5FE2846FFF7C2FEFFF778FEC3
:101E7000002070BD2DE9F0411E4615460F46044670
:101E8000FFF7DCFE6006000EFFF7B2FE3846FFF7F4
:101E9000AFFE002404E0305DFFF7AAFE641CE4B24C
:101EA000AC42F8D3FFF75CFE0020BDE8F0810000F3
:101EB0000D4808B5016841F001010160016801F0B9
:101EC00001010091016841F020010160016801F009
:101ED00020010091016841F080010160006800F07C
:101EE0008000009008BD0000303802400D4810B559
:101EF0000B4901600C49416000214FF48042816030
:101F0000C0E9031241618161C1610162FFF7F8F923
:101F1000002803D0BDE81040FFF7D6B810BD000080
:101F20000058004060000020A0860100FEE7FEE7A8
:101F300070477047FFF7DCBA30B593B03021684680
:101F4000FEF714FB14210CA8FEF710FB1D4800251A
:101F5000016841F080510160006800F080501190EC
:101F60001948016841F4804101600068022400F4CE
:101F70008040119001200090000401908001CDE983
:101F8000064006200890A820CDE9090404200B9003
:101F90006846FFF715FC08B172B6FEE70CA90F20E2
:101FA00081E831004FF4A0500F904FF48050109012
:101FB00005210CA8FFF728FB002801D072B6FEE728
:101FC00013B030BD40380240007000400248016844
:101FD00041F470010160704788ED00E0FEE703B452
:101FE00001984100009850EAC12018BF04204A0D12
:101FF00018BF40F0010040F2FF72B2EB515F08BF22
:1020000040F00200012808BF052002B07047090710
:10201000090E002804DB00F1E02080F8001470476E
:1020200000F00F0000F1E02080F8141D7047000060
:1020300070B5C1482DED020B2DED0E8B82B0119DB8
:1020400025F000449FEDBEDB9FEDBFEB84423EDBFD
:10205000A4F140511098A1F17F6108430FD0BC4812
:10206000844202DC28D1109830B39DED100B02B0F1
:10207000BDEC0E8B02B0BDE8704000F071BC9DED70
:10208000100B53EC1D2B51EC100B02F0A9FE9DED33
:10209000100B41EC180B53EC1E2B51EC100B02F003
:1020A0009FFE53EC182B02F053FC41EC100B02B0D6
:1020B000BDEC0E8B02B070BD0120FEF786FA02B0B7
:1020C000BDEC0E8B02B0BDE8704000F05DBCA148D5
:1020D0009FEDA18B844256DA9DED100BB4F1795F30
:1020E0000ADA51EC100BFFF77AFF042808BF00F062
:1020F0005BFC9DED100BDAE753EC102B51EC100B51
:1021000002F06EFE41EC190B95480621B0EE490A2B
:10211000F0EE690A784400F0A7FB53EC192B51EC60
:10212000100B02F05DFE41EC1A0B8E48B0EE490A2E
:10213000F0EE690A0421784400F096FB53EC192B69
:1021400051EC100B02F04CFE53EC182B02F000FC8B
:1021500041EC100B51EC1A0B53EC102B02F0ACFCC1
:10216000CDE900019DED000B53EC102B9DED100B04
:1021700051EC100B02F034FE9DED101B53EC112BB3
:1021800002F0E6FBD2E09DED100B51EC100B01F0DC
:102190003BF953EC182B02F021FF9FED730BCDE9B7
:1021A000000153EC102B9DED000B51EC100B02F0D5
:1021B00017FE41EC190B6E480621B0EE490AF0EE0D
:1021C000690A784400F050FB53EC192B51EC100BCA
:1021D00002F006FE41EC1B0B6648B0EE490AF0EE39
:1021E000690A0421784400F03FFB53EC192B51ECB1
:1021F000100B02F0F5FD53EC182B02F0A9FB41EC9B
:102200001C0B51EC190B02F02DFB41EC180B5A483A
:102210009FED5BABA04222DC53EC1C2B51EC1B0B63
:1022200002F04AFCCDE900019DED000B51EC180BCA
:1022300053EC102B02F0D4FD53EC182B02F088FB6A
:1022400053EC1A2B02F0CCFD53EC1D2B02F09EFF39
:1022500053EC1E2B02F0C2FE41EC100B5FE08DED43
:10226000008B002000909DED000B51EC180B53ECFF
:10227000102B02F06DFB9DED000B41EC1E0B53EC9F
:10228000102B51EC100B02F0ABFD53EC192B02F0AC
:10229000A5FE53EC1E2B02F00FFC41EC190B53EC86
:1022A0001C2B51EC1B0B02F007FC41EC1B0B53ECFD
:1022B0001A2B51EC190B02F093FD53EC1D2B02F07D
:1022C0008DFE41EC190B53EC1A2B51EC180B02F05C
:1022D00087FD53EC1B2B02F083FD53EC192B02F00E
:1022E00055FF9DED000B41EC180B53EC1A2B51ECF4
:1022F000100B02F075FD9FED249B53EC192B02F09F
:102300006DFE41EC100B51EC180B53EC102B02F04E
:102310003DFF53EC192B02F061FE41EC100B002D38
:102320003FF7C5AE51EC100B02F0D3FA41EC100BA5
:10233000BDE60000000000000000F03F00000000CB
:10234000075C143326A6913C182D4454FB21F93F19
:102350000000F07F0000E03F000000000000F03FC0
:10236000B03F0000BE3F0000000000000000E03F62
:10237000023F0000103F00003333EF3F0000000039
:102380000000000000000040182D4454FB21E93FEC
:1023900070B59B482DED020B2DED068B079D25F0AA
:1023A0000044A04218DC9748844202DC0AD1069817
:1023B00040B19DED060BBDEC068B02B0BDE8704050
:1023C00000F0CEBA002DCCBF9FED8F0B9FED900B90
:1023D000BDEC068B02B070BD8F48A04215DD8F4862
:1023E000A042D8BF4FF0FF3458DD9DED060B51ECF5
:1023F000100BFFF7F4FD042808BF00F0D5FA9DED9F
:10240000060BBDEC068B02B070BD9DED060B51ECCA
:10241000100B00F0F9FFCDE9060181489FED828B9A
:10242000A0423CDD8248A0421FDD00249FED82AB2C
:102430009DED060B53EC1A2B51EC100B02F088FAB1
:102440009DED060B41EC190B53EC1A2B51EC100BC4
:1024500002F0C6FC53EC182B02F098FE53EC192B3B
:1024600002F02AFBCDE9060149E09DED060B0124AF
:1024700053EC182B51EC100B02F06AFA9DED060B91
:1024800041EC190B53EC182B51EC100B02F07EFEB3
:1024900053EC192B02F010FBCDE906012FE0684840
:1024A000A0421FDD02249FED689B9DED060B53ECBF
:1024B000192B51EC100B02F093FC53EC182B02F08B
:1024C00047FA9DED060B41EC180B53EC192B51EC20
:1024D000100B02F05BFE53EC182B02F0EDFACDE985
:1024E00006010CE09DED060B032453EC102B9FED31
:1024F000580B51EC100B02F0DFFACDE906019DED0F
:10250000060B53EC102B51EC100B02F069FC41EC64
:10251000180B53EC182B02F063FC41EC190B4E48DE
:102520000621B0EE490AF0EE690A784400F09CF901
:1025300053EC182B51EC100B02F052FC41EC180B31
:102540004648B0EE490AF0EE690A0521784400F0E9
:102550008BF953EC192B51EC100B02F041FC41ECC0
:10256000100B51EC180B53EC102B002C0EDA02F070
:10257000EFF99DED061B53EC112B02F031FC9DEDA4
:10258000061B53EC112B02F029FD35E002F0E0F9B7
:102590009DED061B53EC112B02F022FC41EC100BBD
:1025A0002F48784400EBC40090ED001B51EC100B59
:1025B00053EC112B02F0EAFD9DED061B53EC112BA1
:1025C00002F0E4FD41EC100B2648784400EBC40017
:1025D00090ED001B51EC100B53EC112B02F0FEFCA4
:1025E00041EC100B002DA2BFBDEC068B02B070BDFC
:1025F00051EC100B02F06DF941EC100B01E70000FB
:10260000000010440000F07F182D4454FB21F93FD6
:10261000182D4454FB21F9BF0000DC3F0000203E90
:102620000000F33F00000000000000000000F03F49
:102630000000E63F00000000000000000000004035
:102640000080034000000000000000000000F83F90
:10265000000000000000F0BF523C0000083C0000F9
:10266000923B00004A3B000070B56F4E2DED040B0D
:102670002DED048B82B0DDF824C0DDE907235C4238
:102680002CF000411C4341EAD474069D22F0004026
:10269000B44205D86C422C4340EAD474B4420BD9FE
:1026A0009DED081B9DED060B02B0BDEC048B04B044
:1026B000BDE8704000F05EB9ACF14054A4F17F6415
:1026C0001C430BD0022404EAAC7444EAD2740543E0
:1026D0009FED578B9FED582B07D015E09DED060B16
:1026E00051EC100B00F0C0F942E0002C11BF012C9E
:1026F0009DED060B02B0BDEC048B04BF04B070BDB1
:10270000022C38D0032C3BD00B439FED4D1B9FED8B
:102710004E0B0AD0B14218D1B04209D121F080410C
:1027200020F08040099107900FE0002A15DA10E0B0
:10273000474B7B44002C08BF93ED000B0DD0012CC0
:1027400010D0022C17D0032C1AD0B0421DD1002A71
:1027500003DAB0EE410AF0EE610A02B0BDEC048B80
:1027600004B070BD93ED000B51EC100B02F0B1F80A
:1027700041EC100BF1E7B0EE480AF0EE680AECE726
:10278000B0EE420AF0EE620AE7E7401A00159FED4C
:10279000329B3C28C8BF8DED000B17DCBCF1000F4D
:1027A000BCBF10F13C0F8DED009B0FDB9DED080BC6
:1027B00053EC102B9DED060B51EC100B02F07CF945
:1027C00000F022FE00F050F9CDE90001B4B1012C77
:1027D00010D0022C9FED220B53EC102B9DED000B23
:1027E00051EC100B19D002F0D1FC53EC182B02F075
:1027F000CDFCBDE7019880F0004001909DED000BFD
:1028000053EC192B51EC100B02F0AEFA04BF02206E
:10281000FDF7DBFE9DED000B9FE702F0B7FC53ECEC
:10282000182B02F0DBFBA3E70000F07F00000000A4
:10283000182D4454FB210940182D4454FB2109C094
:10284000182D4454FB21F9BF182D4454FB21F93FA6
:102850007A3A0000000000000000000000000000C4
:10286000075C143326A6A13C70B504462DED028BFF
:102870004D1E00EBC500B0EE408AF0EE608A90ED90
:10288000000B35F0060017D053EC182B51EC100B51
:1028900002F0A6FA41EC100B6D1E04EBC50090EDA2
:1028A000001B51EC100B53EC112B02F051F841ECD2
:1028B000100B35F00600E7D1022D36D0042D1CD0C8
:1028C000062D1CBFBDEC028B70BD53EC182B51ECD8
:1028D000100B02F085FA94ED0A1B53EC112B02F059
:1028E00037F853EC182B02F07BFA94ED081B53ECED
:1028F000112B02F02DF841EC100B53EC182B51EC7E
:10290000100B02F06DFA94ED061B53EC112B02F044
:102910001FF853EC182B02F063FA94ED040B53EC00
:10292000102B02F015F841EC100B53EC182B51EC66
:10293000100B02F055FA94ED021B53EC112B02F030
:1029400007F853EC182B02F04BFA94ED001B53ECF4
:10295000112B01F0FDFFBDEC028B41EC100B70BDA3
:1029600010B553EC102B51EC100B01F0F1FF41ECC2
:10297000100B10BD10B553EC112B51EC100B01F0E6
:10298000E7FF41EC100B10BD9FED050B10B553ECAC
:10299000102B51EC100B02F08FF841EC100B10BD16
:1029A00000000000000000009FED050B10B553EC87
:1029B000102B51EC100B02F013FA41EC100B10BD70
:1029C000000000000000001030380A2801D2012069
:1029D0007047002070470000FEB506460D460024F3
:1029E000684600F02BFD00229FED1B1A6B4601216B
:1029F00056F8227055F82200381A00D5404200EEF1
:102A0000100A03EB8200B8EEC00AD0ED000A20EEF7
:102A1000010AF5EEC00AF1EE10FA0DD0C0EE201A50
:102A2000B7EE000A0D4F31EEC00AB0EEC00A10EE4C
:102A3000100AB84207DC09E010EE100A084F3844CB
:102A4000084FB84202D301FA02F00443521C032A91
:102A5000CEDB2046FEBD000000008037295C0F3E23
:102A6000666666C19A99D90010B541EC100BFFF764
:102A70008FFC51EC100B10BD08B560B120208DF813
:102A8000000028208DF8010030208DF80200382049
:102A90008DF8030004E0A32204216846FDF75EFDE3
:102AA0006A46042140F69E2001F042FE01F000FB40
:102AB00008BD00003EB5044602208DF80000CA2083
:102AC0008DF80100E3208DF8020009208DF8030045
:102AD0006A460421682001F02BFEA3208DF8000037
:102AE000610609D5C0218DF80110C8218DF80210AA
:102AF000C2218DF8031005E08DF801008DF8020069
:102B00008DF8030014F4C07F09D0C4218DF804109F
:102B1000CC218DF80510C6218DF8061005E08DF842
:102B200004008DF805008DF806008DF808008DF87A
:102B300007008DF809006A460A2140F6A72001F037
:102B4000F7FDA0074FF0D80503D020208DF8000036
:102B500001E08DF800506A46012140F6B62001F0F0
:102B6000E7FDA00601D5012000E0002000F08EF86E
:102B700014F4C07F1ED0E0050AD5B2208DF8000005
:102B80008B208DF80100B6208DF802009B2009E013
:102B9000B0208DF8000080208DF80100B4208DF861
:102BA000020090208DF803006A46042140F6A2201E
:102BB00001F0BEFDE1074FF40B6022D0F8218DF843
:102BC00000106A46012101F0B3FDFA21072000F050
:102BD0004BFB072000F016FB012000F033FB6420C4
:102BE00000F0F2FB4FF4FA7000F0FEFBC82125481C
:102BF00000F0D0FA282000F0E5FA0A2000F0F2FAFE
:102C000005E08DF800506A46012101F091FDA00712
:102C100003D5D9208DF8000001E08DF800506A46F8
:102C2000012140F23D7001F083FD600701D50120D4
:102C300000E0002000F048F8E00601D5012000E0A7
:102C40000020FFF719FF104D44F00800688101F0E3
:102C50002FFA0020A873600601D50620A87314F48B
:102C6000C07F02D0A87B801DA87314F0140F02D07F
:102C7000A87B1030A873A00702D0A87B001DA87302
:102C800000203EBD09E3CA02B40000200EB54FF497
:102C9000976310B106A107C901E008A207CA8DE831
:102CA00007006A460921184601F042FD0EBD0000EA
:102CB000B8AAB38DB4980D355D000000B8AAAAAAD1
:102CC000B088C3C5C700000008B560B1C0208DF84A
:102CD0000000C2208DF80100C4208DF80200C6203B
:102CE0008DF8030004E08B2204216846FDF736FCD2
:102CF0006A46042140F6982001F01AFD01F0D8F947
:102D000008BD0000C8234FF48062024940F6F63047
:102D100001F0B0B8C05400082DE9FF4F89B0174644
:102D2000DDE916520024554E884681462C80A24685
:102D3000B07B694601F04AF94FF0FF3B18B15846A5
:102D40000DB0BDE8F08F708910F0140F4ED0BDF8B3
:102D500000109DF8022049BA090441EA02229DF8B8
:102D600003100A433A60BDF804109DF8063049BAD2
:102D7000090441EA03219DF80730121419437960D0
:102D8000BDF808309DF80A405BBA1B0443EA0423EF
:102D90009DF80B4009142343BB60BDF80C409DF81F
:102DA0000EC064BA240444EA0C2C9DF80F404CEA8F
:102DB000040C1024C7F80CC01B144FEA2C4712FB5C
:102DC00002F211FB012113FB03F217FB072211444E
:102DD000A1F17061B1F1007F04D901F069F9A5F8A2
:102DE00000A0ACE7298841F4807129804206694639
:102DF00011D50A19A41D13885BBAA8F800305388AE
:102E00005BBAA8F80230928852BAA8F804202A883F
:102E100042F008022A8010F4C07F11D00A19A41DC4
:102E200013885BBAA9F8003053885BBAA9F802305E
:102E3000928852BAA9F804202A8842F070022A80A7
:102E4000800716D00C44E07800F0C00500F03F0188
:102E50006078C00706D0C80801F007013268491C35
:102E600002B190476078000703D5716809B1A809DD
:102E700088470C9800F07EFD002061E7B400002038
:102E80002DE9FF41044603A800F0BCFEBDF80C008C
:102E9000410CC3032F48008900F0030254F822506C
:102EA000420700D56D42C0F3C102860654F82220C5
:102EB00000D55242C0F38116C00554F8264000D513
:102EC0006442A5FB0367E81700FB037005FB0100E4
:102ED000850045EA9670A2FB0367D51705FB0375CD
:102EE00002FB0152950045EA9672A4FB0367E517C1
:102EF00005FB037304FB01318B0043EA9671030E5B
:102F00008DF80030030C8DF80130030A8DF8023083
:102F10008DF80300100E8DF80400100C8DF80500DC
:102F2000100A8DF80600080E8DF80800080C8DF8C0
:102F30000900080A8DF80A008DF807208DF80B109B
:102F40006A460C214FF4257001F0F2FB04B0BDE895
:102F5000F0810000B400002030B5044613A285B013
:102F600007CA8DE807004FF0FF35C82C16D8C820D7
:102F7000B0FBF4F1491E080A8DF80C008DF80D1015
:102F800003AA022140F2162001F0D2FB30B96A46B2
:102F90000C2140F6C12001F0CBFB10B1284605B052
:102FA00030BD054884810020F9E70000FEF2ABC483
:102FB000AAF1DFDFBBAFDFDFB4000020F8B5304996
:102FC000098901F0030250F822404A0700D5644203
:102FD000C1F3C1028B0650F8222000D55242C1F342
:102FE000811350F82330C80500D55B42254984FB86
:102FF0000140850045EA947082FB0142A40F44EA37
:10300000820483FB0121950F45EA8105010E8DF8AD
:103010000010010C8DF80110010A8DF802108DF8D6
:1030200003006A4604214FF4747001F081FB4FF0F5
:10303000FF3688B9200E8DF80000200C8DF80100B5
:10304000200A8DF802008DF803406A4604214FF4EF
:10305000757001F06DFB08B13046F8BD280E8DF893
:103060000000280C8DF80100280A8DF802008DF868
:1030700003506A4604214FF4767001F059FBF8BD05
:10308000B400002009E3CA022DE9FF4104463CA038
:1030900004F00303006802903AA0006803903AA08D
:1030A00006683AA0056802A8C15C8DF80010C4F358
:1030B000C101425C8DF80120C4F38112805C8DF85F
:1030C000020003A8C35C8DF80430415C8DF8051044
:1030D000805C8DF806006A46032140F2264001F02C
:1030E00027FB4FF0FF37E0BB01AA032140F22A4043
:1030F00001F01EFBA8BBCDE9006560070BD59DF86C
:10310000000040F001008DF800009DF8040040F040
:1031100001008DF80400A0060BD59DF8010040F0D9
:1031200001008DF801009DF8050040F001008DF8C8
:103130000500E0050BD59DF8020040F001008DF878
:1031400002009DF8060040F001008DF806006A4676
:1031500003214FF4886001F0EBFA10B901AA0321B2
:1031600000E004E040F2314001F0E2FA18B13846E4
:1031700004B0BDE8F081064804810020F8E70000B3
:103180004CCD6C000CC92C003656760026466600E5
:10319000B40000204FF47A7290FBF2F008B5484377
:1031A000010E8DF80010010C8DF80110010A8DF848
:1031B00002108DF803006A4604214FF4AE7001F04E
:1031C000B7FA08BD0521B0FBF1F008B5010A8DF88A
:1031D00000108DF801006A4602214FF4AD7001F035
:1031E000A7FA08BD0521B0FBF1F008B5010A8DF87A
:1031F00000108DF801006A4602214FF4AC7001F016
:1032000097FA08BD08B500218DF80010C10702D05B
:1032100030218DF80010810705D59DF8001041F090
:103220000C018DF80010400705D59DF8000040F016
:1032300003008DF800006A4601214FF4A47001F0EC
:1032400077FA08BD08B560B1042800D90420401EF3
:103250008DF800006A46012140F24F1001F068FA33
:1032600008BD0120F3E7000070B504462DED028B88
:1032700082B040074FF0FF357ED0B1F5C86F7BD8E4
:1032800000EE101AB8EE400ADFED460A01A880EE03
:10329000208A00F099FC9DF80400022806D004283A
:1032A00010D0082835D0102874D13EE09FED3E0A9A
:1032B00028EE000ABCEEC00A10EE100A9FED3B0A91
:1032C00082B20AE09FED3A0A28EE000ABCEEC00A7C
:1032D00010EE100A9FED370A82B228EE000A6E4601
:1032E000BCEEC00A10EE100A81B2100A8DF8000080
:1032F0008DF80120080A8DF802008DF80310E00710
:1033000026D0324602214FF4EA7001F011FA98BB40
:1033100017E09FED290A28EE000ABCEEC00A10EE65
:10332000100A9FED260A82B2D7E79FED250A28EE04
:10333000000ABCEEC00A10EE100A9FED220A82B20B
:10334000CBE7B21C02214FF4927001F0F1F998B969
:10335000A0070DD56A4602214FF4EC7001F0E8F9A0
:1033600050B9B21C02214FF4947001F0E1F918B980
:10337000600714D56A4600E00CE002214FF4EE70BD
:1033800001F0D6F930B9B21C02214FF4967001F069
:10339000CFF920B1284602B0BDEC028B70BD0020F1
:1033A000F9E7000000004843000080460000404666
:1033B000000000460000C045000080450000404578
:1033C000000000450000C0440521B0FBF1F008B545
:1033D000010A8DF800108DF801006A4602214FF4B1
:1033E000EF7001F0A5F908BD0521B0FBF1F008B5BB
:1033F000010A8DF800108DF801006A4602214FF491
:10340000ED7001F095F908BD82B0CDE9000121F021
:10341000004001909DED000B02B051EC100B704785
:103420008A68002A01DCFDF74BBA521E8A604A689E
:10343000C0B2531C4B601070704700001FB50446AB
:10344000274802AB042240680D210078FEF79CFC5F
:1034500010B1072004B010BD9DF808101C2000EA30
:10346000D1029DF80B10DFED1F0AC1F301131A43BF
:103470008DF800209DF80920C1F3810300EAD202F3
:103480001A438DF801209DF80A2001F0030100EA9B
:10349000D20008439FED141A9FED140A8DF8020024
:1034A00000216A46505C002804EB810002D080EDC8
:1034B000001A09E0C0ED000A0CE000BFD0ED001AD0
:1034C00061EE801AC0ED001A535C5B1E13F0FF031F
:1034D0005354F3D1491CC9B20329E3D30020B9E7FF
:1034E0001C000020000000007B14AE3E1D5A843FEB
:1034F0002DE9FE4F05460120C14E8DF800004FF02A
:1035000000088DF8018030680C461746817C706891
:103510006B4602220078FEF7ADFC4FF0FF3A002820
:103520007AD1C820FDF7D2FD8DF8008030686B4657
:103530000122C17B70680078FEF79CFC0028EFD167
:1035400030686B460122417970680078FEF792FC82
:103550000028E5D130686B460122817C70680078D4
:10356000FEF788FC0028DBD130686B460122C17D64
:1035700070680078FEF77EFC0028D1D130686B4679
:103580000122017970680078FEF774FC0028C7D129
:103590004FF00C098DF8009030686B4601220179DC
:1035A00070680078FEF766FC002835D10F20FDF723
:1035B0008DFDB06A6B460122407A8DF800003068BC
:1035C000817870680078FEF755FC002824D1B06A35
:1035D0006B460122007A8DF80000306841787068EF
:1035E0000078FEF747FC002873D1B06A807A0FB1EB
:1035F00040F0E0008DF8000030686B4601228179D0
:1036000070680078FEF736FC002862D12FB1B06AEE
:10361000C07A40F0E00001E04AE018208DF8000098
:1036200030686B460122C17970680078FEF722FC91
:10363000F0BB17B1C820FDF749FD40208DF8000010
:1036400030686B460122017970680078FEF712FC41
:1036500070BB78208DF8000030686B4601224179FC
:1036600070680078FEF706FC10BB3220FDF72EFDD7
:103670008DF80080306847466B46417970680122BA
:103680000078FEF7F7FB98B931687068B046897A20
:1036900000786B460222FEF777FB48B9BDF80000C0
:1036A000AF6040BAB0FBF9F06F60C6B22F6000E0C7
:1036B0000FE0A76067602760002739E0D8F80010A6
:1036C000D8F804006B46C97A00780C22FEF75CFB40
:1036D00010B15046BDE8FE8FBDF80000236840BA27
:1036E00000B2BDF80210BDF804201844206049BAA9
:1036F000606809B20844606052BAA06812B210440F
:10370000A060BDF806002B6840BA01B2BDF8080001
:10371000BDF80A201944296040BA696800B208441B
:10372000686052BAA86812B210447F1CFFB2A86049
:10373000B742C3D328688322C117090441EA104164
:1037400000040023FCF711FE32460023FCF70DFEB7
:10375000286068688322C117090441EA1041000407
:103760000023FCF702FE32460023FCF7FEFD6860F2
:10377000A8688322C117090441EA1041000400230C
:10378000FCF7F3FD32460023FCF7EFFDA86020684C
:103790004FF40065C117090441EA104100042A46AC
:1037A0000023FCF7E2FD32460023FCF7DEFD20603B
:1037B00060682A46C117090441EA10410004002349
:1037C000FCF7D3FD32460023FCF7CFFD6060A06814
:1037D0002A46C117090441EA104100040023FCF7FE
:1037E000C4FD32460023FCF7C0FDA060002802DDC6
:1037F000A0F5803001E000F58030A060002069E78E
:103800001C000020F8B506462E480D4600244068EE
:103810006B46032200780D21FEF7B6FA08B10720A7
:10382000F8BD9DF80000002200F01F008DF8000098
:103830009DF801009FED241A00F01F008DF8010093
:103840009DF802006B4600F01F008DF80200012178
:1038500056F8220055F82270C01B00D5404200EEF9
:10386000100A985CB8EEC00A60EE010AD0B1B3EE5F
:10387000090ADFED161A01E020EE210AC0B2401E4F
:1038800010F0FF009854F7D1C0EE801AB7EE000A8E
:103890000F4F31EEC00AB0EEC00A10EE100AB84267
:1038A00007DC09E010EE900A0A4F3844B0F1D97FE6
:1038B00002D901FA02F00443521C032AC8DB204655
:1038C000F8BD00001C0000200000803754E3853F55
:1038D000295C0F3E0000E0BE00B5024600F00DF886
:1038E0000346D01C00F009F843EAC003901D00F025
:1038F00004F843EA801080B200BD90F9001000295E
:1039000002DD4FF00000704702DA4FF0040070470C
:1039100090F90110002902DD4FF00100704702DA32
:103920004FF00500704790F90200002802DD4FF0CB
:103930000200704702DA4FF0060070474FF00700B0
:1039400070470000FDF7DCFDFEF7F6FAFEF7B0FA6F
:10395000FEF7CCFAFEF7CCF900F0EAF8044A111FA2
:10396000081F00F033F86420FDF7B0FBF6E7000015
:1039700008000020704700002DE9F041124C20F0B3
:103980000101002594F8240010B10020BDE8F08169
:10399000A07A4FF0FF3668B10840277C2074884237
:1039A00000D0354641B1012000F030FF00F080FB2F
:1039B00038B127743046E9E7207D00B1012000F0DE
:1039C00025FF2846E2E700001C00002070B50D46E8
:1039D0002DED0C8B8EB006460CA902A81446F7EE0E
:1039E00000BACDE900010BAB03AA09A907A8FFF7AC
:1039F00093F920B101200EB0BDEC0C8B70BDBDF869
:103A00000800C0057ED59DED030AF8EEC00A9FEDC3
:103A1000450AB0EE00CA60EE809ADDED040AF8EEC9
:103A2000E00A69EE8CCA20EE808ADDED050AF8EE28
:103A3000E00A60EE808ADDED060AF8EEE00A20EE8C
:103A4000809AB8EE000A28EE00BA2BEE090A0CEEB6
:103A5000A80A10EE100A01F083FC41EC100BFEF7EF
:103A6000E7FA9FED31AB51EC100B53EC1A2B01F040
:103A7000B7F900F03BFF2BEE080A28EE8CDA306035
:103A80000DEE680A30EE2B0A10EE100A01F068FC09
:103A90002DEE090A41EC1B0B0CEE880A10EE100A01
:103AA00001F05EFC41EC100BB0EE4B1AF0EE6B1A1D
:103AB000FEF7DAFD53EC1A2B51EC100B01F090F9E4
:103AC00000F014FF29EEA90A286008EE080A08EEA3
:103AD000E80A09EE490A10EE100A01F041FC28EE4E
:103AE000280A41EC1B0B09EE890A20EE0C0A10EEA5
:103AF000100A01F035FC41EC100BB0EE4B1AF0EE61
:103B00006B1A00E00CE0FEF7AFFD53EC1A2B51EC02
:103B1000100B01F065F900F0E9FE206000206AE773
:103B2000022068E7000080306666666666A64C4044
:103B300010B500F0F3F808B10A2010BD782000F0AD
:103B40009BFD10F0FF0F01D0012010BD7820FFF782
:103B500013FF10F0FF0F01D0022010BDC82000F0AD
:103B60004BFD10F0FF0F01D0032010BDFFF7CAF886
:103B700010F0FF0F01D0042010BD1248FFF7ACFE7B
:103B8000FFF782FA10F0FF0F01D0052010BD40F2C0
:103B90007310FEF78FFF10F0FF0F01D0062010BD4D
:103BA000C820FFF7D9F910F0FF0F01D0072010BD92
:103BB00000F0E8FD012000F045FC10F0FF00F6D019
:103BC000092010BD480000200D494A7A42B1012A5F
:103BD00008D0022A0FD0032A0FD04FF0FF307047D1
:103BE000022200E004220270C97C11B11106C90D45
:103BF0000170002070470822F5E71022F3E700006B
:103C00001C0000200F494A7A42B1012A09D0022A39
:103C100011D0032A12D04FF0FF3070474FF480428A
:103C200001E041F69C720280C97C11B1C2F34E01E1
:103C30000180002070474FF48052F4E74FF4006297
:103C4000F1E700001C0000200B49097A39B1012975
:103C500007D002290AD003290BD0002103E0FA2162
:103C600001E04FF4FA710180002070474FF47A713F
:103C7000F9E74FF4FA61F6E71C0000200D49097AD4
:103C800041B1012909D002290DD003290ED04FF0EE
:103C9000FF3070479FED080A01E09FED080A80EDB4
:103CA000000A002070479FED060AF8E79FED050A1D
:103CB000F5E700001C0000200000034300008342E1
:103CC00033330342333383410C49C97A072913D272
:103CD000DFE801F01204060A0C0E1000BC2100E01F
:103CE00062210180002070472A21FAE71421F8E7B9
:103CF0000A21F6E70521F4E70021F2E71C00002085
:103D0000054991F8242012B14FF0FF307047C9895E
:103D100001800020704700001C0000202DE9FC41BC
:103D20004A4C80208DF8000020686B460122817C7F
:103D300060680078FEF79EF84FF0FF3700287CD1CE
:103D40006420FDF7C3F900258DF8005020686B460C
:103D50000122817C60680078FEF78CF800286CD125
:103D600020686B460622817D60680078FEF70CF8BB
:103D7000002862D19DF805009DF80310C007400F90
:103D800001F0010140EA41009DF801104FF00106E9
:103D900001F00101084305D0012801D0022811D00B
:103DA000E67410E020686B460122C17860680078F4
:103DB000FDF7EAFF40BB9DF8000010F00F0020D097
:103DC000042822D0E574FF2004F80A0F4FF6FF7193
:103DD00004F8020C04F8010C6070A180A07120723C
:103DE000A67026766576E572A572E5602561656147
:103DF000A576E576A5834FF4FA6000F05FFB18B96D
:103E000007E01348FCF7D6FA17E012A0FCF7D2FA45
:103E1000C6E7022000F074FA78B92A2000F0B6FB59
:103E200058B9322000F0E8FB38B90020FFF7A4FDB4
:103E300018B9002000F098FA10B13846BDE8FC81AE
:103E4000002000F019FC0020F8E700001C00002012
:103E5000C461000848616C662073656E736974699B
:103E600076697479207061727420666F756E642E45
:103E70000A0000002DE9FF4FDFF89480064685B068
:103E800098F8250015460F464FF0FF39B0BBAFB389
:103E9000002420E0301B102800DD102080B2834673
:103EA0003A1901469246204600F042FC30BB6A4671
:103EB0005946204600F0D2F800BB50465A466946A3
:103EC000FCF720FB20B16FF0010009B0BDE8F08FD6
:103ED00004EB0B0084B2B442DCD3280A8DF8100046
:103EE0008DF81150D8F80000444604AB817ED8F814
:103EF000040002220078FDF7BDFF08B14846E4E760
:103F0000012084F825000898E0840020DDE7000007
:103F10001C0000202DE9F84305464FF0FF39282802
:103F200044D80727284C00267DB1012000F0FCFA78
:103F300020208DF800004FF00108012D17D0052D2D
:103F400018D88DF8018005201FE0002000F0ECFA61
:103F50008DF800608DF8017020686B460222817C2C
:103F600060680078FDF786FF00BB267529E08DF8B4
:103F70000160E8E7142D04D802208DF801000A2022
:103F800003E003208DF80100142000F0FFFA9DF8F3
:103F900001006B4607EB80108DF8010020680222BB
:103FA000817C60680078FDF765FF10B14846BDE888
:103FB000F8830820A072267384F814800020FFF78D
:103FC000DBFC0020F3E700001C0000202DE9F84393
:103FD000214C0646174694F8240089464FF0FF38D6
:103FE00090B3A07A80B320686B460222817A606821
:103FF0000078FDF7C9FE38BBBDF8000045BAB542F0
:1040000002D2002038701FE060684188B5EB510F84
:1040100011D9216800786B46497C0122FDF7B4FE76
:1040200090B99DF80000C00605D500F041F86FF08A
:104030000100BDE8F8832068F2B24B46C17A60689F
:104040000078FDF7A1FE08B14046F2E7B5FBF6F0B7
:10405000401E38700020ECE71C000020F8B5160068
:104060000D464FF0FF371FD0104CA17AE1B1010A85
:104070008DF80010C0B28DF80100411960684289C6
:10408000914211D8216800786B46097E0222FDF723
:10409000F1FE48B92068EAB23346417D6068007895
:1040A000FDF772FE002800D03846F8BD1C00002045
:1040B000F8B5564C4FF0FF36A07A00287DD0002589
:1040C0008DF8005020686B460122C17B6068007843
:1040D000FDF7D0FE002870D120686B46012241799F
:1040E00060680078FDF7C6FE002866D120686B4640
:1040F0000122017960680078FDF7BCFE00285CD1E0
:1041000094F82400E0B30C208DF8000020686B4682
:104110000122017960680078FDF7ACFE002872D1B9
:104120003220FCF7D3FFC0208DF80000A07AC00732
:1041300002D0E0208DF8000020686B460122017952
:1041400060680078FDF796FE00285CD1607C18B1AD
:1041500002208DF8000001E08DF8005020686B46C9
:104160000122C17B60680078FDF784FE28BB8DF8D2
:10417000005020686B4601224179606800783EE07B
:10418000FFE704208DF8000020686B4601220179CA
:1041900060680078FDF76EFE78B9A07C90B9A07ACF
:1041A000C0070FD05FF060008DF8000020686B46FC
:1041B000012201796068007800E024E0FDF75AFEF2
:1041C00008BB01E04020EFE73220FCF77FFF607C76
:1041D00018B101208DF8000001E08DF80050206832
:1041E0006B460122C17B60680078FDF743FE50B941
:1041F0002068064B01224179606810330078FDF792
:1042000039FE002800D03046F8BD00001C00002018
:104210002DE9F047394C82468AB094F824000F46C5
:1042200020B1002000F00EF9012600E0002607A8CA
:10423000FFF70AFD06A8FFF7C7FC09A8FFF744FD32
:1042400008A8FFF75DFD94F80A9094F81080002507
:10425000002239465046FFF74BF910B16D1C022D74
:10426000F6DB022D1AD00025012203A96846FFF7CC
:104270003FF910B16D1C022DF6DB022D0ED003A903
:104280003846FEF7A9FBC7B269465046FFF7BAFAAF
:1042900010F0FF0F4FF0000502D002E0002503E010
:1042A00001250FB945F00205FF2020726072E0720F
:1042B0004FF6FF71E181A072207401202073BDF8D8
:1042C0001C0000F0FBF89DF8180000F019F8BDF88C
:1042D000240000F05BF9BDF8200000F08DF948469D
:1042E00000F0CAF94046FFF747FB16B1012000F085
:1042F000A9F80AB02846BDE8F08700001C0000209D
:1043000038B5184C4FF0FF35A17A19B3022806D002
:10431000042806D008280ED010281BD10DE000205C
:1043200000E008208DF80000607A9DF80010B0EBE6
:10433000D10F04D005E01020F4E71820F2E70020A8
:1043400038BD20686B460122C17960680078FDF7AE
:1043500091FD08B1284638BD9DF80000C008607284
:10436000EDE700001C000020F8B5354C0546A07CA8
:10437000A84201D10020F8BD31484FF0FF366B460E
:10438000D0E900104FF001020979007835B3FDF74C
:10439000FBFC70BB9DF800006B4620F020008DF800
:1043A000000020680122017960680078FDF762FD55
:1043B000F8B90320FCF78AFE02208DF8000094F87B
:1043C000220078B382202BE020686B460122017D19
:1043D00060680078FDF74EFD58B92EE0FDF7D4FC7B
:1043E00038B9A07AC0079DF8000003D040F0200043
:1043F00002E00CE020F020008DF8000020686B4601
:104400000122017960680078FDF734FD08B130467B
:10441000F8BD0320FCF75AFE94F8220000B180207A
:104420008DF8000094F823000028CDD09DF80000FE
:1044300040F030008DF80000C6E7A5749AE7000050
:104440001C00002038B51C4C94F8241081421DD06B
:10445000002500B394F82500D0B1002000F0D6F973
:104460000020FFF781FFE08C00F0C6F88DF80050C7
:1044700060686B46012200782321FDF7FBFC0120D8
:1044800084F8240000F0C2F9FFF712FE002038BDC6
:104490004FF0FF3038BD002000F0B8F9207C8DF8D7
:1044A000000060686B46012200782321FDF7E2FCE2
:1044B00084F82450E8E700001C00002038B5194CAF
:1044C0004FF0FF35A17A31B3FA2809D0B0F5FA7F61
:1044D00008D0B0F57A7F0FD0B0F5FA6F1BD10DE0A0
:1044E000002000E008208DF80000207A9DF80010E0
:1044F000B0EBD10F04D005E01020F4E71820F2E76C
:10450000002038BD20686B46012281796068007800
:10451000FDF7B0FC08B1284638BD9DF80000C00882
:104520002072EDE71C00002038B5174C054694F8C2
:104530002300A84201D1002038BD0DB1302000E099
:1045400000208DF80000A07C28B19DF8000040F00C
:1045500002008DF8000094F8220028B19DF80000B8
:1045600040F080008DF8000020686B460122017D3C
:1045700060680078FDF77EFC10B14FF0FF3038BD69
:1045800084F82350D7E700001C00002038B5194CF0
:104590004FF0FF35A17A31B3BC2801D3012010E0E0
:1045A000622801D302200CE02A2801D3032008E06E
:1045B000142801D3042004E00A2801D3052000E0D8
:1045C00006208DF80000E07A9DF80010884201D1A5
:1045D000002038BD20686B46012281786068007831
:1045E000FDF748FC08B1284638BD9DF80000E07290
:1045F000EEE700001C000020F8B51E4D04464FF009
:10460000FF37A87A48B395F8240030BB287D4FF4D3
:104610007A7648B164B1282C03D8E0B2FFF77AFC6F
:1046200026E00020FFF776FC042C05D2042406E0E7
:104630000020FFF76FFCF9E7B44200D93446B6FB1F
:10464000F4F0401E8DF8000028686B460122417886
:1046500068680078FDF70EFC08B13846F8BD9DF893
:104660000000401CB6FBF0F0E8814008FFF78EFF29
:104670000020F8BD1C000020F8B5054610F0700FB2
:104680004FF0000601D0012004E015B18DF8006064
:1046900002E040208DF80000244C6B460122206887
:1046A000817C60680078FDF7E5FB4FF0FF3760BB69
:1046B0009DF8000020F0400020738DF8006068062F
:1046C00002D404208DF80000A80605D49DF800004F
:1046D00040F002008DF80000E80605D49DF80000C7
:1046E00040F001008DF80000280705D49DF8000077
:1046F00040F038008DF8000020686B460122C17C34
:1047000060680078FDF7B6FB10B1A6723846F8BDB8
:1047100025B1082D02D00020FFF706FFA5722675EF
:104720003220FCF7D3FC0020F8BD00001C00002064
:10473000F8B516000D464FF0FF371FD0104CA17A88
:10474000E1B1010A8DF80010C0B28DF801004119E5
:1047500060684289914211D8216800786B46097ED1
:104760000222FDF787FB48B92068EAB23346417D53
:1047700060680078FDF77EFB002800D03846F8BD61
:104780001C00002000B589B002A905A8FFF740FD74
:10479000072802D0012009B000BD6846FFF76EFA75
:1047A0009DED050A05A8F8EEC00A9DED000A60EE31
:1047B000800AFDEEE00ACDED050ADDED060AF8EE11
:1047C000E00A60EE800AFDEEE00ACDED060ADDEDBE
:1047D000070AF8EEE00A20EE800ABDEEC00A8DED71
:1047E000070AFEF7EBFB01A8FFF70CFABDF804007F
:1047F0000299414302910399414303910499414332
:1048000002A80491FEF73CFB0020C4E7F8B5144C65
:104810000146224694F82460D2E9000200235D1E7E
:1048200056B179B1022111E0C17B10786B460122AB
:10483000FDF720FB68B90EE0A67A56B111B1617C94
:1048400061B902E08DF80030EEE701218DF800102B
:10485000EAE72846F8BD9DF8000060740020F8BD26
:104860001C00002000B52DED048B83B041EC190B2A
:1048700000F0C0FB41EC180B18EE100A18EE901A6D
:104880008DED008B002818BF0120084320F0004068
:10489000C0F17F6000F1E040C00F14D019EE101A93
:1048A00019EE900A8DED009B002918BF01210843E5
:1048B00020F00040C0F17F6000F1E040C00F04BF75
:1048C0000120FBF782FE51EC180B03B0BDEC048B0A
:1048D00000BD81F00041704780F00040704721F03A
:1048E0000041704720F000407047000021F0004276
:1048F000A2F16052B2F5801F01F0004328BFD2F14F
:104900007F6C0BD95FEA001C43EAC20242EB507095
:1049100018BF704728BF20F001007047B2F5801F14
:10492000BCBF184670474FEA410C1CF5001F02D26D
:10493000084600F08BBD70B500F0FCFA000000895D
:10494000FFF7F6BF4FF00040A0F580007047000071
:1049500010B591EA030F48BF83F0004300F11E84B5
:10496000841A71EB030C05D2121943EB0C03001BE4
:1049700061EB0C01DFF824E14FEA1154A4EB135C66
:104980001EEA430F18BF9EEA445F73D023EA0E036A
:10499000DCF1200E21EA045143F4801332D322FAD1
:1049A0000CFE10EB0E0023FA0CFE41EB0E01CCF1D5
:1049B000200E03FA0EFE10EB0E0051F10001B1F5CE
:1049C000801FCCF1200E32D201EB045112FA0EF20C
:1049D000BDE8104058BF7047401C38BF5FEA420234
:1049E00018BF7047002814BF20F0010041F10001FA
:1049F0004FEA410313F5001F38BF7047A1F1C041D2
:104A000000F0E6BA012A43EB0302ACF1200CDCF122
:104A10001F0E32BF4FF0000E23FA0CF310EB030011
:104A200041EB0451B4EB115FD0D0A1EB045101F57F
:104A3000801149085FEA300001EB04510ED350F1B8
:104A4000000038BF12FA0EFE08D1BDE81040C9E7D9
:104A5000401C38BF5FEA4202CAD1C3E7BDE810403C
:104A60004FEA410313F5001F38BF7047A1F1C04161
:104A700000F0AEBA9EEA445F08D011EA5E0FBDE8CE
:104A8000104004BF01F0004100207047BDE8104015
:104A900070B500F04FFA00BF64FBBE3E0000E0FFBF
:104AA000491058BFC1F140415B1058BFC3F14043AA
:104AB0008B42EFF3008070472DE9C04130B4DFF83E
:104AC000A0C23CEA111418BF3CEA131400F0EC80B9
:104AD00081EA03051CEA111444EAD57418BF1CEAE4
:104AE000131500F0C780A4EB05044FF0004545EA1C
:104AF000C12145EAC32341EA505143EA525304F12C
:104B00007F74994204F500344FEAC0204FEAC22274
:104B100008BF904200F09C804FEA13650FF24016E8
:104B2000765D4FEA134506FB05F7C7F1807706FB74
:104B300007F74FEAD737A7FB03687642C8F58038F6
:104B4000A7FB06CE38BFA8F1010807FB08E64FF027
:104B5000000EA6FB028CE6FB03CEDCF1000CCEF1CE
:104B6000004E38BFAEF1010EA6FB0C584FF0000707
:104B70004FF00005E6FB0E87A1FB08C6A0FB07CEA1
:104B800016EB0E0645F10005E1FB076515F1E04E59
:104B90007EBFA4F580345FEA46066D4116F18007BA
:104BA00045F100054FEA17274FEA066647EA056711
:104BB000A6F1DE46B6F1805F4FEA15251FD93846CB
:104BC00024F0010C05EBC471BCF1FE6F01EB0C117C
:104BD00002D8F0BCBDE8008124425CBF01F5801E14
:104BE0009EEAC47F02D4F0BCBDE80081244238D4E0
:104BF000F0BCA1F1C041BDE8004100F0E9B94FEAC5
:104C0000D22242EA43524FEAD323A7FB02864FEA5D
:104C1000D02040EA415007FB03661EEA0E0F4FEA20
:104C2000D12105FB026658BFA6EB0056B6EB005635
:104C30004FEA520E4EEAC37E18EB0E0E56EB530EA1
:104C4000BDD518EB02085E417F1C55F10005B6E7A3
:104C50004FF480154FF000074FF000064FF00008AA
:104C6000ADE7F0BC4FF0000001F1C04101F00041A0
:104C7000BDE8008111EA0C1F0CEA131500D00CE00E
:104C800013EA0C1F00F025804FF00000F0BC81EA11
:104C9000030101F00041BDE80081F0BCBDE8004126
:104CA00081EA030100F094B9F0BCBDE8004170B5A1
:104CB00000F040F9097EFC3E00F007B881EA0301EC
:104CC0004FF0000001F00041704781EA030100F05D
:104CD0007FB9F0BCBDE800414FF0000021497047AA
:104CE000FFFDFBF9F7F5F4F2F0EEEDEBE9E8E6E4B1
:104CF000E3E1E0DEDDDBDAD8D7D5D4D3D1D0CFCD38
:104D0000CCCBCAC8C7C6C5C4C2C1C0BFBEBDBCBB70
:104D1000BAB9B8B7B6B5B4B3B2B1B0AFAEADACAB6B
:104D2000AAA9A8A8A7A6A5A4A3A3A2A1A09F9F9E45
:104D30009D9C9C9B9A9999989797969595949393F7
:104D4000929191908F8F8E8E8D8C8C8B8B8A89898E
:104D50008888878786858584848383828281818011
:104D60000000FF070000F87F51EA030C17D41CF580
:104D7000801F58BFBCF5801F00F10680994218BF04
:104D8000704708BF9042704707D711F5801F58BF82
:104D900013F5801F19D499427047894270471CF55A
:104DA000801F08D5BCF5801FF7D58B4218BF704710
:104DB00008BF824270474FF4001C1CEB410F38BF04
:104DC0001CEB430F01D28B42704770B500F0B2F874
:104DD000922449004FF000514FF08053FFF760BE1E
:104DE000DFF848C170B51CEA111E1EBF1CEA13157E
:104DF0009EEA0C0F95EA0C0F00F06F8081EA030425
:104E000023EA4C134EEAD47E21EA4C1141F480117E
:104E100043F48013AE44A1FB024CA0FB0365AEF14A
:104E20007F7E361955EB0C05A1FB034C4CF10003BA
:104E3000A0FB021C16EB0C06654153F1000309426E
:104E400018BF46F0010613F4007F0BD14FEA03317F
:104E50004FEA0530340341EA155140EA16506FF02D
:104E600003020AE04FEAC3214FEAC520F40241EAF7
:104E7000555140EA56506FF0020202EB2E4201EB10
:104E8000025585EACE710AD05FEA440C18BF24F0BF
:104E9000004450F1000041F1000120EAD47040F2DA
:104EA000FE7C624500D270BDA84214BF4FF0804422
:104EB0004FF04044002E08BF0024BEF1806FA8BF11
:104EC000A1F1C041BDE8704080F282804FF0000047
:104ED00001F1C04101F0004170479EEA0C0F0CEA5D
:104EE000131518BF95EA0C0F06D04FF0000081EAA9
:104EF000030E0EF0004170BD00F01CF88900013E69
:104F000000F007B800F009B84FEA430C5FEA5C5CB8
:104F100008D081EA030100F05BB84FEA410C5FEA78
:104F20005C5CF6D14FF00000014970470000FF07BC
:104F30000000F87F0EF1020E2EF0030E5EF8046BF7
:104F4000364205D4012A43EB030515F5001F12D89C
:104F5000012841EB010C1CF5001F0CD80ED14FEAC3
:104F6000D17C15F5001F0CEB4C0C0CF1020C08BFAA
:104F70004CEBD37C04E04FF0080C01E04FEAD37C0B
:104F80000CEB4C0526FA05F606F00706B6F1040C04
:104F900006D20EEB860CBDE870404CF0010C604769
:104FA000DFE80CF0090B02024FF000414FF0000067
:104FB000A1F5002170BD19461046012851EB0104EE
:104FC00018BFD4F5001484BF002001F0004170BD6B
:104FD0000808A0F500114FEA3101704791EA030F6C
:104FE00010B581F000413FF5BBAC83F0004300F009
:104FF000D5B800002DE9F04101F5801CBCF5001F7B
:10500000C0F2A9804FEA115C21EA0C510CF1FD0CB1
:1050100041F480115FEA5C0C0CF5C07C01D34000C8
:10502000494130A4890241EA905187028E0E0A0C50
:10503000A45D04FB04F602FB06F6C6F14046A4FBA1
:105040000662F60D46EA422606FB06F4A4FB01239F
:105050005242C3F1404338BF5B1EA6FB024200240C
:10506000E6FB0324D20B42EA4446A6FB0623A1FB3F
:1050700002E2A3FB07E4E3FB61426442C2F1404E5B
:1050800038BFAEF1010EA6FB04234FF00002E6FB91
:105090000E32A2FB03463400E2FB6264A1FB06E68B
:1050A000A4FB07E8E4FB61687642C8F1405838BFCA
:1050B000A8F10108A2FB06E4A3FB08E5E2FB6854A3
:1050C000A1FB05E6A7FB04E8E1FB648618F12005D7
:1050D00056F10006A809A8F11B08B10908F03F081D
:1050E000B8F10A0F40EA86601CD901EB0C51BDE80B
:1050F000F08100BFFCF5EEE8E2DDD8D3CFCBC7C32B
:10510000C0BDB9B6B4B1AEACA9A7A5A3A19F9D9BE4
:105110009A9896959392908F8D8C8B8988878685A7
:1051200084838281A0FB006800FB01F208EB420847
:10513000B8EB872807D5341858EB0104D5D5401CA7
:1051400051F10001D1E7341A78EB0104CDD4401EAF
:1051500071F10001C9E75FEA4C0C5FEA9C5C0DD17C
:1051600005D34FF0000001F00041BDE8F081BDE83B
:10517000F04170B5FFF7DEFE6DDBFFBEBDE8F0412C
:105180004FF00000004970470000F87F10B591EA29
:10519000030F48BF83F000433FF5E2AB841A71EB85
:1051A000030C07D212198CF0004C43EB0C03001BCC
:1051B00061EB0C01DFF8A4E14FEA1154A4EB135C9E
:1051C0001EEA430F18BF9EEA445F00F0B08023EA56
:1051D0006E03524221EA0451C3EB6E0338BF5B1EDB
:1051E000DCF1200E25D322FA0CFE10EB0E0043FA60
:1051F0000CFE41EB0E01CCF1200E03FA0EFE10EB7B
:105200000E0051F10001CCF1200E29D412FA0EF259
:1052100001EB0451BDE8104058BF7047401C1CBF53
:10522000B2F1004F704700280CBF491C20F001006C
:10523000704712EB020E43EB030218BF4FF0010E52
:105240004EEA4202ACF1200CDCF11E0E54D943FAB6
:105250000CFE10EB0E0051F1FF31CCF11E0ED5D536
:105260000EF1010E12FA0EFE404141EB010101EB7D
:10527000445C5FEA5C5C10D910EBDE7001EB04511A
:1052800038BFBEF1004FBDE8104018BF704700287E
:105290000CBF491C20F00100704730D24FEAD42CDB
:1052A00011F5001124F400641BD0B1FA81F20B3A1D
:1052B000A41AA41ED2F12003914030FA03F319433B
:1052C000904001EBCC71002C01EB0451BDE8104083
:1052D000A8BF704701F1C0414FF0000001F000414C
:1052E0007047B0FA80F310FA03F100D110BDE41A50
:1052F000173C4805C90AE4E701EB045110BD491009
:1053000001EB0451BDE810404FEA300002E04FF0DD
:10531000000170474A0008BF0042F8D0B2F5001FF4
:1053200028BF704701F000414FF0000070479EEA2F
:10533000445F07D011EA5E0FBDE8104004BF0021B2
:1053400000207047BDE8104070B5FFF7F3FD00BFC7
:1053500040DFF63E83F00041104670470000E0FF5A
:1053600043004FEAD30C4FEA3C0C43401FBF4007B9
:105370000CF1605113F0FE4F70471CF0006F03D129
:1053800000200CF0004170470CF0004343EA5070DD
:1053900010B540EACC0000F00EF800BF000000920B
:1053A0004FEA0001FFF714BE4FF000414FF000003C
:1053B000A1F5002170470EF1020E2EF0030E5EF8EB
:1053C000044B244204D44FEA4102B2F17F4F11D87A
:1053D0004FEA4003B3F17F4F0CD80ED14FEAD07C97
:1053E000B2F17F4F0CEB4C0C0CF1020C08BF4CEBF4
:1053F000D17C04E04FF0080C01E04FEAD17C0CEBCB
:105400004C0324FA03F404F00704B4F1040C06D2AC
:105410000EEB840CBDE810404CF0010C6047DFE857
:105420000CF0070802024FF00040A0F5800010BD0C
:105430000846420018BFD2F1807288BF00F00040D9
:1054400010BD4FF04070E1EE100A7047FF2141EAB5
:10545000D050C005704700000000000000000102AD
:10546000030406070809000000000102030475197F
:105470001A0C6A231B1C1F207274433B4138393AB3
:105480006B6C376F06246D6E700068000004760048
:105490005401F7FD00010000830000000008000037
:1054A0000001001832000500000020410000D24237
:1054B000295C0F3E9A99993E3333733F295C0F3E26
:1054C0000000700000000024000000020003000043
:1054D00000650054FFEF0000FA80000B128200010B
:1054E000030C30C30E8C8CE914D5400213710F8E5F
:1054F0003883F8833000F883258EF8833000F883F2
:10550000FFFFFFFF0FFEA9D6240004001A8279A135
:105510000000003CFFFF00000010000038836FA275
:10552000003E03304000000002CAE3093E80000054
:1055300020000000000000004000000060000000AB
:10554000000C0000000C186E000006920A16C0DF66
:10555000FFFF0256FD8CD377FFE1C496E0C5BEAADB
:1055600000000000FFFF0B2B00001657000003593E
:105570004000000000001DFA00026C1D0000000049
:105580003FFFDFEB003EB3B6000D227800002F3C5A
:1055900000000000001942B5000039A20000B36508
:1055A000D90E9FC91DCF4C343000000050000000C0
:1055B0003BB67AE80064000000C80000000000006C
:1055C000100000001000FA921000225E000D229FD1
:1055D0000001000000320000FF46000063D400001C
:1055E0001000000004D6000004CC000004CC000031
:1055F00000001072000000400000000000000000E9
:105600000006000200050007000000000064000022
:1056100000000000000000050005006400200000FC
:105620000000000000000000000040000000030037
:1056300000000032F8980000FF650000830F0000B2
:10564000FF9BFC00000000000000000000000000C4
:10565000000000000000000000000000000000004A
:10566000000000000000000000000000000010002A
:1056700040000000000000060000B26A00020000C6
:105680000001FB830068000000D9FC007CF1FF836F
:105690000000000000650000006403E800640028CA
:1056A000000000250000000016A00000000010000F
:1056B00000001000002F0000000001F400001000A6
:1056C00000280000FFFF4581FFFFFA720000000084
:1056D00000000000004400050005BAC6004778A29B
:1056E000000000010000000000000600000000149F
:1056F0000000254D002F706D000005AE000C02D09B
:105700000000000000000000000000000000000099
:10571000001B00000000000000000000000000006E
:10572000006400000008000000000000000000000D
:105730000000000000000000000000000000000069
:105740000000000000000000000000000000000059
:105750000000000000000000000000000000000049
:105760000000000000000000000000000000000039
:105770000000000000000000000000000000000029
:10578000001B00000000000000000000000E000EE2
:1057900000000AC70004000000000032FFFFFF9C69
:1057A00000000B2B0000000200000001000000645C
:1057B000FFE5000000000000000000000000000005
:1057C00000000001000000000001000000000000D7
:1057D000000180000001800000018000002426D329
:1057E0000000000000000000000600100096003CD1
:1057F00000000000000000000000000000000000A9
:105800000C0A4E68CDCF770950166759C619CE825B
:105810000000000000000000000000000000000088
:10582000000000000000000017D784000300000003
:105830000000000000000000C7938F9D1E1B1C1974
:105840000000000000000000000000000000000058
:105850000000000000000000020318850000400066
:105860000000000300000003000000000000000032
:1058700040000000000000000000000000000000E8
:105880000000000000000000000000000000000018
:105890000000000000000000000000000000000008
:1058A00000000000677DDF7E72902E554CF6E68882
:1058B00000000000000000000000000000000000E8
:1058C000D8DCB4B8B0D8B9ABF3F8FAB3B7BB8E9E96
:1058D000AEF132F51BF1B4B8B08097F1A9DFDFDF8C
:1058E000AADFDFDFF2AAC5CDC7A90CC92C97F1A9A1
:1058F00089264666B28999A92D557DB0B08AA896A9
:10590000365676F1BAA3B4B280C0B8A89711B28364
:1059100098BAA3F0240844106418B2B9B49883F17B
:10592000A329557DBAB5B1A38393F0002850F5B2F1
:10593000B6AA839328547CF1B9A3829361BAA2DA00
:10594000DEDFDB819AB9AEF5606870F1DABAA2DF0A
:10595000D9BAA2FAB9A38292DB31BAA2D9BAA2F813
:10596000DF85A4D0C1BBAD83C2C5C7B8A2DFDFDF6E
:10597000BAA0DFDFDFD8D8F1B8AAB38DB4980D355F
:105980005DB2B6BAAF8C96198F9FA70E161EB49A49
:10599000B8AA872C547CBAA4B08AB691325676B293
:1059A0008494A4C808CDD8B8B4B0F19982A82D5574
:1059B0007D98A80E161EA22C547C92A4F02C507830
:1059C000F184A898C4CDFCD80DDBA8FC2DF3D9BA7E
:1059D000A6F8DABAA6DED8BAB2B68696A6D0F3C8CA
:1059E00041DAA6C8F8D8B0B4B882A892F52C548889
:1059F00098F135D9F418D8F1A2D0F8F9A884D9C70C
:105A0000DFF8F883C5DADF69DF83C1D8F40114F168
:105A1000A8824EA884F311D182F5D992289788F1F3
:105A200009F41C1CD884A8F3C0F9D1D99782F129B4
:105A3000F40DD8F3F9F9D1D982F4C203D8DEDF1A14
:105A4000D8F1A2FAF9A88498D9C7DFF8F8F883C783
:105A5000DADF69DFF883C3D8F40114F198A8822E45
:105A6000A884F311D182F5D992509788F109F41CDA
:105A7000D884A8F3C0F8F9D1D99782F149F40DD8A8
:105A8000F3F9F9D1D982F4C403D8DEDFD8F1AD88B7
:105A900098CCA809F9D98292A8F57CF1883ACF94DC
:105AA0004A6E98DB6931DAADF2DEF9D88795A8F253
:105AB00021D1DAA5F9F417D9F1AE8ED0C0C3AE82E8
:105AC000C684C3A88595C8A588F2C0F1F4010EF17B
:105AD0008E9EA8C63E56F554F18872F40115F198D1
