:020000040800F2
:100000004807002079020008D31200080F120008E8
:10001000D11200087F0300088D17000800000000BF
:1000200000000000000000000000000009170008A8
:100030008103000800000000251500080B170008C8
:10004000930200089302000893020008930200083C
:10005000930200089302000893020008930200082C
:10006000930200089302000893020008930200081C
:10007000930200089302000893020008930200080C
:1000800093020008930200089302000893020008FC
:1000900093020008930200089302000893020008EC
:1000A00093020008930200089302000893020008DC
:1000B00093020008930200089302000893020008CC
:1000C00093020008930200089302000893020008BC
:1000D00093020008930200089302000893020008AC
:1000E000930200089302000893020008930200089C
:1000F000930200089302000893020008930200088C
:10010000930200089302000893020008930200087B
:10011000930200089302000893020008930200086B
:10012000930200089302000893020008930200085B
:10013000930200089302000893020008930200084B
:10014000930200089302000893020008930200083B
:10015000930200089302000893020008930200082B
:10016000930200089302000893020008930200081B
:10017000930200089302000893020008930200080B
:1001800093020008930200089302000893020008FB
:100190009302000800000000930200089302000888
:1001A00093020008930200089302000893020008DB
:1001B00093020008930200089302000893020008CB
:1001C00093020008930200089302000893020008BB
:1001D000930200089302000800F002F800F03CF8D7
:1001E0000AA090E8000C82448344AAF10107DA4592
:1001F00001D100F031F8AFF2090EBAE80F0013F0A8
:10020000010F18BFFB1A43F0010318470C1600003A
:100210002C160000103A24BF78C878C1FAD85207CB
:1002200024BF30C830C144BF04680C607047000070
:100230000023002400250026103A28BF78C1FBD8EF
:10024000520728BF30C148BF0B6070471FB501F08F
:10025000D6FA1FBD10B510BD00F058F81146FFF7D3
:10026000F5FF01F0A4FA00F076F803B4FFF7F2FF0F
:1002700003BC00F07DF800000948804709480047AA
:10028000FEE7FEE7FEE7FEE7FEE7FEE7FEE7FEE746
:10029000FEE7FEE704480549054A064B70470000A3
:1002A0007D170008D90100084801002048070020F8
:1002B00048030020480300204FF0000200B5134619
:1002C00094469646203922BFA0E80C50A0E80C5076
:1002D000B1F12001BFF4F7AF090728BFA0E80C5027
:1002E00048BF0CC05DF804EB890028BF40F8042B20
:1002F00008BF704748BF20F8022B11F0804F18BF8D
:1003000000F8012B7047704770477047754600F042
:100310002BF8AE4605006946534620F00700854697
:1003200018B020B5FFF7B6FFBDE820404FF000063B
:100330004FF000074FF000084FF0000B21F00701CD
:10034000AC46ACE8C009ACE8C009ACE8C009ACE810
:10035000C0098D46704710B50446AFF300802046B3
:10036000BDE81040FFF781BF00487047E80000205B
:1003700001491820ABBEFEE7260002007047FEE7E9
:10038000704772B6FEE7000070B5044600F038F919
:100390000546601C02D004484068044400F030F96F
:1003A000401BA042FAD370BD000000202DE9F04FA1
:1003B000DFF82092002301260324A9F1040B85B065
:1003C0000F2709F1040AABF1040EFAE006FA03F56F
:1003D0002A407CD091F804C00CF0030CBCF1010F52
:1003E00002D0BCF1020F26D1D0F808C0CDF800C071
:1003F0004FEA430C04FA0CF8CDF810C0DDF800C049
:100400002CEA080CCDF800C0D1F80C80DDF810C043
:1004100008FA0CF8DDF800C048EA0C08C0F80880BB
:10042000D0F804C02CEA050C0D79C5F300159D40E9
:1004300045EA0C0545600D79ED43AD070ED0C56862
:100440004FEA430804FA08FC25EA0C05D1F808C075
:100450000CFA08FC4CEA050CC0F80CC00D7905F04C
:100460000305022D16D1DD0800EB850CCDF808C080
:10047000DCF820805D074FEAD56C07FA0CF528EA16
:1004800005080D6905FA0CF5DDF808C045EA080510
:10049000CCF8205005684FEA430CCDF808C004FAA8
:1004A0000CFC25EA0C0591F804C00CF00308DDF8FB
:1004B00008C008FA0CF848EA0508C0F800804D6842
:1004C00015F4403F7CD0444DD5F860C000E077E0A3
:1004D0004CF0010CC5F860C02D6E23F0030C05F044
:1004E000010500953D4D65440295AD684FEA837C5A
:1004F0004FEA1C7807FA08FC25EA0C05B0F1904F8A
:1005000006D0DFF8DCC0604505D14FF0010C20E0DB
:100510004FF0000C1DE0DFF8CCC0604502D14FF079
:10052000020C16E0DFF8C0C0604502D14FF0030CAA
:100530000FE0DFF8B8C0604502D14FF0040C08E0CE
:10054000DFF8ACC0604502D14FF0050C01E04FF080
:10055000060C0CFA08FC4CEA050C029DC5F808C014
:10056000D9F80050CC46D1F8048095435FEAC828FA
:1005700000D51543CCF80050DAF80050D446D1F835
:10058000048095435FEA882800D51543CCF80050D5
:10059000DBF80050DC46D1F8048095435FEA8838E8
:1005A00000D51543CCF80050DEF80050F446D1F8E1
:1005B000048095435FEAC83800D51543CCF8005055
:1005C0005B1C0A6832FA03F57FF400AF05B0BDE8A2
:1005D000F08F0000080401400010024000000140BC
:1005E0000004004800080048000C004800100048C3
:1005F000001400480AB181617047816270470000B1
:1006000001488068704700000000002002488168AF
:1006100042681144816070470000002010B500243A
:10062000032000F065F80F2000F008F808B101245D
:1006300001E000F025F8204610BD000070B50E4E18
:1006400005460024706898B14FF47A71B1FBF0F060
:100650000A490968B1FBF0F000F0C5FD40B9102D62
:1006600006D200222946501E00F022F8356000E034
:100670000124204670BD0000000000200C00002076
:100680000A4882B0016E41F001010166016E01F07D
:1006900001010091816D41F080518165806D00F014
:1006A0008050009002B000F093B8000000100240AB
:1006B000F0B40E4B1B680C46C3F30223C3F10705CD
:1006C000042D00D90425191D072901D2002300E0BB
:1006D000DB1E012606FA05F1491E214099409E4085
:1006E000761E16403143F0BC01F051B80CED00E02D
:1006F000064900F0070208684FF6FF03184040EA79
:100700000220034A10430860704700000CED00E02F
:100710000000FA052B492C4B0A6832214A432B4929
:1007200040B1B0F5007F086829D020F4C06040F4E3
:1007300080602CE00868C0F34120022804D051F802
:10074000800F20F4807022E0D1F8800020F48070C7
:10075000C1F88000086820F4C06040F400700860B0
:10076000B2FBF3F0401C00E0401E4A69520501D57F
:100770000028F9D1486940050AD503207047C0F325
:100780004120022806D051F8800F40F480700860A4
:1007900000207047D1F8800040F48070C1F88000DC
:1007A000086820F4C06040F400700860B2FBF3F009
:1007B000401C00E0401E4A695205DBD50028F9D1F3
:1007C000D8E700000C00002040420F0000700040FD
:1007D0000248816841F480418160704700700040A8
:1007E0002DE9F0470E4605004FF0000725D0DFF851
:1007F000AC81D8F8000000F00F00B0420CD2D8F85D
:10080000001021F00F013143C8F80010D8F80000A3
:1008100000F00F00B04210D12968614CC80741F2C6
:10082000883A5AD06868DFF87C91032808D00228FB
:1008300020682DD0400500282CDB0120BDE8F08782
:1008400020688001F9D5E06800F00302E068C0F399
:100850000310401C032A19D0534A00BFB2FBF0F02A
:10086000E268C2F306225043E268C2F34162521CBE
:100870005200B0FBF2F0484517D9A06810F0F00F15
:100880000CD0880711D5A86840B10EE0474AE5E7CB
:100890008003D0E700F092F8484506D9A06820F020
:1008A000F00040F08000A0608027A068696820F018
:1008B00003000843A060FFF7A3FE814606E000BFE7
:1008C000FFF79EFEA0EB090151453AD8A068696880
:1008D00000F00C00B0EB810FF2D12868810714D52D
:1008E000400703D5A06840F4E060A06028780007C6
:1008F00005D5A06820F4605040F4E060A060A068D6
:10090000A96820F0F000084304E0802F03D1A0681C
:1009100020F0F000A060D8F80010404601F00F0170
:10092000B14216D9016821F00F0131430160FFF790
:1009300067FE074607E000BFFFF762FEC11B514597
:1009400001D903207AE7D8F8000000F00F00B04288
:10095000F2D12878400705D5A068E96820F4E06066
:100960000843A0602878000706D5A068296920F40C
:10097000605040EAC100A06000F020F8A1680C4A75
:10098000C1F30311515C01F01F01C840094908601F
:1009900009480068BDE8F047FFF750BE002002405C
:1009A0000010024000B4C4040024F400001BB7008F
:1009B000081800080C00002000000020184910B59D
:1009C0008868C0F381021748012A0BD08A68164B49
:1009D000C2F38102022A06D08A68C2F38102032A86
:1009E00003D0002010BD184610BDCA6802F00304F1
:1009F000CA68C2F30312521C032C02D0B0FBF2F0FF
:100A000001E0B3FBF2F0CA68C968C2F306225043A2
:100A1000C1F34161491C4900B0FBF1F010BD000079
:100A2000001002400024F400001BB7002DE9F84339
:100A300004007AD02078FA4DC00747D0A868E9684A
:100A400000F00C0001F003010C2802D0082817D098
:100A500001E0032914D06068B0F5803F17D0B0F5ED
:100A6000A02F286817D020F480302860286820F450
:100A7000802028606068E0B1FFF7C2FD064614E000
:100A80002868800322D560680028D2D01EE028683C
:100A900040F48030EDE740F480202860F7E700BFA5
:100AA000FFF7AEFD801B642870D828688003F7D557
:100AB0000CE0FFF7A5FD064605E000BFFFF7A0FD2F
:100AC000801B6428F0D828688003F7D4207880073A
:100AD0004CD5A868E96800F00C0001F003010C286F
:100AE00002D004280DD001E002290AD0E0680028D5
:100AF00028682BD040F480702860FFF781FD0646FF
:100B000019E02868400502D5E068002891D068689F
:100B1000217C20F0FE4040EA01606860C148006826
:100B2000FFF78CFD002800D120E076E1FFF768FD9B
:100B3000801B0228B8D828684005F7D56868217C52
:100B400020F0FE4040EA016068600FE020F4807011
:100B50002860FFF755FD064605E000BFFFF750FD92
:100B6000801B0228A0D828684005F7D42078000709
:100B700029D560690028D5F8940013D040F0010011
:100B8000C5F89400FFF73CFD064606E090E000BF84
:100B9000FFF736FD801B022886D8D5F89400800721
:100BA000F6D510E020F00100C5F89400FFF728FD0D
:100BB000064604E0FFF724FD801B022878D8D5F80C
:100BC00094008007F6D42078400761D5A86D0026F0
:100BD000C00008D4A86D40F08050A865A86D01261B
:100BE00000F08050009090480168C90511D4016858
:100BF000804641F480710160FFF702FD074604E082
:100C0000FFF7FEFCC01B022852D8D8F80000C00530
:100C1000F6D5A068012815D00528D5F8900016D083
:100C200020F00100C5F89000D5F8900020F00400F5
:100C3000C5F89000A06841F28838B8B1FFF7E0FC31
:100C400007460EE0D5F8900040F00100F0E740F0D4
:100C50000400C5F89000F5E7FFF7D2FCC11B414541
:100C600026D8D5F890008007F6D50CE0FFF7C8FC31
:100C7000074604E0FFF7C4FCC11B414518D8D5F86E
:100C800090008007F6D41EB1A86D20F08050A865B2
:100C90002078800629D5A0690028D5F8980013D0BF
:100CA00040F00100C5F89800FFF7AAFC064606E0F0
:100CB00077E000BFFFF7A4FC801B022877D8D5F8A7
:100CC00098008007F6D510E020F00100C5F89800E4
:100CD000FFF796FC064604E0FFF792FC801B022813
:100CE00065D8D5F898008007F6D4E069F0B3A96814
:100CF000C1F38101032961D00228286820F08070A7
:100D000028600BD0E86820F00300E860E8684749F5
:100D10000840E860FFF774FC04464BE0FFF770FC06
:100D2000064604E0FFF76CFC801B02283FD82868C9
:100D30008001F7D4F4E908016FF00F0202EB011112
:100D40000843218A5204490802EB4151A26841EA52
:100D500002210843217D4FF07E42490802EB4161A8
:100D60000843217B40EAC160E96800E062E0304A64
:100D700011400843E860286840F080702860E86807
:100D800040F08070E860FFF73BFC044605E000BFE0
:100D9000FFF736FC001B022809D828688001F7D528
:100DA00048E004E0FFF72CFC001B022802D90320D6
:100DB000BDE8F88328688001F4D43BE00128F7D02F
:100DC000E868226A00F00301914226D1616A00F0CE
:100DD000F0020901103991421FD1A26A00F4FE41CC
:100DE000B1EB022F19D194F82C2000F07841B1EB2F
:100DF000C26F12D1218E00F4C00249084905A1F545
:100E00000011914209D194F8341000F0C0604908F3
:100E10004906A1F1007181420CD00120C8E7000011
:100E2000001002400000002000700040FFFFEEFEB6
:100E30000C809F010020BBE770B5040009D0606AF8
:100E4000002540B125616561A56294F85D0040B15F
:100E50000CE0012070BD6068B0F5827FF4D0E561E0
:100E6000F2E784F85C50204600F05CF8022084F839
:100E70005D002068016821F040010160E1684FF4E5
:100E8000E062914201D9002001E04FF48050B1F5B9
:100E9000706F02D0914200D0A562A188228901F42E
:100EA000827102F404421143227C02F002021143D7
:100EB000227D02F001021143228B02F400721143E1
:100EC000227F02F03802114394F8202002F08002C1
:100ED0001143228D02F40052114322681160A1696E
:100EE000042202EA114194F8242000F4805002F018
:100EF0001002114394F8342002F008021143A28931
:100F000002F4706211430143206841602068C169A6
:100F100021F40061C1612566012084F85D00002094
:100F200070BD000010B586B0044614216846FFF776
:100F3000C3F91249206888421ED11148016E41F45C
:100F400080510166016E01F480510591C16C41F040
:100F50000101C164C06C694600F001000590E02009
:100F60000090022001900020029003900520049040
:100F70004FF09040FFF71AFA06B010BD0030014064
:100F8000001002402DE9F05F044690F85C00002755
:100F90000A9E1D4692468B464FF0010901280ED04D
:100FA000012084F85C00FFF72BFB804694F85D007D
:100FB000616801280CD0B1F5827F07D102E00220E0
:100FC000BDE8F09FA16809B9042801D0022700E11B
:100FD000BBF1000F24D0BAF1000F21D005B394F873
:100FE0005D00042802D0052084F85D000020206602
:100FF000C4F840A0A4F84650A4F84450C4F838B04F
:10100000E587A587E0642065E0684FF4E0618842E9
:1010100001D8012D06D92068426822F4805205E0EB
:101020000127D6E02068426842F48052426020687E
:101030000268520603D4026842F040020260E0688F
:101040008842606845D908B1012D3AD1A06B21686A
:101050000088C860A06B801CA063E08F401EE08702
:101060002FE02068816889070FD5E18F69B1B9F158
:10107000010F0AD1A16B0988C160A06B801CA0631D
:10108000E08F401EE0874FF0000920688168C907A3
:101090000FD0B4F8461061B1C068216C0880206C94
:1010A000801C2064B4F84600401EA4F846004FF0AF
:1010B0000109FFF7A5FAA0EB0800B04201D3701CAC
:1010C00075D1E08F0028CCD1B4F846000028C8D1F3
:1010D00076E008B1012D6CD1E08F0128A06B08D912
:1010E00021680088C860A06B801CA063E08F801E10
:1010F00007E0216800780873A06B401CA063E08FB4
:10110000401EE08755E02068816889071AD5E18F85
:10111000C1B1B9F1010F15D1E18F0129A16B07D937
:101120000988C160A06B801CA063E08F801E06E070
:1011300009780173A06B401CA063E08F401EE0871C
:101140004FF0000920688168C90728D0B4F846101C
:1011500029B3B4F84610012914D9C068216C08805D
:10116000206C801C2064B4F84600801EA4F8460061
:10117000B4F84600012810D82068416841F4805135
:1011800041600AE0007B216C0870206C401C2064E8
:10119000B4F84600401EA4F846004FF00109FFF7DE
:1011A0002FFAA0EB0800B04202D3701C01D018E067
:1011B000BEB1E08F0028A6D1B4F846000028A2D125
:1011C00042463146204600F0AEF910B101272020FA
:1011D0002066012084F85D00002084F85C00384619
:1011E000EEE60327F5E710B5401EB0F1807F01D38E
:1011F000012010BD4FF0E02460610F21601700F066
:10120000C6FA0020A06107202061002010BDFEE783
:1012100010B586B014216846FFF74EF81548C16C2A
:1012200041F02001C164C16C01F020010591C16C45
:1012300041F00101C164C16C01F001010591C16C73
:1012400041F00201C164C06C0B4C00F0020005903B
:10125000002240212046FFF7CDF9402000900120D8
:101260000021CDE90101039169462046FFF79EF870
:1012700006B010BD0010024000040048134810B52D
:10128000114901604FF48271416000214FF4E06226
:10129000C0E902120222C0E904211202826138224E
:1012A000C2618022C0E908210722C0E90A12016355
:1012B00008214163FFF7C0FD002803D0BDE81040BE
:1012C000FFF75FB810BD000000300140140000209F
:1012D000FEE7FEE710B500F009F800F0C7F800F0EF
:1012E00011F8BDE8104000F00BB9000000200449DF
:1012F00002460A54401CC0B20928FAD370470000C5
:10130000780000202DE9F04F574A91B0D078C043C3
:10131000C3B2D37010799C07C043270EC1B25C07DB
:101320004FEA14691C07260E4FEA4368DC06250EB7
:10133000D8074FEA106C9C0602F1090011714FEAC0
:10134000186ADB09C3714FEA81784FEA186B4FEADC
:1013500041784FEA1868CDF804804FEA01784FEAE7
:101360001868CDF81C804FEAC1684FEA1868CDF8BC
:1013700024804FEA81684FEA18680D93CDF81880F1
:101380004FEA4168CB074FEA1868C909CDF82080B9
:10139000C17305914FEADC1101700E91F90941709A
:1013A00004914FEAD91181700C91F109C1700F912C
:1013B000240EED09E109057141718E464FEADA11FB
:1013C0001B0E81718A46D90901724FEADB170B9116
:1013D0004772DDF804804FEAD8118172DDF81C8075
:1013E0008B464FEAD814C472DDF824804FEAD81631
:1013F0000673DDF818804FEAD81980F80D90DDF8F3
:1014000020804FEAD81C80F80EC000F117080E9912
:10141000C8F800100499C8F804100C99C8F808100E
:101420000F9908F10C03C8F818A083E822400D9B1F
:10143000C8F81C3008F120080B99A8E88208A8E831
:101440005012059948F83C195379037494794474FF
:10145000D1798174127AC274C8E91212C8E91034C1
:1014600011B0BDE8F08F0000780000202DE9F843AE
:10147000DFF87C80002240214046FFF7BBF84FF6A2
:10148000FF7401231B4A1C491C480094FFF77AFD96
:10149000032000F09AF9174D174E01236A1C711CA6
:1014A00016480094FFF76EFD032000F08EF901232B
:1014B000AA1CB11C11480094FFF764FD032000F042
:1014C00084F90327EA190123B11C0C480094FFF7A3
:1014D00059FD032000F079F97F1CFFB2092FF1D3E9
:1014E0004046BDE8F84301224021FFF783B80000E1
:1014F00000040048780000201000002014000020A4
:101500000748016C80390164D0E91112803A826485
:101510007F39C26C49427F3A41645142C16470478D
:10152000980000207047F8B515460E460B4600920D
:10153000044600224FF4C05100F01AF888B933462F
:10154000002280212046009500F082F848B93346F9
:1015500000224FF4C0612046009500F009F80028F1
:1015600004D0206E40F0200020660320F8BD00006B
:101570002DE9FE4F4FF0000A984617460E460446E6
:101580000C9D8DF804A0FFF73BF8411BA8EB01056B
:10159000FFF736F8814620684FF4C06B0C3002909C
:1015A0002A480068C0EBC00000EB8000000D6843D3
:1015B000009043E05E4506D12FB9029800788DF87F
:1015C00004009DF80400B8F1FF3F37D0FFF718F88A
:1015D000A0EB0900A84203D215B1009858B32BE044
:1015E0002068416821F0E00141606068B0F5827FC9
:1015F0000BD1A068B0F5004F02D0B0F5806F04D1D8
:101600002068016821F040010160A06AB0F5005F28
:1016100009D12068016821F4005101602068016847
:1016200041F400510160012084F85D0084F85CA061
:101630000320BDE8FE8F0025401E009020688068D2
:101640003040B842B6D10020F3E700000C00002083
:101650002DE9F8431E46914688460446089DFEF74C
:10166000CFFF401B351AFEF7CBFF07462548006821
:10167000C0F3CB30684338E0701C37D0FEF7C0FFB2
:10168000C01BA84203D215B1009860B32CE02068BB
:10169000416821F0E00141606068B0F5827F0BD1C4
:1016A000A068B0F5004F02D0B0F5806F04D120687B
:1016B000016821F040010160A06AB0F5005F09D126
:1016C0002068016821F4005101602068016841F43C
:1016D00000510160012084F85D00002084F85C0066
:1016E0000320BDE8F8830025401E00902068816833
:1016F00038EA010004D000214945BDD10020F0E7BF
:101700000121F9E70C0000207047FEF77FBF00B50C
:1017100093B038216846FEF7CFFD14210EA8FEF7DE
:10172000CBFD4FF40070FEF7F5FF0220C1010391DD
:10173000402104910121CDE9080100900821CDE963
:101740000A1007900C900D906846FFF76FF908B1EA
:1017500072B6FEE70F200E9003200F9000204FF48A
:101760008061CDE91001129002210EA8FFF738F830
:10177000002801D072B6FEE713B000BD0248016830
:1017800041F470010160704788ED00E0FEE7090751
:10179000090E002804DB00F1E02080F800147047F7
:1017A00000F00F0000F1E02080F8141D7047FEF7F4
:1017B00035FFFFF7ACFFFFF72BFDFFF75FFDFFF7EE
:1017C00089FD0320FEF7E0FDF9E715E00A2100BFDF
:1017D00000BF00BF00BF00BF00BF00BF00BF00BF11
:1017E00000BF00BF00BF00BF00BF00BF491E11F017
:1017F000FF01ECD1401E80B20028E7D170474FF0C6
:101800004070E1EE100A7047000000000000000088
:101810000102030406070809381800080000002028
:1018200014000000140200084C18000814000020E6
:101830003407000030020008100000000100000022
:0C184000000000000024F4000142000041
:04000005080001D915
:00000001FF
