:020000040800F2
:10000000D813002029020008D32300080921000882
:10001000D12300081F040008A12A000800000000E6
:10002000000000000000000000000000D1260008D1
:10003000590600080000000009260008D326000821
:10004000430200084302000843020008430200087C
:10005000430200084302000843020008430200086C
:10006000430200084302000843020008430200085C
:10007000410500084302000843020008430200084B
:10008000430200084302000843020008430200083C
:100090004D04000843020008430200084302000820
:1000A000430200087D2700084302000843020008BD
:1000B000430200084302000843020008430200080C
:1000C00043020008430200084302000843020008FC
:1000D000430200084302000843020008C92900083F
:1000E00043020008430200084302000843020008DC
:1000F00043020008430200084302000843020008CC
:1001000043020008430200084302000843020008BB
:1001100043020008430200084302000843020008AB
:10012000430200084302000843020008430200089B
:10013000430200084302000843020008430200088B
:1001400015050008430200084302000843020008A6
:100150004302000843020008430200087D2A000809
:10016000430200084302000843020008430200085B
:100170004302000843020008430200080000000098
:10018000430200084302000800F002F800F03CF8C7
:100190000AA090E8000C82448344AAF10107DA45E2
:1001A00001D100F031F8AFF2090EBAE80F0013F0F8
:1001B000010F18BFFB1A43F001031847442F00003A
:1001C000642F0000103A24BF78C878C1FAD85207CB
:1001D00024BF30C830C144BF04680C6070470000C1
:1001E0000023002400250026103A28BF78C1FBD840
:1001F000520728BF30C148BF0B6070471FB502F0DF
:1002000065FF1FBD10B510BD00F0CFF81146FFF718
:10021000F5FF02F0ABFC00F0EDF803B4FFF7F2FFDE
:1002200003BC00F0F5F80000094880470948004782
:10023000FEE7FEE7FEE7FEE7FEE7FEE7FEE7FEE796
:10024000FEE7FEE704480549054A064B70470000F3
:100250006D27000889010008D80D0020D813002060
:10026000D80F0020D80F002053EA020C00F069805C
:100270002DE9F04B4FF00006002B1FBFB3FA83F5BA
:1002800003FA05F424FA05F65E4012BF1643B2FAEB
:1002900082F502FA05F4C5F120051EBF22FA05FC1D
:1002A00044EA0C04203556EA044C4FEA144418BFC3
:1002B000641C4FF000084FF00009904271EB030CF2
:1002C00039D3002919BFB1FA81F701FA07F6B0FA5C
:1002D00080F700FA07F6C7F120071EBF20FA07FCD7
:1002E00046EA0C062037B6FBF4FCA7EB0507103FE7
:1002F00007F01F0BCBF120060CFA0BFB2CFA06F6CD
:1003000044BFB3460026202FA4BF5E464FF0000B2B
:100310005BEA060C08BF4FF0010B19EB0B09ABFBB6
:10032000027C48EB0608C01B06FB02CC0BFB03CC8F
:1003300071EB0C01C1E70B46024641464846BDE859
:10034000F08B13B54FF000004FF00001AFF30080C9
:10035000BDE81C4070474FF0000200B513469446BC
:100360009646203922BFA0E80C50A0E80C50B1F10D
:100370002001BFF4F7AF090728BFA0E80C5048BF21
:100380000CC05DF804EB890028BF40F8042B08BFBF
:10039000704748BF20F8022B11F0804F18BF00F8BB
:1003A000012B7047704770477047754600F02CF876
:1003B000AE4605006946534620F00700854618B052
:1003C00020B5FFF73FFFBDE820404FF000064FF09B
:1003D00000074FF000084FF0000B21F00701AC467A
:1003E000ACE8C009ACE8C009ACE8C009ACE8C00999
:1003F0008D46704710B50446AFF300802046BDE837
:100400001040FFF70ABF000000487047740D00203D
:1004100001491820ABBEFEE7260002007047FEE748
:1004200000B58BB000200121CDE9060108910090B4
:10043000019002900390059004906946024800F0F4
:100440008FF90BB000BD0000A4000020014800F0AF
:1004500082BA0000A400002038B50E4C4FF400759D
:1004600025600025A560E560082525610A4C050A80
:1004700025706070080AA070E170100A2071627126
:10048000180AA071E3716B4622460249034800F046
:10049000F8F838BDE403002016000020A400002076
:1004A00038B50E4C40F2FF1525600025A560E560CB
:1004B000082525610A4C050A25706070080AA0709D
:1004C000E170100A20716271180AA071E3716B4625
:1004D00022460249034800F0D4F838BDE403002066
:1004E00016000020A400002000B58BB000200121E0
:1004F000CDE90601089100900190029003900590CB
:1005000004906946024800F02BF90BB000BD0000D2
:10051000CC000020014800F01EBA0000CC000020F2
:1005200010B5044600F088FC0221204600F097F840
:10053000002803D0BDE8104000F08FB810BD0000C7
:10054000014800F0ADBC0000C40100200168182380
:10055000CAB2103AB2FBF3F2054B6FF30901032A5A
:100560009B5CC36500D9091D816508467047000082
:10057000E030000810B5014600208B698A6A4FF010
:10058000C07453B1B3F5005F15D072B1012A0CD01D
:10059000022A0AD0032A09D104E01AB1012A06D09E
:1005A000022A03D1C96AC90100D5012010BDC96A58
:1005B000A142FAD010BD002AF7D0012AF2D0022AB7
:1005C000F3D0032AF3D010BD30B521490023214ACE
:1005D00008704C78052C39D2DFE804F00307101AB4
:1005E0001E000D2832D1012006E00A2802D00D2875
:1005F00003D02BE08B700220487030BD8C781055F2
:10060000641CE0B288701828F7D38B700320F3E7DE
:100610000A281BD10420EFE70D2817D192ED000A1C
:1006200081ED030A92ED010A81ED040A92ED020ABE
:1006300081ED050A92ED030A81ED010A92ED040AAB
:1006400081ED020A92ED050A81ED060A4B7030BD7C
:10065000880000205C0D0020704772B6FEE790F81D
:100660002020012A07D0022A05D0416A41F48021C6
:10067000416201207047006842690A4342610020DC
:100680007047F0B590F820500468A468012D05D09B
:10069000022D03D0416A41F480215DE014F0406FE7
:1006A00001D1E50055D5C4F30164022C03D9416A98
:1006B00041F4000150E00125A5401D608D684FF414
:1006C000C0739DB1CE6835434E6845EAC6050668DD
:1006D00003EB0417F5514FF4C275076805EB0415D9
:1006E0000E697E51097D012905D009E00E88CD688B
:1006F00045EA4655EBE701684E5946F480764E517F
:100700001179D579567941EA056195792D0445EA43
:10071000062529434FF4C676056806EB0416A95151
:100720001178D57841EA0561957852782D0445EA2B
:10073000022211434FF4C475026805EB04155151B0
:10074000006803EB0411425842F0010242500020BD
:10075000F0BD416A41F4001141620120F0BD00008A
:1007600010B590F82020012A07D0022A05D0416A4E
:1007700041F480214162012010BD3B48D0F80022A5
:1007800042F00102C0F80022D0F8002222F47C528C
:10079000C0F80022D0F800224B6A42EA0322C0F8D7
:1007A00000220A7D02F01F0301229A40D0F81C3279
:1007B0009343C0F81C32CB69B3B9D0F80C329343E1
:1007C000C0F80C328C894B6864F31F434C6900EB12
:1007D000C404C4F840320C890B6864F31F434C69AD
:1007E00000EBC404C4F84432CB69012B16D1D0F815
:1007F0000C321343C0F80C320C884B6864F31F436F
:100800004C6900EBC404C4F840320C89CB6864F333
:100810001F434C6900EBC404C4F844328B69002BBD
:10082000D0F804320ED01343C0F804320B69002B09
:10083000D0F8143208D01343C0F81432096A0129E1
:1008400004D008E09343EFE79343F5E7D0F81C1298
:100850001143C0F81C12D0F8001221F00101C0F8B9
:100860000012002010BD000000640040704730B549
:1008700090F82040012C05D0022C03D0416A41F4AD
:1008800080215DE00468002955D02469A40754D074
:100890004FF4D874056804EB01142D5915F00405C4
:1008A000956005682D594ED0ED08556005682C59A6
:1008B00004F00204D4604FF4DA74056804EB011408
:1008C0002D5905F00F05156105682D59C5F307254C
:1008D000956105682C59240C54614FF4DC7204684E
:1008E00002EB0112A4581C700468A458240A5C701E
:1008F0000468A458240C9C700468A258120EDA7084
:100900004FF4DE72046802EB0112A4581C710468F3
:10091000A458240A5C710468A458240C9C710468CF
:10092000A258120EDA71006881B1016941F020010C
:100930000161002030BDE468A8E7416A41F400117C
:100940004162012030BD6D0D1560AFE7C16841F017
:100950002001C160EDE72DE9F05F05460068002445
:100960004669D0F804908768D0F80CB0D0F810A091
:10097000D0F81880F10748D0F90714D00121816020
:10098000B80703D5284600F084FA0CE0780702D5B2
:100990004FF4006407E0380702D54FF4805402E0BA
:1009A000284600F075FAF80516D529684FF48070CE
:1009B0008860B80503D5284600F06DFA0CE078058C
:1009C00002D544F4005407E0380502D544F48044CD
:1009D00002E0284600F05EFAF80316D529684FF4C5
:1009E00080308860B80303D5284600F056FA0CE042
:1009F000780302D544F4004407E0380302D544F4F8
:100A0000803402E0284600F047FA300707D55FEA55
:100A1000CB6004D52968102044F40074C8607007C6
:100A20004FF0080707D55FEA0B7004D52868C76048
:100A3000284600F099F9B00706D52868C0688007F5
:100A400002D0284600F092F9700607D55FEACA6026
:100A500004D52968102044F480640861B00607D5E5
:100A60005FEA0A7004D528680761284600F0E0F9BB
:100A7000F00606D528680069800702D0284600F0F5
:100A8000D8F9B00308D55FEAC96005D529681020F8
:100A90004860284600F0CEF9F00307D55FEA0970F8
:100AA00004D528684760284600F0F8F9300446D598
:100AB0005FEA497040D5F00504D55FEAC87001D0FF
:100AC00044F00104B00504D55FEA887001D544F014
:100AD0000204700504D55FEA487001D544F00404AF
:100AE000300529D518F0700F26D008F07000402886
:100AF00015D006DC102809D020280AD0302816D1BD
:100B00000AE050280ED0602811D10EE044F008040D
:100B10000DE044F010040AE044F0200407E044F043
:100B2000400404E044F0800401E044F48074286848
:100B3000816921F070018161296804204860002CDE
:100B400005D0686A204368622846FFF78FFEBDE83B
:100B5000F09F70B5040003D094F8200010B104E0B9
:100B6000012070BD204600F081F82068016841F046
:100B70000101016000F0CCFB0546052604E000F011
:100B8000C7FB401B0A2811D820684068C007F6D070
:100B90002068016821F00201016000F0B9FB054600
:100BA0000BE000F0B5FB401B0A2806D9606A40F450
:100BB0000030606284F82060D2E7206840688007D7
:100BC000EFD4207E0128206801683DD021F080010B
:100BD0000160607E01282068016838D021F0400162
:100BE0000160A07E01282068016833D021F0200137
:100BF0000160E07E0128206801682ED041F01001DC
:100C00000160207F01282068016829D021F00801B7
:100C10000160607F01282068016824D021F0040170
:100C20000160D4E902010843D4E9041211430843E6
:100C30006168491E08432168C86100206062012084
:100C400084F82000002070BD41F08001C0E741F031
:100C50004001C5E741F02001CAE721F01001CFE7CC
:100C600041F00801D4E741F00401D9E7F0B587B0BD
:100C7000044614216846FFF76EFB364B3648DFF812
:100C8000D0E01968D4F800C0334A032502260927AA
:100C900010300024491CF44522D11960012907D1E4
:100CA000016841F000710160006800F0007005907B
:100CB000106840F0080010601068CDE9005600F0A0
:100CC0000800CDE9047069462448CDE9024500F0EA
:100CD00021FA00221146142000F088FB142032E093
:100CE000DFF87CE0F44530D1D0F800C04CF0806CE7
:100CF000C0F800C0D0F800C001290CF0806CCDF81D
:100D000014C0196007D1016841F0007101600068EA
:100D100000F000700590106840F00200106010684C
:100D200002AB00F0020005906020CDE9000683E8E8
:100D3000B00069460B4800F0EDF900221146402052
:100D400000F054FB402000F043FB07B0F0BD000072
:100D5000006400400000002030380240000C0240D7
:100D600000680040000402407047000070B505466E
:100D700000682B492B4C8AB0884224D16B4602AACA
:100D800000212846FFF773FD0298A0F201200728F2
:100D900019D8C0B22070244EC0EBC00006EB800012
:100DA00081694A1C32298261694602D801F0B8FE85
:100DB00001E001F0BAFE20786946C0EBC00006EB06
:100DC000800001F0B2FE19492868884225D16B469F
:100DD00002AA00212846FFF74AFD0298A0F201204E
:100DE00007281AD8C0B2104D6070C0EBC000E035C3
:100DF00005EB800081694A1C32298261694602D86C
:100E000001F08EFE01E001F090FE60786946C0EBD3
:100E1000C00005EB800001F088FE0AB070BD000044
:100E200000640040140000202402002000680040FC
:100E3000704770477047000070B5044690F8200076
:100E4000012804D0606A40F40020606218E00220AB
:100E500084F820002068016821F00101016000F0A1
:100E600057FA05460EE000BF00F052FA401B0A2870
:100E700008D9606A40F400306062052084F82000E0
:100E8000012070BD20684068C007EDD1606270BD70
:100E90007047704770477047704770477047000051
:100EA0002DE9F84304464FF00009CDF8009063485F
:100EB0004FF41651A56D0068B0FBF1F72E6894F859
:100EC0005C10082000FA01F131420FD021680A6855
:100ED00052070BD50A6822F004020A6094F85C10ED
:100EE0008840A860606D40F00100606594F85C1077
:100EF0004FF0010808FA01F0304208D02168496932
:100F0000090604D5A860606D40F00200606594F8A1
:100F10005C1004208840304208D0216809688907A5
:100F200004D5A860606D40F00400606594F85C1022
:100F300010208840304218D021680968090714D56C
:100F4000A86020680168490304D50068000308D53B
:100F5000A16C07E00168C90503D4016821F008010C
:100F60000160216C09B12046884794F85C1020206C
:100F70008840304231D021680968C9062DD5A86063
:100F800094F8350005282068016806D0490347D544
:100F9000006800031DD4616C1CE021F016010160A3
:100FA0002068416921F080014161206C08B9A06C82
:100FB00020B12068016821F00801016094F85C10FC
:100FC0003F208840A86084F8358084F83490216DF3
:100FD0001FE0E16B09B120468847606D00282BD0E7
:100FE000606DC00714D0052084F8350020680168C2
:100FF00021F0010101600098401C0090B84203D824
:1010000020680068C007F6D184F8358084F83490F1
:10101000E16C002910D001B02046BDE8F04308473C
:101020000168C905D5D4016821F01001016084F878
:10103000358084F83490CCE7BDE8F88310000020B8
:101040002DE9F041044600F063F906465CB1022048
:1010500084F83500002584F834502068016821F0B8
:10106000010101600DE00120BDE8F08100F050F9C0
:10107000801B052805D920206065032084F83500F1
:10108000F2E720680068C007F0D1226811682048A4
:101090000140D4E901031843D4E90336334318432C
:1010A00063691843A3691843E3691843236A184323
:1010B0000843616A042903D1D4E90B131943084397
:1010C000106020684069666A20F0070130460E43D0
:1010D000012704280CD1A06A0643E06A40B12046EB
:1010E000FFF748FA20B14020606584F83570BAE710
:1010F000206846612046FFF729FA94F85C203F21DA
:1011000091408160656584F835700020ACE700008F
:101110003F8010F02DE9F84FDFF8BCA10022012537
:1011200003264FF00F090AF1040BAAF1040E00BFC9
:101130000B6805FA02F42340A34270D10F7907F03F
:101140000307012F01D0022F16D187684FEA42080A
:1011500006FA08FC27EA0C07D1F80CC00CFA08FCC8
:101160004CEA070CC0F808C04768A7430C79C4F3E1
:10117000001494403C4344600C79E443A4070AD033
:10118000C4684FEA420C06FA0CF7BC438F6807FAB2
:101190000CF72743C7600C7904F00304022C12D12A
:1011A000D40800EB840CDCF820405707FF0E09FA46
:1011B00007F824EA0804D1F8108008FA07F848EA8A
:1011C0000408CCF8208004684FEA420C06FA0CF7B9
:1011D000BC430F7907F0030707FA0CF727430760B2
:1011E0004C6814F4403F70D03C4C276847F480476B
:1011F0002760246822F0030704F480440094384CEC
:1012000007EB040CDCF8084897074FEA177809FA4F
:1012100008F7BC43334FB84202D1002724E054E022
:10122000314FB84201D101271EE0304FB84201D101
:10123000022719E02E4FB84201D1032714E02D4FA9
:10124000B84201D104270FE02B4FB84201D1052746
:101250000AE02A4FB84201D1062705E0284FB842DC
:1012600001D1072700E0082707FA08F72743CCF841
:101270000878DAF800405746D1F804C09C435FEA8A
:10128000CC2C00D51C433C60DBF800405F46D1F815
:1012900004C09C435FEA8C2C00D51C433C60DEF804
:1012A00000407746D1F804C09C435FEA8C3C00D5EF
:1012B0001C433C60084F083F3C68D1F804C09C4385
:1012C0005FEACC3C00D51C433C60521C102AFFF462
:1012D0002FAFBDE8F88F0000083C014044380240C1
:1012E00000300140000002400004024000080240BB
:1012F000000C02400010024000140240001802409E
:10130000001C02400AB1816170470904FBE700003C
:10131000014880687047000004000020024881688E
:101320000278114481607047040000200B4810B51A
:10133000016841F400710160016841F4806101605D
:10134000016841F480710160032000F06FF80F2004
:1013500000F006F800F024F8002010BD003C024028
:1013600070B50D4D04464FF47A712878B1FBF0F05A
:101370000A490968B1FBF0F000F00CFB48B9102CE9
:1013800007D200222146501E00F030F800206C6089
:1013900070BD012070BD000004000020100000207E
:1013A0000A4808B5016841F480410160006800F412
:1013B000804000900548001F016841F080510160A5
:1013C000006800F08050009008BD000044380240E2
:1013D000002809DB00F01F02012191404009800034
:1013E00000F1E020C0F8001170470000F0B40E4B8F
:1013F0001B680C46C3F30223C3F10705042D00D973
:101400000425191D072901D2002300E0DB1E012657
:1014100006FA05F1491E214099409E40761E16406D
:101420003143F0BC01F03DBB0CED00E0064900F09B
:10143000070208684FF6FF03184040EA0220034AFB
:1014400010430860704700000CED00E00000FA0552
:101450002DE9F0470E46050065D0DFF81481D8F875
:101460000000F7B200F00700B04207D288F8007021
:10147000D8F8000000F00700B04254D128683D4C75
:10148000810712D5400703D5206840F4E050206062
:101490002878000703D5206840F460402060206869
:1014A000A96820F0F000084320602878C0072DD0FC
:1014B000304968680839012812D0022813D003285F
:1014C00011D00968890700292DDA216821F003016C
:1014D00001432160FFF71CFF814641F2883A0EE08C
:1014E00009688903EFE709688901ECE7FFF710FF56
:1014F000A0EB0901514502D90320BDE8F08720681F
:10150000696800F00C00B0EB810FEFD1D8F8001043
:10151000404601F00701B14207D90770006800F0AA
:101520000700B04201D00120E7E72878400705D541
:101530002068E96820F4E05008432060287800071C
:1015400006D52068296920F4604040EAC100206087
:1015500000F038F82168084AC1F30311515CC84013
:101560000649086006480068FFF7FAFE0020C4E755
:10157000003C024008380240E8300008100000201B
:10158000080000200448054900680968044AC1F3BE
:101590008221515CC840704710000020083802408A
:1015A000F83000080448054900680968044AC1F396
:1015B0004231515CC840704710000020083802409A
:1015C000F8300008154810B5006810F00C021448F7
:1015D00013D01449042A0FD0082A0ED10F4C241F0F
:1015E0002268236802F03F025B0207D52068C0F33F
:1015F0008810A0FB010106E0084610BD2168C1F378
:101600008811A1FB00010023FEF72EFE2168C1F323
:101610000141491C4900B0FBF1F010BD08380240FF
:101620000024F400001BB7002DE9F84F04006ED031
:101630002078DFF84C93C007A9F104054AD009F1DE
:1016400004000168C1F38101012908D00068C0F3DA
:10165000810002280AD1D9F80000400206D5286886
:10166000800337D560680028E1D033E06068B0F5CA
:10167000803F10D0B0F5A02F286810D020F4803023
:101680002860286820F4802028606068A8B1FFF7EF
:101690003FFE06460DE0286840F48030F4E740F451
:1016A00080202860F7E700BFFFF732FE801B642828
:1016B00073D828688003F7D50CE0FFF729FE0646AB
:1016C00005E000BFFFF724FE801B6428F0D82868DF
:1016D0008003F7D42078DFF8AC8280074FF0000A4F
:1016E0003ED5A748001D016811F00C0F08D0006816
:1016F000C0F3810002280BD1D9F80000400207D4C2
:101700002868800716D5E068012800D112E033E18F
:10171000E068B8B10120C8F80000FFF7F9FD0646FF
:1017200005E000BFFFF7F4FD801B0228C0D8286841
:101730008007F7D52868216920F0F80040EAC10049
:1017400028600DE0C8F800A0FFF7E2FD064604E0BF
:10175000FFF7DEFD801B02281FD828688007F7D41A
:101760002078000722D5864F87486169703771B1AC
:1017700001210160FFF7CCFD064604E0FFF7C8FD3C
:10178000801B022809D838688007F7D50EE0C0F81A
:1017900000A0FFF7BDFD064605E082E0FFF7B8FDBB
:1017A000801B02287DD838688007F7D4207840074E
:1017B00068D5DFF8CCB100270BF13C0BDBF800005B
:1017C000C0000BD4DBF8001041F08051CBF80010C2
:1017D000DBF80000012700F0805000906B4E30686D
:1017E000C00510D4306840F480703060FFF790FD81
:1017F000009005E0FFF78CFD0099401A022850D8B0
:101800003068C005F6D55E4EA0686C3601280FD052
:101810000528306810D020F001003060306820F0DA
:1018200004003060A068B8B1FFF772FD00900FE0CF
:10183000306840F00100F4E740F004003060F7E762
:10184000FFF766FD0099411A41F28830814266D85F
:1018500030688007F4D50EE0FFF75AFD009007E0EE
:10186000FFF756FD0099411A41F28830814256D85F
:1018700030688007F4D42FB1DBF8001021F08051DC
:10188000CBF80010A069C8B33D49091D0968C1F330
:10189000810102294AD00228504607D0C8F86000CA
:1018A00000E03CE0FFF734FD04463BE04746C8F863
:1018B0006000FFF72DFD064605E000BFFFF728FD9D
:1018C000801B02282BD828688001F7D4D4E90701AF
:1018D0000843A16A2E4A490802EB0141626A41EAC3
:1018E0008211084394F82C1040EA0161C9F80010F5
:1018F00001203866FFF70CFD044606E03EE000BF1D
:10190000FFF706FD001B022809D828688001F7D5DB
:1019100034E000BFFFF7FCFC001B022802D90320C3
:10192000BDE8F88F28688001F4D427E00128F7D0BB
:10193000D9F80000E26900F4800191421CD1226ACA
:1019400000F03F01914217D147F6C071626A014031
:10195000B1EB821F10D1A26A4FF0FF3300F4403187
:1019600003EB5202B1EB024F06D194F82C1000F0B9
:101970007060B0EB016F01D00120D1E70020CFE70C
:101980000438024000004742800E47420070004089
:101990000000FFFF10B5401EB0F1807F01D3012091
:1019A00010BD4FF0E02460610F21601701F079F85D
:1019B0000020A06107202061002010BD7047704703
:1019C00070B590F83C20012A32D0012480F83C40C8
:1019D000022280F83D2003685A689D6822F0700654
:1019E0000A6832435A60134B02689A4214D0B2F12B
:1019F000804F11D0104B9A420ED0104B9A420BD010
:101A00000F4B9A4208D00F4B9A4205D00E4B9A4288
:101A100002D00E4B9A4204D1496825F08003194345
:101A2000916080F83D40002180F83C10084670BD70
:101A3000022070BD0000014000040040000800408A
:101A4000000C00400004014000400140001800402C
:101A500010B5040003D094F83D0010B107E0012058
:101A600010BD002084F83C00204600F01FF8022042
:101A700084F83D00211D206800F086FE012084F8D6
:101A8000460084F83E0084F83F0084F8400084F863
:101A9000410084F8420084F8430084F8440084F84C
:101AA000450084F83D00002010BD000008B5006826
:101AB0000B49884212D10B48016841F001010160D5
:101AC0000068002200F00100009011461920FFF785
:101AD0008DFCBDE808401920FFF77ABC08BD000066
:101AE000000001404438024090F83D10012901D027
:101AF00001207047022180F83D100168CA6842F059
:101B00000102CA6000681149884214D0B0F1804FC8
:101B100011D00F4988420ED00E4988420BD00E4991
:101B2000884208D00D49884205D00D49884202D02C
:101B30000C49884204D1816801F00701062903D0CD
:101B4000016841F001010160002070470000014080
:101B50000004004000080040000C00400004014068
:101B6000004001400018004070B5044690F83C0069
:101B70000025012817D0012684F83C60022084F853
:101B80003D002068826822F0770222F47F42826062
:101B90000868502838D00DDC20284FD005DC90B3E1
:101BA000102811D14AE0022070BD302846D04028CC
:101BB0000AD13BE060282FD070280DD0B0F5805FAF
:101BC00003D0B0F5005F12D0012584F83D600020FD
:101BD00084F83C00284670BDCB68D1E9012120681B
:101BE00000F036FE2068816841F0770109E0CB689B
:101BF000D1E90121206800F02BFE2068816841F4C2
:101C000080418160E1E719E0CA684968206800F016
:101C100031FE5021206806E0CA684968206800F05B
:101C20003AFE6021206800F01DFECEE7CA684968D0
:101C3000206800F01FFE40212068F4E7226801467A
:101C40001046F0E7704770B50446006801694FF030
:101C50000005C943890715D4C168C943890711D450
:101C6000E91E0161012020772068806980072046F5
:101C700002D0FFF7E7FF04E000F098F8204600F0FC
:101C800096F8257720680169C943490717D4C168C8
:101C9000C943490713D46FF0040101610220207782
:101CA0002068806910F4407F204602D0FFF7CAFF09
:101CB00004E000F07BF8204600F079F825772068F2
:101CC0000169C943090716D4C168C943090712D479
:101CD0006FF008010161042020772068C069800747
:101CE000204602D0FFF7AEFF04E000F05FF8204688
:101CF00000F05DF8257720680169C943C90617D44B
:101D0000C168C943C90613D46FF0100101610820EE
:101D100020772068C06910F4407F204602D0FFF78A
:101D200091FF04E000F042F8204600F040F82577EB
:101D300020680169C943C90708D1C168C943C907F7
:101D400004D1891E0161204600F032F82068016943
:101D5000C943090609D4C168C943090605D46FF00F
:101D6000800101612046FFF729FE20680169C9430F
:101D7000490609D4C168C943490605D46FF040013A
:101D80000161204600F010F920680169C943890605
:101D90000BD4C168C943890607D46FF020010161E3
:101DA0002046BDE87040FFF70ABE70BD704770471F
:101DB0002DE9F0476D490068096888427DD100F03F
:101DC00025FC6B486B4D6C4E817A6C4FDFF8B091FF
:101DD000032966D1C17A032963D16A4C94ED010AC3
:101DE00094ED001A70EE410A31EE000AC5ED000ACA
:101DF00086ED000AC7ED000A89ED000A018959B194
:101E000094ED020AF1EE400AC5ED000A86ED000AE3
:101E100087ED000AC9ED000A8046B0F9000010F114
:101E2000640F02DA002000F061FEB8F900006428B7
:101E300002DD012000F05AFE98F80B00012830D195
:101E4000D4EC020A31EE600A70EE810A85ED000AD8
:101E5000C6ED000A87ED000AC9ED000AB8F80810BF
:101E600059B194ED020AF1EE400AC5ED000A86ED83
:101E7000000A87ED000AC9ED000AB8F9020032280D
:101E800002DD012000F08AFFB8F90200002802DC20
:101E9000002000F083FFB8F90000322801DD00F0D7
:101EA00011FE012095ED000A00F072FB364C022075
:101EB00084ED000A96ED000A00E054E000F068FBB3
:101EC000324D032085ED000A97ED000A00F060FB1B
:101ED0002F4E042086ED000A99ED000A00F058FB11
:101EE0002C4880ED000ABDEEC00A10EE100A96EDF7
:101EF000000A03B2BDEEC00A10EE100A95ED000A0A
:101F000002B2BDEEC00A10EE100A94ED000A01B252
:101F1000BDEEC00A10EE100A00B2FEF79DFA1E4890
:101F200090ED000ABDEEC00A10EE100A03B21B4885
:101F300090ED000ABDEEC00A10EE100A02B2184879
:101F400090ED000ABDEEC00A10EE100A01B215486D
:101F500090ED000ABDE8F047BDEEC00A10EE100A91
:101F600000B2FEF79DBABDE8F0870000F400002043
:101F7000FC0C00204000002044000020480000200D
:101F80004C0000207C0000202000002024000020C5
:101F9000280000202C0000203C00002038000020F9
:101FA0003400002030000020704770B5040004D0D9
:101FB00094F83D00002510B106E0012070BD84F8C2
:101FC0003C50204600F022F8242084F83D00206890
:101FD000C16821F40051C160204600F06FFC206808
:101FE000016921F4904101612068416921F02A01D1
:101FF00041612068C16841F40051C160256420201E
:1020000084F83D0084F83E00002070BD70B586B0B5
:10201000064614216846FEF79EF9344C30680025C8
:10202000334902220323A04236D1314810300468DC
:1020300044F480240460006800F48020059008685F
:1020400040F0040008600868694600F0040005904C
:1020500098028DE825000720CDE903302548FFF7D9
:1020600059F8264C244820604FF00060C4E901056F
:102070004014C4E9035065614FF44030A561C4E9E0
:10208000075020466562FEF7DBFF08B1FEF7E5FA70
:10209000B463A66306B070BD194CA042FAD11448CF
:1020A0001430046844F020040460006800F020004C
:1020B0000590086840F0400008600868694600F034
:1020C000400005904FF484408DE825000820CDE9BC
:1020D00003300C48FFF71EF8002211464720FFF797
:1020E00085F94720FFF774F9D4E700000048004065
:1020F000303802400008024028600240C40100203D
:102100000014014000180240FEE700000F4810B51F
:102110000D4901600321416000214FF4C02281601C
:10212000C0E903124FF4A002426101764176817644
:10213000C17601774177FEF70CFD002803D0BDE89A
:102140001040FEF78ABA10BD00640040A4000020D1
:102150000F4810B50D4901600321416000214FF483
:10216000C0228160C0E903124FF4A00242610176EF
:1021700041768176C17601774177FEF7EAFC002847
:1021800003D0BDE81040FEF768BA10BD00680040FB
:10219000CC000020094808B5016841F40011016035
:1021A0000068002200F40010009011460C20FFF798
:1021B0001DF9BDE808400C20FFF70AB9303802408D
:1021C0002DE9F04F87B014216846FEF7C4F8444863
:1021D0000024016841F002010160016801F0020180
:1021E0000591016841F040010160016801F0400182
:1021F0000591016841F001010160016801F00101F0
:102200000591016841F008010160016801F00801D1
:102210000591016841F004010160016801F00401C9
:102220000591016841F480710160016801F48071D9
:102230000591016841F080010160016801F08001B1
:102240000591016841F0100101600068DFF8948099
:1022500000F0100005900022C0214046FFF752F820
:10226000DFF88490002240214846FFF74BF8DFF862
:102270007CA04FF4D446002231465046FFF742F886
:10228000DFF86CB04FF48057002239465846FFF70C
:1022900039F8C02000900125CDE901546946404637
:1022A0000394FEF737FF40200090CDE901546946C2
:1022B00048460394FEF72EFF0096CDE90154694687
:1022C00050460394FEF726FF0097CDE90154694676
:1022D00058460394FEF71EFF07B0BDE8F08F0000DC
:1022E0003038024000200240000802400010024046
:1022F0000004024010B586B00024174800940194F1
:10230000029403940494134905940160A721C0E941
:10231000011440F2CF71C0E9031444618461FFF7F6
:1023200097FB08B1FEF799F94FF480500090694689
:102330000948FFF719FC08B1FEF78FF9049404A9C6
:1023400005480594FFF73CFB002801D0FEF785F90E
:1023500006B010BD00000140F40000200C4810B58C
:102360000A4901600B494160002181600C22C16073
:10237000C0E904128161C161FFF717FE002803D094
:10238000BDE81040FEF769B910BD000000480040EC
:102390003C010020A08601000C4810B50A490160EC
:1023A0004FF4E1314160002181600C22C160C0E93D
:1023B00004128161C161FFF7F8FD002803D0BDE878
:1023C0001040FEF74AB910BD001401408001002002
:1023D000FEE7FEE7A0B1D0ED101AC0ED111A90EDA6
:1023E0000F1A80ED101AC0ED060A80ED070A30EED4
:1023F000C00A80ED0F0A017829B101293BD078E0AD
:102400009FED3D0A7047D0ED010A60EE801AC0EDE5
:10241000091AD0ED0A0A90ED022A42EE000A30EEC7
:10242000410AC0ED0A0A90ED0D2A80ED0E2A90EDCA
:102430000C2A80ED0D2A80ED0C0A90ED031A21EE96
:10244000001A80ED0B1A90ED050AF4EEC00AF1EEC9
:1024500010FA09DCB1EE400AF4EEC00AF1EE10FA0F
:1024600002D390ED0A0A01E080ED0A0A31EE800AFB
:1024700030EE010A2BE070EE410A90ED012A20EEC9
:10248000822A80ED092AD0ED020A60EE800AC0EDB2
:102490000A0AD0ED0D2A72EE200AC0ED0E2AD0ED08
:1024A0000C2AC0ED0D2AF0EE002A01EE620A30EE91
:1024B000210A80ED0C0A90ED031A21EE000A80ED4E
:1024C0000B0A30EE800AD0ED080A30EE200A80EDCB
:1024D000080AD0ED040AB4EEE00AF1EE10FA06DCC8
:1024E000F1EE600AB4EEE00AF1EE10FA01D2C0EDAE
:1024F000080A90ED080A704700000000002828D064
:10250000002A26D0017092ED001A80ED011A92ED9A
:10251000011A80ED021A92ED021A80ED031A80ED85
:10252000040A9FED0C0AC0ED050A80ED0E0A80ED4D
:102530000D0A80ED0C0A80ED080A80ED0B0A80ED93
:102540000A0A80ED090A80ED110A80ED100A80ED7B
:102550000F0A7047000000000B4AC0EBC00110B525
:1025600002EB8101F0EE400A11ED040A00EBC0011C
:102570000648B8EEC00A00EBC104A4F14800FFF71A
:1025800029FF14ED0A0A10BD04030020BC0A002034
:102590000C4AC0EBC00110B502EB8101F0EE400A1D
:1025A00031F91A1C00EE101A00EBC0010648B8EE13
:1025B000C00A00EBC104A4F14800FFF70BFF14EDC3
:1025C0000A0A10BD24020020FC0300200C4AC0EBC4
:1025D000C00110B502EB8101F0EE400A31F91A1C7E
:1025E00000EE101A00EBC0010648B8EEC00A00EB7E
:1025F000C104A4F14800FFF7EDFE14ED0A0A10BD76
:10260000040300207C080020704700001548B0F942
:102610000410B0F9062000EE101AB0F908001349B2
:10262000F8EEC00A9FED100A01EE100A60EE801A63
:1026300000EE902AB8EEC11AF8EEE00A21EE001A78
:1026400060EE800AB1EE0C0A61EE801A60EE800A3C
:1026500021EE000AC1ED001AC1ED010A81ED020A66
:1026600070470000FC0C0020E604353F7C00002091
:1026700030B5144B1C68656945F0400565611B6801
:10268000DC6844F01004DC600F4B1C68256825F002
:10269000010525601C682568ED07F7D11D680B4C06
:1026A000AC601C68E06018680161186842601868D6
:1026B000016841F4802101601868016841F001015E
:1026C000016030BD3C010020C401002004480040EE
:1026D0007047FEF723BE000030B593B03021684646
:1026E000FDF739FE14210CA8FDF735FE1D48002525
:1026F000016841F080510160006800F08050119045
:102700001948016841F4804101600068022400F426
:102710008040119001200090000401908001CDE9DB
:10272000064006200890A820CDE9090404200B905B
:102730006846FEF779FF08B172B6FEE70CA90F20D4
:1027400081E831004FF4A0500F904FF4805010906A
:1027500005210CA8FEF77CFE002801D072B6FEE72A
:1027600013B030BD4038024000700040024801689C
:1027700041F470010160704788ED00E00148FFF707
:1027800062BA0000F4000020F0B50268254C264D26
:10279000264E274F274B4FF0804CA04209D0604572
:1027A00007D0A84205D0B04203D0B84201D0984229
:1027B00004D122F0700E4A6842EA0E02A0421BD0F9
:1027C000604519D0A84217D0B04215D0B84213D0F6
:1027D000984211D0184DA8420ED0184DA8420BD0E7
:1027E000174DA84208D0174DA84205D0164DA84253
:1027F00002D0164DA84203D122F44075CA682A437C
:102800004D6922F080022A4302608A68C2620A6827
:102810008262A04201D0984201D10969016301217D
:102820004161F0BD0000014000040040000800408C
:10283000000C004000040140004001400044014001
:102840000048014000180040001C004000200040EB
:1028500010B5846842EA032224F47F440A432243E9
:10286000826010BD826822F070020A4342F00701C4
:102870008160704710B5036A046A24F001040462A1
:10288000846924F0F00444EA021423F00A020A43A3
:102890008461026210BD10B5036A23F01003036265
:1028A0008369046A23F4704343EA023224F0A003EC
:1028B00043EA01118261016210BD000070B5044657
:1028C00000680169E26821F4405111430161216906
:1028D000A068E26908436169114308432168CA6836
:1028E00049F20C639A430243CA6020684169A269B5
:1028F00021F440711143416131492068884202D07E
:102900003049884202D1FEF74DFE01E0FEF73AFE63
:10291000E2690023192164253226B2F5004F62686E
:1029200028D0A0FB0101930F9200FDF79DFC01460A
:10293000B0FBF5F06FF01802504301EB800006EB9E
:102940000010B0FBF5F000F0F002B1FBF5F002EB87
:102950000012B1FBF5F06FF01803584301EB800053
:1029600006EB0010B0FBF5F000F00F0021681044FA
:10297000886070BDA0FB010192185B41FDF774FCFB
:102980000146B0FBF5F00201B1FBF5F06FF0180362
:10299000584301EB800006EBC000B0FBF5F000F0FF
:1029A000F80002EB4002B1FBF5F0584301EB800068
:1029B00006EBC000B0FBF5F000F00700D6E7000022
:1029C0000010014000140140264818B40068016856
:1029D000890604D501684068009018BC70472249F8
:1029E0000968C906F9D501684068204A0090106856
:1029F00001684FF024030C031D49046824F001040E
:102A0000046016D410684468C4F12404A4B20C8095
:102A100043601068016841F400210160106801689A
:102A200041F001010160122CD7D1124901F11600C9
:102A300015E014686068C0F1240080B2088063600B
:102A40000D498B6A23F400238B6211680A6842F0F7
:102A500001020A601228C0D1064901F13A0018BCEF
:102A600000F042B93C01002000480040C4010020B1
:102A700078000020FC0C002000600240074881B074
:102A800000680268920604D50168416800914068B8
:102A900041B2C8B201B0FDF797BD0000800100202F
:102AA000FEE70907090E002804DB00F1E02080F8AA
:102AB0000014704700F00F0000F1E02080F8141DB2
:102AC00070470000074810B59FED050A80ED000A29
:102AD000012000F07DF8044880ED000A10BD0000E0
:102AE000000018485C0000203C00002010B5084998
:102AF00010B19FED080A01E09FED070A052081ED66
:102B0000000AFFF745FD054880ED000A10BD0000F2
:102B1000500000200080BB45000000003000002075
:102B2000098849BA01808182704710B5B0F9003038
:102B300003810A8852BA02804C88D31A64BA44804E
:102B40008C88B3F5805F64BA84808979817101696A
:102B500001DD491E03E013F5805F01DA491C0161C4
:102B600002EB4131828A891AC16010BDFEF7DEFB9B
:102B7000FFF7B2FDFFF724FBFFF70CFBFFF7C6FAE8
:102B8000FFF7E6FAFFF7EAFBFFF7B4FBFFF704FCF9
:102B90000C48FEF7A9FF0C480068C16841F020010D
:102BA000C160FDF73DFC0948FDF7BAFCFDF79CFC50
:102BB0000648FDF7B5FC00F015F800F04DF800F000
:102BC0008BF8FEE7F400002080010020A400002024
:102BD00010B50446FFF7C0FC2046BDE81040FFF7E3
:102BE000F5BC00002DE9F041154E00242DED048BBD
:102BF00006F510779FED138ADFED138A9FED139A88
:102C0000DFED139A04EBC40506EBC500F0EE480AAD
:102C1000B0EE680A0F4A0021FFF770FC0D4A07EB7F
:102C2000C500F0EE490AB0EE690A0C320021FFF748
:102C300065FC641C042CE5DBBDEC048BBDE8F08175
:102C4000FC0300200080BB4500401C46000096436A
:102C50000000C8436000002010B51A4A00212DED85
:102C6000028B9FED168ADFED168A1748F0EE480AB0
:102C7000B0EE680AFFF742FC1348F0EE480AB0EEE7
:102C8000680A104A00214830FFF738FC0E48F0EE81
:102C9000480AB0EE680A0B4A00219030FFF72EFC7C
:102CA000084ADFED0A0A0C32BDEC028B0021BDE8B8
:102CB00010409FED070A0748FFF720BC0080BB4586
:102CC00000401C4660000020640500200000964380
:102CD0000000C843040B002002492422A1F1240073
:102CE000FFF7C6BC360D0020F0B5002855D00029EE
:102CF00053D00278437842EA0322C2F30A020A80E0
:102D000043788478DB0843EA4413C3F30A034B8017
:102D10008478C578A40944EA8504057944EA8524C1
:102D2000C4F30A048C80057946796D0845EAC61516
:102D3000C5F30A05CD804679C6F301168E72467931
:102D4000B609CE728679C77946EA07268E81067A59
:102D5000477A46EA0726CE81867AC77A46EA072668
:102D60000E82067B8E74467BCE74867BC77B46EADA
:102D700007268E82067C407CA2F580620A80A3F53D
:102D800080634B80A4F5806446EA00208C80A5F522
:102D90008065CD80A0F580600881F0BD2DE9F0410F
:102DA00006461F482DED028BB0F9020000F079F8BD
:102DB0000D4645EC100B9FED1B8B044653EC182B76
:102DC00051EC100B00F084F800F03AF8174F45EC86
:102DD000104B53EC182B386051EC100B00F078F8C6
:102DE00000F02EF8124C20602EB99FED120A87EDEC
:102DF000000A84ED000A062097ED000AFFF7C8FBE1
:102E00000D4880ED000A072094ED000AFFF7C0FB93
:102E10000A4880ED000ABDEC028BBDE8F08100009D
:102E2000FC0C002033333333333322405400002072
:102E3000580000200000000034000020380000206E
:102E400021F00042A2F16052B2F5801F01F0004370
:102E500028BFD2F17F6C0BD95FEA001C43EAC202A3
:102E600042EB507018BF704728BF20F00100704738
:102E7000B2F5801FBCBF184670474FEA410C1CF5E5
:102E8000001F02D2084600F026B970B500F0CAF85B
:102E900000000089FFF7F6BF4FF00040A0F580006A
:102EA000704710F0004248BF4042B0FA80F310FA79
:102EB00003F10AD0C3F11D0303F580634FEA4150CB
:102EC00002EB035202EBD12170474FF00000704734
:102ED000DFF848C170B51CEA111E1EBF1CEA1315AD
:102EE0009EEA0C0F95EA0C0F00F06F8081EA030454
:102EF00023EA4C134EEAD47E21EA4C1141F48011AE
:102F000043F48013AE44A1FB024CA0FB0365AEF179
:102F10007F7E361955EB0C05A1FB034C4CF10003E9
:102F2000A0FB021C16EB0C06654153F1000309429D
:102F300018BF46F0010613F4007F0BD14FEA0331AE
:102F40004FEA0530340341EA155140EA16506FF05C
:102F500003020AE04FEAC3214FEAC520F40241EA26
:102F6000555140EA56506FF0020202EB2E4201EB3F
:102F7000025585EACE710AD05FEA440C18BF24F0EE
:102F8000004450F1000041F1000120EAD47040F209
:102F9000FE7C624500D270BDA84214BF4FF0804451
:102FA0004FF04044002E08BF0024BEF1806FA8BF40
:102FB000A1F1C041BDE8704080F282804FF0000076
:102FC00001F1C04101F0004170479EEA0C0F0CEA8C
:102FD000131518BF95EA0C0F06D04FF0000081EAD8
:102FE000030E0EF0004170BD00F01CF88900013E98
:102FF00000F007B800F009B84FEA430C5FEA5C5CE8
:1030000008D081EA030100F05BB84FEA410C5FEAA7
:103010005C5CF6D14FF00000014970470000FF07EB
:103020000000F87F0EF1020E2EF0030E5EF8046B26
:10303000364205D4012A43EB030515F5001F12D8CB
:10304000012841EB010C1CF5001F0CD80ED14FEAF2
:10305000D17C15F5001F0CEB4C0C0CF1020C08BFD9
:103060004CEBD37C04E04FF0080C01E04FEAD37C3A
:103070000CEB4C0526FA05F606F00706B6F1040C33
:1030800006D20EEB860CBDE870404CF0010C604798
:10309000DFE80CF0090B02024FF000414FF0000096
:1030A000A1F5002170BD19461046012851EB01041D
:1030B00018BFD4F5001484BF002001F0004170BD9A
:1030C0000808A0F500114FEA310170474FF0407039
:1030D000E1EE100A7047FF2141EAD050C005704769
:1030E0000006101600061016000000000000000088
:1030F000010203040607080900000000010203049E
:103100002031000800000020A4000000C4010008D5
:10311000C4310008A400002034130000E0010008BE
:10312000000000000100000010000000000000008E
:103130000024F40000000000000000000000000077
:10314000000000000000000000000000000000007F
:10315000000000000000000000000000000000006F
:10316000000000000000000000000000000000005F
:10317000000000000000000000000000000000004F
:1031800000002041CDCCCC3D00000000CDCC4C3E19
:10319000000000000000803F000000000000000070
:1031A000000000000000000000000000000000001F
:1031B000000000000000000000000000000000000F
:0431C000000000000B
:040000050800018965
:00000001FF
