:020000040800F2
:10000000E8520020E90200087F1F0008ED1D0008EB
:100010007D1F000843050008752600080000000049
:10002000000000000000000000000000290200089D
:10003000A506000800000000850200081123000842
:100040000303000803030008030300080303000878
:100050000303000803030008030300080303000868
:100060000303000803030008030300080303000858
:100070001D0600080303000803030008030300082B
:100080000303000803030008030300080303000838
:10009000B905000803030008030300080303000870
:1000A0000303000803030008030300080303000818
:1000B0000303000803030008030300080303000808
:1000C00003030008030300080303000803030008F8
:1000D000030300080303000803030008C125000808
:1000E00003030008030300080303000803030008D8
:1000F00003030008030300080303000803030008C8
:1001000003030008030300080303000803030008B7
:100110000303000803030008E123000803030008A9
:100120000303000803030008030300080303000897
:100130000303000803030008030300080303000887
:10014000F105000803030008030300080303000887
:100150000303000803030008030300080303000867
:100160000303000803030008030300080303000857
:100170000303000803030008030300080000000055
:10018000030300080303000800F002F800F03CF845
:100190000AA090E8000C82448344AAF10107DA45E2
:1001A00001D100F031F8AFF2090EBAE80F0013F0F8
:1001B000010F18BFFB1A43F001031847FC3700007A
:1001C0001C380000103A24BF78C878C1FAD852070A
:1001D00024BF30C830C144BF04680C6070470000C1
:1001E0000023002400250026103A28BF78C1FBD840
:1001F000520728BF30C148BF0B6070471FB503F0DE
:1002000098FB1FBD10B510BD00F061F91146FFF756
:10021000F5FF02F0ABFA00F07FF903B4FFF7F2FF4D
:1002200003BC00F087F900002C4B19680868B0E89F
:10023000F04F80F30988BFF36F8F4FF0000080F319
:10024000118870470000000008480068006880F3CB
:1002500008884FF0000080F3148862B661B6BFF3DF
:100260004F8FBFF36F8F00DF00BF00BF08ED00E0CE
:10027000DFF80C00016841F470010160704700BFB5
:1002800088ED00E0EFF30980BFF36F8F134B1A681E
:100290001EF0100F08BF20ED108A20E9F04F10600B
:1002A00009B44FF0500080F31188BFF34F8FBFF3B4
:1002B0006F8F02F07DFE4FF0000080F3118809BCC3
:1002C00019680868B0E8F04F1EF0100F08BFB0ECD6
:1002D000108A80F30988BFF36F8F70476400002095
:1002E000EFF3058070470000094880470948004740
:1002F000FEE7FEE7FEE7FEE7FEE7FEE7FEE7FEE7D6
:10030000FEE7FEE704480549054A064B7047000032
:10031000D123000889010008E84C0020E8520020A1
:10032000E84E0020E84E002053EA020C00F06980FD
:100330002DE9F04B4FF00006002B1FBFB3FA83F5F9
:1003400003FA05F424FA05F65E4012BF1643B2FA2A
:1003500082F502FA05F4C5F120051EBF22FA05FC5C
:1003600044EA0C04203556EA044C4FEA144418BF02
:10037000641C4FF000084FF00009904271EB030C31
:1003800039D3002919BFB1FA81F701FA07F6B0FA9B
:1003900080F700FA07F6C7F120071EBF20FA07FC16
:1003A00046EA0C062037B6FBF4FCA7EB0507103F26
:1003B00007F01F0BCBF120060CFA0BFB2CFA06F60C
:1003C00044BFB3460026202FA4BF5E464FF0000B6B
:1003D0005BEA060C08BF4FF0010B19EB0B09ABFBF6
:1003E000027C48EB0608C01B06FB02CC0BFB03CCCF
:1003F00071EB0C01C1E70B46024641464846BDE899
:10040000F08B13B54FF000004FF00001AFF3008008
:10041000BDE81C40704710B5203AC0F00B80B1E831
:100420001850203AA0E81850B1E81850A0E8185029
:10043000BFF4F5AF5FEA027C24BFB1E81850A0E832
:10044000185044BF18C918C0BDE810405FEA827C4C
:1004500024BF51F8043B40F8043B08BF7047D20763
:1004600028BF31F8023B48BF11F8012B28BF20F804
:10047000023B48BF00F8012B70474FF0000200B567
:10048000134694469646203922BFA0E80C50A0E8B7
:100490000C50B1F12001BFF4F7AF090728BFA0E865
:1004A0000C5048BF0CC05DF804EB890028BF40F831
:1004B000042B08BF704748BF20F8022B11F0804F73
:1004C00018BF00F8012B704770477047704775469A
:1004D00000F02CF8AE4605006946534620F00700B0
:1004E000854618B020B5FFF70DFFBDE820404FF05E
:1004F00000064FF000074FF000084FF0000B21F00E
:100500000701AC46ACE8C009ACE8C009ACE8C009DA
:10051000ACE8C0098D46704710B50446AFF30080C3
:100520002046BDE81040FFF778BE00000048704745
:10053000844C002001491820ABBEFEE726000200D3
:100540007047FEE738B50E4C4FF400752560002566
:10055000A560E560082525610A4C050A25706070D4
:10056000080AA070E170100A20716271180AA07167
:10057000E3716B4622460249034800F0A8F838BDF3
:100580001C0600201E0000202003002000B58BB0B8
:1005900000200121CDE90601089100900190029010
:1005A0000390059004906946024800F0FFF80BB0F4
:1005B00000BD000020030020014800F0F2B9000057
:1005C0002003002000B58BB000200121CDE90601F9
:1005D0000891009001900290039005900490694664
:1005E000024800F0E3F80BB000BD00004803002013
:1005F000014800F0D6B900004803002010B50446B9
:1006000000F040FC0221204600F04FF8002803D003
:10061000BDE8104000F047B810BD0000014800F0F0
:1006200065BC0000B403002001681823CAB2103A68
:10063000B2FBF3F2054B6FF30901032A9B5CC36520
:1006400000D9091D816508467047000080390008FF
:1006500010B5014600208B698A6A4FF0C07453B10F
:10066000B3F5005F15D072B1012A0CD0022A0AD06E
:10067000032A09D104E01AB1012A06D0022A03D1C3
:10068000C96AC90100D5012010BDC96AA142FAD0CA
:1006900010BD002AF7D0012AF2D0022AF3D0032A93
:1006A000F3D010BD704772B6FEE790F82020012A03
:1006B00007D0022A05D0416A41F48021416201201D
:1006C0007047006842690A43426100207047F0B5F4
:1006D00090F820500468A468012D05D0022D03D0A5
:1006E000416A41F480215DE014F0406F01D1E500E2
:1006F00055D5C4F30164022C03D9416A41F40001C9
:1007000050E00125A5401D608D684FF4C0739DB178
:10071000CE6835434E6845EAC605066803EB041704
:10072000F5514FF4C275076805EB04150E697E514B
:10073000097D012905D009E00E88CD6845EA4655B6
:10074000EBE701684E5946F480764E511179D57920
:10075000567941EA056195792D0445EA0625294334
:100760004FF4C676056806EB0416A9511178D578C2
:1007700041EA0561957852782D0445EA0222114339
:100780004FF4C475026805EB04155151006803EB82
:100790000411425842F0010242500020F0BD416A6B
:1007A00041F4001141620120F0BD000010B590F845
:1007B0002020012A07D0022A05D0416A41F4802175
:1007C0004162012010BD3B48D0F8002242F00102F6
:1007D000C0F80022D0F8002222F47C52C0F8002297
:1007E000D0F800224B6A42EA0322C0F800220A7DB8
:1007F00002F01F0301229A40D0F81C329343C0F844
:100800001C32CB69B3B9D0F80C329343C0F80C3228
:100810008C894B6864F31F434C6900EBC404C4F833
:1008200040320C890B6864F31F434C6900EBC4042D
:10083000C4F84432CB69012B16D1D0F80C321343E3
:10084000C0F80C320C884B6864F31F434C6900EB12
:10085000C404C4F840320C89CB6864F31F434C696C
:1008600000EBC404C4F844328B69002BD0F8043286
:100870000ED01343C0F804320B69002BD0F81432A9
:1008800008D01343C0F81432096A012904D008E0E3
:100890009343EFE79343F5E7D0F81C121143C0F8F8
:1008A0001C12D0F8001221F00101C0F80012002043
:1008B00010BD000000640040704730B590F8204043
:1008C000012C05D0022C03D0416A41F480215DE067
:1008D0000468002955D02469A40754D04FF4D87473
:1008E000056804EB01142D5915F0040595600568A1
:1008F0002D594ED0ED08556005682C5904F00204BE
:10090000D4604FF4DA74056804EB01142D5905F036
:100910000F05156105682D59C5F307259561056813
:100920002C59240C54614FF4DC72046802EB011260
:10093000A4581C700468A458240A5C700468A45865
:10094000240C9C700468A258120EDA704FF4DE7208
:10095000046802EB0112A4581C710468A458240A0C
:100960005C710468A458240C9C710468A258120E8F
:10097000DA71006881B1016941F020010161002054
:1009800030BDE468A8E7416A41F4001141620120EA
:1009900030BD6D0D1560AFE7C16841F02001C16049
:1009A000EDE72DE9F05F0546006800244669D0F8C0
:1009B00004908768D0F80CB0D0F810A0D0F8188058
:1009C000F10748D0F90714D001218160B80703D599
:1009D000284600F084FA0CE0780702D54FF4006452
:1009E00007E0380702D54FF4805402E0284600F0B3
:1009F00075FAF80516D529684FF480708860B80537
:100A000003D5284600F06DFA0CE0780502D544F4D1
:100A1000005407E0380502D544F4804402E028463B
:100A200000F05EFAF80316D529684FF4803088602C
:100A3000B80303D5284600F056FA0CE0780302D537
:100A400044F4004407E0380302D544F4803402E063
:100A5000284600F047FA300707D55FEACB6004D597
:100A60002968102044F40074C86070074FF008072C
:100A700007D55FEA0B7004D52868C760284600F0E8
:100A800099F9B00706D52868C068800702D02846C3
:100A900000F092F9700607D55FEACA6004D52968AC
:100AA000102044F480640861B00607D55FEA0A703C
:100AB00004D528680761284600F0E0F9F00606D55D
:100AC00028680069800702D0284600F0D8F9B003F2
:100AD00008D55FEAC96005D5296810204860284616
:100AE00000F0CEF9F00307D55FEA097004D5286855
:100AF0004760284600F0F8F9300446D55FEA4970AF
:100B000040D5F00504D55FEAC87001D044F0010477
:100B1000B00504D55FEA887001D544F00204700581
:100B200004D55FEA487001D544F00404300529D5A6
:100B300018F0700F26D008F07000402815D006DCA1
:100B4000102809D020280AD0302816D10AE05028D1
:100B50000ED0602811D10EE044F008040DE044F0FE
:100B600010040AE044F0200407E044F0400404E0EC
:100B700044F0800401E044F480742868816921F025
:100B800070018161296804204860002C05D0686AE2
:100B9000204368622846FFF78FFEBDE8F09F70B5DE
:100BA000040003D094F8200010B104E0012070BDCF
:100BB000204600F081F82068016841F001010160E1
:100BC00000F0C6FB0546052604E000F0C1FB401B13
:100BD0000A2811D820684068C007F6D0206801684C
:100BE00021F00201016000F0B3FB05460BE000F0CC
:100BF000AFFB401B0A2806D9606A40F400306062EF
:100C000084F82060D2E7206840688007EFD4207E17
:100C10000128206801683DD021F080010160607EDC
:100C200001282068016838D021F040010160A07ED1
:100C300001282068016833D021F020010160E07EA6
:100C40000128206801682ED041F010010160207F4A
:100C500001282068016829D021F008010160607F27
:100C600001282068016824D021F004010160D4E942
:100C700002010843D4E90412114308436168491E84
:100C800008432168C86100206062012084F82000C8
:100C9000002070BD41F08001C0E741F04001C5E790
:100CA00041F02001CAE721F01001CFE741F008012F
:100CB000D4E741F00401D9E7F0B587B00446142128
:100CC0006846FFF7DAFB364B3648DFF8D0E01968A4
:100CD000D4F800C0334A0325022609271030002427
:100CE000491CF44522D11960012907D1016841F05E
:100CF00000710160006800F000700590106840F01D
:100D0000080010601068CDE9005600F00800CDE939
:100D1000047069462448CDE9024500F021FA00221A
:100D20000521142000F0B2FB142032E0DFF87CE053
:100D3000F44530D1D0F800C04CF0806CC0F800C051
:100D4000D0F800C001290CF0806CCDF814C01960F7
:100D500007D1016841F000710160006800F0007087
:100D60000590106840F002001060106802AB00F0BF
:100D7000020005906020CDE9000683E8B0006946D6
:100D80000B4800F0EDF900220521402000F07EFB29
:100D9000402000F06DFB07B0F0BD00000064004093
:100DA0000800002030380240000C0240006800407B
:100DB000000402407047000070B5054600682B49EA
:100DC0002B4C8CB0884224D107AB6A4600212846C0
:100DD000FFF773FD0098A0F20120062819D8C0B2D1
:100DE0002070244EC0EBC00006EB800081694A1CD5
:100DF0003229826107A902D801F092FC01E001F0DA
:100E000094FC207807A9C0EBC00006EB800001F03D
:100E10008CFC19492868884225D109AB6A46002113
:100E20002846FFF74AFD0098A0F2012006281AD8AC
:100E3000C0B2104D6070C0EBC000E03505EB800023
:100E400081694A1C3229826109A902D801F068FC33
:100E500001E001F06AFC607809A9C0EBC00005EB75
:100E6000800001F062FC0CB070BD00000064004026
:100E70001C0000205C0400200068004070477047A0
:100E80007047000070B5044690F82000012804D097
:100E9000606A40F40020606218E0022084F82000BC
:100EA0002068016821F00101016000F051FA054657
:100EB0000EE000BF00F04CFA401B0A2808D9606A17
:100EC00040F400306062052084F82000012070BDED
:100ED00020684068C007EDD1606270BD7047704700
:100EE0007047704770477047704700002DE9F8431E
:100EF00004464FF00009CDF8009063484FF41651B6
:100F0000A56D0068B0FBF1F72E6894F85C1008201E
:100F100000FA01F131420FD021680A6852070BD55F
:100F20000A6822F004020A6094F85C108840A86005
:100F3000606D40F00100606594F85C104FF00108AE
:100F400008FA01F0304208D021684969090604D541
:100F5000A860606D40F00200606594F85C100420A9
:100F60008840304208D021680968890704D5A86004
:100F7000606D40F00400606594F85C1010208840BB
:100F8000304218D021680968090714D5A860206884
:100F90000168490304D50068000308D5A16C07E087
:100FA0000168C90503D4016821F008010160216CC2
:100FB00009B12046884794F85C10202088403042D0
:100FC00031D021680968C9062DD5A86094F835008C
:100FD00005282068016806D0490347D5006800034A
:100FE0001DD4616C1CE021F016010160206841698C
:100FF00021F080014161206C08B9A06C20B120680B
:10100000016821F00801016094F85C103F208840DD
:10101000A86084F8358084F83490216D1FE0E16B7E
:1010200009B120468847606D00282BD0606DC0074D
:1010300014D0052084F835002068016821F00101F2
:1010400001600098401C0090B84203D820680068F6
:10105000C007F6D184F8358084F83490E16C00291B
:1010600010D001B02046BDE8F04308470168C9052B
:10107000D5D4016821F01001016084F8358084F82E
:101080003490CCE7BDE8F883180000202DE9F0414A
:10109000044600F05DF906465CB1022084F8350094
:1010A000002584F834502068016821F001010160B6
:1010B0000DE00120BDE8F08100F04AF9801B052811
:1010C00005D920206065032084F83500F2E7206808
:1010D0000068C007F0D12268116820480140D4E9B7
:1010E00001031843D4E903363343184363691843B3
:1010F000A3691843E3691843236A18430843616AE4
:10110000042903D1D4E90B13194308431060206864
:101110004069666A20F0070130460E430127042823
:101120000CD1A06A0643E06A40B12046FFF790FA6E
:1011300020B14020606584F83570BAE720684661C8
:101140002046FFF771FA94F85C203F2191408160BE
:10115000656584F835700020ACE700003F8010F032
:101160002DE9F84FDFF8BCA10022012503264FF03E
:101170000F090AF1040BAAF1040E00BF0B6805FA6F
:1011800002F42340A34270D10F7907F00307012F27
:1011900001D0022F16D187684FEA420806FA08FCF0
:1011A00027EA0C07D1F80CC00CFA08FC4CEA070C33
:1011B000C0F808C04768A7430C79C4F300149440F2
:1011C0003C4344600C79E443A4070AD0C4684FEA66
:1011D000420C06FA0CF7BC438F6807FA0CF727435A
:1011E000C7600C7904F00304022C12D1D40800EB80
:1011F000840CDCF820405707FF0E09FA07F824EAB0
:101200000804D1F8108008FA07F848EA0408CCF876
:10121000208004684FEA420C06FA0CF7BC430F79B1
:1012200007F0030707FA0CF7274307604C6814F42C
:10123000403F70D03C4C276847F4804727602468C3
:1012400022F0030704F480440094384C07EB040CAC
:10125000DCF8084897074FEA177809FA08F7BC4303
:10126000334FB84202D1002724E054E0314FB84256
:1012700001D101271EE0304FB84201D1022719E009
:101280002E4FB84201D1032714E02D4FB84201D1AF
:1012900004270FE02B4FB84201D105270AE02A4F5F
:1012A000B84201D1062705E0284FB84201D10727EF
:1012B00000E0082707FA08F72743CCF80878DAF89F
:1012C00000405746D1F804C09C435FEACC2C00D5BF
:1012D0001C433C60DBF800405F46D1F804C09C43EF
:1012E0005FEA8C2C00D51C433C60DEF8004077465A
:1012F000D1F804C09C435FEA8C3C00D51C433C60A1
:10130000084F083F3C68D1F804C09C435FEACC3CDE
:1013100000D51C433C60521C102AFFF42FAFBDE8DF
:10132000F88F0000083C0140443802400030014082
:10133000000002400004024000080240000C02408D
:10134000001002400014024000180240001C02403D
:1013500001488068704700000C0000200248816846
:1013600002781144816070470C0000200B4810B5D2
:10137000016841F400710160016841F4806101601D
:10138000016841F480710160032000F09FF80F2094
:1013900000F006F800F050F8002010BD003C0240BC
:1013A00030B505461F4887B00024016841F01001A0
:1013B0000160006806A900F01000009001A800F08C
:1013C00031F90498A8B100F04DF940001649174AC8
:1013D000B0FBF1F11648491E026040F2E732C0E965
:1013E0000324C0E90114846100F046FB040003D02B
:1013F00015E000F037F9E9E70D4800F06BFB040059
:101400000DD1362000F034F8102D07D200222946E5
:10141000362000F03BF80748056000E0012407B0E3
:10142000204630BD4038024040420F0000100040CE
:1014300014040020100000200C4882B0016841F420
:1014400080410160006800F4804000900748001F60
:10145000016841F0805101600068002200F0805076
:1014600000900F21901E02B000F010B844380240E6
:10147000002809DB00F01F02012191404009800093
:1014800000F1E020C0F8001170470000F0B40E4BEE
:101490001B680C46C3F30223C3F10705042D00D9D2
:1014A0000425191D072901D2002300E0DB1E0126B7
:1014B00006FA05F1491E214099409E40761E1640CD
:1014C0003143F0BC01F0D7B80CED00E0064900F064
:1014D000070208684FF6FF03184040EA0220034A5B
:1014E00010430860704700000CED00E00000FA05B2
:1014F0002DE9F0470E46050065D0DFF81481D8F8D5
:101500000000F7B200F00700B04207D288F8007080
:10151000D8F8000000F00700B04254D128683D4CD4
:10152000810712D5400703D5206840F4E0502060C1
:101530002878000703D5206840F4604020602068C8
:10154000A96820F0F000084320602878C0072DD05B
:10155000304968680839012812D0022813D00328BE
:1015600011D00968890700292DDA216821F00301CB
:1015700001432160FFF7ECFE814641F2883A0EE01C
:1015800009688903EFE709688901ECE7FFF7E0FEE6
:10159000A0EB0901514502D90320BDE8F08720687E
:1015A000696800F00C00B0EB810FEFD1D8F80010A3
:1015B000404601F00701B14207D90770006800F00A
:1015C0000700B04201D00120E7E72878400705D5A1
:1015D0002068E96820F4E05008432060287800077C
:1015E00006D52068296920F4604040EAC1002060E7
:1015F00000F058F82168084AC1F30311515CC84053
:101600000649086006480068FFF7CAFE0020C4E7E4
:10161000003C0240083802408839000818000020C9
:10162000100000200F2202600C4A136803F003032D
:101630004360136803F0F0038360136803F4E0531E
:10164000C36012684FF4E05303EAD2020261044817
:10165000006800F00700086070470000083802408A
:10166000003C02400448054900680968044AC1F387
:101670008221515CC84070471800002008380240A1
:10168000983900080448054900680968044AC1F30C
:101690004231515CC84070471800002008380240B1
:1016A00098390008154810B5006810F00C0214486D
:1016B00013D01449042A0FD0082A0ED10F4C241F2E
:1016C0002268236802F03F025B0207D52068C0F35E
:1016D0008810A0FB010106E0084610BD2168C1F397
:1016E0008811A1FB00010023FEF71EFE2168C1F353
:1016F0000141491C4900B0FBF1F010BD083802401F
:101700000024F400001BB7002DE9F84F04006ED050
:101710002078DFF84C93C007A9F104054AD009F1FD
:1017200004000168C1F38101012908D00068C0F3F9
:10173000810002280AD1D9F80000400206D52868A5
:10174000800337D560680028E1D033E06068B0F5E9
:10175000803F10D0B0F5A02F286810D020F4803042
:101760002860286820F4802028606068A8B1FFF70E
:10177000EFFD06460DE0286840F48030F4E740F4C1
:1017800080202860F7E700BFFFF7E2FD801B642898
:1017900073D828688003F7D50CE0FFF7D9FD06461B
:1017A00005E000BFFFF7D4FD801B6428F0D828684F
:1017B0008003F7D42078DFF8AC8280074FF0000A6E
:1017C0003ED5A748001D016811F00C0F08D0006835
:1017D000C0F3810002280BD1D9F80000400207D4E1
:1017E0002868800716D5E068012800D112E033E1AF
:1017F000E068B8B10120C8F80000FFF7A9FD06466F
:1018000005E000BFFFF7A4FD801B0228C0D82868B0
:101810008007F7D52868216920F0F80040EAC10068
:1018200028600DE0C8F800A0FFF792FD064604E02E
:10183000FFF78EFD801B02281FD828688007F7D489
:101840002078000722D5864F87486169703771B1CB
:1018500001210160FFF77CFD064604E0FFF778FDFB
:10186000801B022809D838688007F7D50EE0C0F839
:1018700000A0FFF76DFD064605E082E0FFF768FD7A
:10188000801B02287DD838688007F7D4207840076D
:1018900068D5DFF8CCB100270BF13C0BDBF800007A
:1018A000C0000BD4DBF8001041F08051CBF80010E1
:1018B000DBF80000012700F0805000906B4E30688C
:1018C000C00510D4306840F480703060FFF740FDF0
:1018D000009005E0FFF73CFD0099401A022850D81F
:1018E0003068C005F6D55E4EA0686C3601280FD072
:1018F0000528306810D020F001003060306820F0FA
:1019000004003060A068B8B1FFF722FD00900FE03E
:10191000306840F00100F4E740F004003060F7E781
:10192000FFF716FD0099411A41F28830814266D8CE
:1019300030688007F4D50EE0FFF70AFD009007E05D
:10194000FFF706FD0099411A41F28830814256D8CE
:1019500030688007F4D42FB1DBF8001021F08051FB
:10196000CBF80010A069C8B33D49091D0968C1F34F
:10197000810102294AD00228504607D0C8F86000E9
:1019800000E03CE0FFF7E4FC04463BE04746C8F8D3
:101990006000FFF7DDFC064605E000BFFFF7D8FC5E
:1019A000801B02282BD828688001F7D4D4E90701CE
:1019B0000843A16A2E4A490802EB0141626A41EAE2
:1019C0008211084394F82C1040EA0161C9F8001014
:1019D00001203866FFF7BCFC044606E03EE000BF8D
:1019E000FFF7B6FC001B022809D828688001F7D54C
:1019F00034E000BFFFF7ACFC001B022802D9032033
:101A0000BDE8F88F28688001F4D427E00128F7D0DA
:101A1000D9F80000E26900F4800191421CD1226AE9
:101A200000F03F01914217D147F6C071626A014050
:101A3000B1EB821F10D1A26A4FF0FF3300F44031A6
:101A400003EB5202B1EB024F06D194F82C1000F0D8
:101A50007060B0EB016F01D00120D1E70020CFE72B
:101A60000438024000004742800E474200700040A8
:101A70000000FFFF7047704710B5040003D094F8D2
:101A80003D0010B107E0012010BD002084F83C00AB
:101A9000204600F01EF8022084F83D00211D206839
:101AA00000F0A4FC012084F8460084F83E0084F88D
:101AB0003F0084F8400084F8410084F8420084F834
:101AC000430084F8440084F8450084F83D00002079
:101AD00010BD704790F83D10012901D001207047DA
:101AE000022180F83D100168CA6842F00102CA6014
:101AF00000681149884214D0B0F1804F11D00F49CD
:101B000088420ED00E4988420BD00E49884208D038
:101B10000D49884205D00D49884202D00C498842BF
:101B200004D1816801F00701062903D0016841F062
:101B300001010160002070470000014000040040E6
:101B400000080040000C004000040140004001403B
:101B500000180040704770B50446006801694FF0F6
:101B60000005C943890715D4C168C943890711D441
:101B7000E91E0161012020772068806980072046E6
:101B800002D0FFF7E7FF04E000F098F8204600F0ED
:101B900096F8257720680169C943490717D4C168B9
:101BA000C943490713D46FF0040101610220207773
:101BB0002068806910F4407F204602D0FFF7CAFFFA
:101BC00004E000F07BF8204600F079F825772068E3
:101BD0000169C943090716D4C168C943090712D46A
:101BE0006FF008010161042020772068C069800738
:101BF000204602D0FFF7AEFF04E000F05FF8204679
:101C000000F05DF8257720680169C943C90617D43B
:101C1000C168C943C90613D46FF0100101610820DF
:101C200020772068C06910F4407F204602D0FFF77B
:101C300091FF04E000F042F8204600F040F82577DC
:101C400020680169C943C90708D1C168C943C907E8
:101C500004D1891E0161204600F032F82068016934
:101C6000C943090609D4C168C943090605D46FF000
:101C7000800101612046FFF7FDFE20680169C9432C
:101C8000490609D4C168C943490605D46FF040012B
:101C90000161204600F01EF820680169C9438906E9
:101CA0000BD4C168C943890607D46FF020010161D4
:101CB0002046BDE87040FFF7DEBE70BD704770473C
:101CC00000680349884201D1FFF748BB7047000014
:101CD00000100040704770B5040004D094F83D0037
:101CE000002510B106E0012070BD84F83C5020466C
:101CF00000F022F8242084F83D002068C16821F417
:101D00000051C160204600F0D5FB2068016921F434
:101D1000904101612068416921F02A0141612068F8
:101D2000C16841F40051C1602564202084F83D0061
:101D300084F83E00002070BD70B586B006461421C0
:101D40006846FEF79AFB24493068884242D123480E
:101D50000025016841F480210160006800F48020C2
:101D600005901E481038016841F0040101600068C8
:101D7000694600F0040005904FF440600090022096
:101D8000CDE9010503200390072004901448FFF7D4
:101D9000E7F9154C134820604FF00060C4E90105D5
:101DA0004014C4E9035065614FF44030A561C4E9B3
:101DB000075020466562FFF769F908B1FEF773FC2A
:101DC000B463002205212720A663FFF75FFB2720CD
:101DD000FFF74EFB06B070BD00480040403802409F
:101DE0000008024028600240B4030020FEE7000023
:101DF0000F4810B50D4901600321416000214FF4E7
:101E0000C0228160C0E903124FF4A0024261017652
:101E100041768176C17601774177FEF7C0FE0028D2
:101E200003D0BDE81040FEF73EBC10BD006400408A
:101E3000200300200F4810B50D49016003214160C7
:101E400000214FF4C0228160C0E903124FF4A002C8
:101E50004261017641768176C17601774177FEF75E
:101E60009EFE002803D0BDE81040FEF71CBC10BD4C
:101E70000068004048030020094808B5016841F4A3
:101E8000001101600068002200F40010009005219C
:101E90000C20FFF7FBFABDE808400C20FFF7E8BA7A
:101EA0003038024010B58EB01C220B496846FEF750
:101EB000B2FA0021684600F08FFC084C06491C224B
:101EC00020601C3107A8FEF7A6FA002107A800F041
:101ED00083FC60600EB010BD48390008000000208F
:101EE000154808B5016841F002010160016801F080
:101EF00002010091016841F001010160016801F0F7
:101F000001010091016841F008010160016801F0E0
:101F100008010091016841F004010160016801F0CD
:101F200004010091016841F080010160006800F047
:101F30008000009008BD0000303802400D4810B508
:101F40000B4901600C49416000214FF480628160BF
:101F5000C0E903120422C0E90521C161FFF7BBFEFD
:101F6000002803D0BDE81040FEF79DBB10BD000067
:101F70000048004070030020A0860100FEE7FEE755
:101F8000A0B1D0ED101AC0ED111A90ED0F1A80ED2E
:101F9000101AC0ED060A80ED070A30EEC00A80ED87
:101FA0000F0A017829B101293BD078E09FED3D0A65
:101FB0007047D0ED010A60EE801AC0ED091AD0ED2D
:101FC0000A0A90ED022A42EE000A30EE410AC0ED04
:101FD0000A0A90ED0D2A80ED0E2A90ED0C2A80ED74
:101FE0000D2A80ED0C0A90ED031A21EE001A80ED07
:101FF0000B1A90ED050AF4EEC00AF1EE10FA09DCB6
:10200000B1EE400AF4EEC00AF1EE10FA02D390ED00
:102010000A0A01E080ED0A0A31EE800A30EE010A78
:102020002BE070EE410A90ED012A20EE822A80ED2D
:10203000092AD0ED020A60EE800AC0ED0A0AD0ED4E
:102040000D2A72EE200AC0ED0E2AD0ED0C2AC0ED4A
:102050000D2AF0EE002A01EE620A30EE210A80ED30
:102060000C0A90ED031A21EE000A80ED0B0A30EE07
:10207000800AD0ED080A30EE200A80ED080AD0ED83
:10208000040AB4EEE00AF1EE10FA06DCF1EE600AA2
:10209000B4EEE00AF1EE10FA01D2C0ED080A90EDBC
:1020A000080A7047000000002DE9F047444E002464
:1020B0002DED068B06F5107706F5906906F5D868C4
:1020C0009FED3C9ADFED3C9A9FED3CAA9FED3D8A47
:1020D000DFED3D8A04EBC40506EBC500F0EE480ACF
:1020E000B0EE680A394A002100F076F8374A07EB6B
:1020F000C500F0EE490AB0EE680A0C32002100F08B
:102100006BF809EBC500F0EE480AB0EE690A2F4AF9
:10211000002100F061F82D4A08EBC500F0EE4A0AF4
:10212000B0EE680A0C32002100F056F8641C042C52
:10213000D0DBB0EE489AF0EE689AB2469FED248A62
:10214000DFED248A04244E46204A04EBC4050AEB42
:10215000C500F0EE490AB0EE690A183A002100F015
:102160003BF81A4A07EBC500F0EE480AB0EE680AE1
:102170000C3A002100F030F8144A06EBC500F0EEEE
:10218000490AB0EE690A183A002100F025F80F4A12
:1021900008EBC500F0EE480AB0EE680A0C3A0021E0
:1021A00000F01AF8641C082CCEDBBDEC068BBDE8F1
:1021B000F087000000803B4500A00C460000FA4478
:1021C000340600200080BB4500401C464000002033
:1021D000000096430000C843002828D0002A26D0DB
:1021E000017092ED001A80ED011A92ED011A80ED56
:1021F000021A92ED021A80ED031A80ED040A9FED97
:102200000C0AC0ED050A80ED0E0A80ED0D0A80ED86
:102210000C0A80ED080A80ED0B0A80ED0A0A80EDB9
:10222000090A80ED110A80ED100A80ED0F0A70474F
:10223000000000000B4AC0EBC00110B502EB8101A9
:10224000F0EE400A11ED040A00EBC0010648B8EEBA
:10225000C00A00EBC104A4F14800FFF791FE14EDA1
:102260000A0A10BD5C040020740800200C4AC0EB70
:10227000C00110B502EB8101F0EE400A31F91A1CE1
:1022800000EE101A00EBC0010648B8EEC00A00EBE1
:10229000C104A4F14800FFF773FE14ED0A0A10BD53
:1022A0005C0400203406002030B5144B1C686569BE
:1022B00045F0400565611B68DC6844F01004DC6093
:1022C0000F4B1C68256825F0010525601C682568F2
:1022D000ED07F7D11D680B4CAC601C68E060186816
:1022E0000161186842601868016841F4802101604A
:1022F0001868016841F00101016030BD70030020E1
:10230000B403002004480040012000F059FAFBE724
:1023100010B5502080F31188BFF34F8FBFF36F8F3C
:1023200000F046FF18B104494FF0805008600020CB
:1023300080F3118810BD000004ED00E030B593B0CB
:1023400030216846FEF799F814210CA8FEF795F89D
:102350001D480025016841F080510160006800F0CF
:10236000805011901948016841F480410160006873
:10237000022400F48040119001200090000401909C
:102380008001CDE9064006200890A820CDE9090487
:1023900004200B906846FFF7B7F908B172B6FEE764
:1023A0000CA90F2081E831004FF4A0500F904FF49A
:1023B0008050109005210CA8FFF79AF8002801D052
:1023C00072B6FEE713B030BD4038024000700040E6
:1023D0000248016841F470010160704788ED00E037
:1023E0000148FFF7B8BB000014040020F0B50268F4
:1023F000254C264D264E274F274B4FF0804CA042B0
:1024000009D0604507D0A84205D0B04203D0B842F9
:1024100001D0984204D122F0700E4A6842EA0E02BE
:10242000A0421BD0604519D0A84217D0B04215D0A9
:10243000B84213D0984211D0184DA8420ED0184D72
:10244000A8420BD0174DA84208D0174DA84205D07E
:10245000164DA84202D0164DA84203D122F4407571
:10246000CA682A434D6922F080022A4302608A68C2
:10247000C2620A688262A04201D0984201D1096911
:10248000016301214161F0BD0000014000040040F2
:1024900000080040000C00400004014000400140E2
:1024A000004401400048014000180040001C00406A
:1024B0000020004070B5044600680169E26821F41C
:1024C0004051114301612169A068E26908436169D3
:1024D000114308432168CA6849F20C639A430243D6
:1024E000CA6020684169A26921F4407111434161C9
:1024F00031492068884202D03049884202D1FFF732
:10250000C1F801E0FFF7AEF8E26900231921642564
:102510003226B2F5004F626828D0A0FB0101930F6C
:102520009200FDF701FF0146B0FBF5F06FF01802D5
:10253000504301EB800006EB0010B0FBF5F000F01B
:10254000F002B1FBF5F002EB0012B1FBF5F06FF019
:102550001803584301EB800006EB0010B0FBF5F0C8
:1025600000F00F0021681044886070BDA0FB0101DD
:1025700092185B41FDF7D8FE0146B0FBF5F0020171
:10258000B1FBF5F06FF01803584301EB800006EB48
:10259000C000B0FBF5F000F0F80002EB4002B1FB28
:1025A000F5F0584301EB800006EBC000B0FBF5F0FE
:1025B00000F00700D6E700000010014000140140C1
:1025C000264818B400680168890604D50168406887
:1025D000009018BC704722490968C906F9D50168FE
:1025E0004068204A0090106801684FF024030C03F3
:1025F0001D49046824F00104046016D4106844687E
:10260000C4F12404A4B20C8043601068016841F452
:10261000002101601068016841F001010160122C85
:10262000D7D1124901F1160015E014686068C0F1B5
:10263000240080B2088063600D498B6A23F4002374
:102640008B6211680A6842F001020A601228C0D148
:10265000064901F13A0018BC00F024BB70030020C9
:1026600000480040B403002058000020340F002030
:1026700000600240FEE70907090E002804DB00F1B4
:10268000E02080F80014704700F00F0000F1E02017
:1026900080F8141D704700002DED048BFFF704FD3A
:1026A000194D9FED1A8B9FED1B9B1C4CB5F900003B
:1026B00000EE100AB8EEC00AB0EEC00A10EE100A22
:1026C00001F0C6F853EC182B00F06CFE53EC192BFC
:1026D00000F0C0FF00F034FE00EE100A012084ED8F
:1026E000000A00F0A3F884ED010ABDEEC00A002341
:1026F0001A4610EE100A194600B2FDF723FF022019
:1027000000F0F2FBD2E70000340F002000000000D0
:1027100000A0844000000080542814415C00002088
:10272000098849BA01808182704710B5B0F900303C
:1027300003810A8852BA02804C88D31A64BA448052
:102740008C88B3F5805F64BA84808979817101696E
:1027500001DD491E03E013F5805F01DA491C0161C8
:1027600002EB4131828A891AC16010BDFEF7FEFD7D
:10277000FFF7E4FDFFF7B4FBFFF77EFBFFF738FB45
:10278000FFF758FBFFF7DAFBFDF700FFFDF71AFF35
:102790000648FDF733FF0648FDF730FF00F07AFAF0
:1027A000FFF780FB00F013F8FEE700002003002095
:1027B0004803002001460020842900D0C81C70472F
:1027C00010B500B9012000F08FFB002010BD10B53E
:1027D00000F0B0FB002010BD7FB50D4604464169F6
:1027E000B0F9080081B1A16971B1FFF7E3FFD4E945
:1027F00005128DE80700D4E900102B46226900F08D
:10280000ACFC039004B070BDFFF7D4FF03A9CDE981
:102810000001208A2B4682B2D4E9001000F070FC3F
:10282000012801D00020EDE70398EBE710B504463E
:10283000FFF700FD2046BDE81040FFF717BD000080
:102840002DE9F041184C0F460546E6682068001D4A
:1028500000F082FA38B9206890F82C1001208840E6
:10286000216981432161681C07D137B12168BDE826
:10287000F0410E48091D00F0B3BA20683544B54256
:102880004560216805D2A06BBDE8F041091D00F04C
:102890008FBA606B091D00F08BFAA06A854200D2E6
:1028A000A562BDE8F08100006400002070100020E7
:1028B0002DE9F041054600F09FFA2E4CA068401C1F
:1028C000A06020682C4F10B1606940B32DE02560F6
:1028D000A068012829D1002606EB860007EB8000BE
:1028E00000F058FA761C072EF6D323488C3000F0FF
:1028F00051FA2148A03000F04DFA1F48B43000F0E2
:1029000049FA1D48C83000F045FA1B48DC3000F099
:1029100041FA19488C3060631430A06305E02068E8
:10292000E96AC06A884200D82560606A401C60621B
:10293000E96A0120226988401043206101EB81008F
:1029400007EB8000291D00F04BFA00F075FA606972
:1029500000280CD02068E96AC06A884207D207497B
:102960004FF080500860BFF34F8FBFF36F8FBDE80B
:10297000F081000064000020940F002004ED00E0CE
:1029800010B5044690F8510058B101280CD0022827
:102990000FD0502080F31188BFF34F8FBFF36F8F9C
:1029A000FEE7206B00F05CFA2046BDE8104000F026
:1029B00057BA10BD10484FF47051420706D0C01DE1
:1029C0000D4920F00700411AC1F570510B4A002350
:1029D0000144C2E900030839183A21F007011160E7
:1029E0004B600B600B1AC0E9001393604FF000407E
:1029F000536050617047000084100020B800002030
:102A0000144E154CA6F1C8074FF08058DFF84C90D3
:102A100012E000BF00F0F0F9F068C568281D00F072
:102A20009BF9A068401EA0606068401E606000F0D6
:102A300003FA2846FFF7A4FF60680028EAD1386847
:102A40000128F9D9C9F80080BFF34F8FBFF36F8F0A
:102A5000F2E700005C1000206400002004ED00E0BC
:102A60002DE9F0479A46DDE9098481466FF00303BA
:102A7000206B03EB82021044089E20F007077807C2
:102A800007D0502080F31188BFF34F8FBFF36F8FB3
:102A9000FEE7002561B1002023180A5C83F834208A
:102AA0000A5C12B1401C1028F6D384F8435001E0B0
:102AB00084F83450072E00D30626E662C4E9116577
:102AC000201D00F072F904F1180000F06EF9246185
:102AD000C6F107006462A061E56484F85050524674
:102AE0004946384600F0C0F82060B8F1000F01D028
:102AF000C8F80040BDE8F08730B5114900E0114644
:102B00000A688242FBD34B685C18844203D1406858
:102B100018444860084643681C18944209D1084C80
:102B2000183C2468A24209D052681A4442600A68DC
:102B300012680260814200D0086030BD0460F9E78D
:102B4000B80000200648416B096829B1416BC9688B
:102B5000C9684968816270474FF0FF31FAE70000A9
:102B60006400002008484068401C4FF0500080F38B
:102B7000118804D0BFF34F8FBFF36F8FFEE7BFF311
:102B80004F8FBFF36F8FFEE7C00000202DE9F041AB
:102B90000546002700F004FA324E306808B9FFF706
:102BA00009FF706905424ED1C5B3083568070ED0DC
:102BB00005F00700C0F108000544680707D0502061
:102BC00080F31188BFF34F8FBFF36F8FFEE72DB3F4
:102BD0007068854237D82348183001460C6801E0F8
:102BE00020460C466168A94202D221680029F7D12B
:102BF00031688C4227D00768216801606068083717
:102C0000411B10290FD96019420708D0502080F3CA
:102C10001188BFF34F8FBFF36F8FFEE713E0416062
:102C20006560FFF769FF61687068401A7060B2689C
:102C3000904200D2B060706901430020C4E90001F5
:102C4000F068401CF06000F019FB780707D05020B6
:102C500080F31188BFF34F8FBFF36F8FFEE73846C5
:102C6000BDE8F081A000002010B5031F4FF0807474
:102C70001C601B1F21F001011960191F044B0B6020
:102C800014390A60091F6FF0020244380A6010BD4F
:102C9000652B000802492422A1F12400FFF704BBA0
:102CA0006E0F0020F0B5002855D0002953D00278CF
:102CB000437842EA0322C2F30A020A804378847806
:102CC000DB0843EA4413C3F30A034B808478C578D6
:102CD000A40944EA8504057944EA8524C4F30A0476
:102CE0008C80057946796D0845EAC615C5F30A0555
:102CF000CD804679C6F301168E724679B609CE723A
:102D00008679C77946EA07268E81067A477A46EAA7
:102D10000726CE81867AC77A46EA07260E82067B88
:102D20008E74467BCE74867BC77B46EA07268E82EE
:102D3000067C407CA2F580620A80A3F580634B800C
:102D4000A4F5806446EA00208C80A5F58065CD80DE
:102D5000A0F580600881F0BDD0E9013201699A6078
:102D6000D0E901235A604A68824201D182684A60F0
:102D7000002202610868401E086008687047000071
:102D8000034B036003F1540008608020106070471B
:102D9000CC00002000F108014FF0FF32C0E9011221
:102DA000C16001610021016070470021016170472D
:102DB00030B50B685A1C02D000F1080202E002692B
:102DC00004E02246546825689D42FAD953684B6056
:102DD00099608A60516008610168491C016030BDDA
:102DE00042684A6093688B6093685960916008619B
:102DF0000168491C01607047502080F31188BFF3BF
:102E00004F8FBFF36F8F0A494868401C4860012804
:102E10000CD10848006810F0FF0F07D0502080F355
:102E20001188BFF34F8FBFF36F8FFEE7704700002D
:102E3000C000002004ED00E00849486828B1401EA9
:102E4000486001D180F311887047502080F31188C9
:102E5000BFF34F8FBFF36F8FFEE70000C00000206D
:102E600070B500282AD0164DA0F108046068696981
:102E7000084207D1502080F31188BFF34F8FBFF372
:102E80006F8FFEE722683AB1502080F31188BFF3BC
:102E90004F8FBFF36F8FFEE78843606000F080F8CC
:102EA00060686968084468602046FFF725FE286965
:102EB000401C2861BDE8704000F0E0B970BD000022
:102EC000A00000204FF0E020002101618161054950
:102ED0004FF47A720968B1FBF2F1491E4161072192
:102EE000016170471800002010B5020014D00F488F
:102EF000006B38B1502080F31188BFF34F8FBFF3C0
:102F00006F8FFEE700F04CF800211046FFF798FCA9
:102F100000F0B4F9002807D105494FF0805008604F
:102F2000BFF34F8FBFF36F8F10BD00006400002010
:102F300004ED00E010B586B00024039405AA04A9AE
:102F400003A80494FFF71CFFDDE903010094CDE919
:102F5000011000230EA11048059A00F0FEF80F4959
:102F60000028C86211D0502080F31188BFF34F8F22
:102F7000BFF36F8F4FF0FF30886201204861CC6053
:102F800006B0BDE8104000F041B806B010BD00002A
:102F900049444C4500000000012A0008640000205C
:102FA0000248016B491C0163704700006400002067
:102FB0001448016B11B10121C16170470021C16149
:102FC0000169B1FA81F1C1F11F0101EB81020E49E2
:102FD00051F822306BB101EB820101F108034A681C
:102FE00052684A609A4201D152684A60D1680160D1
:102FF0007047502080F31188BFF34F8FBFF36F8F5E
:10300000FEE7000064000020940F00201CB5374844
:103010000168374A914207D1502080F31188BFF3ED
:103020004F8FBFF36F8FFEE700683149491E88421A
:1030300007D1502080F31188BFF34F8FBFF36F8FFC
:10304000FEE72C4908780190FF20087008788DF879
:1030500000009DF800009DF8002000F0F000904274
:1030600007D0502080F31188BFF34F8FBFF36F8FCD
:10307000FEE79DF80000204C00F050002070072073
:10308000A06005E09DF8002052008DF80020401E51
:103090009DF800201206F5D4A060032807D0502028
:1030A00080F31188BFF34F8FBFF36F8FFEE74FF4AC
:1030B0004070A060019808700C482030016841F40D
:1030C00070010160016841F070410160FFF7FAFE94
:1030D00000206060FDF7CCF80848016841F04041ED
:1030E0000160FDF7B1F800201CBD000000ED00E01C
:1030F00071C20F4100E400E0C000002034EF00E0A6
:103100002DE9FF5F8346DDE90E87994616468A461C
:103110009000FFF73BFD05001CD05420FFF736FD63
:10312000040014D00020256384F85100CDE902404A
:10313000CDE900874B46324651465846FFF790FC92
:103140002046FFF7B5FB012004B0BDE8F09F2846FC
:10315000FFF786FE4FF0FF30F6E7F0B585B0DDE90A
:103160000B640A9DA6B1DCB15427009726630226A2
:1031700084F85160002604AFCDE90246CDE900573E
:10318000FFF76EFC2046FFF793FB049805B0F0BDF7
:10319000502080F31188BFF34F8FBFF36F8FFEE78E
:1031A000502080F31188BFF34F8FBFF36F8FFEE77E
:1031B0002DE9F0412F4C0026206B28B1A069401C5E
:1031C000A0613046BDE8F081E5686D1CE56013D173
:1031D000606B006838B1502080F31188BFF34F8FC7
:1031E000BFF36F8FFEE7606BA16B6163A063206A22
:1031F000401C2062FFF7A6FCA06ADFF87C808542B5
:1032000009D3606B0068A0B1606BC068C76878685C
:10321000854211D2A0622068C06A00EB800158F894
:103220002100012800D90126E0690028C9D0012623
:10323000C7E74FF0FF30EDE7381DFFF78DFDB86AA7
:1032400018B107F11800FFF787FDF96A012022691C
:1032500088401043206101EB810108EB8100391D9A
:10326000FFF7BEFDF86A2168C96A8842C9D3012602
:10327000C7E7000064000020940F00202DE9F0470C
:103280002C4D00242746286B38B1FFF7B5FD286B7D
:10329000401E2863286B40B146E0502080F311881F
:1032A000BFF34F8FBFF36F8FFEE7A968224E012057
:1032B000D1B3A6F1B40980463068E8B1F068C468BB
:1032C00004F11800FFF748FD201DFFF745FDE06AF7
:1032D0002A6908FA00F11143296100EB800109EB2A
:1032E0008100211DFFF77CFDE06A2968C96A8842D8
:1032F000E2D3C5F81C80DFE70CB1FFF723FCAC6913
:1033000044B14646FFF754FF00B1EE61641EF9D1A7
:103310000020A861E86938B108490127380708602A
:10332000BFF34F8FBFF36F8FFFF786FD3846BDE8C1
:10333000F0870000640000204810002004ED00E049
:1033400021F00042A2F16052B2F5801F01F000436B
:1033500028BFD2F17F6C0BD95FEA001C43EAC2029E
:1033600042EB507018BF704728BF20F00100704733
:10337000B2F5801FBCBF184670474FEA410C1CF5E0
:10338000001F02D2084600F0D9BA70B500F00CFA5E
:1033900000000089FFF7F6BF4FF00040A0F5800065
:1033A000704700002DE9C04130B4DFF8A0C23CEA0C
:1033B000111418BF3CEA131400F0EC8081EA0305F5
:1033C0001CEA111444EAD57418BF1CEA131500F066
:1033D000C780A4EB05044FF0004545EAC12145EA4A
:1033E000C32341EA505143EA525304F17F74994296
:1033F00004F500344FEAC0204FEAC22208BF9042D1
:1034000000F09C804FEA13650FF24016765D4FEA9C
:10341000134506FB05F7C7F1807706FB07F74FEA70
:10342000D737A7FB03687642C8F58038A7FB06CEDE
:1034300038BFA8F1010807FB08E64FF0000EA6FB15
:10344000028CE6FB03CEDCF1000CCEF1004E38BF5F
:10345000AEF1010EA6FB0C584FF000074FF000052F
:10346000E6FB0E87A1FB08C6A0FB07CE16EB0E06F7
:1034700045F10005E1FB076515F1E04E7EBFA4F5BF
:1034800080345FEA46066D4116F1800745F100057C
:103490004FEA17274FEA066647EA0567A6F1DE46B8
:1034A000B6F1805F4FEA15251FD9384624F0010C8C
:1034B00005EBC471BCF1FE6F01EB0C1102D8F0BC3E
:1034C000BDE8008124425CBF01F5801E9EEAC47FF6
:1034D00002D4F0BCBDE80081244238D4F0BCA1F194
:1034E000C041BDE8004100F0ADB94FEAD22242EA46
:1034F00043524FEAD323A7FB02864FEAD02040EA8B
:10350000415007FB03661EEA0E0F4FEAD12105FB6F
:10351000026658BFA6EB0056B6EB00564FEA520EB5
:103520004EEAC37E18EB0E0E56EB530EBDD518EBCC
:1035300002085E417F1C55F10005B6E74FF4801587
:103540004FF000074FF000064FF00008ADE7F0BC69
:103550004FF0000001F1C04101F00041BDE80081E1
:1035600011EA0C1F0CEA131500D00CE013EA0C1F33
:1035700000F025804FF00000F0BC81EA030101F06B
:103580000041BDE80081F0BCBDE8004181EA0301D3
:1035900000F058B9F0BCBDE8004170B500F004F986
:1035A000097EFC3E00F007B881EA03014FF00000FD
:1035B00001F00041704781EA030100F043B9F0BC1B
:1035C000BDE800414FF0000021497047FFFDFBF9C5
:1035D000F7F5F4F2F0EEEDEBE9E8E6E4E3E1E0DE46
:1035E000DDDBDAD8D7D5D4D3D1D0CFCDCCCBCAC8B8
:1035F000C7C6C5C4C2C1C0BFBEBDBCBBBAB9B8B7DF
:10360000B6B5B4B3B2B1B0AFAEADACABAAA9A8A8D1
:10361000A7A6A5A4A3A3A2A1A09F9F9E9D9C9C9B9F
:103620009A9999989797969595949393929191904A
:103630008F8F8E8E8D8C8C8B8B8A898988888787DB
:103640008685858484838382828181800000FF0750
:103650000000F87FDFF848C170B51CEA111E1EBFDC
:103660001CEA13159EEA0C0F95EA0C0F00F06F8010
:1036700081EA030423EA4C134EEAD47E21EA4C117A
:1036800041F4801143F48013AE44A1FB024CA0FB33
:103690000365AEF17F7E361955EB0C05A1FB034C9B
:1036A0004CF10003A0FB021C16EB0C06654153F124
:1036B0000003094218BF46F0010613F4007F0BD146
:1036C0004FEA03314FEA0530340341EA155140EA2D
:1036D00016506FF003020AE04FEAC3214FEAC520FB
:1036E000F40241EA555140EA56506FF0020202EBF3
:1036F0002E4201EB025585EACE710AD05FEA440CF6
:1037000018BF24F0004450F1000041F1000120EA0C
:10371000D47040F2FE7C624500D270BDA84214BF56
:103720004FF080444FF04044002E08BF0024BEF10B
:10373000806FA8BFA1F1C041BDE8704080F28280D7
:103740004FF0000001F1C04101F0004170479EEAD6
:103750000C0F0CEA131518BF95EA0C0F06D04FF0AA
:10376000000081EA030E0EF0004170BD00F01CF86D
:103770008900013E00F007B800F009B84FEA430C99
:103780005FEA5C5C08D081EA030100F05BB84FEAB5
:10379000410C5FEA5C5CF6D14FF0000001497047D4
:1037A0000000FF070000F87F0EF1020E2EF0030E5E
:1037B0005EF8046B364205D4012A43EB030515F588
:1037C000001F12D8012841EB010C1CF5001F0CD87A
:1037D0000ED14FEAD17C15F5001F0CEB4C0C0CF10F
:1037E000020C08BF4CEBD37C04E04FF0080C01E066
:1037F0004FEAD37C0CEB4C0526FA05F606F00706DB
:10380000B6F1040C06D20EEB860CBDE870404CF00D
:10381000010C6047DFE80CF0090B02024FF0004199
:103820004FF00000A1F5002170BD19461046012897
:1038300051EB010418BFD4F5001484BF002001F03F
:10384000004170BD0808A0F500114FEA3101704732
:1038500043004FEAD30C4FEA3C0C43401FBF4007E4
:103860000CF1605113F0FE4F70471CF0006F03D154
:1038700000200CF0004170470CF0004343EA507008
:1038800010B540EACC0000F00EF800BF0000009236
:103890004FEA0001FFF7D6BF4FF000414FF00000A4
:1038A000A1F5002170470EF1020E2EF0030E5EF816
:1038B000044B244204D44FEA4102B2F17F4F11D8A5
:1038C0004FEA4003B3F17F4F0CD80ED14FEAD07CC2
:1038D000B2F17F4F0CEB4C0C0CF1020C08BF4CEB1F
:1038E000D17C04E04FF0080C01E04FEAD17C0CEBF6
:1038F0004C0324FA03F404F00704B4F1040C06D2D8
:103900000EEB840CBDE810404CF0010C6047DFE882
:103910000CF0070802024FF00040A0F5800010BD37
:103920000846420018BFD2F1807288BF00F0004004
:1039300010BD4FF04070E1EE100A7047FF2141EAE0
:10394000D050C00570470000AC39000809230008BA
:1039500000000000000000008000000000000000E7
:1039600000000000A03900089926000800000000AF
:1039700000000000800000000000000000000000C7
:1039800000061016000610160000000000000000DF
:1039900001020304060708090000000001020304F5
:1039A000434C41575F5445535400000064656661C1
:1039B000756C745461736B00D839000800000020E6
:1039C000CC000000C4010008A43A0008CC0000208C
:1039D0001C520000E0010008000000000000000090
:1039E00000000000010000001000000000000000C6
:1039F0000024F400000000000000000000000000AF
:103A000000002041CDCCCC3D00000000CDCC4C3E90
:103A1000000000000000803FCDCC0441CDCCCC3D67
:103A20000000803F713D8A3E5839B43CCDCCCC3D3E
:103A30000000000000000000000000000000000086
:103A40000000000000000000000000000000000076
:103A50000000000000000000000000000000000066
:103A60000000000000000000000000000000000056
:103A70000000000000000000000000000000000046
:103A80000000000000000000000000000000000036
:103A9000000000000000000000000000AAAAAAAA7E
:043AA0000000000022
:040000050800018965
:00000001FF
