:020000040800F2
:1000000030570020290300089F2E0008252B0008E8
:100010009D2E00089F050008F1390008000000002F
:10002000000000000000000000000000690200085D
:10003000550C000800000000C502000875330008D8
:100040004303000843030008430300084303000878
:100050004303000843030008430300084303000868
:100060004303000843030008430300084303000858
:10007000D50A0008430300084303000843030008AF
:100080004303000843030008430300084303000838
:100090001506000843030008430300084303000853
:1000A0004303000843030008430300084303000818
:1000B0004303000843030008430300084303000808
:1000C00043030008430300084303000843030008F8
:1000D00043030008253900084303000831390008AC
:1000E00043030008430300084303000843030008D8
:1000F00043030008430300084303000843030008C8
:1001000043030008430300084303000843030008B7
:100110004303000843030008453400084303000874
:1001200043030008E10A0008ED0A00084303000841
:100130004303000843030008430300084303000887
:100140004D0600084303000843030008430300086A
:1001500043030008F90A0008050B0008E539000808
:100160004303000843030008430300084303000857
:100170004303000843030008430300080000000095
:10018000430300084303000800F002F800F05CF8A5
:100190000AA090E8000C82448344AAF10107DA45E2
:1001A00001D100F051F8AFF2090EBAE80F0013F0D8
:1001B000010F18BFFB1A43F0010318472C5C000025
:1001C0004C5C00000A444FF0000C10F8013B13F0A7
:1001D000070408BF10F8014B1D1108BF10F8015BA0
:1001E000641E05D010F8016B641E01F8016BF9D193
:1001F00013F0080F1EBF10F8014BAD1C0C1B09D1EA
:100200006D1E58BF01F801CBFAD505E014F8016B5B
:1002100001F8016B6D1EF9D59142D6D370470000ED
:100220000023002400250026103A28BF78C1FBD8FF
:10023000520728BF30C148BF0B6070471FB505F09B
:100240002EFC1FBD10B510BD00F074F91146FFF76C
:10025000F5FF04F059F800F092F903B4FFF7F2FF4C
:1002600003BC00F095F900002C4B19680868B0E851
:10027000F04F80F30988BFF36F8F4FF0000080F3D9
:10028000118870470000000008480068006880F38B
:1002900008884FF0000080F3148862B661B6BFF39F
:1002A0004F8FBFF36F8F00DF00BF00BF08ED00E08E
:1002B000DFF80C00016841F470010160704700BF75
:1002C00088ED00E0EFF30980BFF36F8F134B1A68DE
:1002D0001EF0100F08BF20ED108A20E9F04F1060CB
:1002E00009B44FF0500080F31188BFF34F8FBFF374
:1002F0006F8F04F03DFC4FF0000080F3118809BCC3
:1003000019680868B0E8F04F1EF0100F08BFB0EC95
:10031000108A80F30988BFF36F8F70472000002098
:10032000EFF30580704700000948804709480047FF
:10033000FEE7FEE7FEE7FEE7FEE7FEE7FEE7FEE795
:10034000FEE7FEE704480549054A064B70470000F2
:100350003534000889010008305100203057002052
:10036000305300203053002053EA020C00F0698023
:100370002DE9F04B4FF00006002B1FBFB3FA83F5B9
:1003800003FA05F424FA05F65E4012BF1643B2FAEA
:1003900082F502FA05F4C5F120051EBF22FA05FC1C
:1003A00044EA0C04203556EA044C4FEA144418BFC2
:1003B000641C4FF000084FF00009904271EB030CF1
:1003C00039D3002919BFB1FA81F701FA07F6B0FA5B
:1003D00080F700FA07F6C7F120071EBF20FA07FCD6
:1003E00046EA0C062037B6FBF4FCA7EB0507103FE6
:1003F00007F01F0BCBF120060CFA0BFB2CFA06F6CC
:1004000044BFB3460026202FA4BF5E464FF0000B2A
:100410005BEA060C08BF4FF0010B19EB0B09ABFBB5
:10042000027C48EB0608C01B06FB02CC0BFB03CC8E
:1004300071EB0C01C1E70B46024641464846BDE858
:10044000F08B13B54FF000004FF00001AFF30080C8
:10045000BDE81C40704710B5203AC0F00B80B1E8F1
:100460001850203AA0E81850B1E81850A0E81850E9
:10047000BFF4F5AF5FEA027C24BFB1E81850A0E8F2
:10048000185044BF18C918C0BDE810405FEA827C0C
:1004900024BF51F8043B40F8043B08BF7047D20723
:1004A00028BF31F8023B48BF11F8012B28BF20F8C4
:1004B000023B48BF00F8012B70474FF0000200B527
:1004C000134694469646203922BFA0E80C50A0E877
:1004D0000C50B1F12001BFF4F7AF090728BFA0E825
:1004E0000C5048BF0CC05DF804EB890028BF40F8F1
:1004F000042B08BF704748BF20F8022B11F0804F33
:1005000018BF00F8012B704770477047704710B54F
:1005100000F008F8006810BD10B5044600F002F8BD
:10052000046010BD00487047CC5000200048704760
:10053000CC5000207546FFF7F9FFAE46050069462E
:10054000534620F00700854618B020B5FFF7FAFEA5
:10055000BDE820404FF000064FF000074FF00008C4
:100560004FF0000B21F00701AC46ACE8C009ACE845
:10057000C009ACE8C009ACE8C0098D46704710B5A9
:100580000446AFF300802046BDE81040FFF765BE8B
:1005900001491820ABBEFEE7260002007047FEE7C7
:1005A00038B50E4C4FF4007525600025A560E56058
:1005B000082525610A4C050A25706070080AA0709C
:1005C000E170100A20716271180AA071E3716B4624
:1005D00022460249034800F0CDFB38BD7845002093
:1005E0008A0000208403002000B58BB00020012188
:1005F000CDE90601089100900190029003900590CA
:1006000004906946024800F023FC0BB000BD0000D6
:1006100084030020014800F016BD00008403002080
:1006200000B58BB000200121CDE9060108910090B2
:10063000019002900390059004906946024800F0F2
:1006400007FC0BB000BD0000AC030020014800F027
:10065000FABC0000AC03002010B5044600F064FFB3
:100660000221204600F074FB002803D0BDE81040B2
:1006700000F0F1BA10BD000070B5344D95ED0B0AD5
:1006800002F00EFC05F1680484ED000A95ED0B0AFA
:1006900002F006FC84ED010A95ED0B0A02F000FC65
:1006A00084ED020A95ED0B0A02F0FAFB84ED030AD1
:1006B000A4F12006D4ED000A96ED000A012030EEE8
:1006C000200A02F07FFD5835022085ED000A96EDE4
:1006D000010AD4ED010A30EE200A02F073FD85ED27
:1006E000010A96ED020AD4ED020A032030EE200A38
:1006F00002F068FD85ED020A96ED030AD4ED030AC7
:10070000042030EE200A02F05DFD85ED030ABDEE07
:10071000C00A10EE100A95ED020A03B2BDEEC00A3F
:1007200010EE100A95ED010A02B2BDEEC00A10EEFD
:10073000100A95ED000ABDE87040BDEEC00A01B296
:1007400010EE100A00B2FFF72BBF00009C450020FE
:100750002DE9F047CE4D2DED088BB5F9060000EEE2
:10076000100AB5F90400F8EEC00A00EE100AB8EE5F
:10077000C00A03F0D1FCC74F87ED010AD7ED020A8A
:1007800003F020FD87ED030AD7ED010A30EE800A61
:10079000D7ED020A03F040FD87ED040AD7ED020A07
:1007A00097ED031A30EEC11AB0EEC11A87ED051AA3
:1007B000D7ED011A71EEE00AF0EEE00AC7ED060A85
:1007C0009FEDB58AB4EEE01AF1EE10FA05DB87ED85
:1007D000038AF7EE001AC7ED071AB4EEE01AF1EE3D
:1007E00010FA05D287ED018AFFEE000AC7ED070A6D
:1007F000D7ED010A97ED031A70EE810AC7ED020AE0
:100800009FEDA61AC0EE811A71EE800A9FEDA40A30
:1008100020EE800ADFEDA38ADFF88C924FF4FA789D
:1008200020EE280A09F1100489ED000A89ED010A79
:1008300089ED020A89ED030AB5F9040000F1FA0115
:10084000414504D8B5F90610FA3141457ED910FB6F
:1008500000F1E88810FB001004F0D8FD41EC100B0B
:1008600003F072FB9FED919B51EC100B53EC192B95
:1008700004F0E4FD41EC1A0BF86905F09FF853EC25
:100880001A2B04F0DBFD04F047FB2060B5F906608D
:1008900000EE106AF8EEC00A9FED86BA80EE8B0A71
:1008A00010EE100A05F08AF841EC1A0BA88810FB2C
:1008B00000F016FB060004F0A9FD41EC100B03F05C
:1008C00043FB53EC192B51EC100B04F0B7FD53EC28
:1008D0001A2B04F089FF41EC1A0BF86905F06EF849
:1008E00053EC1A2B04F0AAFD04F016FB6060B5F976
:1008F000066000EE106AF8EEC00A80EE8B0A10EE79
:10090000100A05F05BF841EC1A0BA88810FB00F008
:1009100016FB060004F07AFD41EC100B03F014FB0B
:1009200053EC192B51EC100B04F088FD53EC1A2BEF
:1009300004F05AFF41EC1A0BF86905F03FF853EC4C
:100940001A2B04F07BFD04F0E7FA00E041E0A06020
:10095000A88810FB00F1E88810FB001004F056FD99
:1009600041EC100B03F0F0FA53EC192B51EC100B87
:1009700004F064FD41EC190BF86905F01FF853EC25
:10098000192B04F05BFD04F0C7FA94ED001AB1EEE8
:100990000C0A00EE900A21EE001A84ED001A94ED84
:1009A000011A21EE001A84ED011A94ED021A21EECB
:1009B000001A20EE800A84ED021A84ED030AB5F9CC
:1009C0000400FA3040450CD8B5F90600FA3040452D
:1009D00007D884ED008A84ED018A84ED028A84EDD3
:1009E000038AB5F9080000F1C701B1F5C77F17D92F
:1009F00097ED040ADFED311A60EE280A9FED2E0A0A
:100A000020EE801ADFED2F0A9FED2D0A41EE210A1C
:100A100001EE210A89EC020A89ED020AC9ED030AF6
:100A200000F2491140F2922291422DD900EE100AB3
:100A300002EE100AF8EEC00A9FED230AB8EEC22AB1
:100A400020EE801A00EE900AF8EEE01ADFED1F0AA1
:100A500061EEA01A62EE200A02EE100AB8EEC22A77
:100A600022EE002A9FED1A0A21EE001A60EE800A9B
:100A700084ED001A21EE801A22EE000A84ED011A9C
:100A8000C4ED020A84ED030ABDEC088BBDE8F087D3
:100A90006C50002094000020000000000000B443CF
:100AA0000000904866665640D44500200000006073
:100AB000E02BEBBFA245C5420000004600001042FB
:100AC0003333F1C73333F147E604353FE60435BF2E
:100AD0006666A640014800F0B5BD00006005002034
:100AE000014800F0AFBD0000C0050020014800F043
:100AF000A9BD0000A0040020014800F0A3BD000033
:100B000020060020014800F09DBD000000050020E7
:100B100001681823CAB2103AB2FBF3F2054B6FF327
:100B20000901032A9B5CC36500D9091D816508463C
:100B300070470000085B000810B5014600208B6973
:100B40008A6A4FF0C07453B1B3F5005F15D072B12B
:100B5000012A0CD0022A0AD0032A09D104E01AB1D2
:100B6000012A06D0022A03D1C96AC90100D5012091
:100B700010BDC96AA142FAD010BD002AF7D0012ADF
:100B8000F2D0022AF3D0032AF3D010BD30B50468A6
:100B9000256825F480252560046863608368402B00
:100BA000036803D099600068C26030BD9A60006835
:100BB000C16030BD30B525490023254A08704C7806
:100BC000052C41D2DFE804F00307101A1E000D289F
:100BD0003AD1012006E00A2802D00D2803D033E0E4
:100BE0008B700220487030BD8C781055641CE0B2C8
:100BF00088701828F7D38B700320F3E70A2823D1D5
:100C00000420EFE70D281FD192ED000A104810EEE6
:100C1000104A1830046092ED010A10EE104A446048
:100C200092ED020A10EE104A846092ED030A10EE73
:100C3000104AC46092ED040A10EE104A046192ED6D
:100C4000050A10EE102A42614B7030BDC000002032
:100C500014460020704772B6FEE7000030B51B480E
:100C60001B4D0246016AC36900EE101A00EE903A6D
:100C7000526A30EE600A10EE104AB7EE000AAC423B
:100C800004D900EE902A30EE800A0EE000EE901AB1
:100C900001EE103A0F4C70EEC10A10EE903AA342EA
:100CA00006DD00EE902A30EEC00A10EE102A4262F5
:100CB00000EE101A416A9FED081A00EE901A00EE3D
:100CC000810A10EE101A816230BD00009C450020A0
:100CD000000096C3000096430000B4430B490C4843
:100CE0000A78012A04D10B4A526A826100220A70F2
:100CF000016AC161C16800EE101A816900EE901AA4
:100D000030EE600A10EE101A01627047B400002045
:100D10009C4500204F4600200A48DFED0B0A816801
:100D200000EE101A094980EE201A91ED020AC16AFC
:100D300000EE901A21EE000A30EE800A10EE101A32
:100D4000C16270479C45002000002544B40000208B
:100D500090F82020012A07D0022A05D0416A41F4E8
:100D60008021416201207047006842690A43426164
:100D700000207047F0B590F820500468A468012D59
:100D800005D0022D03D0416A41F480215DE014F0CA
:100D9000406F01D1E50055D5C4F30164022C03D99D
:100DA000416A41F4000150E00125A5401D608D68B5
:100DB0004FF4C0739DB1CE6835434E6845EAC60511
:100DC000066803EB0417F5514FF4C275076805EB8D
:100DD00004150E697E51097D012905D009E00E88B0
:100DE000CD6845EA4655EBE701684E5946F48076F2
:100DF0004E511179D579567941EA056195792D04DD
:100E000045EA062529434FF4C676056806EB041625
:100E1000A9511178D57841EA0561957852782D0469
:100E200045EA022211434FF4C475026805EB04152C
:100E30005151006803EB0411425842F00102425044
:100E40000020F0BD416A41F4001141620120F0BD73
:100E500010B590F82020012A07D0022A05D0416A57
:100E600041F480214162012010BD3B48D0F80022AE
:100E700042F00102C0F80022D0F8002222F47C5295
:100E8000C0F80022D0F800224B6A42EA0322C0F8E0
:100E900000220A7D02F01F0301229A40D0F81C3282
:100EA0009343C0F81C32CB69B3B9D0F80C329343EA
:100EB000C0F80C328C894B6864F31F434C6900EB1B
:100EC000C404C4F840320C890B6864F31F434C69B6
:100ED00000EBC404C4F84432CB69012B16D1D0F81E
:100EE0000C321343C0F80C320C884B6864F31F4378
:100EF0004C6900EBC404C4F840320C89CB6864F33D
:100F00001F434C6900EBC404C4F844328B69002BC6
:100F1000D0F804320ED01343C0F804320B69002B12
:100F2000D0F8143208D01343C0F81432096A0129EA
:100F300004D008E09343EFE79343F5E7D0F81C12A1
:100F40001143C0F81C12D0F8001221F00101C0F8C2
:100F50000012002010BD000000640040704730B552
:100F600090F82040012C05D0022C03D0416A41F4B6
:100F700080215DE00468002955D02469A40754D07D
:100F80004FF4D874056804EB01142D5915F00405CD
:100F9000956005682D594ED0ED08556005682C59AF
:100FA00004F00204D4604FF4DA74056804EB011411
:100FB0002D5905F00F05156105682D59C5F3072555
:100FC000956105682C59240C54614FF4DC72046857
:100FD00002EB0112A4581C700468A458240A5C7027
:100FE0000468A458240C9C700468A258120EDA708D
:100FF0004FF4DE72046802EB0112A4581C710468FD
:10100000A458240A5C710468A458240C9C710468D8
:10101000A258120EDA71006881B1016941F0200115
:101020000161002030BDE468A8E7416A41F4001185
:101030004162012030BD6D0D1560AFE7C16841F020
:101040002001C160EDE72DE9F05F0546006800244E
:101050004669D0F804908768D0F80CB0D0F810A09A
:10106000D0F81880F10748D0F90714D00121816029
:10107000B80703D5284600F084FA0CE0780702D5BB
:101080004FF4006407E0380702D54FF4805402E0C3
:10109000284600F075FAF80516D529684FF48070D7
:1010A0008860B80503D5284600F06DFA0CE0780595
:1010B00002D544F4005407E0380502D544F48044D6
:1010C00002E0284600F05EFAF80316D529684FF4CE
:1010D00080308860B80303D5284600F056FA0CE04B
:1010E000780302D544F4004407E0380302D544F401
:1010F000803402E0284600F047FA300707D55FEA5F
:10110000CB6004D52968102044F40074C8607007CF
:101110004FF0080707D55FEA0B7004D52868C76051
:10112000284600F099F9B00706D52868C0688007FE
:1011300002D0284600F092F9700607D55FEACA602F
:1011400004D52968102044F480640861B00607D5EE
:101150005FEA0A7004D528680761284600F0E0F9C4
:10116000F00606D528680069800702D0284600F0FE
:10117000D8F9B00308D55FEAC96005D52968102001
:101180004860284600F0CEF9F00307D55FEA097001
:1011900004D528684760284600F0F8F9300446D5A1
:1011A0005FEA497040D5F00504D55FEAC87001D008
:1011B00044F00104B00504D55FEA887001D544F01D
:1011C0000204700504D55FEA487001D544F00404B8
:1011D000300529D518F0700F26D008F0700040288F
:1011E00015D006DC102809D020280AD0302816D1C6
:1011F0000AE050280ED0602811D10EE044F0080417
:101200000DE044F010040AE044F0200407E044F04C
:10121000400404E044F0800401E044F48074286851
:10122000816921F070018161296804204860002CE7
:1012300005D0686A204368622846FFF78FFEBDE844
:10124000F09F70B5040003D094F8200010B104E0C2
:10125000012070BD204600F081F82068016841F04F
:101260000101016000F06AFC0546052604E000F07B
:1012700065FC401B0A2811D820684068C007F6D0DA
:101280002068016821F00201016000F057FC05466A
:101290000BE000F053FC401B0A2806D9606A40F4BA
:1012A0000030606284F82060D2E7206840688007E0
:1012B000EFD4207E0128206801683DD021F0800114
:1012C0000160607E01282068016838D021F040016B
:1012D0000160A07E01282068016833D021F0200140
:1012E0000160E07E0128206801682ED041F01001E5
:1012F0000160207F01282068016829D021F00801C1
:101300000160607F01282068016824D021F0040179
:101310000160D4E902010843D4E9041211430843EF
:101320006168491E08432168C8610020606201208D
:1013300084F82000002070BD41F08001C0E741F03A
:101340004001C5E741F02001CAE721F01001CFE7D5
:1013500041F00801D4E741F00401D9E7F0B587B0C6
:10136000044614216846FFF7A8F8364B3648DFF8E4
:10137000D0E01968D4F800C0334A032502260927B3
:1013800010300024491CF44522D11960012907D1ED
:10139000016841F000710160006800F00070059084
:1013A000106840F0080010601068CDE9005600F0A9
:1013B0000800CDE9047069462448CDE9024500F0F3
:1013C000C5FA00220521142000F056FC142032E05A
:1013D000DFF87CE0F44530D1D0F800C04CF0806CF0
:1013E000C0F800C0D0F800C001290CF0806CCDF826
:1013F00014C0196007D1016841F0007101600068F4
:1014000000F000700590106840F002001060106855
:1014100002AB00F0020005906020CDE9000683E8F1
:10142000B00069460B4800F091FA002205214020E7
:1014300000F022FC402000F011FC07B0F0BD0000DD
:10144000006400400C00002030380240000C0240D4
:1014500000680040000402407047000070B5054677
:1014600000682B492B4C8CB0884224D107AB6A46CC
:1014700000212846FFF773FD0098A0F201200628FE
:1014800019D8C0B22070244EC0EBC00006EB80001B
:1014900081694A1C3229826107A902D802F006FF3D
:1014A00001E002F008FF207807A9C0EBC00006EBBE
:1014B000800002F000FF19492868884225D109AB55
:1014C0006A4600212846FFF74AFD0098A0F2012055
:1014D00006281AD8C0B2104D6070C0EBC000E035CD
:1014E00005EB800081694A1C3229826109A902D872
:1014F00002F0DCFE01E002F0DEFE607809A9C0EB3C
:10150000C00005EB800002F0D6FE0CB070BD0000FC
:101510000064004088000020B843002000680040BC
:10152000704770477047000070B5044690F820007F
:10153000012804D0606A40F40020606218E00220B4
:1015400084F820002068016821F00101016000F0AA
:10155000F5FA05460EE000BF00F0F0FA401B0A283D
:1015600008D9606A40F400306062052084F82000E9
:10157000012070BD20684068C007EDD1606270BD79
:1015800070477047704770477047704770472DE944
:10159000F0410446876D00F0D1FA064694F8350014
:1015A0000025022806D08020606584F83450012090
:1015B000BDE8F0812068016821F016010160206813
:1015C000416921F080014161206C08B9A06C20B113
:1015D0002068016821F0080101602068016821F09D
:1015E000010101600CE000F0A9FA801B052807D971
:1015F00020206065032084F8350084F83450D7E754
:1016000020680068C007EED194F85C103F20884045
:10161000B860012084F8350084F834500020C7E712
:1016200090F83510022903D08021416501207047D0
:10163000052180F835100068016821F00101016082
:10164000002070472DE9F84304464FF00009CDF81B
:10165000009063484FF41651A56D0068B0FBF1F798
:101660002E6894F85C10082000FA01F131420FD086
:1016700021680A6852070BD50A6822F004020A6042
:1016800094F85C108840A860606D40F001006065CF
:1016900094F85C104FF0010808FA01F0304208D0CD
:1016A00021684969090604D5A860606D40F0020010
:1016B000606594F85C1004208840304208D02168AE
:1016C0000968890704D5A860606D40F00400606572
:1016D00094F85C1010208840304218D021680968C6
:1016E000090714D5A86020680168490304D500687B
:1016F000000308D5A16C07E00168C90503D401689F
:1017000021F008010160216C09B12046884794F856
:101710005C1020208840304231D021680968C90619
:101720002DD5A86094F8350005282068016806D0FA
:10173000490347D5006800031DD4616C1CE021F00B
:10174000160101602068416921F080014161206C2F
:1017500008B9A06C20B12068016821F0080101607F
:1017600094F85C103F208840A86084F8358084F8A5
:101770003490216D1FE0E16B09B120468847606D10
:1017800000282BD0606DC00714D0052084F83500E8
:101790002068016821F0010101600098401C009060
:1017A000B84203D820680068C007F6D184F83580B5
:1017B00084F83490E16C002910D001B02046BDE8D7
:1017C000F04308470168C905D5D4016821F010012C
:1017D000016084F8358084F83490CCE7BDE8F88364
:1017E0001C0000202DE9F041044600F0A7F9064650
:1017F0005CB1022084F83500002584F8345020685C
:10180000016821F0010101600DE00120BDE8F081D7
:1018100000F094F9801B052805D92020606503207D
:1018200084F83500F2E720680068C007F0D122682C
:10183000116820480140D4E901031843D4E9033674
:101840003343184363691843A3691843E369184392
:10185000236A18430843616A042903D1D4E90B13AE
:1018600019430843106020684069666A20F0070148
:1018700030460E43012704280CD1A06A0643E06AD3
:1018800040B12046FFF758F920B14020606584F848
:101890003570BAE7206846612046FFF739F994F8B9
:1018A0005C203F2191408160656584F8357000209F
:1018B000ACE700003F8010F02DE9F0410446866D52
:1018C00090F83400002501280DD0012084F8340060
:1018D00094F835700020012F07D084F834000225D9
:1018E0002846BDE8F0810220FBE7022784F8357026
:1018F00060652046FFF74AF994F85C103F20884065
:10190000B0602068016841F016010160206C20B1D0
:101910002068016841F0080101602068016841F019
:1019200001010160DCE7000070B5044600F006F933
:101930000546601C02D004480078044400F0FEF81C
:10194000401BA042FAD370BD100000202DE9F84FD3
:10195000DFF8BCA10022012503264FF00F090AF190
:10196000040BAAF1040E00BF0B6805FA02F4234031
:10197000A34270D10F7907F00307012F01D0022F86
:1019800016D187684FEA420806FA08FC27EA0C07D6
:10199000D1F80CC00CFA08FC4CEA070CC0F808C0DF
:1019A0004768A7430C79C4F3001494403C43446057
:1019B0000C79E443A4070AD0C4684FEA420C06FA43
:1019C0000CF7BC438F6807FA0CF72743C7600C7904
:1019D00004F00304022C12D1D40800EB840CDCF8D0
:1019E00020405707FF0E09FA07F824EA0804D1F847
:1019F000108008FA07F848EA0408CCF82080046848
:101A00004FEA420C06FA0CF7BC430F7907F00307C4
:101A100007FA0CF7274307604C6814F4403F70D076
:101A20003C4C276847F480472760246822F003076E
:101A300004F480440094384C07EB040CDCF80848AC
:101A400097074FEA177809FA08F7BC43334FB842B3
:101A500002D1002724E054E0314FB84201D10127E0
:101A60001EE0304FB84201D1022719E02E4FB84294
:101A700001D1032714E02D4FB84201D104270FE014
:101A80002B4FB84201D105270AE02A4FB84201D1B5
:101A9000062705E0284FB84201D1072700E00827B4
:101AA00007FA08F72743CCF80878DAF800405746D9
:101AB000D1F804C09C435FEACC2C00D51C433C60A9
:101AC000DBF800405F46D1F804C09C435FEA8C2CF1
:101AD00000D51C433C60DEF800407746D1F804C0D6
:101AE0009C435FEA8C3C00D51C433C60084F083F98
:101AF0003C68D1F804C09C435FEACC3C00D51C4351
:101B00003C60521C102AFFF42FAFBDE8F88F000094
:101B1000083C0140443802400030014000000240CF
:101B20000004024000080240000C02400010024085
:101B30000014024000180240001C02400148806866
:101B400070470000100000200248816802781144AC
:101B500081607047100000200B4810B5016841F407
:101B600000710160016841F480610160016841F425
:101B700080710160032000F09FF80F2000F006F84C
:101B800000F050F8002010BD003C024030B5054682
:101B90001F4887B00024016841F01001016000680F
:101BA00006A900F01000009001A800F031F9049897
:101BB000A8B100F04DF940001649174AB0FBF1F109
:101BC0001648491E026040F2E732C0E90324C0E92A
:101BD0000114846100F046FB040003D015E000F01E
:101BE00037F9E9E70D4800F06BFB04000DD1362012
:101BF00000F034F8102D07D200222946362000F0DC
:101C00003BF80748056000E0012407B0204630BDDE
:101C10004038024040420F00001000408006002083
:101C2000140000200C4882B0016841F4804101603A
:101C3000006800F4804000900748001F016841F0F0
:101C4000805101600068002200F0805000900F2158
:101C5000901E02B000F010B844380240002809DBA2
:101C600000F01F02012191404009800000F1E020B6
:101C7000C0F8001170470000F0B40E4B1B680C4612
:101C8000C3F30223C3F10705042D00D90425191D50
:101C9000072901D2002300E0DB1E012606FA05F128
:101CA000491E214099409E40761E16403143F0BCAB
:101CB00001F0CEBE0CED00E0064900F00702086816
:101CC0004FF6FF03184040EA0220034A1043086021
:101CD000704700000CED00E00000FA052DE9F04728
:101CE0000E46050065D0DFF81481D8F80000F7B281
:101CF00000F00700B04207D288F80070D8F8000062
:101D000000F00700B04254D128683D4C810712D53D
:101D1000400703D5206840F4E05020602878000791
:101D200003D5206840F4604020602068A96820F056
:101D3000F000084320602878C0072DD0304968683B
:101D40000839012812D0022813D0032811D00968BD
:101D5000890700292DDA216821F003010143216060
:101D6000FFF7ECFE814641F2883A0EE009688903EC
:101D7000EFE709688901ECE7FFF7E0FEA0EB090156
:101D8000514502D90320BDE8F0872068696800F05A
:101D90000C00B0EB810FEFD1D8F80010404601F0F5
:101DA0000701B14207D90770006800F00700B04290
:101DB00001D00120E7E72878400705D52068E968C9
:101DC00020F4E050084320602878000706D52068FA
:101DD000296920F4604040EAC100206000F058F812
:101DE0002168084AC1F30311515CC84006490860E4
:101DF00006480068FFF7CAFE0020C4E7003C024026
:101E000008380240105B00081C000020140000206D
:101E10000F2202600C4A136803F003034360136847
:101E200003F0F0038360136803F4E053C3601268A7
:101E30004FF4E05303EAD20202610448006800F064
:101E4000070008607047000008380240003C02406C
:101E50000448054900680968044AC1F38221515CBD
:101E6000C84070471C00002008380240205B000872
:101E70000448054900680968044AC1F34231515CCD
:101E8000C84070471C00002008380240205B000852
:101E9000154810B5006810F00C02144813D014490E
:101EA000042A0FD0082A0ED10F4C241F2268236861
:101EB00002F03F025B0207D52068C0F38810A0FB48
:101EC000010106E0084610BD2168C1F38811A1FB9D
:101ED00000010023FEF748FA2168C1F30141491CC3
:101EE0004900B0FBF1F010BD083802400024F400B6
:101EF000001BB7002DE9F84F04006ED02078DFF802
:101F00004C93C007A9F104054AD009F10400016807
:101F1000C1F38101012908D00068C0F381000228C3
:101F20000AD1D9F80000400206D52868800337D5C9
:101F300060680028E1D033E06068B0F5803F10D0E1
:101F4000B0F5A02F286810D020F4803028602868D1
:101F500020F4802028606068A8B1FFF7EFFD0646F6
:101F60000DE0286840F48030F4E740F480202860D9
:101F7000F7E700BFFFF7E2FD801B642873D82868ED
:101F80008003F7D50CE0FFF7D9FD064605E000BF5A
:101F9000FFF7D4FD801B6428F0D828688003F7D4AD
:101FA0002078DFF8AC8280074FF0000A3ED5A748C2
:101FB000001D016811F00C0F08D00068C0F381000B
:101FC00002280BD1D9F80000400207D42868800706
:101FD00016D5E068012800D112E033E1E068B8B11D
:101FE0000120C8F80000FFF7A9FD064605E000BF84
:101FF000FFF7A4FD801B0228C0D828688007F7D50A
:102000002868216920F0F80040EAC10028600DE04E
:10201000C8F800A0FFF792FD064604E0FFF78EFD2A
:10202000801B02281FD828688007F7D42078000773
:1020300022D5864F87486169703771B101210160EF
:10204000FFF77CFD064604E0FFF778FD801B0228C1
:1020500009D838688007F7D50EE0C0F800A0FFF770
:102060006DFD064605E082E0FFF768FD801B022853
:102070007DD838688007F7D42078400768D5DFF826
:10208000CCB100270BF13C0BDBF80000C0000BD4F7
:10209000DBF8001041F08051CBF80010DBF80000B5
:1020A000012700F0805000906B4E3068C00510D4BE
:1020B000306840F480703060FFF740FD009005E02C
:1020C000FFF73CFD0099401A022850D83068C0053F
:1020D000F6D55E4EA0686C3601280FD00528306812
:1020E00010D020F001003060306820F00400306033
:1020F000A068B8B1FFF722FD00900FE0306840F013
:102100000100F4E740F004003060F7E7FFF716FD48
:102110000099411A41F28830814266D830688007C0
:10212000F4D50EE0FFF70AFD009007E0FFF706FD8B
:102130000099411A41F28830814256D830688007B0
:10214000F4D42FB1DBF8001021F08051CBF800104F
:10215000A069C8B33D49091D0968C1F3810102297D
:102160004AD00228504607D0C8F8600000E03CE0A2
:10217000FFF7E4FC04463BE04746C8F86000FFF781
:10218000DDFC064605E000BFFFF7D8FC801B0228F7
:102190002BD828688001F7D4D4E907010843A16A45
:1021A0002E4A490802EB0141626A41EA8211084362
:1021B00094F82C1040EA0161C9F80010012038663B
:1021C000FFF7BCFC044606E03EE000BFFFF7B6FCAC
:1021D000001B022809D828688001F7D534E000BF29
:1021E000FFF7ACFC001B022802D90320BDE8F88FE2
:1021F00028688001F4D427E00128F7D0D9F800003E
:10220000E26900F4800191421CD1226A00F03F0192
:10221000914217D147F6C071626A0140B1EB821F4B
:1022200010D1A26A4FF0FF3300F4403103EB5202A9
:10223000B1EB024F06D194F82C1000F07060B0EBB7
:10224000016F01D00120D1E70020CFE70438024020
:1022500000004742800E4742007000400000FFFF30
:102260007047704710B5040003D094F83D0010B1DA
:1022700007E0012010BD002084F83C00204600F05B
:102280001EF8022084F83D00211D206801F0E0F8CE
:10229000012084F8460084F83E0084F83F0084F86A
:1022A000400084F8410084F8420084F8430084F838
:1022B000440084F8450084F83D00002010BD7047BC
:1022C00090F83D10012901D001207047022180F8CB
:1022D0003D100168CA6842F00102CA6000681149F5
:1022E000884214D0B0F1804F11D00F4988420ED0EF
:1022F0000E4988420BD00E49884208D00D498842C9
:1023000005D00D49884202D00C49884204D1816829
:1023100001F00701062903D0016841F001010160C5
:102320000020704700000140000400400008004009
:10233000000C004000040140004001400018004033
:10234000704770B50446006801694FF00005C94345
:10235000890715D4C168C943890711D4E91E0161F1
:1023600001202077206880698007204602D0FFF78F
:10237000E7FF04E000F098F8204600F096F8257793
:1023800020680169C943490717D4C168C94349078F
:1023900013D46FF004010161022020772068806966
:1023A00010F4407F204602D0FFF7CAFF04E000F09F
:1023B0007BF8204600F079F8257720680169C94349
:1023C000090716D4C168C943090712D46FF0080180
:1023D0000161042020772068C0698007204602D070
:1023E000FFF7AEFF04E000F05FF8204600F05DF874
:1023F000257720680169C943C90617D4C168C94354
:10240000C90613D46FF010010161082020772068FD
:10241000C06910F4407F204602D0FFF791FF04E02E
:1024200000F042F8204600F040F825772068016966
:10243000C943C90708D1C168C943C90704D1891E66
:102440000161204600F032F820680169C94309069D
:1024500009D4C168C943090605D46FF08001016140
:102460002046FFF7FDFE20680169C943490609D4EB
:10247000C168C943490605D46FF040010161204697
:1024800000F01EF820680169C94389060BD4C168B1
:10249000C943890607D46FF0200101612046BDE8D9
:1024A0007040FFF7DEBE70BD70477047006803499B
:1024B000884201D1FFF748BB704700000010004080
:1024C0007047704770470000F8B501680446086817
:1024D000CA684B6910F00F0F4FF0000559D003F098
:1024E000010602F49077374365D0C10705D0D105C6
:1024F00003D5216C41F001012164410705D5D907BD
:1025000003D0216C41F002012164810705D5D90770
:1025100003D0216C41F004012164010707D502F0CA
:102520002001314303D0216C41F008012164216C6A
:1025300000293AD0800604D5900602D5204601F045
:10254000C1F820684069216CC0F38010090700D4ED
:1025500060B3204601F081F820684069400621D52B
:102560002068143050E8001F21F0400140E80012BC
:10257000002AF5D1A06BA8B16C490165A06BFFF7EB
:102580004FF8002811D0A06B016D01B0BDE8F040FC
:10259000084783060FD593060DD52046BDE8F840C1
:1025A00001F090B82046FFF78DFFF8BD2046FFF7F9
:1025B00089FF2564F8BD266B2023012E79D1C6063C
:1025C00077D5D60675D508684868009048694006F2
:1025D00040D5A16B086840680004000CEAD0A28DC9
:1025E0008242E7D9E085C869B0F5807F2DD02068A8
:1025F0000C3050E8001F21F4807140E80012002ADE
:10260000F5D12068143050E8001F21F0010140E8A6
:102610000012002AF5D12068143050E8001F21F084
:10262000400140E80012002AF5D184F83E302563CD
:1026300020680C3050E8001F21F0100140E8001223
:10264000002AF5D1A06BFEF7A2FFA08DE18D401A04
:1026500081B229E0A08DE18D401A81B2E08D002881
:10266000A8D00029A6D020680C3050E8002F22F412
:10267000907240E80026002EF5D12068143050E812
:10268000002F22F0010240E80026002EF5D184F848
:102690003E30256320680C3050E8002F22F01002F5
:1026A00040E80023002BF5D12046FFF70AFFF8BDD4
:1026B000FFE705062BD5150629D594F83D002128FE
:1026C000F5D1A068B0F5805F01D12069B0B1206A72
:1026D000411C2162216800784860E08C401E0004A3
:1026E000000CE084E3D12068C16821F08001C16062
:1026F0002068C16841F04001C160D8E7206A0088C5
:10270000C0F308004860206A801C2062E5E74006AC
:10271000CDD55006CBD5CA68204622F04002CA600B
:1027200084F83D3000F0FCF9C1E7000019350008DD
:1027300070B5040004D094F83D00002510B106E007
:10274000012070BD84F83C50204600F023F824207E
:1027500084F83D002068C16821F40051C160204622
:1027600001F010F82068016921F4904101612068AE
:10277000416921F02A0141612068C16841F400519A
:10278000C1602564202084F83D0084F83E000020CC
:1027900070BD00002DE9F04F87B004461421684653
:1027A000FDF78BFE9648DFF8548214380322D4F8E4
:1027B00000C0934B02210025071516044FF0070AAD
:1027C0004FF0006BC4456FD1D3F800C04CF0100C33
:1027D000C3F800C01B6803F010030593036843F0BF
:1027E00002030360036803F002030593036843F0E8
:1027F000010303600068884600F001000590802016
:10280000CDE900080DF1080C91468CE820066946D8
:102810007C48FFF79BF87810CDE900080DF1080817
:10282000694688E820067848FFF790F8DFF8E0A1CD
:1028300076495046CAF80010C0E901B5C0E903570F
:10284000CAF820608915CAF81450CAE90651D8465A
:10285000B946CAF82450FEF7C5FF08B1FEF7FBF9E8
:102860006B4F6A48C4F838A060377830CAF83840EF
:10287000E7E802084020A7E82102654847F8145914
:102880006030BD61C7E907567D62FEF7ABFF08B156
:10289000FEF7E1F96763002205212520BC63FFF7FD
:1028A000EBF9252045E0FFE7DFF86881C44545D115
:1028B000534B1B1FD3F800C04CF4802CC3F800C04E
:1028C0001B6803F480230593036843F0040303604B
:1028D000006800F0040005904FF440608DE823008C
:1028E000CDE9032A69464C48FFF730F8DFF820812C
:1028F0004A4908F1C0084046C8F80010C0E901B5CF
:10290000C0E90357C8F81450C8F81850C8E907566A
:10291000C8F82450FEF766FF08B1FEF79CF9C4F82A
:102920003880002205212720C8F83840FFF7A4F995
:102930002720FFF793F907B0BDE8F08FDFF8E080BC
:10294000C445F8D1D3F800C04CF0200CC3F800C047
:102950001B6803F020030593036843F04003036002
:10296000006800F0400005904FF484408DE823009B
:102970000820CDE9032069462A48FEF7E7FF2349EE
:10298000DFF8A48018394046C8F800104FF0206ADC
:10299000C0E901A5C0E90357C8F820608915C8F847
:1029A0001450C8E90651B946C8F82450FEF71AFF7A
:1029B00008B1FEF750F91C4F1448C4F8388060374E
:1029C0006030C8F83840E7E8020A4020A7E8210252
:1029D000154847F814596030BD61C7E907567D6254
:1029E000FEF700FF08B1FEF736F967630022052104
:1029F0004720BC63FFF740F947209AE700100140E9
:102A0000443802400004024000000240406402409A
:102A1000A004002000480040000802402860024056
:102A20000014014000180240C005002090F83E301C
:102A3000202B0ED159B152B190F83C30012B08D067
:102A4000012380F83C300023036300F021BF012004
:102A5000704702207047000010B50446006808491E
:102A6000884202D1074800F05FF807492068884291
:102A700005D106480078BDE81040FEF79BB810BDB0
:102A8000001001404446002000140140D000002006
:102A90007047000070B5044690F83D00202836D1FC
:102AA00091B38AB394F83C00012830D0012084F817
:102AB0003C002162A284E28400252564212084F860
:102AC0003D00636B1348D863636B13481864636BF2
:102AD0001248D864606B134605652668606B321D2A
:102AE000FEF7EAFE21686FF04000086084F83C5071
:102AF0002068143050E8001F41F0800140E80012C7
:102B0000002AF5D1002070BDFFE70120FBE702207D
:102B1000F9E700000F360008513600082935000893
:102B200070477047FEE7000010B504460078502853
:102B300010D1607803280DD1A07806280AD1092188
:102B4000204600F06FFF22490880B4F8091049BA06
:102B5000814201D0002010BD34F8030F9FED1E1AF2
:102B600040BA00B200EE100A1A48DFED1C1AF8EE67
:102B7000C00A10EE901AC162628852BA12B200EE18
:102B8000102AF8EEC00A10EE902A00EE901A826227
:102B9000A38860EE810A5BBA1BB200EE103A60EEC9
:102BA000A10AB8EEC00A10EE901A00EE902AC16297
:102BB00020EE010A60EE810A20EE210A60EEA10AF1
:102BC00010EE901A816210EE101A4162012010BDC1
:102BD000D20000204F46002000000038000034439F
:102BE0007CB5502403238DF80040020A0D0A8DF8AD
:102BF00001308DF802208DF804508DF803008DF817
:102C000005100621684600F00DFF010A8DF8061038
:102C100004468DF80700082269460248FFF73AFF8C
:102C200020467CBDD40300200F4810B50D4901603B
:102C30000321416000214FF4C0228160C0E90312EA
:102C40004FF4A0024261017641768176C176017728
:102C50004177FEF7F6FA002803D0BDE81040FDF7F3
:102C6000FABF10BD00640040840300200F4810B577
:102C70000D4901600321416000214FF41022816061
:102C8000C0E903124FF40012426101764176817669
:102C9000C17601774177FEF7D4FA002803D0BDE86A
:102CA0001040FDF7D8BF10BD00680040AC03002005
:102CB0001D4808B5016841F400110160016801F484
:102CC00000110091016841F4800101600068002258
:102CD00000F48000009005210C20FEF7CDFF0C20B1
:102CE000FEF7BCFF002205213920FEF7C5FF392081
:102CF000FEF7B4FF002205213A20FEF7BDFF3A207F
:102D0000FEF7ACFF002205214520FEF7B5FF452068
:102D1000FEF7A4FF002205214620FEF7ADFFBDE827
:102D200008404620FEF79ABF3038024010B596B0F2
:102D30001C2211496846FDF78EFB0021684601F010
:102D400034FB0E4C0C491C2220601C3107A8FDF7F7
:102D500082FB002107A801F028FB074960601C22C4
:102D600038310EA8FDF777FB00210EA801F01DFBFE
:102D7000A06016B010BD0000B45A0008000000208A
:102D8000194808B5016841F002010160016801F0CD
:102D900002010091016841F040010160016801F009
:102DA00040010091016841F001010160016801F0FA
:102DB00001010091016841F008010160016801F022
:102DC00008010091016841F004010160016801F00F
:102DD00004010091016841F080010160006800F089
:102DE0008000009008BD0000303802400C4810B54B
:102DF0000A4901604FF4E1314160002181600C22F9
:102E0000C160C0E904128161C161FFF791FC002833
:102E100003D0BDE81040FDF71EBF10BD00100140FB
:102E2000D40300200D4810B50B4901600C494160E6
:102E300000214FF480628160C0E903120422C0E9DE
:102E40000521C161FFF774FC002803D0BDE81040E4
:102E5000FDF701BF10BD000000480040180400202D
:102E6000A08601000C4810B50A4901604FF4E13119
:102E70004160002181600C22C160C0E904128161BF
:102E8000C161FFF755FC002803D0BDE81040FDF7F5
:102E9000E2BE10BD001401405C040020FEE7FEE726
:102EA000064810B5806AF0EE400A00EE100A0448A9
:102EB00000F008F8024890ED080A10BD9C4500207B
:102EC000944F0020A0B1D0ED101AC0ED111A90ED72
:102ED0000F1A80ED101AC0ED060A80ED070A30EED9
:102EE000C00A80ED0F0A017829B101293BD078E0B2
:102EF0009FED3D0A7047D0ED010A60EE801AC0EDEB
:102F0000091AD0ED0A0A90ED022A42EE000A30EECC
:102F1000410AC0ED0A0A90ED0D2A80ED0E2A90EDCF
:102F20000C2A80ED0D2A80ED0C0A90ED031A21EE9B
:102F3000001A80ED0B1A90ED050AF4EEC00AF1EECE
:102F400010FA09DCB1EE400AF4EEC00AF1EE10FA14
:102F500002D390ED0A0A01E080ED0A0A31EE800A00
:102F600030EE010A2BE070EE410A90ED012A20EECE
:102F7000822A80ED092AD0ED020A60EE800AC0EDB7
:102F80000A0AD0ED0D2A72EE200AC0ED0E2AD0ED0D
:102F90000C2AC0ED0D2AF0EE002A01EE620A30EE96
:102FA000210A80ED0C0A90ED031A21EE000A80ED53
:102FB0000B0A30EE800AD0ED080A30EE200A80EDD0
:102FC000080AD0ED040AB4EEE00AF1EE10FA06DCCD
:102FD000F1EE600AB4EEE00AF1EE10FA01D2C0EDB3
:102FE000080A90ED080A7047000000002DE9F0473C
:102FF00000242DED068B9FED50AADFED50AA504E18
:103000009FED508ADFED508A06F51077DFED4F9A7D
:103010009FED4F9A06F5906906F5D86804EBC40554
:1030200006EBC500F0EE480AB0EE680A494A0021F6
:1030300000F09AF8474A07EBC500F0EE690AB0EED7
:10304000490A0C32002100F08FF8424A09EBC50012
:10305000F0EE480AB0EE4A0A1832002100F084F877
:103060003C4A08EBC500F0EE6A0AB0EE680A24326A
:10307000002100F079F8641C042CCFDBB246B0EEDE
:1030800048AA0424B0EE698A4FEA090604EBC40595
:103090000AEBC500F0EE4A0AB0EE680A2D4A00219C
:1030A00000F062F82B4A07EBC500F0EE480AB0EEDC
:1030B000490A0C32002100F057F806EBC500F0EE8B
:1030C0004A0AB0EE680A234A002100F04DF8214A6E
:1030D00008EBC500F0EE480AB0EE490A0C320021B8
:1030E00000F042F8641C082CD0DB1A4ADFED1A0A03
:1030F0009FED1A0A30320021194800F035F8DFED53
:10310000198A144A1648F0EE480AB0EE680A3C32B2
:103110000021483000F028F8F0EE480AB0EE680AC6
:10312000BDEC068B0021BDE8F0470A4A0C48483246
:10313000903000F019B8000000A00C460000FA44DE
:10314000944600200080BB4500401C46000096438A
:103150000000C843D40000200080A24400C00F45F6
:10316000944F002000007A44002828D0002A26D05E
:10317000017092ED001A80ED011A92ED011A80EDB6
:10318000021A92ED021A80ED031A80ED040A9FEDF7
:103190000C0AC0ED050A80ED0E0A80ED0D0A80EDE7
:1031A0000C0A80ED080A80ED0B0A80ED0A0A80ED1A
:1031B000090A80ED110A80ED100A80ED0F0A7047B0
:1031C000000000000C4AC0EBC00110B502EB810109
:1031D000F0EE400A31F91A1C00EE101A00EBC001A3
:1031E0000648B8EEC00A00EBC104A4F14800FFF79E
:1031F00069FE14ED0A0A10BDB84300209446002071
:1032000030B5144B1C68656945F0400565611B6865
:10321000DC6844F01004DC600F4B1C68256825F066
:10322000010525601C682568ED07F7D11D680B4C6A
:10323000AC601C68E060186801611868426018683A
:10324000016841F4802101601868016841F00101C2
:10325000016030BD180400206005002004480040D3
:103260001E491F4A0B78B2F90410E3B1012B34D187
:1032700000EE101AF8EEC00AC0ED000AB2F906100E
:1032800000EE101AB8EEC00A80ED010AB2F908107B
:1032900001EE101AB8EEC11AB1EE411A80ED021A11
:1032A000B1EE081A11E000EE101A9FED0E1AF8EEBA
:1032B000C00AC0ED000AB2F9061080ED021A00EE55
:1032C000101AB1EE001AB8EEC00A60EE810A20EEC4
:1032D000010AC0ED000A80ED010A70479400002049
:1032E0006C5000200000A5C30748817A032907D14C
:1032F000C07A0649032804D0012801D100200870B3
:1033000070470120FBE700006C5000209400002073
:10331000154910B591ED000A01F10C0010EE102ACC
:10332000026091ED010A10EE102A426091ED020A4E
:1033300010EE101A81600D494A6A00EE102AB1EEB3
:10334000400A80ED030A8A6A0261C96A416108493C
:10335000CA68026309694163FDF7DEFCFDF7BEFC44
:10336000BDE81040FDF77ABC904500204F46002094
:103370002C46002010B5502080F31188BFF34F8FEA
:10338000BFF36F8F01F0F4FC18B104494FF0805087
:103390000860002080F3118810BD000004ED00E0FB
:1033A00030B593B030216846FDF787F814210CA89A
:1033B000FDF783F81D480025016841F08051016048
:1033C000006800F0805011901948016841F4804174
:1033D00001600068022400F48040119001200090F8
:1033E000000401908001CDE9064006200890A82045
:1033F000CDE9090404200B906846FEF77BFD08B177
:1034000072B6FEE70CA90F2081E831004FF4A050FE
:103410000F904FF48050109005210CA8FEF75EFC31
:10342000002801D072B6FEE713B030BD403802402C
:10343000007000400248016841F47001016070476B
:1034400088ED00E00148FEF77CBF00008006002008
:10345000F0B50268254C264D264E274F274B4FF0DE
:10346000804CA04209D0604507D0A84205D0B042A8
:1034700003D0B84201D0984204D122F0700E4A68BD
:1034800042EA0E02A0421BD0604519D0A84217D0D4
:10349000B04215D0B84213D0984211D0184DA8426E
:1034A0000ED0184DA8420BD0174DA84208D0174D8A
:1034B000A84205D0164DA84202D0164DA84203D10D
:1034C00022F44075CA682A434D6922F080022A43DB
:1034D00002608A68C2620A688262A04201D0984291
:1034E00001D10969016301214161F0BD0000014082
:1034F0000004004000080040000C004000040140AF
:1035000000400140004401400048014000180040D4
:10351000001C00400020004010B5806B0021C185D8
:10352000C184FEF7CFFF10BD70B5846B2068406981
:1035300094F83D10C0F3C0100025212904D118B122
:10354000E584204600F0B0F82068406994F83E1009
:10355000C0F38010222904D118B1E585204600F07F
:103560007CF8206C40F0100020642046FEF7AAFF93
:1035700070BD10B50146806B09680968C9052FD474
:103580000021C18501680C3151E8002F22F48072BE
:1035900041E80023002BF5D10168143151E8002FD8
:1035A00022F0010241E80023002BF5D1016814311B
:1035B00051E8002F22F0400241E80023002BF5D112
:1035C000202180F83E10016B012909D101680C31DE
:1035D00051E8002F22F0100241E80023002BF5D122
:1035E000016B012902D0FFF737FA10BD818DFEF77C
:1035F00068FF10BD10B5806B016B012902D0FFF789
:1036000047FA10BD818D4908FEF75BFF10BD10B56C
:103610000146806B09680968C90516D40021C18478
:103620000168143151E8002F22F0800241E80023A4
:10363000002BF5D101680C3151E8002F42F0400217
:1036400041E80023002BF5D110BDFFF769FA10BD4A
:1036500010B5806BFFF765FA10BD01680C3151E8B9
:10366000002F22F4907241E80023002BF5D101686D
:10367000143151E8002F22F0010241E80023002B11
:10368000F5D1016B012909D101680C3151E8002FF6
:1036900022F0100241E80023002BF5D1202180F810
:1036A0003E1000210163704701680C3151E8002F82
:1036B00022F0C00241E80023002BF5D1202180F840
:1036C0003D10704708B590F83E10222901D0022025
:1036D00008BD82684FF480539A4201D1016921B13B
:1036E000816A9A421BD04AB10AE00268816A526834
:1036F000C2F308020A80816A891C08E0026972B17B
:103700000268526802F07F020A70816A491C816275
:10371000C18D491E0904090CC18503D019E0026856
:103720005268F1E70168CA6822F02002CA600168A5
:10373000CA6822F48072CA6001684A6922F00102F4
:103740004A61202180F83E10016B012903D0FFF768
:1037500083F9002008BD0021016301680C3151E8A4
:10376000002F22F0100241E80023002BF5D1016860
:103770000A68D20602D50A6849680091818DFEF771
:10378000A0FEE6E770B5044600680169E26821F42E
:103790004051114301612169A068E26908436169F0
:1037A000114308432168CA6849F20C639A430243F3
:1037B000CA6020684169A26921F4407111434161E6
:1037C00031492068884202D03049884202D1FEF750
:1037D0004FFB01E0FEF73CFBE26900231921642561
:1037E0003226B2F5004F626828D0A0FB0101930F8A
:1037F0009200FCF7B9FD0146B0FBF5F06FF018023E
:10380000504301EB800006EB0010B0FBF5F000F038
:10381000F002B1FBF5F002EB0012B1FBF5F06FF036
:103820001803584301EB800006EB0010B0FBF5F0E5
:1038300000F00F0021681044886070BDA0FB0101FA
:1038400092185B41FCF790FD0146B0FBF5F00201D8
:10385000B1FBF5F06FF01803584301EB800006EB65
:10386000C000B0FBF5F000F0F80002EB4002B1FB45
:10387000F5F0584301EB800006EBC000B0FBF5F01B
:1038800000F00700D6E700000010014000140140DE
:1038900038B58162828500251346044605642220DE
:1038A00084F83E00A26B1C48D063A26B1B481064D6
:1038B000A26B1B48D064A06B0A4605652168A06B0B
:1038C000091DFDF7F9FF206801684068009084F841
:1038D0003C50206948B120680C3050E8001F41F48A
:1038E000807140E80012002AF5D12068143050E8B9
:1038F000001F41F0010140E80012002AF5D12068C4
:10390000143050E8001F41F0400140E80012002A46
:10391000F5D1002038BD000073350008F5350008EA
:10392000293500080148FEF7CFBD0000D403002070
:10393000264818B400680168890604D50168406803
:10394000009018BC704722490968C906F9D501687A
:103950004068204A0090106801684FF024030C036F
:103960001D49046824F00104046016D410684468FA
:10397000C4F12404A4B20C8043601068016841F4CF
:10398000002101601068016841F001010160122C02
:10399000D7D1124901F1160015E014686068C0F132
:1039A000240080B2088063600D498B6A23F40023F1
:1039B0008B6211680A6842F001020A601228C0D1C5
:1039C000064901F13A0018BC00F04CBF1804002071
:1039D0000048004060050020280100206C500020B5
:1039E000006002400148FEF76FBD00005C0400204B
:1039F000FEE703B401984100009850EAC12018BFC7
:103A000004204A0D18BF40F0010040F2FF72B2EBF3
:103A1000515F08BF40F00200012808BF052002B036
:103A200070470000F0B5FF23084E1C46002206F543
:103A3000807705E0855C5D40735D63407C5D521C72
:103A40008A42F7DB44EA0320F0BD0000285B00084F
:103A50000907090E002804DB00F1E02080F80014BB
:103A6000704700F00F0000F1E02080F8141D70474F
:103A700070B59B482DED020B2DED068B079D25F0B3
:103A80000044A04218DC9748844202DC0AD1069820
:103A900040B19DED060BBDEC068B02B0BDE8704059
:103AA00000F00BBB002DCCBF9FED8F0B9FED900B5B
:103AB000BDEC068B02B070BD8F48A04215DD8F486B
:103AC000A042D8BF4FF0FF3458DD9DED060B51ECFE
:103AD000100BFFF78EFF042808BF00F005FB9DEDDB
:103AE000060BBDEC068B02B070BD9DED060B51ECD4
:103AF000100B00F0CFFBCDE9060181489FED828BD2
:103B0000A0423CDD8248A0421FDD00249FED82AB35
:103B10009DED060B53EC1A2B51EC100B01F02EFA15
:103B20009DED060B41EC190B53EC1A2B51EC100BCD
:103B300001F084FC53EC182B01F056FE53EC192BCA
:103B400001F0D0FACDE9060149E09DED060B012414
:103B500053EC182B51EC100B01F010FA9DED060BF5
:103B600041EC190B53EC182B51EC100B01F03CFEFF
:103B700053EC192B01F0B6FACDE906012FE06848A5
:103B8000A0421FDD02249FED689B9DED060B53ECC8
:103B9000192B51EC100B01F051FC53EC182B01F0D8
:103BA000EDF99DED060B41EC180B53EC192B51EC84
:103BB000100B01F019FE53EC182B01F093FACDE92C
:103BC00006010CE09DED060B032453EC102B9FED3A
:103BD000580B51EC100B01F085FACDE906019DED73
:103BE000060B53EC102B51EC100B01F027FC41ECB1
:103BF000180B53EC182B01F021FC41EC190B4E482B
:103C00000621B0EE490AF0EE690A784400F0D9F9CD
:103C100053EC182B51EC100B01F010FC41EC180B7D
:103C20004648B0EE490AF0EE690A0521784400F0F2
:103C3000C8F953EC192B51EC100B01F0FFFB41ECD0
:103C4000100B51EC180B53EC102B002C0EDA01F07A
:103C500095F99DED061B53EC112B01F0EFFB9DED4B
:103C6000061B53EC112B01F0E7FC35E001F086F95F
:103C70009DED061B53EC112B01F0E0FB41EC100B0A
:103C80002F48784400EBC40090ED001B51EC100B62
:103C900053EC112B01F0A8FD9DED061B53EC112BED
:103CA00001F0A2FD41EC100B2648784400EBC40063
:103CB00090ED001B51EC100B53EC112B01F0BCFCF0
:103CC00041EC100B002DA2BFBDEC068B02B070BD05
:103CD00051EC100B01F014F941EC100B01E700005E
:103CE000000010440000F07F182D4454FB21F93FE0
:103CF000182D4454FB21F9BF0000DC3F0000203E9A
:103D00000000F33F00000000000000000000F03F52
:103D10000000E63F0000000000000000000000403E
:103D20000080034000000000000000000000F83F99
:103D3000000000000000F0BF8221000038210000D8
:103D4000C22000007A20000070B56F4E2DED040BEC
:103D50002DED048B82B0DDF824C0DDE907235C4241
:103D60002CF000411C4341EAD474069D22F000402F
:103D7000B44205D86C422C4340EAD474B4420BD907
:103D80009DED081B9DED060B02B0BDEC048B04B04D
:103D9000BDE8704000F09BB9ACF14054A4F17F64E1
:103DA0001C430BD0022404EAAC7444EAD2740543E9
:103DB0009FED578B9FED582B07D015E09DED060B1F
:103DC00051EC100B00F0A0F942E0002C11BF012CC7
:103DD0009DED060B02B0BDEC048B04BF04B070BDBA
:103DE000022C38D0032C3BD00B439FED4D1B9FED95
:103DF0004E0B0AD0B14218D1B04209D121F0804116
:103E000020F08040099107900FE0002A15DA10E0B9
:103E1000474B7B44002C08BF93ED000B0DD0012CC9
:103E200010D0022C17D0032C1AD0B0421DD1002A7A
:103E300003DAB0EE410AF0EE610A02B0BDEC048B89
:103E400004B070BD93ED000B51EC100B01F058F86D
:103E500041EC100BF1E7B0EE480AF0EE680AECE72F
:103E6000B0EE420AF0EE620AE7E7401A00159FED55
:103E7000329B3C28C8BF8DED000B17DCBCF1000F56
:103E8000BCBF10F13C0F8DED009B0FDB9DED080BCF
:103E900053EC102B9DED060B51EC100B01F022F9A9
:103EA00000F0F8F900F030F9CDE90001B4B1012CCF
:103EB00010D0022C9FED220B53EC102B9DED000B2C
:103EC00051EC100B19D001F08FFC53EC182B01F0C2
:103ED0008BFCBDE7019880F0004001909DED000B48
:103EE00053EC192B51EC100B01F054FA04BF0220D3
:103EF000FCF712FB9DED000B9FE701F075FC53EC06
:103F0000182B01F099FBA3E70000F07F00000000F0
:103F1000182D4454FB210940182D4454FB2109C09D
:103F2000182D4454FB21F9BF182D4454FB21F93FAF
:103F3000AA1F0000000000000000000000000000B8
:103F4000075C143326A6A13C00B52DED048BB0EE22
:103F5000409AF0EE609A83B051EC190B01F078FBB7
:103F600041EC180B18EE100A18EE901A8DED008B2C
:103F7000002818BF0120084320F00040C0F17F60F6
:103F800000F1E040C00F14D019EE101A19EE900A9B
:103F90008DED009B002918BF0121084320F000404F
:103FA000C0F17F6000F1E040C00F04BF0120FCF7CA
:103FB000B3FAB0EE480A03B0F0EE680ABDEC048B29
:103FC00000BD70B504462DED028B4D1E00EBC50003
:103FD000B0EE408AF0EE608A90ED000B35F00600FE
:103FE00017D053EC182B51EC100B01F027FA41ECD1
:103FF000100B6D1E04EBC50090ED001B51EC100B77
:1040000053EC112B00F0BAFF41EC100B35F0060019
:10401000E7D1022D36D0042D1CD0062D1CBFBDECDF
:10402000028B70BD53EC182B51EC100B01F006FA0B
:1040300094ED0A1B53EC112B00F0A0FF53EC182B4E
:1040400001F0FCF994ED081B53EC112B00F096FFE6
:1040500041EC100B53EC182B51EC100B01F0EEF966
:1040600094ED061B53EC112B00F088FF53EC182B3A
:1040700001F0E4F994ED040B53EC102B00F07EFFFB
:1040800041EC100B53EC182B51EC100B01F0D6F94E
:1040900094ED021B53EC112B00F070FF53EC182B26
:1040A00001F0CCF994ED001B53EC112B00F066FFEE
:1040B000BDEC028B41EC100B70BD10B553EC102B16
:1040C00051EC100B00F05AFF41EC100B10BD10B575
:1040D00053EC112B51EC100B00F050FF41EC100B86
:1040E00010BD0000000000009FED050B10B553EC63
:1040F000102B51EC100B01F0A1F941EC100B10BD8D
:10410000000000000000001010B541EC100BFFF79C
:10411000AFFC51EC100B10BD10B5B5EEC00A2DED83
:10412000048BB1EE408AF1EE10FA01DCB0EE480AE1
:1041300010EE101A1D4881420DDCF5EEC00AF1EEBA
:1041400010FA02DDB0EE600A01E0B1EE600A10EE96
:10415000101A814226DD10EE900A01F02FFC41EC8E
:10416000190B18EE100A01F029FC41EC100BB0EE0F
:10417000491AF0EE691AFFF7E7FD9FED0D1B51ECB0
:10418000100B53EC112B01F059F99FED0B1B53EC65
:10419000112B00F0A7FF00F0BFFE00EE100ABDECEF
:1041A000048B10BD9FED060AF9E700000000F04205
:1041B000000000000080664000000000FA21094075
:1041C0000000000070EE600A1049F0EEE00A10EE08
:1041D000900A884214DD10EE100A49424FF40102A1
:1041E0000844DFED0B0A904201D830EE601A10EE61
:1041F000100A08490844904204D830EE201A01E021
:10420000B0EE401AB0EE410A704700000000B44220
:104210000000344300004C3D30EE600A0D480C4A6B
:1042200010EE101AD0ED000AB7EE001A914202DD2E
:1042300030EEC10A09E010EE101A074A914202D886
:1042400090ED000A704730EE810A80ED000A704759
:10425000000082432C010020000082C340F2651060
:1042600000F022FCFEF7C2FE094C00BFFFF73CF84D
:104270000748FEF7F5FFFFF74BF894EC030AFCF74D
:1042800067FAFCF7F9F9022000F083F8EEE7000086
:104290009045002082B0CDE9000121F0004001905E
:1042A0009DED000B02B051EC100B7047098849BA24
:1042B00001808182704710B5B0F9003003810A880F
:1042C00052BA02804C88D31A64BA44808C88B3F501
:1042D000805F64BA848089798171016901DD491E3A
:1042E00003E013F5805F01DA491C016102EB413103
:1042F000828A891AC16010BD03213D20FEF770FC3F
:10430000032000F046F8F7E7FDF726FCFFF748F832
:10431000FEF736FDFEF7CCFCFEF786FCFEF7A6FCAA
:10432000FEF764FDFEF77EFDFEF79CFD00F092FABD
:104330000E48FCF791F90E48FCF78EF9FCF754F99A
:10434000FCF76EF90B220B490B48FEF76FFB0122BD
:104350000A490B48FEF76AFB4FF47A50FDF7E4FA7E
:10436000FEF7E4FC00F01CF8FEE7000084030020E8
:10437000AC03002044460020D4030020D0000020DD
:104380005C04002001460020842900D0C81C70472E
:10439000FEE710B500B9012000F086FB002010BD3B
:1043A00010B500F0A7FB002010BD7FB50D460446F8
:1043B0004169B0F9080081B1A16971B1FFF7E2FF6D
:1043C000D4E905128DE80700D4E900102B462269D4
:1043D00000F0A3FC039004B070BDFFF7D3FF03A966
:1043E000CDE90001208A2B4682B2D4E9001000F00A
:1043F00067FC012801D00020EDE70398EBE70000FF
:104400002DE9F041184C0F460546E6682068001D6E
:1044100000F082FA38B9206890F82C10012088400A
:10442000216981432161681C07D137B12168BDE84A
:10443000F0410E48091D00F0B3BA20683544B5427A
:104440004560216805D2A06BBDE8F041091D00F070
:104450008FBA606B091D00F08BFAA06A854200D20A
:10446000A562BDE8F081000020000020A407002024
:104470002DE9F041054600F09FFA2E4CA068401C43
:10448000A06020682C4F10B1606940B32DE025601A
:10449000A068012829D1002606EB860007EB8000E2
:1044A00000F058FA761C072EF6D323488C3000F023
:1044B00051FA2148A03000F04DFA1F48B43000F006
:1044C00049FA1D48C83000F045FA1B48DC3000F0BE
:1044D00041FA19488C3060631430A06305E020680D
:1044E000E96AC06A884200D82560606A401C606240
:1044F000E96A0120226988401043206101EB8100B4
:1045000007EB8000291D00F04BFA00F075FA606996
:1045100000280CD02068E96AC06A884207D207499F
:104520004FF080500860BFF34F8FBFF36F8FBDE82F
:10453000F081000020000020C806002004ED00E00B
:1045400010B5044690F8510058B101280CD002284B
:104550000FD0502080F31188BFF34F8FBFF36F8FC0
:10456000FEE7206B00F05CFA2046BDE8104000F04A
:1045700057BA10BD10484FF47051420706D0C01D05
:104580000D4920F00700411AC1F570510B4A002374
:104590000144C2E900030839183A21F0070111600B
:1045A0004B600B600B1AC0E9001393604FF00040A2
:1045B0005360506170470000B8070020740000206D
:1045C000144E154CA6F1C8074FF08058DFF84C90F8
:1045D00012E000BF00F0F0F9F068C568281D00F097
:1045E0009BF9A068401EA0606068401E606000F0FB
:1045F00003FA2846FFF7A4FF60680028EAD138686C
:104600000128F9D9C9F80080BFF34F8FBFF36F8F2E
:10461000F2E70000900700202000002004ED00E0F9
:104620002DE9F0479A46DDE9098481466FF00303DE
:10463000206B03EB82021044089E20F007077807E6
:1046400007D0502080F31188BFF34F8FBFF36F8FD7
:10465000FEE7002561B1002023180A5C83F83420AE
:104660000A5C12B1401C1028F6D384F8435001E0D4
:1046700084F83450072E00D30626E662C4E911659B
:10468000201D00F072F904F1180000F06EF92461A9
:10469000C6F107006462A061E56484F85050524698
:1046A0004946384600F0C0F82060B8F1000F01D04C
:1046B000C8F80040BDE8F08730B5114900E0114668
:1046C0000A688242FBD34B685C18844203D140687D
:1046D00018444860084643681C18944209D1084CA5
:1046E000183C2468A24209D052681A4442600A6801
:1046F00012680260814200D0086030BD0460F9E7B2
:10470000740000200648416B096829B1416BC968F3
:10471000C9684968816270474FF0FF31FAE70000CD
:104720002000002008484068401C4FF0500080F3F3
:10473000118804D0BFF34F8FBFF36F8FFEE7BFF335
:104740004F8FBFF36F8FFEE77C0000202DE9F04113
:104750000546002700F004FA324E306808B9FFF72A
:1047600009FF706905424ED1C5B3083568070ED000
:1047700005F00700C0F108000544680707D0502085
:1047800080F31188BFF34F8FBFF36F8FFEE72DB318
:104790007068854237D82348183001460C6801E01C
:1047A00020460C466168A94202D221680029F7D14F
:1047B00031688C4227D0076821680160606808373B
:1047C000411B10290FD96019420708D0502080F3EF
:1047D0001188BFF34F8FBFF36F8FFEE713E0416087
:1047E0006560FFF769FF61687068401A7060B268C1
:1047F000904200D2B060706901430020C4E900011A
:10480000F068401CF06000F019FB780707D05020DA
:1048100080F31188BFF34F8FBFF36F8FFEE73846E9
:10482000BDE8F0815C00002010B5031F4FF08074DC
:104830001C601B1F21F001011960191F044B0B6044
:1048400014390A60091F6FF0020244380A6010BD73
:104850002547000802492422A1F12400FEF7D0BC1C
:10486000A6500020F0B5002855D0002953D002787A
:10487000437842EA0322C2F30A020A80437884782A
:10488000DB0843EA4413C3F30A034B808478C578FA
:10489000A40944EA8504057944EA8524C4F30A049A
:1048A0008C80057946796D0845EAC615C5F30A0579
:1048B000CD804679C6F301168E724679B609CE725E
:1048C0008679C77946EA07268E81067A477A46EACC
:1048D0000726CE81867AC77A46EA07260E82067BAD
:1048E0008E74467BCE74867BC77B46EA07268E8213
:1048F000067C407CA2F580620A80A3F580634B8031
:10490000A4F5806446EA00208C80A5F58065CD8002
:10491000A0F580600881F0BDD0E9013201699A609C
:10492000D0E901235A604A68824201D182684A6014
:10493000002202610868401E086008687047000095
:10494000034B036003F1540008608020106070473F
:104950003001002000F108014FF0FF32C0E90112E0
:10496000C160016100210160704700210161704751
:1049700030B50B685A1C02D000F1080202E002694F
:1049800004E02246546825689D42FAD953684B607A
:1049900099608A60516008610168491C016030BDFE
:1049A00042684A6093688B609368596091600861BF
:1049B0000168491C01607047502080F31188BFF3E3
:1049C0004F8FBFF36F8F0A494868401C4860012829
:1049D0000CD10848006810F0FF0F07D0502080F37A
:1049E0001188BFF34F8FBFF36F8FFEE77047000052
:1049F0007C00002004ED00E00849486828B1401E12
:104A0000486001D180F311887047502080F31188ED
:104A1000BFF34F8FBFF36F8FFEE700007C000020D5
:104A200070B500282AD0164DA0F1080460686969A5
:104A3000084207D1502080F31188BFF34F8FBFF396
:104A40006F8FFEE722683AB1502080F31188BFF3E0
:104A50004F8FBFF36F8FFEE78843606000F080F8F0
:104A600060686968084468602046FFF725FE286989
:104A7000401C2861BDE8704000F0E0B970BD000046
:104A80005C0000204FF0E0200021016181610549B8
:104A90004FF47A720968B1FBF2F1491E41610721B6
:104AA000016170471C00002010B5020014D00F48AF
:104AB000006B38B1502080F31188BFF34F8FBFF3E4
:104AC0006F8FFEE700F04CF800211046FFF798FCCE
:104AD00000F0B4F9002807D105494FF08050086074
:104AE000BFF34F8FBFF36F8F10BD00002000002079
:104AF00004ED00E010B586B00024039405AA04A9D3
:104B000003A80494FFF71CFFDDE903010094CDE93D
:104B1000011000230EA11048059A00F0FEF80F497D
:104B20000028C86211D0502080F31188BFF34F8F46
:104B3000BFF36F8F4FF0FF30886201204861CC6077
:104B400006B0BDE8104000F041B806B010BD00004E
:104B500049444C4500000000C145000820000020E9
:104B60000248016B491C01637047000020000020CF
:104B70001448016B11B10121C16170470021C1616D
:104B80000169B1FA81F1C1F11F0101EB81020E4906
:104B900051F822306BB101EB820101F108034A6840
:104BA00052684A609A4201D152684A60D1680160F5
:104BB0007047502080F31188BFF34F8FBFF36F8F82
:104BC000FEE7000020000020C80600201CB5374882
:104BD0000168374A914207D1502080F31188BFF312
:104BE0004F8FBFF36F8FFEE700683149491E88423F
:104BF00007D1502080F31188BFF34F8FBFF36F8F21
:104C0000FEE72C4908780190FF20087008788DF89D
:104C100000009DF800009DF8002000F0F000904298
:104C200007D0502080F31188BFF34F8FBFF36F8FF1
:104C3000FEE79DF80000204C00F050002070072097
:104C4000A06005E09DF8002052008DF80020401E75
:104C50009DF800201206F5D4A060032807D050204C
:104C600080F31188BFF34F8FBFF36F8FFEE74FF4D0
:104C70004070A060019808700C482030016841F431
:104C800070010160016841F070410160FFF7FAFEB8
:104C900000206060FBF70CFB0848016841F04041D0
:104CA0000160FBF7F1FA00201CBD000000ED00E000
:104CB00071C20F4100E400E07C00002034EF00E00E
:104CC0002DE9FF5F8346DDE90E87994616468A4641
:104CD0009000FFF73BFD05001CD05420FFF736FD88
:104CE000040014D00020256384F85100CDE902406F
:104CF000CDE900874B46324651465846FFF790FCB7
:104D00002046FFF7B5FB012004B0BDE8F09F284620
:104D1000FFF786FE4FF0FF30F6E7F0B585B0DDE92E
:104D20000B640A9DA6B1DCB15427009726630226C6
:104D300084F85160002604AFCDE90246CDE9005762
:104D4000FFF76EFC2046FFF793FB049805B0F0BD1B
:104D5000502080F31188BFF34F8FBFF36F8FFEE7B2
:104D6000502080F31188BFF34F8FBFF36F8FFEE7A2
:104D70002DE9F0412F4C0026206B28B1A069401C82
:104D8000A0613046BDE8F081E5686D1CE56013D197
:104D9000606B006838B1502080F31188BFF34F8FEB
:104DA000BFF36F8FFEE7606BA16B6163A063206A46
:104DB000401C2062FFF7A6FCA06ADFF87C808542D9
:104DC00009D3606B0068A0B1606BC068C768786881
:104DD000854211D2A0622068C06A00EB800158F8B9
:104DE0002100012800D90126E0690028C9D0012648
:104DF000C7E74FF0FF30EDE7381DFFF78DFDB86ACC
:104E000018B107F11800FFF787FDF96A0120226940
:104E100088401043206101EB810108EB8100391DBE
:104E2000FFF7BEFDF86A2168C96A8842C9D3012626
:104E3000C7E7000020000020C80600202DE9F04749
:104E40002C4D00242746286B38B1FFF7B5FD286BA1
:104E5000401E2863286B40B146E0502080F3118843
:104E6000BFF34F8FBFF36F8FFEE7A968224E01207B
:104E7000D1B3A6F1B40980463068E8B1F068C468DF
:104E800004F11800FFF748FD201DFFF745FDE06A1B
:104E90002A6908FA00F11143296100EB800109EB4E
:104EA0008100211DFFF77CFDE06A2968C96A8842FC
:104EB000E2D3C5F81C80DFE70CB1FFF723FCAC6937
:104EC00044B14646FFF754FF00B1EE61641EF9D1CC
:104ED0000020A861E86938B108490127380708604F
:104EE000BFF34F8FBFF36F8FFFF786FD3846BDE8E6
:104EF000F0870000200000207C07002004ED00E087
:104F000081F00041704780F00040704721F000417F
:104F1000704720F00040704721F00042A2F160523B
:104F2000B2F5801F01F0004328BFD2F17F6C0BD98E
:104F30005FEA001C43EAC20242EB507018BF7047A0
:104F400028BF20F001007047B2F5801FBCBF184693
:104F500070474FEA410C1CF5001F02D2084600F0D2
:104F6000A3BD70B500F014FB00000089FFF7F6BF89
:104F70004FF00040A0F580007047000010B591EAA6
:104F8000030F48BF83F0004300F13684841A71EBAD
:104F9000030C05D2121943EB0C03001B61EB0C014F
:104FA000DFF824E14FEA1154A4EB135C1EEA430F2F
:104FB00018BF9EEA445F73D023EA0E03DCF1200E93
:104FC00021EA045143F4801332D322FA0CFE10EB91
:104FD0000E0023FA0CFE41EB0E01CCF1200E03FA79
:104FE0000EFE10EB0E0051F10001B1F5801FCCF167
:104FF000200E32D201EB045112FA0EF2BDE810403D
:1050000058BF7047401C38BF5FEA420218BF704764
:10501000002814BF20F0010041F100014FEA4103D4
:1050200013F5001F38BF7047A1F1C04100F0FEBA70
:10503000012A43EB0302ACF1200CDCF11F0E32BF5E
:105040004FF0000E23FA0CF310EB030041EB045178
:10505000B4EB115FD0D0A1EB045101F580114908E8
:105060005FEA300001EB04510ED350F1000038BF6D
:1050700012FA0EFE08D1BDE81040C9E7401C38BF47
:105080005FEA4202CAD1C3E7BDE810404FEA4103DC
:1050900013F5001F38BF7047A1F1C04100F0C6BA38
:1050A0009EEA445F08D011EA5E0FBDE8104004BFDD
:1050B00001F0004100207047BDE8104070B500F0DD
:1050C00067FA00BF64FBBE3E0000E0FF491058BF16
:1050D000C1F140415B1058BFC3F140438B42EFF335
:1050E000008070472DE9C04130B4DFF8A0C23CEA2F
:1050F000111418BF3CEA131400F0EC8081EA030598
:105100001CEA111444EAD57418BF1CEA131500F008
:10511000C780A4EB05044FF0004545EAC12145EAEC
:10512000C32341EA505143EA525304F17F74994238
:1051300004F500344FEAC0204FEAC22208BF904273
:1051400000F09C804FEA13650FF24016765D4FEA3F
:10515000134506FB05F7C7F1807706FB07F74FEA13
:10516000D737A7FB03687642C8F58038A7FB06CE81
:1051700038BFA8F1010807FB08E64FF0000EA6FBB8
:10518000028CE6FB03CEDCF1000CCEF1004E38BF02
:10519000AEF1010EA6FB0C584FF000074FF00005D2
:1051A000E6FB0E87A1FB08C6A0FB07CE16EB0E069A
:1051B00045F10005E1FB076515F1E04E7EBFA4F562
:1051C00080345FEA46066D4116F1800745F100051F
:1051D0004FEA17274FEA066647EA0567A6F1DE465B
:1051E000B6F1805F4FEA15251FD9384624F0010C2F
:1051F00005EBC471BCF1FE6F01EB0C1102D8F0BCE1
:10520000BDE8008124425CBF01F5801E9EEAC47F98
:1052100002D4F0BCBDE80081244238D4F0BCA1F136
:10522000C041BDE8004100F001BA4FEAD22242EA93
:1052300043524FEAD323A7FB02864FEAD02040EA2D
:10524000415007FB03661EEA0E0F4FEAD12105FB12
:10525000026658BFA6EB0056B6EB00564FEA520E58
:105260004EEAC37E18EB0E0E56EB530EBDD518EB6F
:1052700002085E417F1C55F10005B6E74FF480152A
:105280004FF000074FF000064FF00008ADE7F0BC0C
:105290004FF0000001F1C04101F00041BDE8008184
:1052A00011EA0C1F0CEA131500D00CE013EA0C1FD6
:1052B00000F025804FF00000F0BC81EA030101F00E
:1052C0000041BDE80081F0BCBDE8004181EA030176
:1052D00000F0ACB9F0BCBDE8004170B500F058F981
:1052E000097EFC3E00F007B881EA03014FF00000A0
:1052F00001F00041704781EA030100F097B9F0BC6A
:10530000BDE800414FF0000021497047FFFDFBF967
:10531000F7F5F4F2F0EEEDEBE9E8E6E4E3E1E0DEE8
:10532000DDDBDAD8D7D5D4D3D1D0CFCDCCCBCAC85A
:10533000C7C6C5C4C2C1C0BFBEBDBCBBBAB9B8B781
:10534000B6B5B4B3B2B1B0AFAEADACABAAA9A8A874
:10535000A7A6A5A4A3A3A2A1A09F9F9E9D9C9C9B42
:105360009A999998979796959594939392919190ED
:105370008F8F8E8E8D8C8C8B8B8A8989888887877E
:105380008685858484838382828181800000FF07F3
:105390000000F87F51EA030C17D41CF5801F58BF9A
:1053A000BCF5801F00F10680994218BF704708BF06
:1053B0009042704707D711F5801F58BF13F5801F23
:1053C00019D499427047894270471CF5801F08D54F
:1053D000BCF5801FF7D58B4218BF704708BF8242CB
:1053E00070474FF4001C1CEB410F38BF1CEB430F00
:1053F00001D28B42704770B500F0CAF89224490080
:105400004FF000514FF08053FFF760BE10F00042A4
:1054100048BF4042B0FA80F310FA03F10AD0C3F15A
:105420001D0303F580634FEA415002EB035202EB88
:10543000D12170474FF0000070470000DFF848C1ED
:1054400070B51CEA111E1EBF1CEA13159EEA0C0F54
:1054500095EA0C0F00F06F8081EA030423EA4C13F5
:105460004EEAD47E21EA4C1141F4801143F48013BA
:10547000AE44A1FB024CA0FB0365AEF17F7E361962
:1054800055EB0C05A1FB034C4CF10003A0FB021CE7
:1054900016EB0C06654153F10003094218BF46F0B4
:1054A000010613F4007F0BD14FEA03314FEA0530B8
:1054B000340341EA155140EA16506FF003020AE046
:1054C0004FEAC3214FEAC520F40241EA555140EAB0
:1054D00056506FF0020202EB2E4201EB025585EAB4
:1054E000CE710AD05FEA440C18BF24F0004450F19A
:1054F000000041F1000120EAD47040F2FE7C6245D8
:1055000000D270BDA84214BF4FF080444FF0404419
:10551000002E08BF0024BEF1806FA8BFA1F1C041DA
:10552000BDE8704080F282804FF0000001F1C04180
:1055300001F0004170479EEA0C0F0CEA131518BFEA
:1055400095EA0C0F06D04FF0000081EA030E0EF032
:10555000004170BD00F01CF88900013E00F007B862
:1055600000F009B84FEA430C5FEA5C5C08D081EABE
:10557000030100F05BB84FEA410C5FEA5C5CF6D1D6
:105580004FF00000014970470000FF070000F87F5E
:105590000EF1020E2EF0030E5EF8046B364205D4B7
:1055A000012A43EB030515F5001F12D8012841EB32
:1055B000010C1CF5001F0CD80ED14FEAD17C15F55B
:1055C000001F0CEB4C0C0CF1020C08BF4CEBD37C15
:1055D00004E04FF0080C01E04FEAD37C0CEB4C05E3
:1055E00026FA05F606F00706B6F1040C06D20EEB15
:1055F000860CBDE870404CF0010C6047DFE80CF011
:10560000090B02024FF000414FF00000A1F500210C
:1056100070BD19461046012851EB010418BFD4F59E
:10562000001484BF002001F0004170BD0808A0F5FF
:1056300000114FEA3101704791EA030F10B581F074
:1056400000413FF5A3AC83F0004300F0D5B8000063
:105650002DE9F04101F5801CBCF5001FC0F2A980C6
:105660004FEA115C21EA0C510CF1FD0C41F4801160
:105670005FEA5C0C0CF5C07C01D34000494130A4CA
:10568000890241EA905187028E0E0A0CA45D04FB48
:1056900004F602FB06F6C6F14046A4FB0662F60DD0
:1056A00046EA422606FB06F4A4FB01235242C3F15C
:1056B000404338BF5B1EA6FB02420024E6FB0324E6
:1056C000D20B42EA4446A6FB0623A1FB02E2A3FB5F
:1056D00007E4E3FB61426442C2F1404E38BFAEF1E1
:1056E000010EA6FB04234FF00002E6FB0E32A2FBE4
:1056F00003463400E2FB6264A1FB06E6A4FB07E874
:10570000E4FB61687642C8F1405838BFA8F101084F
:10571000A2FB06E4A3FB08E5E2FB6854A1FB05E657
:10572000A7FB04E8E1FB648618F1200556F10006AA
:10573000A809A8F11B08B10908F03F08B8F10A0F41
:1057400040EA86601CD901EB0C51BDE8F08100BF36
:10575000FCF5EEE8E2DDD8D3CFCBC7C3C0BDB9B608
:10576000B4B1AEACA9A7A5A3A19F9D9B9A9896950D
:105770009392908F8D8C8B89888786858483828194
:10578000A0FB006800FB01F208EB4208B8EB872899
:1057900007D5341858EB0104D5D5401C51F1000150
:1057A000D1E7341A78EB0104CDD4401E71F1000129
:1057B000C9E75FEA4C0C5FEA9C5C0DD105D34FF062
:1057C000000001F00041BDE8F081BDE8F04170B596
:1057D000FFF7DEFE6DDBFFBEBDE8F0414FF00000DD
:1057E000004970470000F87F10B591EA030F48BFE9
:1057F00083F000433FF5CAAB841A71EB030C07D268
:1058000012198CF0004C43EB0C03001B61EB0C01F4
:10581000DFF8A4E14FEA1154A4EB135C1EEA430F36
:1058200018BF9EEA445F00F0B08023EA6E03524244
:1058300021EA0451C3EB6E0338BF5B1EDCF1200E7E
:1058400025D322FA0CFE10EB0E0043FA0CFE41EBBE
:105850000E01CCF1200E03FA0EFE10EB0E0051F1FA
:105860000001CCF1200E29D412FA0EF201EB045102
:10587000BDE8104058BF7047401C1CBFB2F1004F3C
:10588000704700280CBF491C20F00100704712EB44
:10589000020E43EB030218BF4FF0010E4EEA420224
:1058A000ACF1200CDCF11E0E54D943FA0CFE10EBC7
:1058B0000E0051F1FF31CCF11E0ED5D50EF1010EC7
:1058C00012FA0EFE404141EB010101EB445C5FEA3C
:1058D0005C5C10D910EBDE7001EB045138BFBEF1F7
:1058E000004FBDE8104018BF704700280CBF491C8E
:1058F00020F00100704730D24FEAD42C11F500118E
:1059000024F400641BD0B1FA81F20B3AA41AA41E4D
:10591000D2F12003914030FA03F31943904001EB98
:10592000CC71002C01EB0451BDE81040A8BF7047BA
:1059300001F1C0414FF0000001F000417047B0FAA2
:1059400080F310FA03F100D110BDE41A173C4805AA
:10595000C90AE4E701EB045110BD491001EB045101
:10596000BDE810404FEA300002E04FF00001704700
:105970004A0008BF0042F8D0B2F5001F28BF7047A8
:1059800001F000414FF0000070479EEA445F07D0ED
:1059900011EA5E0FBDE8104004BF002100207047EF
:1059A000BDE8104070B5FFF7F3FD00BF40DFF63EE5
:1059B00083F00041104670470000E0FF43004FEACB
:1059C000D30C4FEA3C0C43401FBF40070CF1605121
:1059D00013F0FE4F70471CF0006F03D100200CF055
:1059E000004170470CF0004343EA507010B540EAA4
:1059F000CC0000F00EF800BF000000924FEA00015A
:105A0000FFF714BE4FF000414FF00000A1F5002158
:105A100070470EF1020E2EF0030E5EF8044B244286
:105A200004D44FEA4102B2F17F4F11D84FEA40034C
:105A3000B3F17F4F0CD80ED14FEAD07CB2F17F4F3B
:105A40000CEB4C0C0CF1020C08BF4CEBD17C04E0CD
:105A50004FF0080C01E04FEAD17C0CEB4C0324FA28
:105A600003F404F00704B4F1040C06D20EEB840C2A
:105A7000BDE810404CF0010C6047DFE80CF007086F
:105A800002024FF00040A0F5800010BD0846420021
:105A900018BFD2F1807288BF00F0004010BD4FF0F7
:105AA0004070E1EE100A7047FF2141EAD050C00576
:105AB00070470000C85D00085D420008000000005B
:105AC0000000000080000000000000000000000056
:105AD000DC5D0008F9420008000000000000000042
