:020000040800F2
:10000000C016002021020008F7110008891000081E
:10001000F511000817040008011400080000000092
:10002000000000000000000000000000890100083E
:100030001904000800000000CD010008F9110008B3
:100040003B0200083B0200083B0200083B0200089C
:100050003B0200083B0200083B0200083B0200088C
:100060003B0200083B0200083B0200083B0200087C
:100070003B0200083B0200083B0200083B0200086C
:100080003B0200083B0200083B0200083B0200085C
:100090003B0200083B0200083B0200083B0200084C
:1000A0003B0200083B0200083B0200083B0200083C
:1000B0003B0200087D120008000000003B0200081F
:1000C0003B02000800000000000000003B020008A6
:1000D000000000003B0200083B0200080000000096
:1000E0003B0200083B0200083B02000800F002F857
:1000F00000F03AF80AA090E8000C82448344AAF188
:100100000107DA4501D100F02FF8AFF2090EBAE885
:100110000F0013F0010F18BFFB1A43F0010318473B
:100120002829000048290000103A24BF78C878C167
:10013000FAD8520724BF30C830C144BF04680C60ED
:10014000704700000023002400250026103A28BF35
:1001500078C1FBD8520728BF30C148BF0B60704739
:100160001FB51FBD10B510BD00F01BF91146FFF7FC
:10017000F7FF01F019FA00F039F903B4FFF7F2FFC5
:1001800003BC00F041F90000224B19680868B0E890
:10019000F00F80F30988BFF36F8F4FF0000080F3FA
:1001A00011884EF00D0E70470000000006480068F0
:1001B000006880F3088862B661B6BFF34F8FBFF363
:1001C0006F8F00DF00BF00BF08ED00E0EFF3098094
:1001D000BFF36F8F0F4B1A6820E9F00F106008B55E
:1001E0004FF0500080F31188BFF34F8FBFF36F8F34
:1001F00001F0BEFE4FF0000080F31188BDE808401A
:1002000019680868B0E8F00F80F30988BFF36F8FB2
:10021000704700BF2C000020EFF3058070470000FE
:100220000948804709480047FEE7FEE7FEE7FEE78A
:10023000FEE7FEE7FEE7FEE7FEE7FEE704480549C6
:10024000054A064B704700007B120008ED000008CD
:10025000C0100020C0160020C0120020C0120020D4
:10026000032A40F2308010F0030C00F0158011F8E2
:10027000013BBCF1020F624498BF11F801CB00F8BA
:10028000013B38BF11F8013BA2F1040298BF00F80E
:1002900001CB38BF00F8013B11F0030300F02580CB
:1002A000083AC0F0088051F8043B083A51F804CBF2
:1002B000A0E80810F5E7121D5CBF51F8043B40F8B8
:1002C000043BAFF30080D20724BF11F8013B11F8C3
:1002D00001CB48BF11F8012B24BF00F8013B00F807
:1002E00001CB48BF00F8012B704710B5203AC0F091
:1002F0000B80B1E81850203AA0E81850B1E8185027
:10030000A0E81850BFF4F5AF5FEA027C24BFB1E863
:100310001850A0E8185044BF18C918C0BDE81040D4
:100320005FEA827C24BF51F8043B40F8043B08BFDD
:100330007047D20728BF31F8023B48BF11F8012BA4
:1003400028BF20F8023B48BF00F8012B70474FF050
:10035000000200B5134694469646203922BFA0E815
:100360000C50A0E80C50B1F12001BFF4F7AF090721
:1003700028BFA0E80C5048BF0CC05DF804EB890012
:1003800028BF40F8042B08BF704748BF20F8022B55
:1003900011F0804F18BF00F8012B7047704770476D
:1003A0007047754600F02CF8AE4605006946534686
:1003B00020F00700854618B020B5FFF73FFFBDE8E5
:1003C00020404FF000064FF000074FF000084FF0BC
:1003D000000B21F00701AC46ACE8C009ACE8C0094D
:1003E000ACE8C009ACE8C0098D46704710B50446BA
:1003F000AFF300802046BDE81040FFF7BEBE00000E
:10040000004870476010002001491820ABBEFEE78D
:10041000260002007047FEE7704772B6FEE7000054
:100420002DE9F84FDFF89C91002409F1040A0AF144
:10043000040B23460F270BF1040EBBE00125A5405A
:100440002A40AA4276D1DFF880C14E68A6EB0C089C
:1004500066452BD00DDC032E34D005DC36B3012EDF
:1004600019D0022E2FD11BE0112E16D0122E2AD118
:1004700019E0B8F5881F19D006DCB8F5803F15D013
:10048000B8F5801F1FD111E0B8F5001F0ED0B8F5E8
:10049000041F18D10AE0CB6815E0CB681B1D12E0E1
:1004A000CB6808330FE0CB680C330CE08B682BB1C2
:1004B000012B4FF0080303D0456104E0042302E060
:1004C000056100E00023FF2A01D8064601E000F1A3
:1004D00004064FEA840501D9A5F12005D6F800806D
:1004E00007FA05FC28EA0C0803FA05F548EA0508AE
:1004F000C6F800804D68ED005BD5344DAE6946F01E
:100500000106AE61AD6924F0030605F00105009512
:100510002F4D06EB050CDCF80850A607360F07FA3E
:1005200006F825EA0805DFF8AC80404503D14FF016
:10053000000810E03DE0DFF8A080404502D14FF018
:10054000010808E0DFF89480404502D14FF002082E
:1005500001E04FF0030808FA06F848EA0508CCF86D
:1005600008804D68D9F80060ED034D4601D516436B
:1005700000E096432E604D68DAF80060AD03554602
:1005800001D5164300E096432E604D68DBF800600D
:10059000ED025D4601D5164300E096432E604D689E
:1005A000DEF80060AD02754601D5164300E09643C3
:1005B0002E60641C0A6832FA04F57FF43FAFBDE890
:1005C000F88F0000000401400000111000100240EC
:1005D0000000014000080140000C014000100140F3
:1005E0000AB1016170470904FBE700000148806817
:1005F000704700001C000020024881680278114406
:10060000816070471C000020074810B5016841F068
:1006100010010160032000F0A7F80F2000F006F899
:1006200000F050F8002010BD0020024030B5054613
:100630001F4887B0C16941F00201C161C06906A9C4
:1006400000F00200009001A800F036F90498B0B163
:1006500000F052F940001749174AB0FBF1F1174872
:10066000491E0260416040F2E7320021C0E90321E7
:100670008160816100F028FB040003D015E000F0E8
:100680003BF9E8E70D4800F04DFB04000DD11D20BB
:1006900000F03CF8102D07D2002229461D2000F062
:1006A00043F80748056000E0012407B0204630BD4C
:1006B0000010024040420F000004004028030020C8
:1006C000200000200F4808B5816941F001018161D7
:1006D000816901F001010091C16941F08051C1615E
:1006E000C069002200F0805000900F21901E00F0A1
:1006F0001BF80548416821F0E06141F0007141605C
:1007000008BD00000010024000000140002809DB85
:1007100000F01F02012191404009800000F1E0201B
:10072000C0F8001170470000F0B40E4B1B680C4677
:10073000C3F30223C3F10705042D00D90425191DB5
:10074000072901D2002300E0DB1E012606FA05F18D
:10075000491E214099409E40761E16403143F0BC10
:1007600000F04FBE0CED00E0064900F007020868FB
:100770004FF6FF03184040EA0220034A1043086086
:10078000704700000CED00E00000FA052DE9F0478D
:100790000F46050061D0434E306800F00700B842B4
:1007A00009D2306820F0070038433060306800F02C
:1007B0000700B84251D128683B4C810712D5400749
:1007C00003D5606840F4E06060602878000703D5D6
:1007D000606840F4605060606068A96820F0F000D4
:1007E000084360602878C00728D06868012810D0C6
:1007F0002168022810D0890700292EDA616821F0CB
:10080000030101436160FFF7F1FE804641F2883940
:100810000DE021688903EFE78901EDE7FFF7E6FEC8
:10082000A0EB0801494502D90320BDE8F0876068C4
:10083000696800F00C00B0EB810FEFD1306800F078
:100840000700B8420BD9306820F007003843306009
:10085000306800F00700B84201D00120E5E72878B1
:10086000400705D56068E96820F4E06008436060EF
:100870002878000706D56068296920F4605040EAAE
:10088000C100606000F058F86168084AC1F30311C4
:10089000515CC8400649086006480068FFF7C6FE7C
:1008A0000020C2E70020024000100240FC2900089E
:1008B00028000020200000200F2202600C4A53680C
:1008C00003F003034360536803F0F003836053684D
:1008D00003F4E063C36052684FF4E06303EAD202BA
:1008E00002610448006800F00700086070470000DB
:1008F0000010024000200240044805490068496891
:10090000044AC1F30221515CC8407047280000200E
:10091000001002400C2A0008044805490068496894
:10092000044AC1F3C221515CC8407047280000202E
:10093000001002400C2A000812A185B00FC98DE8F2
:100940000F0014A0144A006804905168134801F085
:100950000C03042B10D0082B0ED1C1F38343C90321
:100960001DF803000AD5516804AAC1F34041515C47
:100970000A4A5043B0FBF1F005B0704708494843BC
:10098000FAE7000002030405060708090A0B0C0D2C
:100990000E0F1010010200000010024000127A0039
:1009A00000093D002DE9F84F040070D02078C04DBB
:1009B000C00749D06868C0F38100012807D0686883
:1009C000C0F38100022809D16868C00306D52868F1
:1009D000800339D560680028E7D035E06068B0F55D
:1009E000803F0BD010B1B0F5A02F11D0286820F4B3
:1009F00080302860286820F4802002E0286840F4D5
:100A000080302860606890B1FFF7F0FD06460AE08C
:100A1000286840F480202860F0E700BFFFF7E6FD7B
:100A2000801B642873D828688003F7D50CE0FFF793
:100A3000DDFD064605E000BFFFF7D8FD801B6428FA
:100A4000F0D828688003F7D420789A4E80074FF0BA
:100A500001094FF0000839D5686810F00C0F07D075
:100A60006868C0F38100022809D16868C00306D411
:100A70002868800714D52069012808D110E0206972
:100A8000B0B1C6F80090FFF7B1FD074605E00AE1F6
:100A9000FFF7ACFDC01B0228C4D828688007F7D533
:100AA0002868616920F0F80040EAC10028600DE084
:100AB000C6F80080FFF79AFD074604E0FFF796FDB1
:100AC000C01B022823D828688007F7D420780007A5
:100AD0002CD57948A169D9B1C0F80090FFF786FDFF
:100AE000074604E0FFF782FDC01B02280FD8686AA2
:100AF0008007F7D571484FF4FA510068B0FBF1F068
:100B0000009000BF0098411E0091FAD20EE080E0F4
:100B1000C0F80080FFF76AFD074604E0FFF766FDB6
:100B2000C01B022875D8686A8007F7D42078400770
:100B300060D5E8690027C00008D4E86940F080501B
:100B4000E861E869012700F0805000905C48016886
:100B5000C90513D40168834641F480710160FFF731
:100B600045FD824606E000BFFFF740FDA0EB0A000E
:100B700064284ED8DBF80000C005F5D5E0680128F0
:100B80000AD008B1052813D0286A20F00100286295
:100B9000286A20F0040002E0286A40F00100286280
:100BA000E06841F2883B98B1FFF720FD82460BE0F8
:100BB000286A40F004002862EEE700BFFFF716FD48
:100BC000A0EB0A0159455AD8286A8007F6D50CE0EF
:100BD000FFF70CFD824605E0FFF708FDA0EB0A01D8
:100BE00059454CD8286A8007F6D41FB1E86920F02F
:100BF0008050E861E06988B36968C1F38101022926
:100C000044D00228C6F8608004D0FFF7EFFC044609
:100C100038E034E0FFF7EAFC074604E0FFF7E6FCC3
:100C2000C01B02282BD828688001F7D4206AB0F5B1
:100C3000803F05D16868A16820F4003008436860EF
:100C4000D4E908010843696821F474110843686015
:100C5000C6F86090FFF7CAFC044606E025E000BF36
:100C6000FFF7C4FC001B022809D828688001F7D5CB
:100C70001BE000BFFFF7BAFC001B022802D90320CB
:100C8000BDE8F88F28688001F4D40EE00128F7D081
:100C90006868226A00F48031914204D1616A00F4EC
:100CA0007010884201D00120EAE70020E8E7000048
:100CB000001002400000424280044242280000200E
:100CC000007000407047704710B5040003D094F8DE
:100CD0003D0010B107E0012010BD002084F83C0069
:100CE000204600F01EF8022084F83D00211D2068F7
:100CF00000F0CAFA012084F8460084F83E0084F827
:100D00003F0084F8400084F8410084F8420084F8F1
:100D1000430084F8440084F8450084F83D00002036
:100D200010BD704790F83D10012901D00120704797
:100D3000022180F83D100168CA6842F00102CA60D1
:100D400000680A49884205D0B0F1804F02D00849B6
:100D5000884204D1816801F00701062903D00168A7
:100D600041F001010160002070470000002C0140AB
:100D700000040040704770B50446006801694FF0F8
:100D80000005C943890715D4C168C943890711D42F
:100D9000E91E0161012020772068806980072046D4
:100DA00002D0FFF7E7FF04E000F098F8204600F0DB
:100DB00096F8257720680169C943490717D4C168A7
:100DC000C943490713D46FF0040101610220207761
:100DD0002068806910F4407F204602D0FFF7CAFFE8
:100DE00004E000F07BF8204600F079F825772068D1
:100DF0000169C943090716D4C168C943090712D458
:100E00006FF008010161042020772068C069800725
:100E1000204602D0FFF7AEFF04E000F05FF8204666
:100E200000F05DF8257720680169C943C90617D429
:100E3000C168C943C90613D46FF0100101610820CD
:100E400020772068C06910F4407F204602D0FFF769
:100E500091FF04E000F042F8204600F040F82577CA
:100E600020680169C943C90708D1C168C943C907D6
:100E700004D1891E0161204600F032F82068016922
:100E8000C943090609D4C168C943090605D46FF0EE
:100E9000800101612046FFF715FF20680169C94301
:100EA000490609D4C168C943490605D46FF0400119
:100EB0000161204600F01EF820680169C9438906D7
:100EC0000BD4C168C943890607D46FF020010161C2
:100ED0002046BDE87040FFF7F6BE70BD7047704712
:100EE00000680349884201D1FFF786BB70470000C4
:100EF00000040040704770B5040004D094F83D0031
:100F0000002510B106E0012070BD84F83C50204659
:100F100000F022F8242084F83D002068C16821F404
:100F20000051C160204600F0DDF92068016921F41C
:100F3000904101612068416921F02A0141612068E6
:100F4000C16841F40051C1602564202084F83D004F
:100F500084F83E00002070BD30B585B000240094B8
:100F600001940294039400681449884224D11448DF
:100F7000816941F480418161816901F4804104917A
:100F8000816941F00401816180690E4D00F0040027
:100F900004904FF400700090022001900320039011
:100FA00069462846FFF73CFA2815CDE90004694652
:100FB00028460294FFF734FA05B030BD00380140EE
:100FC00000100240000801402DE9F84F044690F857
:100FD0003E009A4616460D46202853D1FDB1F6B183
:100FE00094F83C0001284DD0012084F83C000027F3
:100FF0002764222084F83E002763FFF7F7FAA685CE
:101000008146E685A0684FF48058404501D12069AB
:1010100040B12E465FF0000584F83C7027E00120C7
:10102000BDE8F88F0026F7E74B4600222021204636
:10103000CDF800A000F0B2F908B10320F0E726B126
:10104000A06840451BD038B108E020684068C0F374
:10105000080025F8020B07E0206980B1206840688D
:1010600000F07F0006F8010BE08D401EE085E08D6A
:101070000028D9D1202084F83E000020D0E7206845
:101080004068EFE70220CBE7FEE7000030B5A3B0F1
:1010900000251C9501211CA81D9500F0A4FA1E4CEA
:1010A000012120611E951EA81F9500F09CFA606129
:1010B0002095012120A8219500F095FAA0611C221D
:1010C00016496846FFF711F90021684600F0AAFAB0
:1010D000124920601C221C3107A8FFF706F90021E5
:1010E00007A800F09FFA0D4960601C2238310EA855
:1010F000FFF7FBF800210EA800F094FA0749A06062
:101100001C22543115A8FFF7F0F8002115A800F0B3
:1011100089FAE06023B030BD000000208C2900086F
:101120002DE9F04385B000242148009401940294F5
:101130000394816941F020018161816901F02001FE
:101140000491816941F008018161816901F0080120
:101150000491816941F0040181618069DFF8548064
:1011600000F004004FF470450490002229464046E8
:10117000FFF736FADFF840904FF410670022394647
:101180004846FFF72DFA0095022601250396CDE982
:10119000015469464046FFF743F900970396CDE9AD
:1011A000015469464846FFF73BF905B0BDE8F083B6
:1011B00000100240000C0140000801400C4810B52E
:1011C0000A4901604FF4E1314160002181600C2245
:1011D000C160C0E904128161C161FFF78CFE002883
:1011E00003D0BDE81040FFF718B910BD003801402A
:1011F000E4020020FEE7FEE710B5502080F31188DE
:10120000BFF34F8FBFF36F8F01F02AFA18B1044973
:101210004FF080500860002080F3118810BD00005E
:1012200004ED00E030B58FB028216846FFF78FF855
:1012300014210AA8FFF78BF8012108040024049167
:10124000CDE90010CDE9080402940225079568460F
:10125000FFF7A8FB08B172B6FEE70F200A90CDE9B0
:101260000B540D9400210AA80E94FFF78FFA002862
:1012700001D072B6FEE70FB030BD70470148FFF7EE
:101280007ABD00002803002070B50268134B144C8F
:101290004FF08046984203D0B04201D0A04203D123
:1012A00022F070054A682A43984203D0B04201D028
:1012B000A04203D122F44074CA6822434C6922F050
:1012C0008002224302608A68C2620A68826298428F
:1012D00001D1096901630121416170BD002C014008
:1012E0000004004070B5044600680169E26821F41A
:1012F0004051114301612169A068084361690843B5
:101300002168CA6841F20C639A430243CA602068AC
:101310004169A26921F44071114341611E4920686D
:10132000884202D1FFF7F8FA01E0FFF7E5FA00EB97
:10133000C00101EB0012606864218000B2FBF0F391
:10134000B3FBF1F36FF018067343B2FBF0F5B2FB99
:10135000F0F605EB8305322303EB0515B5FBF1F53C
:10136000B6FBF1F605F0F00505EB0615B2FBF0F65D
:10137000B2FBF0F0B0FBF1F06FF01802504306EB57
:10138000800003EB0010B0FBF1F0216800F00F00CB
:101390002844886070BD0000003801402DE9F0410C
:1013A000984617460E460446069D1DE0681C1BD055
:1013B0002DB1FFF71BF9A0EB0800A84214D9206853
:1013C000C16821F4D071C1602068416921F0010138
:1013D0004161202084F83D0084F83E00002084F81C
:1013E0003C000320BDE8F0812068006836EA000078
:1013F00004D00020B842D9D00020F3E70120F9E75B
:10140000FEE70907090E002804DB00F1E02080F860
:101410000014704700F00F0000F1E02080F8141D68
:10142000704700000D4C0E4D0E4E4FF0FF373B46FF
:1014300001220D490D48FFF7C7FD0021206800F08B
:1014400065FF0021286800F061FF0021306800F08E
:101450005DFF0A2000F0BBF8E9E700001000002063
:1014600014000020180000208C000020E40200205E
:101470000E4D0F4CDFF83C804FF0FF364FF4006705
:101480003146286800F090FF2078352802D03628B1
:1014900002D006E0002200E0012239464046FFF774
:1014A0009FF8012000F093F8EAE700001400002004
:1014B0008C000020000801400E4D0F4CDFF83C80EE
:1014C0004FF0FF364FF480773146286800F06CFF0C
:1014D0002078302802D0312802D006E0002200E037
:1014E000012239464046FFF77BF8012000F06FF8F3
:1014F000EAE70000100000208C00002000080140F6
:10150000264E274D274C4FF0FF374FF400484FF43D
:1015100080494FF4005A4FF4805B3946306800F040
:1015200043FF2878322804D033280ED034281DD029
:1015300030E0012241462046FFF752F8002249469A
:101540002046FFF74DF801221BE0002241462046CD
:10155000FFF746F8012249462046FFF741F80022EE
:1015600051462046FFF73CF801220FE00022414699
:101570002046FFF735F8002249462046FFF730F8AD
:10158000002251462046FFF72BF8002259462046FC
:10159000FFF726F8012000F01AF8BEE71800002037
:1015A0008C000020000C0140FFF72EF8FFF73AFEF8
:1015B000FFF7B6FDFFF702FEFFF768FD00F00EF83B
:1015C000FEE701460020842900D0C81C704710B5F2
:1015D00000B9012000F0EEFB002010BD10B500F0B6
:1015E00089FC002010BD38B543684BB1012909D1F1
:1015F0000320002200901146012000F05FFD38BD5D
:10160000012901D0002038BD03220021012000F073
:1016100031FD040004D000231A46194600F0C6FD2F
:10162000204638BD7FB50D4604464169B0F9080033
:1016300081B1A16971B1FFF7C4FFD4E905128DE84A
:101640000700D4E900102B46226900F0D0FF039078
:1016500004B070BDFFF7B5FF03A9CDE90001208AF2
:101660002B4682B2D4E9001000F094FF012801D08B
:101670000020EDE70398EBE72DE9F041184C0F4609
:10168000054666692068001D00F0A6FA38B9206892
:1016900090F82C1001208840A1698143A161681C49
:1016A00007D137B12168BDE8F0410E48091D00F0AF
:1016B000D7BA20683544B5424560216805D2A06894
:1016C000BDE8F041091D00F0B3BA6068091D00F0E3
:1016D000AFFA206B854200D22563BDE8F08100009F
:1016E0002C0000204C0400202DE9F041054600F0BC
:1016F000C3FA2E4C2069401C206120682C4F10B189
:10170000E06940B32DE025602069012829D1002639
:1017100006EB860007EB800000F07CFA761C072EB3
:10172000F6D323488C3000F075FA2148A03000F041
:1017300071FA1F48B43000F06DFA1D48C83000F04F
:1017400069FA1B48DC3000F065FA19488C3060609B
:101750001430A06005E02068E96AC06A884200D8B9
:101760002560E06A401CE062E96A0120A2698840C5
:101770001043A06101EB810007EB8000291D00F000
:101780006FFA00F099FAE06900280CD02068E96A45
:10179000C06A884207D207494FF080500860BFF303
:1017A0004F8FBFF36F8FBDE8F08100002C00002049
:1017B0007003002004ED00E02DE9F041856B174631
:1017C00004460026026C82B1C7B1E068FEF748FD0E
:1017D000E168206C091AE1602268914202D26168D6
:1017E000081AE060022F16D017E02068A8B96068D8
:1017F00000F09AFF0646002060600EE0A068FEF749
:101800002FFD216CA0680844A0606168884204D361
:101810002068A06001E005B16D1E6D1CA563304617
:10182000BDE8F08110B5044690F8510058B1012888
:101830000CD002280FD0502080F31188BFF34F8FB7
:10184000BFF36F8FFEE7206B00F04AFA2046BDE839
:10185000104000F045BA10BD10484FF440614207F7
:1018600006D0C01D0D4920F00700411AC1F54061A6
:101870000B4A00230144C2E900030839103A21F061
:10188000070111604B600B600B1AC0E900139360F5
:101890004FF000405360D0607047000060040020AB
:1018A00078000020144E154CA6F1C8074FF0805860
:1018B000DFF84C9012E000BF00F0DEF9F068C56878
:1018C000281D00F089F92069401E2061E068401E53
:1018D000E06000F0F1F92846FFF7A4FFE068002877
:1018E000EAD138680128F9D9C9F80080BFF34F8FD1
:1018F000BFF36F8FF2E70000380400202C000020B7
:1019000004ED00E00346009829B10260C0E90F3100
:10191000012100F007BC0060F8E72DE9F0479A4686
:10192000DDE9098481466FF00303206B03EB82023B
:101930001044089D20F00706700707D0502080F360
:101940001188BFF34F8FBFF36F8FFEE723180A5C38
:1019500083F834200A5C12B1401C1028F6D300270B
:1019600084F84370072D00D30625E562C4E91157BA
:10197000201D00F05AF904F1180000F056F9246116
:10198000C5F107006462A061E76484F850705246B4
:101990004946304600F00EF92060B8F1000F01D042
:1019A000C8F80040BDE8F08730B5114900E01146A5
:1019B0000A688242FBD34B685C18844203D14068BA
:1019C00018444860084643681C18944209D1084CE2
:1019D000103C2468A24209D052681A4442600A6846
:1019E00012680260814200D0086030BD0460F9E7EF
:1019F0007800002010B5044600F03EF9A06B28B135
:101A00005FF0000400F058F9204610BD0124F9E70A
:101A100006484168096829B14168C968C9684968C8
:101A2000016370474FF0FF31FAE700002C000020FF
:101A300008484068401C4FF0500080F3118804D0E3
:101A4000BFF34F8FBFF36F8FFEE7BFF34F8FBFF32F
:101A50006F8FFEE7800000202DE9F041044600F082
:101A60000BF994F9455004F1240609E0606A48B185
:101A7000304600F0EFFE08B100F0CAF96D1E6DB2FD
:101A8000002DF3DC4FF0FF3684F8456000F014F9C8
:101A900000F0F2F894F9445004F1100709E02069CD
:101AA00048B1384600F0D6FE08B100F0B1F96D1E1D
:101AB0006DB2002DF3DC84F84460BDE8F04100F025
:101AC000FBB800002DE9F0410546002700F048FA78
:101AD000314E306808B9FFF7BFFEF06805424BD1C0
:101AE000C5B3083568070ED005F00700C0F108003F
:101AF0000544680707D0502080F31188BFF34F8F4B
:101B0000BFF36F8FFEE72DB37068854234D822484B
:101B1000103001460C6801E020460C466168A9427D
:101B200002D221680029F7D131688C4224D007689D
:101B30002168016060680837411B10290FD96019BE
:101B4000420708D0502080F31188BFF34F8FBFF3B6
:101B50006F8FFEE710E041606560FFF725FF616869
:101B60007068401A7060B268904200D2B060F0684D
:101B700001430020C4E9000100F0A6FE780707D069
:101B8000502080F31188BFF34F8FBFF36F8FFEE7B4
:101B90003846BDE8F081000068000020044908686C
:101BA00018B10868826C521C826408687047000093
:101BB0002C00002010B5031F4FF080741C601B1F09
:101BC00021F001011960191F024B0B6014394038D4
:101BD0000A6010BD311A0008D0E9013201699A602B
:101BE000D0E901235A604A68824201D182684A6082
:101BF000002202610868401E086008687047000003
:101C0000034B036003F154000860802010607047AC
:101C10009000002000F108014FF0FF32C0E90112EE
:101C2000C1600161002101607047002101617047BE
:101C300030B50B685A1C02D000F1080202E00269BC
:101C400004E02246546825689D42FAD953684B60E7
:101C500099608A60516008610168491C016030BD6B
:101C600042684A6093688B6093685960916008612C
:101C70000168491C01607047502080F31188BFF350
:101C80004F8FBFF36F8F0A494868401C4860012896
:101C90000CD10848006810F0FF0F07D0502080F3E7
:101CA0001188BFF34F8FBFF36F8FFEE770470000BF
:101CB0008000002004ED00E00849486828B1401E7B
:101CC000486001D180F311887047502080F311885B
:101CD000BFF34F8FBFF36F8FFEE70000800000203F
:101CE00070B5002827D0144DA0F108046168E86899
:101CF000014207D1502080F31188BFF34F8FBFF30B
:101D00006F8FFEE722683AB1502080F31188BFF34D
:101D10004F8FBFF36F8FFEE78143616000F020F9C2
:101D200060686968084468602046FFF73DFEBDE8CA
:101D3000704000F0C9BD70BD680000204FF0E02089
:101D400000210161816105494FF47A720968B1FB94
:101D5000F2F1491E4161072101617047280000200E
:101D600010B5FEF759FA114910280ED300F1E02002
:101D700090F8F0030A78904207D2502080F311883F
:101D8000BFF34F8FBFF36F8FFEE709480068896884
:101D900000F4E060884207D9502080F31188BFF337
:101DA0004F8FBFF36F8FFEE710BD00008000002053
:101DB0000CED00E010B5020014D00F48806B38B174
:101DC000502080F31188BFF34F8FBFF36F8FFEE772
:101DD00000F0C6F800211046FFF74EFC00F074FD3D
:101DE000002807D105494FF080500860BFF34F8F9E
:101DF000BFF36F8F10BD00002C00002004ED00E049
:101E000002498A6A02604969416070472C000020DB
:101E100001490120486270472C00002010B50C4693
:101E200050B1094909681831FFF702FF2046BDE8A3
:101E300010400121FFF720BC502080F31188BFF330
:101E40004F8FBFF36F8FFEE72C00002070B50400AA
:101E50004BD0A26CA2B1606C884200D30146E06A0C
:101E6000884242D0012A40D1204D2A6894420FD1A5
:101E7000502080F31188BFF34F8FBFF36F8FFEE7C1
:101E8000502080F31188BFF34F8FBFF36F8FFEE7B1
:101E9000E162A269002A02DBC1F10701A161144ECF
:101EA00000EB8000616906EB800081421DD1201D9E
:101EB000FFF792FE012150B9E06A00EB800256F86C
:101EC000222022B9AA6901FA00F08243AA61E06ADD
:101ED000AA6981401143A96100EB800006EB8000F4
:101EE000211DBDE87040FFF7BBBE70BD2C00002077
:101EF0007003002010B586B00024039405AA04A93D
:101F000003A80494FFF77CFEDDE903010094CDE90A
:101F1000011000230EA11048059A00F068FB0F493C
:101F20000028486311D0502080F31188BFF34F8FF1
:101F3000BFF36F8F4FF0FF3008630120C8614C6121
:101F400006B0BDE8104000F041B806B010BD00007A
:101F500049444C4500000000A51800082C00002052
:101F60000248816B491C8163704700002C000020EF
:101F70001448816B11B10121416270470021416217
:101F80008169B1FA81F1C1F11F0101EB81020E49B2
:101F900051F822306BB101EB820101F108034A686C
:101FA00052684A609A4201D152684A60D168016021
:101FB0007047502080F31188BFF34F8FBFF36F8FAE
:101FC000FEE700002C000020700300201CB526490D
:101FD00008780190FF20087008788DF800009DF8BF
:101FE00000009DF8002000F0F000904207D0502043
:101FF00080F31188BFF34F8FBFF36F8FFEE79DF81B
:1020000000001A4B00F0500018700720986005E09F
:102010009DF8002052008DF80020401E9DF8002001
:102020001206F5D49860032807D0502080F3118859
:10203000BFF34F8FBFF36F8FFEE74FF44070986090
:10204000019808700A48016841F470010160016854
:1020500041F070410160FFF771FE00205860FEF70B
:10206000A5F800201CBD000000E400E08000002076
:1020700020ED00E0F8B517460E46050014D0DEB19D
:1020800005FB06F04830FFF71DFD04000AD00020D4
:1020900084F8460004F148023B4631462846009445
:1020A000FFF730FC2046F8BD502080F31188BFF3C5
:1020B0004F8FBFF36F8FFEE70020E3E738B5049D35
:1020C00018B153B1CAB181B120E0502080F311881A
:1020D000BFF34F8FBFF36F8FFEE7502080F311885F
:1020E000BFF34F8FBFF36F8FFEE7502080F311884F
:1020F000BFF34F8FBFF36F8FFEE739B1502080F3EE
:102100001188BFF34F8FBFF36F8FFEE748241C4643
:10211000012384F846302B460094FFF7F3FB20465A
:1021200038BD000070B50D46040025D0FFF7A4FDB2
:10213000D4E90F20216802FB001161600021A16336
:102140002168A1600A46D4E90F01401E00FB01216D
:10215000E16021464FF0FF3001F8440F487004F170
:1021600010008DB1FFF756FD04F12400FFF752FD7A
:10217000FFF7A2FD012070BD502080F31188BFF34E
:102180004F8FBFF36F8FFEE721690029F0D000F079
:1021900061FB0028ECD004494FF080500860BFF389
:1021A0004F8FBFF36F8FE3E704ED00E02DE9FF47AA
:1021B00082B01D468A464FF00008040003D0BAF1F1
:1021C000000F08D011E0502080F31188BFF34F8F2B
:1021D000BFF36F8FFEE7206C38B1502080F3118879
:1021E000BFF34F8FBFF36F8FFEE7022D0AD1E06B75
:1021F000012807D0502080F31188BFF34F8FBFF321
:102200006F8FFEE700F01EFA3F4F4FF000094FF0CE
:10221000805648B9049838B1502080F31188BFF334
:102220004F8FBFF36F8FFEE7FFF726FDA06BE16BCB
:10223000884207D3022D05D00498D0B1B8F1000F21
:102240001AD01EE02A4651462046FFF7B5FA616AC9
:1022500019B104F1240000F0FDFA20B13E60BFF393
:102260004F8FBFF36F8FFFF727FD012006B0BDE84A
:10227000F087FFF721FD22E06846FFF7C1FD4FF030
:102280000108FFF719FDFFF76BFEFFF7F5FC94F966
:102290004400401C01D184F8449094F94500401C4E
:1022A00001D184F84590FFF707FD04A9684600F0C6
:1022B00037F930B12046FFF7CFFB00F005FB0020D7
:1022C000D4E7FFF7D9FCA06BE16B884213D1FFF78D
:1022D000F3FC04F110000499FFF7A0FD2046FFF77E
:1022E000BBFB00F0F1FA00289ED13E60BFF34F8F98
:1022F000BFF36F8F98E7FFF7DFFC2046FFF7ACFBDB
:1023000000F0E2FA90E7000004ED00E070B50E4640
:10231000040009D0206C78B1502080F31188BFF3FD
:102320004F8FBFF36F8FFEE7502080F31188BFF30C
:102330004F8FBFF36F8FFEE7206848B9606838B1F0
:10234000502080F31188BFF34F8FBFF36F8FFEE7EC
:10235000FFF706FD5020EFF3118580F31188BFF3DE
:102360004F8FBFF36F8FA16BE06B884218D994F940
:102370004500491CA163411C04D0401C84F8450061
:1023800001200EE0606A0028FAD004F1240000F079
:1023900061FA0028F4D0002EF2D001203060EFE77F
:1023A000002085F3118870BD2DE9F343002683B02A
:1023B0000400354609D0206C78B1502080F3118894
:1023C000BFF34F8FBFF36F8FFEE7502080F311886C
:1023D000BFF34F8FBFF36F8FFEE700F033F9DFF8E5
:1023E0003C814FF000094FF0805748B9049838B14C
:1023F000502080F31188BFF34F8FBFF36F8FFEE73C
:10240000FFF73AFCA06BC8B1401EA063206810B96A
:10241000FFF7C4FB6060206950B104F1100000F0C8
:1024200019FA28B1C8F80070BFF34F8FBFF36F8F50
:10243000FFF742FC012005B0BDE8F083049808B125
:1024400066B10FE03DB1502080F31188BFF34F8F8C
:10245000BFF36F8FFEE7FFF72FFC5DE06846FFF7E5
:10246000CFFC0126FFF728FCFFF77AFDFFF704FCFD
:1024700094F94400401C01D184F8449094F945003B
:10248000401C01D184F84590FFF716FC04A968466A
:1024900000F046F80028204612D0FFF7DDFA00F0E1
:1024A00013FA2046FFF7A6FA0028A9D09DB3FFF73C
:1024B000E3FB606A50B3206B0068C0F1070126E0BF
:1024C000FFF798FAE0B1206838B9FFF7D5FB6068EC
:1024D00000F076F90546FFF7EFFB04F124000499BC
:1024E000FFF79CFC2046FFF7B7FA00F0EDF9002853
:1024F00086D1C8F80070BFF34F8FBFF36F8F7FE7AF
:102500002046FFF7A9FA00F0DFF979E700216068BB
:10251000FFF79CFC9FE7FFE700208CE704ED00E05D
:102520002DE9F0410C46050011D0C4B1FFF7A4FB22
:10253000174B5A696E682068911B471C17D02F688B
:102540009B6A9F4219D0964217D8012410E0502070
:1025500080F31188BFF34F8FBFF36F8FFEE75020DA
:1025600080F31188BFF34F8FBFF36F8FFEE7002416
:10257000FFF7A2FB2046BDE8F081884205D9401A4A
:1025800020602846FFF73CFCF1E700202060DCE7F4
:102590002C0000202DE9FF5F8346DDE90E87994678
:1025A00016468A469000FFF78DFA05001CD054208D
:1025B000FFF788FA040014D00020256384F8510046
:1025C000CDE90240CDE900874B4632465146584698
:1025D000FFF7A3F92046FFF787F8012004B0BDE814
:1025E000F09F2846FFF77CFB4FF0FF30F6E7F0B591
:1025F00085B0DDE90B640A9DA6B1DCB154270097D4
:102600002663022684F85160002604AFCDE9024615
:10261000CDE90057FFF781F92046FFF765F80498E8
:1026200005B0F0BD502080F31188BFF34F8FBFF38A
:102630006F8FFEE7502080F31188BFF34F8FBFF3F9
:102640006F8FFEE70548C16919B1806B18B1002092
:102650007047012070470220704700002C000020C6
:102660002DE9F0412E4C0027A06B40B1206A401CA0
:102670002062606A00B101273846BDE8F0816669D2
:10268000761C666113D16068006838B1502080F311
:102690001188BFF34F8FBFF36F8FFEE76068A168AB
:1026A0006160A060A06A401CA062FFF7B1F9206BD6
:1026B000DFF87080864209D36068006880B1606886
:1026C000C068C568686886420DD220632068C06A09
:1026D00000EB800158F821000128CAD90127C8E77A
:1026E0004FF0FF30F1E7281DFFF776FAA86A18B11E
:1026F00005F11800FFF770FAE86A0121A26981402C
:102700001143A16100EB800108EB8100291DFFF757
:10271000A7FAE86A2168C96A8842CDD30127CBE7C6
:102720002C0000207003002070B504004FF0000161
:1027300040D0214D2868844207D0502080F3118872
:10274000BFF34F8FBFF36F8FFEE7A06C38B1401E11
:10275000A064636CE26A9A422CD040B12AE0502017
:1027600080F31188BFF34F8FBFF36F8FFEE7201DFB
:10277000FFF732FA114A012150B9E06A00EB8003F9
:1027800052F8233023B9AB6901FA00F08343AB61FF
:10279000606CE062C0F10700A061E06AAB69814053
:1027A0001943A96100EB800002EB8000211DFFF7B7
:1027B00057FA0121084670BD2C000020700300204C
:1027C00070B504004FF0000038D0204DE16A2A684F
:1027D000D26A914233D2A069002804DB2868C06A1B
:1027E000C0F10700A0611A4E01EB8101606906EBA0
:1027F000810188421ED1201DFFF7EEF9012150B959
:10280000E06A00EB800256F8222022B9AA6901FA98
:1028100000F08243AA612868C06AE062AA69814028
:102820001143A96100EB800006EB8000211DFFF73A
:1028300017FA02E02868C06AE062012070BD616C8E
:102840002A68D26A9142F8D370BD00002C000020A3
:10285000700300202DE9F041C068C468ACB104F1F8
:1028600018000746FFF7B8F9154DA86B0126A0B16F
:1028700039461448FFF7F4F9E06A2968C96A8842C2
:102880001CD901206E62BDE8F081502080F31188D0
:10289000BFF34F8FBFF36F8FFEE7201DFFF79CF94B
:1028A000E16AAA6906FA01F01043A86101EB810010
:1028B0000449B43901EB8000211DDBE70020E2E789
:1028C0002C000020240400202DE9F0472C4D00248A
:1028D0002746A86B38B1FFF7CFF9A86B401EA86355
:1028E000A86B40B146E0502080F31188BFF34F8FB2
:1028F000BFF36F8FFEE72969224E0120D1B3A6F105
:10290000B40980463068E8B1F068C46804F1180082
:10291000FFF762F9201DFFF75FF9E06AAA6908FA7C
:1029200000F11143A96100EB800109EB8100211D39
:10293000FFF796F9E06A2968C96A8842E2D3C5F8C8
:102940002480DFE70CB1FFF763F82C6A44B14646F8
:10295000FFF786FE00B16E62641EF9D10020286286
:10296000686A38B10849012738070860BFF34F8FFC
:10297000BFF36F8FFFF7A0F93846BDE8F08700007E
:102980002C0000202404002004ED00E0202A000890
:102990002514000800000000000000008000000076
:1029A0000000000000000000142A0008B91400080C
:1029B0000000000000000000800000000000000097
:1029C000000000003C2A000871140008000000000C
:1029D0000000000080000000000000000000000077
:1029E0002C2A00080115000800000000000000006B
:1029F0008000000000000000000000000000000057
:102A0000000000000102030406070809000000009E
:102A100001020304434C41575F43415443480000C3
:102A2000424C5545544F4F5448000000454D4954C1
:102A30005F454C45564154494F4E00004341544177
:102A400050554C5400000000682A00080000002087
:102A50009000000028010008F82A000890000020DB
:102A600030160000440100080000000000000000D3
:102A70000000000000000000000000000000000056
:102A80000000000001000000100000000000000035
:102A90000024F4000000000000000000000000001E
:102AA0000000000000000000000000000000000026
:102AB0000000000000000000000000000000000016
:102AC0000000000000000000000000000000000006
:102AD00000000000000000000000000000000000F6
:102AE000000000000000000000000000AAAAAAAA3E
:082AF0000000000000000000DE
:04000005080000ED02
:00000001FF
