:020000040800F2
:100000007008002089010008BB1800083B15000893
:10001000B91800088F020008A71E000800000000A1
:10002000000000000000000000000000011C0008AB
:100030009102000800000000251B0008031C0008B6
:10004000A3010008A3010008A3010008A301000800
:10005000A3010008A3010008A3010008A3010008F0
:10006000A3010008A3010008A3010008A3010008E0
:10007000A3010008A3010008A3010008A3010008D0
:10008000A3010008A3010008A3010008A3010008C0
:10009000A3010008A3010008A3010008A3010008B0
:1000A000A3010008651C0008A3010008A3010008C3
:1000B000A3010008A3010008A3010008A301000890
:1000C000A3010008A3010008A3010008A301000880
:1000D000A3010008A3010008A3010008A301000870
:1000E000A3010008A3010008A301000800F002F822
:1000F00000F03AF80AA090E8000C82448344AAF188
:100100000107DA4501D100F02FF8AFF2090EBAE885
:100110000F0013F0010F18BFFB1A43F0010318473B
:100120005422000074220000103A24BF78C878C11D
:10013000FAD8520724BF30C830C144BF04680C60ED
:10014000704700000023002400250026103A28BF35
:1001500078C1FBD8520728BF30C148BF0B60704739
:100160001FB51FBD10B510BD00F058F81146FFF7C0
:10017000F7FF01F0A9FE00F076F803B4FFF7F2FFF5
:1001800003BC00F07DF8000009488047094800479B
:10019000FEE7FEE7FEE7FEE7FEE7FEE7FEE7FEE737
:1001A000FEE7FEE704480549054A064B7047000094
:1001B000631C0008ED000008700200207008002099
:1001C00070040020700400204FF0000200B51346B8
:1001D00094469646203922BFA0E80C50A0E80C5067
:1001E000B1F12001BFF4F7AF090728BFA0E80C5018
:1001F00048BF0CC05DF804EB890028BF40F8042B11
:1002000008BF704748BF20F8022B11F0804F18BF7D
:1002100000F8012B7047704770477047754600F033
:100220002BF8AE4605006946534620F00700854688
:1002300018B020B5FFF7B6FFBDE820404FF000062C
:100240004FF000074FF000084FF0000B21F00701BE
:10025000AC46ACE8C009ACE8C009ACE8C009ACE801
:10026000C0098D46704710B50446AFF300802046A4
:10027000BDE81040FFF781BF004870470C02002026
:1002800001491820ABBEFEE7260002007047FEE7DA
:10029000704772B6FEE7000070B5044600F004F93E
:1002A0000546601C02D004480078044400F0FCF8C5
:1002B000401BA042FAD370BD000000202DE9F84F8A
:1002C000DFF8B891002409F1040A0AF1040B23466F
:1002D0000F270BF1040EC9E00125A5402A40AA42D0
:1002E0007DD1674ED1F804C0ACEB0608B44532D0DE
:1002F00014DCBCF1030F3AD009DCBCF1000F2AD0AA
:10030000BCF1010F1CD0BCF1020F31D11DE0BCF1DA
:10031000110F17D0BCF1120F2AD119E0B8F5881FC0
:1003200019D006DCB8F5803F15D0B8F5801F1FD175
:1003300011E0B8F5001F0ED0B8F5041F18D10AE07F
:10034000CB6815E0CB681B1D12E0CB6808330FE0CB
:10035000CB680C330CE08B682BB1012B4FF00803FA
:1003600003D0456104E0042302E0056100E00023BE
:10037000FF2A01D8064601E000F104064FEA840591
:1003800001D9A5F12005D6F8008007FA05FC28EA76
:100390000C0803FA05F548EA0508C6F800804D6820
:1003A000ED0062D5374DAE6946F00106AE61AD692C
:1003B00024F0030605F001050095334D06EB050C0E
:1003C000DCF80850A607360F07FA06F825EA0805F4
:1003D000DFF8B880404503D14FF0000817E044E053
:1003E000DFF8AC80404502D14FF001080FE0DFF8A4
:1003F000A480404502D14FF0020808E0DFF8988061
:10040000404502D14FF0030801E04FF0040808FA1C
:1004100006F848EA0508CCF808804D68D9F800606D
:10042000ED034D4601D5164300E096432E604D681E
:10043000DAF80060AD03554601D5164300E0964357
:100440002E604D68DBF80060ED025D4601D5164375
:1004500000E096432E604D68DEF80060AD02754600
:1004600001D5164300E096432E60641C0D682A46B1
:10047000E5407FF431AFBDE8F88F00000004014093
:10048000000011100010024000000140000801406F
:10049000000C014000100140001401400AB101614C
:1004A00070470904FBE700000148806870470000BE
:1004B0000000002002488168027811448160704782
:1004C00000000020074810B5016841F010010160EC
:1004D000032000F075F80F2000F006F800F024F873
:1004E000002010BD0020024070B50D4D04464FF4B1
:1004F0007A712878B1FBF0F00A490968B1FBF0F095
:1005000000F04FFC48B9102C07D200222146501EA3
:1005100000F036F800206C6070BD012070BD000056
:10052000000000200C0000200C4808B5816941F053
:1005300001018161816901F001010091C16941F00E
:100540008051C161C06900F080500090044841684A
:1005500021F0E06141F00071416008BD00100240EF
:1005600000000140002809DB00F01F02012191403A
:100570004009800000F1E020C0F800117047000041
:10058000F0B40E4B1B680C46C3F30223C3F10705FE
:10059000042D00D90425191D072901D2002300E0EC
:1005A000DB1E012606FA05F1491E214099409E40B6
:1005B000761E16403143F0BC01F076BC0CED00E035
:1005C000064900F0070208684FF6FF03184040EAAA
:1005D0000220034A10430860704700000CED00E061
:1005E0000000FA052DE9F0470F46050061D0434EA3
:1005F000306800F00700B84209D2306820F00700E8
:1006000038433060306800F00700B84251D12868A4
:100610003B4C810712D5400703D5606840F4E06089
:1006200060602878000703D5606840F4605060601F
:100630006068A96820F0F000084360602878C0076F
:1006400028D06868012810D02168022810D08907B6
:1006500000292EDA616821F0030101436160FFF790
:1006600023FF804641F288390DE021688903EFE7D6
:100670008901EDE7FFF718FFA0EB0801494502D912
:100680000320BDE8F0876068696800F00C00B0EBFB
:10069000810FEFD1306800F00700B8420BD9306805
:1006A00020F0070038433060306800F00700B8429F
:1006B00001D00120E5E72878400705D56068E968A2
:1006C00020F4E060084360602878000706D5606881
:1006D000296920F4605040EAC100606000F018F819
:1006E0006168084AC1F30311515CC84006490860BB
:1006F00006480068FFF7F8FE0020C2E7002002402D
:1007000000100240622300080C00002004000020BA
:1007100012A185B00FC98DE80F0014A0144A00681B
:1007200004905168134801F00C03042B10D0082BDF
:100730000ED1C1F38343C9031DF803000AD55168E4
:1007400004AAC1F34041515C0A4A5043B0FBF1F0A6
:1007500005B0704708494843FAE700000203040562
:10076000060708090A0B0C0D0E0F101001020000FD
:100770000010024000127A0000093D002DE9F84FF8
:10078000040070D02078C04DC00749D06868C0F31D
:100790008100012807D06868C0F38100022809D1D0
:1007A0006868C00306D52868800339D560680028CA
:1007B000E7D035E06068B0F5803F0BD010B1B0F500
:1007C000A02F11D0286820F480302860286820F4F9
:1007D000802002E0286840F480302860606890B192
:1007E000FFF762FE06460AE0286840F48020286091
:1007F000F0E700BFFFF758FE801B642873D8286815
:100800008003F7D50CE0FFF74FFE064605E000BF7A
:10081000FFF74AFE801B6428F0D828688003F7D4CD
:1008200020789A4E80074FF001094FF0000839D523
:10083000686810F00C0F07D06868C0F381000228C8
:1008400009D16868C00306D42868800714D52069D8
:10085000012808D110E02069B0B1C6F80090FFF778
:1008600023FE074605E00AE1FFF71EFEC01B022833
:10087000C4D828688007F7D52868616920F0F80097
:1008800040EAC10028600DE0C6F80080FFF70CFECA
:10089000074604E0FFF708FEC01B022823D828689B
:1008A0008007F7D4207800072CD57948A169D9B101
:1008B000C0F80090FFF7F8FD074604E0FFF7F4FDED
:1008C000C01B02280FD8686A8007F7D571484FF41B
:1008D000FA510068B0FBF1F0009000BF0098411E93
:1008E0000091FAD20EE080E0C0F80080FFF7DCFD56
:1008F000074604E0FFF7D8FDC01B022875D8686AD8
:100900008007F7D42078400760D5E8690027C00049
:1009100008D4E86940F08050E861E869012700F0F8
:10092000805000905C480168C90513D40168834673
:1009300041F480710160FFF7B7FD824606E000BF19
:10094000FFF7B2FDA0EB0A0064284ED8DBF80000E8
:10095000C005F5D5E06801280AD008B1052813D0F4
:10096000286A20F001002862286A20F0040002E0D2
:10097000286A40F001002862E06841F2883B98B1A3
:10098000FFF792FD82460BE0286A40F004002862DF
:10099000EEE700BFFFF788FDA0EB0A0159455AD8E2
:1009A000286A8007F6D50CE0FFF77EFD824605E059
:1009B000FFF77AFDA0EB0A0159454CD8286A800759
:1009C000F6D41FB1E86920F08050E861E06988B38F
:1009D0006968C1F38101022944D00228C6F8608009
:1009E00004D0FFF761FD044638E034E0FFF75CFD1A
:1009F000074604E0FFF758FDC01B02282BD82868E3
:100A00008001F7D4206AB0F5803F05D16868A168FD
:100A100020F4003008436860D4E90801084369689D
:100A200021F4741108436860C6F86090FFF73CFD3C
:100A3000044606E025E000BFFFF736FD001B022854
:100A400009D828688001F7D51BE000BFFFF72CFD0F
:100A5000001B022802D90320BDE8F88F2868800116
:100A6000F4D40EE00128F7D06868226A00F48031DF
:100A7000914204D1616A00F47010884201D00120D3
:100A8000EAE70020E8E700000010024000004242D0
:100A9000800442420C0000200070004070B5040049
:100AA00009D0606A002540B125616561A56294F8AE
:100AB000510040B10CE0012070BD6068B0F5827F4C
:100AC000F4D0E561F2E784F85050204600F040F899
:100AD000022084F851002068016821F04001016083
:100AE000A088218900F4827001F404410843A1899F
:100AF00001F400610843217C01F002010843217DDB
:100B000001F001010843218B01F400710843217FAA
:100B100001F03801084394F8201001F080010843E7
:100B2000218D01F40051084321680860A069042167
:100B300001EA1040216848602068C16921F4006121
:100B4000C1616565012084F85100002070BD00007E
:100B500030B585B000240094019402940394006899
:100B60001449884223D11448816941F4805181613C
:100B7000816901F480510491816941F0040181612E
:100B800080690E4D00F004000490A0200090022027
:100B900001900320039069462846FFF78FFB402011
:100BA000CDE90004694628460294FFF787FB05B0AB
:100BB00030BD00000030014000100240000801403C
:100BC0002DE9F84F044690F8500000270A9E1D4674
:100BD00092468B464FF0010901280ED0012084F87F
:100BE0005000FFF761FC804694F8510061680128CD
:100BF0000CD0B1F5827F07D102E00220BDE8F88F6A
:100C0000A16809B9042801D00227C2E0BBF1000F96
:100C100027D0BAF1000F24D01DB394F85100042856
:100C200002D0052084F8510000206065C4F838A087
:100C3000E587A587C4F830B0E586A58620646064A2
:100C400020680168490603D4016841F04001016051
:100C5000E068B0F5006F606805D0E8B3012D46D0BC
:100C60007FE0012795E008B1012D39D1206B216883
:100C70000088C860206B801C2063E08E401EE086E8
:100C80002EE02068816889070FD5E18E69B1B9F13E
:100C9000010F0AD1216B0988C160206B801C206381
:100CA000E08E401EE0864FF0000920688168C90789
:100CB0000CD0E18F51B1C068A16B0880A06B801C83
:100CC000A063E08F401EE0874FF00109FFF7ECFBC7
:100CD000A0EB0800B04200E009E001D3701C50D145
:100CE000E08E0028CDD1E08F0028CAD13FE0206BF4
:100CF000216800780873206B401C2063E08E401E42
:100D0000E0862EE02068816889070FD5E18E69B101
:100D1000B9F1010F0AD1216B09780173206B401CD6
:100D20002063E08E401EE0864FF000092068816855
:100D3000C9070CD0E18F51B1C068A16B0870A06BDE
:100D4000401CA063E08F401EE0874FF00109FFF7D1
:100D5000ABFBA0EB0800B04202D3701C01D010E046
:100D60007EB1E08E0028CDD1E08F0028CAD1424666
:100D70003146204600F0D7FE28B1012720206065CB
:100D800007E0032705E0A06818B92068C1688068FB
:100D90000090012084F85100002084F8500038466B
:100DA0002CE710B5401EB0F1807F01D3012010BDAB
:100DB0004FF0E02460610F21601701F075F800200A
:100DC000A06107202061002010BD7047704700001F
:100DD00070B590F83C20012A26D0012480F83C40D0
:100DE000022280F83D2003685A689D6822F0700650
:100DF0000A6832435A600D4B02689A4208D0B2F139
:100E0000804F05D00A4B9A4202D00A4B9A4204D135
:100E1000496825F080031943916080F83D40002126
:100E200080F83C10084670BD022070BD002C0140C7
:100E3000000400400008004010B5040003D094F8FE
:100E40003D0010B107E0012010BD002084F83C00F7
:100E5000204600F01FF8022084F83D00211D206884
:100E600000F006FF012084F8460084F83E0084F874
:100E70003F0084F8400084F8410084F8420084F880
:100E8000430084F8440084F8450084F83D000020C5
:100E900010BD000008B51C4A01681C48914211D1E0
:100EA000816941F4006181618069002200F4006081
:100EB000009011461920FFF763FBBDE80840192098
:100EC000FFF750BBB1F1804F0BD0114A914210D1C6
:100ED000C16941F00201C161C06900F002000090E7
:100EE00008BDC16941F00101C161C06900F00100A4
:100EF000F5E7084A9142F3D1C16941F00401C161AB
:100F0000C06900F00400EAE7002C01400010024034
:100F1000000400400008004090F83D10012901D075
:100F200001207047022180F83D1000680B4988427B
:100F300008D0B0F1804F05D00949884202D0094954
:100F4000884204D1816801F00701062903D00168B5
:100F500041F001010160002070470000002C0140B9
:100F6000000400400008004090F83D10012901D025
:100F700001207047022180F83D100168CA6842F0E4
:100F80000102CA6000680B49884208D0B0F1804F66
:100F900005D00949884202D00849884204D18168B5
:100FA00001F00701062903D0016841F00101016049
:100FB00000207047002C0140000400400008004061
:100FC00070B5044690F83C00012817D0012584F83C
:100FD0003C50022084F83D002068826822F07702AD
:100FE00022F47F4282600868502830D00DDC20282F
:100FF0004DD005DC98B310283BD148E0022070BDED
:10100000302844D0402834D139E0602828D07028D6
:1010100006D0B0F5805F2CD0B0F5005F29D10AE092
:10102000CB68D1E90121206800F065FE2068816865
:1010300041F0770109E0CB68D1E90121206800F097
:101040005AFE2068816841F48041816011E0CA68DD
:101050004968206800F004FF5021206807E016E08E
:10106000CA684968206800F00CFF6021206800F021
:101070004CFE84F83D50002084F83C0070BDCA68E6
:101080004968206800F0ECFE40212068EFE7226804
:1010900001461046EBE7704770B5044600680169E9
:1010A0004FF00005C943890715D4C168C9438907B2
:1010B00011D4E91E01610120207720688069800732
:1010C000204602D0FFF7E7FF04E000F0F3F82046E7
:1010D00000F082F9257720680169C943490717D4D0
:1010E000C168C943490713D46FF0040101610220AC
:1010F00020772068806910F4407F204602D0FFF7F7
:10110000CAFF04E000F0D6F8204600F065F9257724
:1011100020680169C943090716D4C168C943090792
:1011200012D46FF008010161042020772068C069A3
:101130008007204602D0FFF7AEFF04E000F0BAF8C7
:10114000204600F049F9257720680169C943C9069E
:1011500017D4C168C943C90613D46FF010010161E7
:10116000082020772068C06910F4407F204602D014
:10117000FFF791FF04E000F09DF8204600F02CF905
:10118000257720680169C943C90708D1C168C943E7
:10119000C90704D1891E0161204600F06DF920685D
:1011A0000169C943090609D4C168C943090605D4C0
:1011B0006FF0800101612046FFF707FE206801699A
:1011C000C943490609D4C168C943490605D46FF02B
:1011D00040010161204600F0AFF920680169C94370
:1011E00089060BD4C168C943890607D46FF0200172
:1011F00001612046BDE87040FFF7E8BD70BD00000A
:1012000010B586B00021009101910291039103680D
:10121000224A0221B3F1804F1DD0214C2148A34224
:1012200028D1936943F0080393619269039102F016
:10123000080204921222CDE900216946FFF73EF828
:101240001948416821F4406141F0E06141F40061D6
:10125000416006B010BD906940F004009061906953
:10126000039100F0040004900120CDE900016946DB
:101270000E480FE00E4CA342EBD1936943F00803F4
:1012800093619269039102F0080204924022CDE931
:1012900000216946FFF712F8DBE70000001002406A
:1012A00000040040000C0140000001400008014023
:1012B00000080040704770B5044690F83C000D46A9
:1012C00001280AD0012084F83C0042B1042A18D039
:1012D000082A2AD00C2A4DD139E0022070BD20689E
:1012E00000F01CFD2068816941F0080181612068DF
:1012F000816921F004018161206881692A691143B3
:1013000011E0206800F032FD2068816941F400613D
:1013100081612068816921F480618161206881692F
:101320002A6941EA0221816124E0206800F04AFD37
:101330002068C16941F00801C1612068C16921F0DC
:101340000401C1612068C1692A69114311E0206864
:1013500000F064FD2068C16941F40061C16120684A
:10136000C16921F48061C1612068C1692A6941EACB
:101370000221C161002084F83C0070BD10B504005A
:1013800003D094F83D0010B107E0012010BD00200B
:1013900084F83C00204600F01EF8022084F83D004E
:1013A000211D206800F064FC012084F8460084F8C8
:1013B0003E0084F83F0084F8400084F8410084F83F
:1013C000420084F8430084F8440084F8450084F81F
:1013D0003D00002010BD70477047000010B5044666
:1013E000022249B104290ED0082913D094F84100F3
:1013F000012816D0012010BD94F83E000128F9D133
:1014000084F83E200FE094F83F000128F2D184F8E0
:101410003F2008E094F840000128EBD184F84020F8
:1014200001E084F841200122206800F057FC0F49B8
:101430002068884203D1426C42F400424264206832
:10144000884208D0B0F1804F05D00949884202D0C7
:101450000849884204D1816801F00701062903D0B8
:10146000016841F001010160002010BD002C014025
:1014700000040040000800402DE9F041284E0068BB
:10148000316888424AD1274F002201213846FFF7B0
:1014900005F8002204213846FFF700F8224D234CBE
:1014A000E86CB0F5000F0EDB012211463846FEF75E
:1014B000F5FF002204213846FEF7F0FFE86C2060BB
:1014C0006060A060E060E86C10F1FF4F10D3002274
:1014D00001213846FEF7E2FF012204213846FEF7DB
:1014E000DDFFE86C80F0004020606060A060E0609C
:1014F000206800F0C1FD31684863606800F0BCFD01
:1015000031680864A06800F0B7FD094909684863BC
:10151000E06800F0B1FD074909684863BDE8F08163
:101520007C000020000C0140BC01002014000020C1
:101530000C010020540100207047FEE72DE9F04324
:1015400085B0002432480094019402940394816988
:1015500041F010018161816901F0100104918169FC
:1015600041F020018161816901F0200104918169CC
:1015700041F004018161816901F0040104918169F4
:1015800041F0080181618069224F00F008004FF4AA
:1015900000550490002229463846FEF77FFFDFF809
:1015A0007880002248F216014046FEF777FFDFF808
:1015B0006C900022AD214846FEF770FF0095022690
:1015C00001250396CDE9015469463846FEF776FEBB
:1015D00048F20600CDE90005CDE9024669464046DD
:1015E000FEF76CFE1020CDE900050320CDE9024096
:1015F00069464046FEF762FEAD20CDE90005CDE923
:10160000024669464846FEF759FE05B0BDE8F0833C
:10161000001002400010014000080140000C014091
:10162000104810B50E4901604FF4827141600021ED
:1016300002228160C0E903121202C0E905123822B9
:10164000C2618022C0E9082181620A21C162FFF7DC
:1016500025FA002803D0BDE81040FEF71ABE10BDE1
:10166000003001402400002010B586B00024184846
:101670000094019402940394049414490594016025
:1016800041F6FF01C0E9011440F2E731C0E903145B
:1016900044618461FFF7D0FB08B1FEF7FAFD4FF417
:1016A0008050009069460A48FFF78AFC08B1FEF7AF
:1016B000F0FD049404A906480594FFF789FB00286F
:1016C00001D0FEF7E6FD06B010BD0000002C014081
:1016D0007C00002010B58EB0002407940894099473
:1016E0000A940B941C2168460C94FEF76DFD1E486D
:1016F0004FF08041016040F23F61C0E9011440F2C7
:10170000FF41C0E903148461FFF796FB08B1FEF7BF
:10171000C0FD4FF48050079007A91348FFF750FC15
:1017200008B1FEF7B6FD1048FFF728FE08B1FEF736
:10173000B0FD0B940BA90C480C94FFF749FB08B1C2
:10174000FEF7A7FD6020CDE900040294002269465F
:1017500005480494FFF7AFFD08B1FEF79AFD024873
:10176000FFF74EFD0EB010BDC400002010B58EB0C6
:1017700000240794089409940A940B941C21684649
:101780000C94FEF721FD24482249016040F23F619C
:10179000C0E9011440F2FF41C0E903148461FFF77E
:1017A0004BFB08B1FEF775FD4FF48050079007A979
:1017B0001948FFF705FC08B1FEF76BFD1648FFF767
:1017C000DDFD08B1FEF765FD0B940BA912480C94E2
:1017D000FFF7FEFA08B1FEF75CFD6020CDE90004DA
:1017E000022002900022694604940B48FFF763FD33
:1017F00008B1FEF74EFD0C22694607480294FFF738
:101800005AFD08B1FEF745FD0348FFF7F9FC0EB09D
:1018100010BD0000000400400C01002010B58EB087
:1018200000240794089409940A940B941C21684698
:101830000C94FEF7C9FC1F481D49016040F23F614E
:10184000C0E9011440F2FF41C0E903148461FFF7CD
:10185000F3FA08B1FEF71DFD4FF48050079007A979
:101860001448FFF7ADFB08B1FEF713FD1148FFF771
:1018700085FD08B1FEF70DFD0B940BA90D480C94E6
:10188000FFF7A6FA08B1FEF704FD6020CDE90004D9
:10189000022002900022694604940648FFF70BFDDF
:1018A00008B1FEF7F6FC0348FFF7AAFC0EB010BD26
:1018B0000008004054010020FEE7FEE710B500F0EC
:1018C000ADF800F005F8BDE8104000F0F1B80000F8
:1018D0002DE9F04F504A91B0D078C043C3B29C0775
:1018E0004FEA146C5C07D370270E10791C07260E84
:1018F000C043DC06C1B2250E9C06D8074FEA146926
:101900004FEA10685C0602F109001171DB09C3712E
:101910000D93CB074FEA136A8B074FEA136B4B0704
:101920001B0E01930B071B0E0793CB061B0E09938F
:101930008B061B0E06934B061B0EC9090893C17339
:1019400005914FEAD81101700E914FEADC114170F8
:101950000491F90981700C91F109C170240E0F9165
:10196000ED094FEAD911057141718E464FEAD4183D
:1019700080F806804FEADA1101724FEADB170B910B
:101980004772019B00F11704DE098672079B4FEA3C
:10199000D31980F80B90099BD9090173069B8A46DD
:1019A000D9094173089B8B464FEAD31C80F80EC0BF
:1019B0000E992160049961600C99A1600F9904F15E
:1019C0000C03C4F8188083E822400D9BE3610B9957
:1019D000C4E9081704F1280181E8401E0599E16374
:1019E0005179017497794774D6798674157AC574DC
:1019F000084600F061FB2064384600F05DFB60643F
:101A0000304600F059FBA064284600F055FBE06426
:101A100011B0BDE8F08F00009C0100202DE9F843D3
:101A2000DFF87C80002210214046FEF737FD4FF69C
:101A3000FF7401231B4A1C491C480094FFF7C0F89F
:101A4000032000F09DFA174D174E01236A1C711CEC
:101A500016480094FFF7B4F8032000F091FA012330
:101A6000AA1CB11C11480094FFF7AAF8032000F04B
:101A700087FA0327EA190123B11C0C480094FFF7E9
:101A80009FF8032000F07CFA7F1CFFB2092FF1D3EE
:101A90004046BDE8F84301221021FEF7FFBC0000DC
:101AA000000801409C0100201000002024000020BC
:101AB0002DE9F047174C4FF086463146206C00F078
:101AC000DBFB154F05463946606C00F0D5FB8146BF
:101AD0003146A06C00F0D0FB80463946E06C00F047
:101AE000CBFB0E4F06463946284600F0F9FA0C4D5E
:101AF00020642946484600F0F3FA606439464046BF
:101B000000F0EEFAA0642946304600F0E9FAE064FD
:101B1000BDE8F087BC0100200000FE42000020412B
:101B2000000020C1704738B50B46009204460022E1
:101B3000802100F009F8002804D0606D40F02000FA
:101B40006065032038BD00002DE9F8431E4691462C
:101B500088460446089DFEF7A7FC401B351AFEF791
:101B6000A3FC074625480068C0F3CB30684338E043
:101B7000701C37D0FEF798FCC01BA84203D215B1E9
:101B8000009860B32CE02068416821F0E0014160DA
:101B90006068B0F5827F0BD1A068B0F5004F02D02D
:101BA000B0F5806F04D12068016821F04001016028
:101BB000A06AB0F5005F09D12068016821F40051E6
:101BC00001602068016841F400510160012084F83F
:101BD0005100002084F850000320BDE8F883002560
:101BE000401E00902068816838EA010004D000217E
:101BF0004945BDD10020F0E70121F9E70C000020A4
:101C00007047FEF757BC30B58FB028216846FEF705
:101C1000DBFA14210AA8FEF7D7FA02250120049066
:101C200000951020059000244FF46010CDE9084085
:101C300007956846FEF7A2FD08B172B6FEE70F20D1
:101C4000CDE90A054FF48060CDE90C4002210AA8D5
:101C50000E94FEF7C7FC002801D072B6FEE70FB065
:101C600030BD70470148FFF717BA00007C00002024
:101C7000F0B50268164B174C174D4FF0804798424D
:101C800005D0B84203D0A04201D0A84203D122F02F
:101C900070064A683243984205D0B84203D0A04249
:101CA00001D0A84203D122F44074CA6822434C698F
:101CB00022F08002224302608A68C2620A6882625D
:101CC000984201D10969016301214161F0BD000021
:101CD000002C0140000400400008004010B501F055
:101CE0001F030121046A99408C430462016A9A40EF
:101CF0001143016210BD10B5846842EA032224F446
:101D00007F440A432243826010BD826822F0700241
:101D10000A4342F0070181607047000030B5026A53
:101D200022F001020262026A4368846924F07305AA
:101D30000C682C4322F002058A682A430A4DA84207
:101D40000BD122F00805CA6823F440732A434D6979
:101D500022F004021D438B692B4343608461496870
:101D60004163026230BD0000002C014030B5026AC0
:101D700022F010020262026A436884690D6824F44A
:101D8000E64444EA05248D6822F0200242EA051266
:101D90000B4DA8420ED1CD6822F0800242EA051216
:101DA0004D6923F4406343EA85038D6922F04002C4
:101DB00043EA85034360846149688163026230BD00
:101DC000002C014030B5026A22F480720262036A7C
:101DD0004268C46923F4007324F073050C682C4333
:101DE0008D6843EA05230C4DA8420ED1CD6823F43B
:101DF000006343EA05234D6922F4405242EA05128A
:101E00008D6923F4806342EA05124260C461496827
:101E1000C163036230BD0000002C014030B5026A8E
:101E200022F480520262046A4268C3690D6823F496
:101E3000E64343EA05238D6824F4005444EA05345C
:101E4000064DA84204D14D6922F4804242EA85122F
:101E50004260C36149680164046230BD002C0140E6
:101E600010B5036A046A24F001040462846924F052
:101E7000F00444EA021423F00A020A438461026275
:101E800010BD10B5036A23F0100303628369046A6E
:101E900023F4704343EA023224F0A00343EA011121
:101EA0008261016210BDFEE70907090E002804DB0C
:101EB00000F1E02080F80014704700F00F0000F1FE
:101EC000E02080F8141D7047FEF7FCFAFFF79BFE38
:101ED000FFF734FBFFF7A4FBFFF7C6FBFFF7FAFBA6
:101EE000FFF744FCFFF79AFC2048FFF73DF8204835
:101EF000FFF712F800211E48FFF770FA0C211C486A
:101F0000FFF76CFA1B48FFF707F800211948FFF7A5
:101F100065FA1948FFF700F800211748FFF75EFA45
:101F20000122164D540321462846FEF7B7FAC82071
:101F3000FEF7B2F9002221462846FEF7AFFAC82084
:101F4000FEF7AAF9012221462846FEF7A7FAC82083
:101F5000FEF7A2F9002221462846FEF79FFA00BFAD
:101F6000FFF7ACFC0320FEF797F9F9E7C400002067
:101F70007C0000200C0100205401002000100140D2
:101F800015E00A2100BF00BF00BF00BF00BF00BFB7
:101F900000BF00BF00BF00BF00BF00BF00BF00BF49
:101FA00000BF491E11F0FF01ECD1401E80B2002895
:101FB000E7D1704790EA010F48BF81F0004100F17E
:101FC0006281421A3CBF801A89184FEAD0524FF002
:101FD0007F4C1CEA410FA2EBD15318BF9CEA026F61
:101FE00000F03B804FF0004C4CEA00204CEA01210D
:101FF00021FA03FC10EB0C0C1ED202F1FF325FEA57
:102000001C2040EBC25038BF70471CF07F0F4FEAD6
:10201000400C18BFBCF17F4F38BF7047C3F120039D
:10202000994008BF20F00100BCF17F4F38BF7047D6
:10203000A0F1C04000F01BB94FEA3C00000A40EBA1
:10204000C25028BF1CF0FF0F4FEA400CE6D018BF6B
:10205000BCF17F4F38BF7047EAE79CEA026F05D0BA
:1020600010EA5C0F08BF00F00040704710B500F0A8
:10207000B8F800BF64FBBE3EC10DD1F19E0206DB85
:102080004FEA002343F0004323FA02F07047004276
:1020900007D54FEA4001B1F1FE4F02D24FF00000E8
:1020A000704710B500F09DF84992248000207047D9
:1020B0006FEA200070470000B0FA80F310FA03F2D4
:1020C000C3F19D030AD0D90501EB1220530638BF96
:1020D000704700F1010008BF20F0010070470000C8
:1020E0004FF47F0C1CEAD0121EBF1CEAD11392EAF7
:1020F0000C0F93EA0C0F00F0478090EA010F48BFE5
:1021000042F480724FF0004C4CEA00204CEA01216E
:1021100002EB0302A0FB0113A2F50002002918BF85
:1021200043F001035B0028BF4FEA330342EB224236
:102130005FEA132C4CEBC2502EBFBCEB436FB2F5E1
:102140007C0F70474FEA036CBCF1004F08BF20F0D2
:102150000100B2F57C0F38BF70470BD582F0FF024B
:1021600012F5803FC8BF704700F1C040D8BF00F0F3
:102170000040704700F5000C5FEA4C0C48BF704708
:10218000B0F1C04000F073B890EA010F0CEAD1132F
:1021900048BF42F48072624538BF634504D280EA8A
:1021A000010000F00040704710B500F01AF800BFC1
:1021B0008900013E00F007B800F009B85FEA410C61
:1021C0005FEA1C6C08D080EA010000F050B85FEABA
:1021D000400C5FEA1C6CF6D14FF00040A0F5800087
:1021E00070470EF1020E2EF0030E5EF8044B2442EF
:1021F00004D44FEA4102B2F17F4F11D84FEA4003B5
:10220000B3F17F4F0CD80ED14FEAD07CB2F17F4FA3
:102210000CEB4C0C0CF1020C08BF4CEBD17C04E035
:102220004FF0080C01E04FEAD17C0CEB4C0324FA90
:1022300003F404F00704B4F1040C06D20EEB840C92
:10224000BDE810404CF0010C6047DFE80CF00708D7
:1022500002024FF00040A0F5800010BD0846420089
:1022600018BFD2F1807288BF00F0004010BDFF217E
:1022700041EAD050C005704790EA010F48BF81F095
:1022800000413FF59EAE421A04D882F00042A0EB16
:10229000020011444FEAD0524FF07F4C1CEA410F2C
:1022A000A2EBD15318BF9CEA026F4AD04FF0004C0A
:1022B0004CEA00204CEA012121FA03FCB0EB0C0CA3
:1022C0000FD412F0FE0F36D05FEA4C001DD500127D
:1022D00040EBC25038BF70471CF03F0F18BF70472B
:1022E0000BE0A2F101025FEA1C2040EBC25038BFB4
:1022F00070471CF07F0F18BF7047C3F1200399404F
:1023000014BF401E20F00100704780084FEA1223DE
:1023100008BF7047B0FA80FCA2EB0C02CCF1280C8D
:1023200060FA0CF093EA122F04BF00EBC250704722
:102330004FEAC3707047130A5FEADC1008BF7047AA
:10234000F6E79CEA026F04D010EA5C0F08BF002099
:10235000704710B5FFF745FF40DFF63E81F00040C3
:10236000704700000000000000000102030406079F
:102370000809000094230008000000202400000049
:1023800028010008B8230008240000204C080000A1
:1023900044010008010000001000000000000000DF
:1023A0000024F400014200000000000000000000D2
:0823B000000000000000000025
:04000005080000ED02
:00000001FF
